:020000040800F2
:1000000038870020E94D0008294A00082B4A0008DB
:100010004B4A00084D4A00084F4A00080000000003
:10002000000000000000000000000000092C000893
:10003000514A000800000000B12B0008534A000894
:10004000514E0008554E0008594E00085D4E0008FC
:10005000614E00085F4A0008654E0008694E0008BE
:100060006D4E0008714E0008754E0008794E00086C
:100070007D4E0008814E0008854E0008894E00081C
:100080008D4E0008914E0008954E0008994E0008CC
:100090009D4E0008A14E0008A54E0008A94E00087C
:1000A000AD4E0008B14E0008B54E0008B94E00082C
:1000B000BD4E0008C14E0008C54E0008C94E0008DC
:1000C000CD4E0008D14E0008D54E0008D94E00088C
:1000D000DD4E0008E14E0008E54E0008B93D00087D
:1000E000E94E0008ED4E0008F14E0008F54E0008FC
:1000F000F94E0008FD4E0008014F0008054F0008AA
:10010000094F00080D4F0008114F0008154F000857
:10011000194F00081D4F0008614A0008214F0008D0
:10012000254F0008294F00082D4F0008314F0008C7
:10013000354F0008394F00083D4F0008414F000877
:10014000454F0008494F00084D4F0008514F000827
:10015000554F0008594F00085D4F0008614F0008D7
:10016000654F0008694F00086D4F0008714F000887
:10017000754F0008794F00087D4F0008000000000F
:10018000814F0008854F00082DE9F04FA1B080464F
:10019000002017461D4602910B900DF1440A6FF0A6
:1001A00000490AE017F8011B0298C0470028029096
:1001B00000F0AB820B98401C0B90387808B90B9874
:1001C000A5E22528EED10020059006900790089022
:1001D00009900A9001E040F0010017F8011F202962
:1001E000F9D023290DD02B2904D02D2906D0302970
:1001F0000AD00CE040F0020080B2EEE740F00400CC
:10020000FAE740F00800F7E740F01000F4E72A2989
:100210000ED12968296051F8042B2960002A0D921B
:1002200004D5514240F004000D9180B27F1C11E0D2
:1002300000210D9109E00D99494505D001EB81039D
:1002400002EB430130390D917F1C3A78A2F1300165
:100250000A29F0D339782E2903D04FF0FF310C91C1
:100260001DE017F8011F2A2907D1296829607F1C82
:1002700051F8042B29600C9211E000210C9109E047
:100280000C99494505D001EB810302EB430130395C
:100290000C917F1C3A78A2F130010A29F0D3ADF815
:1002A00038000FF66040397800F03EFE08B117F8CC
:1002B000010B8DF83A009DF83A00682802BF3978A2
:1002C0006829622005D06C2804BF38786C2803D1D7
:1002D00071208DF83A007F1C11A8049017F8014B8B
:1002E000B4F1250029D01C3800F0C280001F02287C
:1002F00040F2BE80133800F0E380093800F0B88087
:10030000801E00F04A81401E00F02381401E02281A
:1003100040F2AE80001F00F01C81401F79D0401ECB
:1003200000F0CE80401E24D0C01E0BD0801E00F0F6
:10033000C780C01E00F0C48039E125208DF844003C
:1003400001203DE12868286050F8046B286003967E
:100350000C9C002C04D5304600F0F2FD044606E06B
:1003600022460021304600F007FE00B1841B0694AF
:1003700027E1296829603C2451F8040B29600021F9
:10038000CDE9000111A80390DDE90001049E11B937
:1003900008B90C9AB2B10206120FA0EB0212303269
:1003A000D2B2631E3A2AA8BF273200099A5540EA02
:1003B0000170090908BF00281C4603D0039AA3193D
:1003C0009A42E8D3A0190390C4F13C010C9806911D
:1003D000814209DA401A08904FF6EF71BDF83800F3
:1003E0000840ADF83800ECE0002840F1EA809DF8C4
:1003F000380000F01400102840F0E3800D98059AB2
:10040000801A089A801A441A012CC0F2DA800894E3
:10041000D7E09DF83A0062281AD0682806D06A28EA
:100420000CD06C281CD0712808D019E028682860EE
:1004300050F8041B28600B980880C2E028682860E8
:1004400050F8042B28600B98C117C2E90001B8E0EE
:100450002868286050F8041B28600B980870B0E0EA
:100460002868286050F8041B28600B980860A8E0F2
:100470002868C01D20F007022A60D2E90001083276
:100480002A60CDE90001002902D505982D210AE056
:10049000BDF83800810702D505982B2103E0C0077D
:1004A00005D50598202100F80A10401C059011A8D8
:1004B0000599081803902146684600F0E5F980E0A8
:1004C0009DF83A006C280DD0712818BF6A2809D110
:1004D0002868C01D20F007022A60D2E90001083216
:1004E0002A6005E02968296051F8040B2960002181
:1004F000CDE900019DF83A00682803D1DDE900014B
:1005000080B20BE0622803D1DDE90001C0B205E052
:10051000742818BF7A2804D1DDE900010021CDE953
:1005200000019DF8380000072ED5DDE90001002903
:1005300008BF002828D044F02000782824D105984E
:10054000302100F80A10401C411C059100F80A40B7
:100550001AE09DF83A00294600F0DCF8CDE90001E8
:10056000002902DA05982D210AE0BDF8380081073C
:1005700002D505982B2103E0C00705D50598202159
:1005800000F80A10401C059011A80599081803905E
:100590002146684600F0F5F813E001200590286830
:1005A000286050F8041B28608DF8441009E02520CD
:1005B0008DF84400012005901CB18AF8014002200A
:1005C00005900D980599401A0899401A0699401A05
:1005D0000999401A0799401A0A99441A9DF8380057
:1005E000400710D420208DF84000002609E00123A8
:1005F00010AA6946404600F06EFC002840F0858055
:10060000761CA642F3DB059E0DF1440B0AE01BF8B5
:10061000011B0298C0470028029076D00B98401C1E
:100620000B90761E002EF2D130208DF840004FF056
:10063000000B089E09E0012310AA6946404600F01D
:100640004AFC002861D10BF1010BB345F3DB069E98
:10065000DDF80CB00AE01BF8011B0298C047002827
:10066000029052D00B98401C0B90761E002EF2D1B7
:1006700030208DF840004FF0000B099E09E0012367
:1006800010AA6946404600F026FC00283DD10BF137
:10069000010BB345F3DB03980699079E01EB000BB2
:1006A00009E01BF8011B0298C047029068B30B9841
:1006B000401C0B90761E002EF3D130208DF84000A8
:1006C0004FF0000B0A9E08E0012310AA694640463D
:1006D00000F001FCC8B90BF1010BB345F4DB9DF848
:1006E000380040077FF569AD20208DF840000026D6
:1006F00000E0761CA642BFF660AD012310AA694651
:10070000404600F0E8FB0028F3D04FF0FF3021B066
:10071000BDE8F08F622826D068281DD06A2808D04E
:100720006C2827D0712804D0742823D07A280CD0C4
:1007300020E00868C01D20F007000860D0E9002311
:10074000083008601946104670470A680A6052F877
:10075000040B0A60002170470A680A6052F8040B13
:100760000A6000B20BE00A680A6052F8040B0A60E3
:1007700040B204E00A680A6052F8040B0A60C1172C
:1007800070472DE9FA4E05460A462F696F2A08BFC1
:10079000082405D041F02000782814BF0A24102432
:1007A0003C26D5E90001642A18BF692A81468A4699
:1007B00005D1002903DAD9F100096AEB4A0ABAF136
:1007C000000F08BFB9F1000F0CD1286B50B9082CED
:1007D00036D195F83800000732D530203B2687F80F
:1007E0003B002DE0E31748465146224600F0F0FB5F
:1007F000A4FB0023A9EB02023032D2B2A6F1010B16
:100800003A2A5E4603DB9DF80030513B9A180BF8FC
:10081000072081465FEA010A08BFB9F1000F03D043
:10082000E868F1198842DDD3082C09D195F8380021
:10083000000705D5F05D302802D0761E3020F05537
:10084000C6F13C00A861F119E960296B884208DA19
:10085000081A28624FF6EF71288F08402887BDE8F4
:10086000F38E00290ED595F8381001F014011029E7
:1008700008D1696B6A69891A2A6A891A0E1A012EC7
:10088000A8BF2E62BDE8F38E2DE9F24F04468EB06C
:10089000D4E90001CDE9020104AF9DF8380040F031
:1008A000200BBBF1610F0AD0206B002848BF062047
:1008B00004D408BFBBF1670F01D101202063616838
:1008C000C1F30A5040F2FF7290421CD1080304BFEA
:1008D0002068002809D10320A0619DF83800613804
:1008E0001A2836D30FF2306108E00320A0619DF88A
:1008F000380061381A2829D30FF21461E068032206
:1009000000F0DEFBBEE1012816DA204600F013FC01
:10091000012811DB00250020BBF1610F20D1E16827
:10092000302201F8012B4A1CE2609DF83820612A30
:100930000CBF782258220FE0626840F2FE3161F36A
:100940001E52451A62604FF0FF30E5E70FF2BC51CE
:10095000D4E70FF2C051D1E70A706169891C616167
:1009600010B90026002584E1BBF1610F40F09780AB
:10097000206B00284CBF2126461CD4E900ABDDE9E2
:1009800002010022002300F0F7FB36B23ABF8BF0E1
:100990000040CDE902A0CDE902AB06F101082D1F10
:1009A0008DF810200DF1110700E0C71DB8F1010FFF
:1009B00033DBDDE902010022002300F0F5FB2CD23D
:1009C0001C2102A800F008FCDDE9020100F08EFC09
:1009D000A8F10708B8F1010F814609DB00F0B2FC6D
:1009E00002460B46DDE9020100F0C4FCCDE902013C
:1009F000F81D072105E009F00F0200F8012D4FEA6C
:100A00002919B9F1010F01DB491EF4D5491E5CBF5C
:100A1000002200F8012DF9D5C7E70DF11100391AB0
:100A2000B142B8BF0E4636B230000DF111072FD4D7
:100A3000884206DA04A9411849780829A8BF0F217D
:100A400000DA002104AA821800E0761E12F80139AB
:100A5000401E8B42F9D00F2904D104A941184A78CD
:100A6000521C4A70002802D504AF761C2D1D36B2E8
:100A7000701E0DD4C1190A783032D2B23A2A03DB83
:100A80009DF838303A3B9A18401E01F80129F2D5FA
:100A9000206B002840F1ED80701E2063E9E0DDE965
:100AA00002010022002300F067FB3CBF81F00041FF
:100AB000CDE902012DB247F2975068434B49DFF868
:100AC000309190FBF1F52DB2C5F1070ABAF1010F93
:100AD00090461CDBDDE902675FEACA7007D5424633
:100AE0004B463046394600F005FD06460F46404667
:100AF000494642464B464FEA6A0A00F0FBFCBAF10F
:100B0000000F80468946E7D1CDE9026724E0CAF1AB
:100B1000000A0026374F14E05FEACA7007D5424644
:100B20004B463046394600F0E5FC06460F46404647
:100B3000494642464B4600F0DDFC4FEA6A0A8046D1
:100B40008946BAF1000FE7D1DDE9020132463B46A2
:100B500000F0A2FDCDE90201BBF1660F0CBF05F16B
:100B60000A000620216BDFF890904618142EA8BFCB
:100B7000132630208DF810000DF11107012E3DDBFA
:100B8000DDE9020100F0C8FB07F1080104220A2395
:100B9000B0FBF3F303EB8307A0EB4700303001F821
:100BA000010C0A20B3FBF0F000EB8007A3EB470336
:100BB0003033521E01F8023DE9D1083E012E01F109
:100BC0000807DBDBDDE9020100F0A6FB00F0C4FB57
:100BD00002460B46DDE9020100F0CCFB00224B4649
:100BE00000F088FCCDE90201CAE700BFA086010041
:100BF000000024400000F03F84D797410DF1110020
:100C0000381A0DF1110702E0401E6D1E7F1C397865
:100C10003029F9D0BBF1660F02D12DB2691C04E076
:100C2000BBF1650F0CBF01210021226B8E1836B27B
:100C3000B042B8BF064636B231001AD4814204DA57
:100C4000C85D3528A8BF392000DA3020CA19521EE5
:100C500000E0761E12F80139491E8342F9D0392886
:100C600002D1C85D401CC855002902D57F1E761CE4
:100C70006D1C2DB29DF83810009533B23A462046CF
:100C800000F003F80FB0BDE8F08F2DE9F04786B013
:100C900006468A4690461D4600F047FE012D406AF2
:100CA000376B90F8009002DA01250FF270284AF0B5
:100CB0002000BDF93840662808BF641C12D06728A0
:100CC00076D114F1040F79DBBC4277DA96F838005C
:100CD000641C000702D4BD42B8BF2F4624B23F1B9C
:100CE00048BF002724B2F068B169012C21DA4A1C00
:100CF00030230B54012F03DA96F83810090702D578
:100D000002F80090521CB261E742B8BF7C4224B2A4
:100D10006142E7197162AF42B8BF3D46B3692DB277
:100D2000F5612A464146181800F0CAF9781BB062EE
:100D3000BAE00818A54216DA2A46414600F0C0F982
:100D4000B1696918601B012FB161706203DA96F80E
:100D50003800000705D5F06801F80090F069401CE4
:100D6000F061B762A0E02246414600F0A9F9B069FF
:100D700020182D1B012F03DA96F83810090703D528
:100D8000F16800F80190401C2DB2B061AF42B8BFCD
:100D90003D46F068B3692DB22A4604EB08011818E5
:100DA00000F08EF9B0692818B061781B70627BE0A2
:100DB000BAF1610F14D14FF0700A16E0BD4204DAA7
:100DC00096F83810090758BF2F467F1E48BF0027E6
:100DD000BAF1670F14BF4FF0450A4FF0650A04E0FF
:100DE000BAF1410F08BF4FF0500AB169F0684A1CD0
:100DF000B261012F18F8013B0B5403DA96F8381052
:100E0000090715D5531CB36102F80090012F0FDBC1
:100E10006D1E2DB2AF42B8BF3D462DB22A464146A7
:100E2000181800F04DF9B0692818B061781B70628D
:100E3000F068B1690918200081F800A004D42B20C3
:100E4000487001F1020804E02D224A7001F1020805
:100E50006442002502AF08E00A22684600F07EFDE9
:100E6000019807F8010B6D1C009C21B20129F3DAEF
:100E7000022D06DA4AF02000652804BF302008F869
:100E8000010B4DB9302008F8010B07E06D1E02A8D8
:100E9000285C303008F8010B012DF7DAF068B169F1
:100EA0000818A8EB0000F06196F8380000F0140074
:100EB00010280DD17069B1690818716A0818F169B4
:100EC0000818B16A0818716B8842BCBF081A3062F2
:100ED00006B0BDE8F087F8B504460D4616461F4635
:100EE000002004E0E86A401CE8627F1E002047B151
:100EF00016F8011BA868A0470028A860F2D14FF09F
:100F0000FF30F2BD686A6C747A4C00006E616E004E
:100F10004E414E00696E6600494E46003000026840
:100F2000531C0360117070470278C9B28A421AB12B
:100F30001CBF10F8012FF9E718BF00207047000010
:100F400000F10103810704D010F8011B89B181076A
:100F5000FAD10268B2F10131914311F0803F04BF30
:100F600050F8042FF6E710F8011B11B110F8011B1F
:100F7000FBE7C01A70470000C9B2830706D0521EB3
:100F800022D310F8013B9942F7D11FE0083A13D35E
:100F900002F1040241EA012141EA014150F8043B17
:100FA000121F21BF4B40A3F1013C2CEA030C1CF0A3
:100FB000803FF3D0C9B2001F083210F8013B521E27
:100FC00028BF91EA030FF8D818BF0120401E7047D0
:100FD0001B4213D1094236D12AB18446B0FBF2F04C
:100FE00002FB10C2704700F0C1BCFCD300220023FA
:100FF00070470B000200002100207047904271EB07
:10100000030CF6D370B5B1FA81F4B3FA83F52C1B57
:10101000A340C4F1200532FA05F63343A2405FF045
:101020000046E64002E05B085FEA3202841A71EB98
:10103000030524BF204629467641F4D302000B0065
:101040003000002170BD012ACFD970B5140C20D01A
:10105000B1FA81F4B2FA82F5C4F120046419B4F152
:101060002006D6D3B2405FF00044F440002502E0F1
:1010700052085FEA3303C61A71EB020E24BF3046F2
:10108000714664416D41F3D302000B00200029003A
:1010900070BD0C46B1FBF2F102FB11452D0445EA8F
:1010A0001045B5FBF2F402FB145580B240EA054549
:1010B000B5FBF2F002FB105240EA044070BD0000A4
:1010C00062B38B0708D0521E11F8013B00F8013BB8
:1010D00000F024808B07F6D1830740F0208000BF0A
:1010E000103A07D330B4B1E83810103AA0E83810FD
:1010F000F9D230BC530724BFB1E80810A0E80810AB
:1011000044BF51F8043B40F8043BD20724BF31F8F8
:10111000022B20F8022B44BF0B7803707047083A6B
:1011200007D3B1E80810083A40F8043B40F804CB74
:10113000F7D25307E4E730B4436803F000420121DB
:101140001B031B0B436004BF0368002B08D10DE099
:101150000368DD0F45EA440444605B000360491EF8
:101160004468E302F4D523031B0B436043681A432E
:101170004260084630BC70474FF4001C1CEB410F26
:1011800094BF1CEB430F09E041EA030C50EA4C0CFE
:1011900052EA0C0C03D2994208BF9042704714BF28
:1011A0008B428242704700004FF4001C1CEB410F41
:1011B00094BF1CEB430F09E041EA030C50EA4C0CCE
:1011C00052EA0C0C03D28B4208BF8242704714BF14
:1011D000994290427047000070B504460D46606821
:1011E000C0F30A5040F2FF71884207D160680003E3
:1011F00004BF2068002817D0022070BD20B9204607
:10120000FFF799FF012866DA012D0FDB40F2FF712D
:10121000091A8D420AD3606800284CBF9FED2F0B3E
:101220009FED300B84ED000B012070BD4142A942BF
:10123000616806DA6FF31E51401941EA00506060A0
:1012400040E0401E63684519012205F1350062F354
:101250001F53352801F00041636003D36160002013
:10126000206070BD002015F11F0F04DA2068236094
:101270000022203562606A4212D0401E25688041FB
:10128000C2F12003C0439D4045EAD07025686668DE
:10129000D54006FA03F32B4323606368D3406360B1
:1012A00062680A43B0F1004F626003D80DD1207824
:1012B000C0070AD52068401C2060206828B96068F3
:1012C000401C60604FF0FF3070BD6068884204BF12
:1012D00020680028F6D1002070BD00BF000000008B
:1012E0000000F0FF000000000000F07FF446400D19
:1012F00040EAC120490006D200F014F8004248BF7D
:101300006FF00040604700F00DF84FF00041884258
:101310008CBF084640426047400D40EAC12049006A
:1013200080F00D8040F00040490DA1F58061491C1E
:1013300005D4D1F11F0154BFC840C01770474FF00A
:1013400000007047010040F10980F446404200F07F
:1013500005F851F000416047010000BF09D0B0FA24
:1013600080F18840C91CC1F58461090501EBD021D9
:1013700040057047F0B44FF0004591EA030F44BFB9
:101380006B4000F0F5BA00BF841A71EB030604D27B
:101390006E40001BB141121973414FF4001C1CEB4D
:1013A000410F34BF7CEB430684E00C0DA4EB1356D5
:1013B000362E7DDC012E43DC45EAC32343EA52533B
:1013C00012BFD20292025B08240545EAC12141EA1C
:1013D0005051D2EBC020994125D407D1B0FA80F604
:1013E00010FA06F164D00020203608E0B1FA81F648
:1013F000B140C6F1200220FA02F21143B0404FEA98
:10140000F474B4EB465434F001064FEA74040AD87D
:10141000D6F50016760D04F00044F04061FA06F2AD
:101420005040F1404840C00A40EA415021F000419C
:1014300028BF5FEA500550F1000044EBD12137E0AE
:1014400045EAC323DB0A45EAC121C90AB6F12005F2
:101450000EDD42EA0242120CC5F1200603FA06F63E
:10146000EB4042EA06056D42984161F100010DE052
:1014700062FA06F5F240554063FA06FC82EA0C0275
:10148000F3405A406D42904161EB030111F4801F1B
:1014900005D1641E620502D06D004041494121F42E
:1014A0008011430875F1004350F1000041EB0451F5
:1014B000F0BC70471CEB410F15D223F0004352EAF9
:1014C00043060BD04FEA4C0CBCEB410F04D80C0D7B
:1014D000661E342EB7DDEBE7801A994150EA4106CB
:1014E00008BF0021E4E708BF1CEB430F28BF6FF0E3
:1014F0000001DDE7B0B581EA030C0CF0004C40F2CE
:10150000FF7515EA11541DBF15EA1357AC42AF42DF
:1015100039E0E41923EA455343F48013C90241F04A
:10152000004141EA505EC7021100A7FB02020028F9
:101530004FF00000EEFB01204FF00001E3FB07211C
:1015400018BF42F00102401800214941E3FB0E019F
:10155000A4F580640F0302D252004041494154F186
:1015600001046CDD470872F1004250F1000051EBBC
:101570000451A1F580115CBF41EA0C01B0BD4CEAF9
:1015800005510020B0BD05EA1357AC4214BFAF426D
:1015900041E050EA410E1CBF52EA430E02E06146B0
:1015A0000020B0BD24423C441BD15FEA070EF6D0B8
:1015B000090302BF01460020AEF1140EB1FA81F713
:1015C000AEEB070401FA07FE0C37C7F1200100FA61
:1015D00007F7C8404EEA000E23EA455343F4801350
:1015E000A2E733F00043B3FA83F704BFB2FA82FEF6
:1015F00077440B3FE41BB7F1200E2FBF02FA0EF326
:10160000BB40C7F1200E22FA0EFE38BF43EA0E039C
:10161000BA40641C82E750EA410E14BF52EA430EFE
:101620006FF000014FF4001717EB430F8ABF194604
:1016300017EB410FB5E74CEA05510020B0BDD4F1DE
:101640000104B4F120070FDAC4F12007520828BFC3
:1016500042F0010210FA07F501FA07F7E1BF2A4349
:10166000E0403843E1400FE0352C98DCC7F120041E
:1016700052EA400220FA07F218BF42F0010231FAA2
:1016800007F0A1400A43002172F1004250F100002E
:1016900051EB0C01B0BD00002DE9F04140F2FF75A7
:1016A00081EA030C0CF0004C15EA11541DBF15EA39
:1016B0001357AC42AF42E9E0BC41C1F31301C3F39D
:1016C0001303801A994143F4801304D2641E40002E
:1016D000494180185941C90241EA5051B1FBF3F622
:1016E00003FB1611A2FB0675D7EBC020A94102D25D
:1016F000761E80185941C90241EA5051B1FBF3FEF0
:1017000003FB1E11A2FB0E75D7EBC020A94103D22B
:10171000AEF1010E80185941890241EA90517605D7
:1017200046EA8E2EB1FBF3F603FB1611A2FB0675FB
:10173000D7EB8020A94102D2761E80185941C902F8
:1017400041EA50514EEA060EB1FBF3F603FB1611C7
:10175000A2FB0675D7EBC020A94102D2761E8018E5
:101760005941C90241EA5051B1FBF3F703FB17118C
:10177000A2FB0735D3EBC020A94167F100070CBFDE
:10178000004247F0010766F3D5274FEA1E31B8083B
:1017900014F5806414DDBD0775F1004250EB0E5066
:1017A00051EB045111F5801F5CBF41EA0C01BDE80B
:1017B000F0814CF07F6141F0E0410020BDE8F08114
:1017C000BD076D0840EA0E5041F48011D4F10104C8
:1017D000B4F120060ADAC4F120060200E04001FA62
:1017E00006F3E1401843B24015430EE0342C14DCFC
:1017F000C6F1200445EA40056D0820FA06F21543BB
:1018000021FA06F0A1400D43002175F1004250F18C
:10181000000051EB0C01BDE8F08100205FEA0C01F3
:10182000BDE8F081CFB992185B41B3FA83F704BFEA
:10183000B2FA82F6BF190B3FB7F120062FBF02FAAA
:1018400006F3BB40C7F1200622FA06F638BF334341
:10185000BA401CB1E419641E2FE77F4231F0004109
:10186000B1FA81F404BFB0FA80F6A4190B3CB4F1CC
:1018700020062FBF00FA06F1A140C4F1200620FA8D
:1018800006F638BF3143A0403C1B16E7AC421ABFF6
:1018900005EA1357AF4214E050EA41061CBF52EA72
:1018A0004306BFE750EA4107304661461CBF41EAA4
:1018B0000551BDE8F08152EA430C08BFC143BDE8C1
:1018C000F08100204FF4001616EB410F98BF16EB85
:1018D000430F08BF16EB410F24BFC14305E016EBD1
:1018E000430F0CBF61464CEA0551BDE8F081000092
:1018F00080B5134800F0A6F80FF24C020FF2440135
:101900000160426241600FF24402826381600FF223
:101910004402C1600161416181618162C162016310
:101920004163C2630164416401BD10B5044800F025
:1019300089F80446206808B9FFF7DAFF204610BD91
:1019400000000020000000002E00000066616C73A3
:1019500065000000747275650000000091FBF2F3F1
:1019600003FB1211C0E9003170470000704700000E
:10197000841A71EB030603D2001BB14112197341A3
:101980004FF4001C1CEB410F34BF7CEB430443E0DD
:101990000C0DA4EB1356352E50DC45EAC323DB0AAD
:1019A00045EAC121C912B6F120050DDD63FA05F63D
:1019B000EB4086EA0305124218BF45F00105C01846
:1019C00051F100010CD213E062FA06F5F2405540E5
:1019D000F3415A40B340F3405A408018594107D36D
:1019E00049085FEA30005FEA350528BF45F0010588
:1019F00001F58011420875F1004250F1000041EB01
:101A00000451F0BC4FF4001C1CEB410F38BF704771
:101A10000020090D090570471CEB410F10D252EA56
:101A200043060BD0BCEB410F05D80C0DAB43661E33
:101A3000342EB5DD02E0AB4380185941F0BC70474D
:101A4000F0BC7047704700002DE9F04385B00400FA
:101A50000D0016001F00B6B2B00000F0BFFD8146B9
:101A6000B9F1000F0DD0602000F0B8FD8046B8F14C
:101A7000000F02D0C8F8309005E0484600F032FE72
:101A800001E05FF00008B8F1000F13D000200390D0
:101A9000CDF808800D9801900C9800903B00B6B2EC
:101AA00032002900200000F00AF8404600F061F8FA
:101AB000012001E05FF0FF3005B0BDE8F0832DE9C3
:101AC000F84305000F0090461E005FEA8801A5223A
:101AD0000A9CD4F83090484600F0AEFE206B10EB24
:101AE0008800B0F104085FEAD8085FEAC80818F077
:101AF0000700002807D0102080F31188BFF34F8F14
:101B0000BFF36F8FFEE7002000E0401C102806D2D4
:101B1000C15D021982F83410C1570029F5D10020A7
:101B200084F84300089F072F00D30627E762E76485
:101B300000202065201D00F0C1FE14F1180000F007
:101B4000BDFE2461D7F10700A061646200206065DA
:101B50000020A065002084F85C0032002900404687
:101B600000F0EAFE20600998002800D00460BDE87B
:101B7000F18310B5040000F06EFFDFF84C0500683B
:101B8000401CDFF844150860DFF8400500680028B5
:101B90000AD1DFF838050460DFF82C050068012859
:101BA00011D100F0B5FA0EE0DFF824050068002836
:101BB00009D1E06ADFF814150968C96A884202D3BE
:101BC000DFF808050460DFF80C050068401CDFF84A
:101BD00004150860DFF8FC0400686064DFF8F804AE
:101BE00000680121E26A91400843DFF8EC140860C4
:101BF000211DDFF8E804E26A142303FB020000F071
:101C000060FE00F045FFDFF8C804006800280FD030
:101C1000DFF8B8040068C06AE16A884208D25FF061
:101C20008050DFF840150860BFF34F8FBFF36F8F10
:101C300010BD10B504000020002C14D0DFF8A4045F
:101C40000068002807D0102080F31188BFF34F8F61
:101C5000BFF36F8FFEE700F083F80021200000F053
:101C600057FC00F085F8002808D15FF08050DFF8BD
:101C7000F4140860BFF34F8FBFF36F8F10BD38B5FA
:101C80000400002C07D1102080F31188BFF34F8F80
:101C9000BFF36F8FFEE7DFF834040068844201D1A0
:101CA000002024E000F0D7FE656900F0F1FEDFF8C7
:101CB000B8040068854204D0DFF8B00400688542AB
:101CC00001D1022013E0DFF80C05854206D1A06A9D
:101CD000002801D103200AE0022008E0DFF8000418
:101CE000854201D0002D01D1042000E0012040B246
:101CF00032BD00B583B0DFF83807019000200090B6
:101D000000238022DFF82C170FF2DD30FFF79CFE56
:101D100001281AD1102080F31188BFF34F8FBFF331
:101D20006F8F5FF0FF30DFF8101708600120DFF8D9
:101D3000A01308600020DFF8D41308600020DFF84B
:101D4000B817086000F021FE07BD10F1010FFBD1AC
:101D5000102080F31188BFF34F8FBFF36F8FFEE722
:101D6000DFF880030068401CDFF8781308607047D4
:101D700038B500250024DFF86C030068002807D17F
:101D8000102080F31188BFF34F8FBFF36F8FFEE7F2
:101D900000F061FEDFF84C030068401EDFF84413DA
:101DA0000860DFF84003006800285AD1DFF8180304
:101DB0000068002829D154E0DFF87006C068C568C3
:101DC00015F1180000F0A4FD281D00F0A1FDDFF8BA
:101DD000080300680121EA6A91400843DFF8F8121D
:101DE0000860291DDFF8F402EA6A142303FB0200ED
:101DF00000F067FDE86ADFF8D4120968C96A884212
:101E000003D30120DFF8F4160860DFF8200600682D
:101E10000028D1D1002D01D000F06DFADFF8D406F2
:101E20000568002D0ED000F06CF8002803D00120CA
:101E3000DFF8C81608606D1E002DF4D10020DFF811
:101E4000B4160860DFF8B4060068002809D0012441
:101E50005FF08050DFF80C130860BFF34F8FBFF3C3
:101E60006F8F00F015FE200032BD2DE9F041040017
:101E70008846150000260727FFF772FF9248006882
:101E8000804539D37F1E01229448142101FB0701AC
:101E9000242000FB064000F0E4F98619002FF1D160
:101EA0000222DFF8C4020168242000FB064000F093
:101EB000D8F986190222DFF8B4020168242000FB59
:101EC000064000F0CEF986190422DFF8141224200F
:101ED00000FB064000F0C5F986190322DFF8F41272
:101EE000242000FB064000F0BCF98619002D03D029
:101EF000DFF8100600682860FFF73AFF3000BDE801
:101F0000F08170B50024DFF8DC010068002875D18D
:101F1000DFF8F8010068451CDFF8F0010560002DCE
:101F200022D1DFF8440200680068002807D01020A2
:101F300080F31188BFF34F8FBFF36F8FFEE7DFF899
:101F400028020068DFF824120968DFF81C221160FB
:101F5000DFF818120860DFF8A8050068401CDFF8F9
:101F6000A015086000F0C7F9DFF8CC0400688542CE
:101F700038D320E0301D00F0CBFCB06A002803D03D
:101F800016F1180000F0C4FC534800680121F26A01
:101F90009140084350490860311D5048F26A1423AB
:101FA00003FB020000F08DFCF06A48490968C96A29
:101FB000884200D30124DFF8B001006800680028DF
:101FC00005D15FF0FF30DFF8701408600AE0DFF839
:101FD00098010068C068C66870688542CAD2DFF898
:101FE000581408603D4839490968C96A142202FB3F
:101FF00001000068022808D3012406E0DFF8F40499
:102000000068401CDFF8EC140860DFF8F00400689A
:10201000002800D00124200070BD3248006800284C
:1020200004D00120DFF8D41408604BE00020DFF872
:10203000CC140860DFF8C0040068DFF8CC14086036
:10204000DFF8C8040068DFF8C014096888420BD2C2
:102050001E480068416DDFF8B02412685118DFF89F
:10206000AC241268891A4165DFF89C040068DFF827
:102070009C14086018480068B0FA80F0D0F11F0086
:102080001649142202FB00110968002907D110200B
:1020900080F31188BFF34F8FBFF36F8FFEE70F49B7
:1020A000142202FB0010416849684160416810F148
:1020B0000802914202D14168496841604068C068A5
:1020C000024908607047000000830020F082002071
:1020D0000C8300201C83002008830020D080002077
:1020E0008C8200202883002080B500F041F8DFF8C2
:1020F000A40400680228F8D35FF08050DFF89C1435
:102100000860BFF34F8FBFF36F8FEEE704830020AB
:1021100010B5002407E0DFF87C04142101FB040063
:1021200000F0BDFB641C072CF5D3DFF8740400F04D
:10213000B6FBDFF8700400F0B2FBDFF8F00200F04D
:10214000AEFBDFF8640400F0AAFB224800F0A7FB16
:10215000DFF84C0404490860DFF84804DFF84C1449
:10216000086010BD04ED00E0F4820020F882002039
:1021700010B520E00024FFF7FBFD002C1BD100F080
:102180006AFCDFF82404C068C468201D00F0C0FBAE
:10219000DFF81C040068401EDFF814140860DFF844
:1021A00014040068401EDFF80C14086000F070FC96
:1021B000200000F097F8DFF8FC030068002808D042
:1021C000FFF7CEFDDFF8E00300680028D2D101243C
:1021D000D1E710BDA08200202DE9F04104000D00E0
:1021E00016001F00002C04D1DFF8A403D0F80080F3
:1021F00000E0A046C5F8008018F134006860D8F807
:102200002C002861D8F83000E861D8F84400A860B4
:1022100095F90C00032809D1FFF7A2FDD8F8280092
:10222000002801D002202873FFF7A2FDD8F84C0047
:102230006861D8F85400A8617FB2052F01D02F73D0
:1022400003E02000FFF71BFD2873002E05D0D8F80F
:10225000300000F03CF8288401E000202884BDE82C
:10226000F0812DE9F84304000D00160000272868CE
:10227000002829D02800416849684160416810F170
:102280000802914202D14168496841604068D0F833
:102290000C802800416849684160416810F10802DB
:1022A000914202D14168496841604068D0F80C9081
:1022B00033005BB20122242000FB07414846FFF7B0
:1022C0008BFF7F1CC145E4D13800BDE8F2830021BB
:1022D00001E0401C491C0278A52AFAD089080800B0
:1022E00080B2704710B50400206B00F0FBF92000AD
:1022F00000F0F8F910BDDFF8C0020068006800289F
:1023000004D15FF0FF304C49086007E0DFF8A80215
:102310000068C068C0684068474908607047DFF8D7
:102320009C020068002801D1012007E0DFF890023C
:102330000068002801D1022000E00020704710B59D
:102340000400200000F0F8FB2000FEF7F9FD02E099
:1023500020210155401C0F28FAD3002101550019F6
:1023600010BD7FB5040000202070DFF84402006833
:102370000390DFF83C0200682421484300F02EF966
:102380000500002D4FD0002203992800FFF76DFDB6
:1023900003900020029028E000260298242101FBEF
:1023A000005041682000FFF7CAFF0400029802991C
:1023B000242202FB005080680190242000FB015081
:1023C000008C00900298242101FB0050036976B232
:1023D0003200DFF8F011200000F0D0FB2000FEF703
:1023E000AFFD04190298401C02900298039988429C
:1023F00016D20298242101FB005090F90C0001280C
:1024000006D0C9D3032807D004D3042806D0C3E7D5
:102410005226C2E74226C0E75326BEE74426BCE761
:10242000280000F05FF97FBD0000000078820020E6
:1024300024830020444E00082083002070B584B01F
:10244000040000202070DFF8680100680290DFF8C7
:10245000600100682421484300F0C0F80500002D09
:1024600047D001AA02992800FFF7FFFC02900198CB
:102470006421B0FBF1F001900198002836D00020D3
:10248000009010E00098242101FB00508269DFF8E1
:102490003811200000F072FB2000FEF751FD0419F6
:1024A0000098401C00900098029988421ED2009823
:1024B000242101FB005080690199B0FBF1F60098DE
:1024C000242101FB005041682000FFF738FF040081
:1024D000002ED7D033000098242101FB00508269E0
:1024E000DFF8E810200000F049FBD5E7280000F0F5
:1024F000F9F87FBD10830020CC82002014830020D7
:1025000018830020CC820020308300202C83002000
:1025100070B504000D00204806681D480068001DC5
:1025200000F0F6F900280BD119480068284909681D
:102530000122C06A12FA00F031EA00002449086062
:1025400014F1010F08D1002D06D011480068011DBB
:10255000204800F0B6F91AE0A4190D48006844605C
:10256000B44207D20A480068011D1048006800F014
:10257000B4F90CE006480068011D0F48006800F03F
:10258000ACF915480068844201D21348046070BD5C
:10259000F0820020D08000200483002004ED00E0C1
:1025A00050820020648200208C820020F88200206B
:1025B00000830020FC820020F48200200C83002095
:1025C00028830020D84D00081C4E0008104E00083B
:1025D00008830020A08200202083002070B5050021
:1025E0000024FFF7BDFB8D480068002801D100F0F2
:1025F000B3F88B480068054264D1002D15D0894896
:102600000068451915F0070F0FD015F1080015F0F7
:102610000701451A15F0070F07D0102080F3118825
:10262000BFF34F8FBFF36F8FFEE7002D4AD07E4878
:102630000068A84246D37D487C490E6801E030001E
:1026400036687168A94202D231680029F7D173490E
:1026500009688E4236D00168724A1268541831688F
:1026600001607048006840007168491B884212D2BE
:10267000A81910F00701002907D0102080F3118855
:10268000BFF34F8FBFF36F8FFEE77168491B416047
:10269000756000F093F8644800687168401A6249F8
:1026A00008606148006862490968884203D25E4850
:1026B00000685F490860706859490968084370609C
:1026C00000203060FFF754FB14F00700002807D00B
:1026D000102080F31188BFF34F8FBFF36F8FFEE799
:1026E000200070BD10B50400002C34D04D480068A7
:1026F000241A60684A490968084207D1102080F30B
:102700001188BFF34F8FBFF36F8FFEE7206800285B
:1027100007D0102080F31188BFF34F8FBFF36F8F66
:10272000FEE760683E490968084214D02068002826
:1027300011D160683A49096888436060FFF710FB6F
:10274000394800686168081837490860200000F0BF
:1027500035F8FFF70DFB10BD4FF4F042354911F08D
:10276000070F05D0C91DC908C900501A314A1218EF
:1027700008002E49086000212C4B59601118294A85
:102780001268891AC908C900244A11600022234B23
:102790001B685A600022214B1B681A60091A4160AD
:1027A0001E49096801604168214A116040681E495C
:1027B00008605FF000401A49086070471B4900E05C
:1027C00009680A688242FBD30A004B689A18824261
:1027D00004D14A68406880184860080002004368D5
:1027E0009A180B689A4211D10A680C4B1B689A42DE
:1027F00008D042680B685B689A1842600A681268E1
:10280000026005E0054A1268026001E00A680260A1
:10281000814200D00860704700000000D082002094
:10282000DC8200204C4E0008D4820020B4820020BC
:10283000D8820020D000002062F30F2262F31F42F2
:10284000401810F0030308D0C91A1FD3DB0748BF94
:1028500000F8012D28BF20F8022D130030B41446D3
:102860001546103928BF20E93C00FAD8490728BF8F
:1028700020E90C0048BF40F8042D890028BF20F84B
:10288000022D48BF00F8012D30BC7047C91818BF91
:1028900000F8012DCB0728BF00F8012D704710F17B
:1028A000080141605FF0FF31816010F10801C160F3
:1028B00010F10801016100210160704700210161F0
:1028C000704742684A6093688B6093685960916072
:1028D00008610168491C0160704710B40B6813F16E
:1028E000010F01D1026907E010F1080200E052680F
:1028F00054682468A342FAD253684B604B689960CD
:102900008A60516008610168491C016010BC704711
:102910000169826843689A60426883685A604A68BD
:10292000824201D182684A60002202610868401E2A
:102930000860086870470000001F5FF08073036044
:10294000001F490849000160001F0FF215010160D6
:1029500014380260001F7FF00201016020387047C8
:102960006848006810F1010F07D0102080F311882B
:10297000BFF34F8FBFF36F8FFEE7102080F31188F6
:10298000BFF34F8FBFF36F8FFEE700B583B05E4894
:1029900000685E49884207D1102080F31188BFF398
:1029A0004F8FBFF36F8FFEE7574800685849884242
:1029B00007D1102080F31188BFF34F8FBFF36F8FC3
:1029C000FEE7544801780191FF21017001788DF8EC
:1029D00000109DF8001011F010014F4A11700721EE
:1029E0004E4A116009E04D490968491E4B4A116081
:1029F0009DF8001049008DF800109DF800100906A0
:102A0000F1D4464909680902444A116043490968FA
:102A100011F4E061414A1160019901704048006879
:102A200050F470003E4908603D48006850F0704026
:102A30003B49086000F059F800203249086000F076
:102A4000FDF83848006850F040403649086000F012
:102A5000E9F800200EBD102080F31188BFF34F8FDE
:102A6000BFF36F8F27480068401C2649086025483F
:102A7000006801280BD12C480068000607D0102000
:102A800080F31188BFF34F8FBFF36F8FFEE770475E
:102A90001C480068002807D1102080F31188BFF37C
:102AA0004F8FBFF36F8FFEE716480068401E154931
:102AB000086014480068002802D1002080F31188C3
:102AC000704780B5102080F31188BFF34F8FBFF39C
:102AD0006F8FFFF716FA002803D05FF0805012497D
:102AE0000860002080F3118801BD104800684FF491
:102AF0007A71B0FBF1F0401E0D49086007200D49C6
:102B000008607047C800002000ED00E071C20F416E
:102B100070C20F4100E400E035830020E88200200D
:102B200020ED00E034EF00E004ED00E0CC000020F8
:102B300014E000E010E000E05FEA000C830706D03C
:102B400011F8013B00F8013BB3B18307F8D10A68E3
:102B5000B2F1013323EA020313F0803F02BF40F8D1
:102B6000042B51F8042FF3E711F8013B00F8013B67
:102B700013B111F8013BF9E7604670470CB41CB57E
:102B8000044604A801900A46009401AB6946074830
:102B900078441830FDF7F8FA009A002111700028E7
:102BA0005CBF0098001B16BC5DF80CFB73E3FFFFD5
:102BB000EFF30980BFF36F8F244B1A681EF0100FDC
:102BC00008BF20ED108A20E9F04F106008B44FF0E4
:102BD000100080F31188BFF34F8FBFF36F8FFFF7A3
:102BE0001CFA4FF0000080F3118808BC19680868CF
:102BF000B0E8F04F1EF0100F08BFB0EC108A80F361
:102C00000988BFF36F8F7047104B19680868B0E8E8
:102C1000F04F80F30988BFF36F8F4FF0000080F30F
:102C2000118870470A480068006880F3088862B617
:102C300061B6BFF34F8FBFF36F8F00DFDFF8140073
:102C4000016841F47001016070470000F0820020CB
:102C500008ED00E088ED00E038B50400002520789C
:102C6000C0076FD5DFF86406006810F00C00042878
:102C70000BD0DFF85806006810F00C0008280ED1C1
:102C8000DFF84C060068400209D5DFF84806006806
:102C9000800357D56068002854D10120CFE16068D7
:102CA000B0F5803F08D1DFF82C06006850F4803082
:102CB000DFF82016086024E06068B0F5A02F10D17E
:102CC000DFF81006006850F48020DFF8081608606E
:102CD000DFF80006006850F48030DFF8F81508606F
:102CE0000FE0DFF8F005006830F48030DFF8E4151D
:102CF0000860DFF8E005006830F48020DFF8D415C4
:102D00000860606800280ED000F039FB0500DFF88D
:102D1000C4050068800315D400F031FB401B652812
:102D2000F5D303208BE100F02AFB0500DFF8A405B2
:102D30000068800306D500F022FB401B6528F5D310
:102D400003207CE1207880072BD5DFF88005006820
:102D500010F00C0F0BD0DFF87405006810F00C00B9
:102D6000082837D1DFF868050068400232D4DFF860
:102D700064050068800704D5E068012801D00120BF
:102D80005DE1DFF8500500685FF0F851B1FA81F1BC
:102D900030F0F800226912FA01F10843DFF8341527
:102DA00008602078000762D5606900284CD00120B7
:102DB000DFF82415086000F0E2FA0500DFF81C05D2
:102DC0000068800753D400F0DAFA401B0328F5D3DB
:102DD000032034E1E068002823D00120DFF800154B
:102DE000086000F0CCFA0500DFF8E804006880070E
:102DF00006D400F0C4FA401B0328F5D303201EE1DB
:102E0000DFF8D00400685FF0F851B1FA81F130F0DA
:102E1000F800226912FA01F10843DFF8B8140860DB
:102E2000BFE70020DFF8B814086000F0A8FA05003A
:102E3000DFF8A00400688007B3D500F0A0FA401BBB
:102E40000328F5D30320FAE00020DFF88C14086093
:102E500000F095FA0500DFF884040068800706D5C5
:102E600000F08DFA401B0328F5D30320E7E020781B
:102E700040077CD500200090DFF86804006850F01F
:102E80008050DFF860140860DFF85804006810F024
:102E9000805000900098DFF85004006850F4807073
:102EA000DFF84414086000F06AFA0500DFF838041F
:102EB0000068C00506D400F062FA401B0328F5D371
:102EC0000320BCE0A068012808D1DFF820040068D6
:102ED00050F00100DFF81414086023E0A068052812
:102EE00010D1DFF80804006850F00400DFF8FC138C
:102EF0000860DFF8F803006850F00100DFF8EC1319
:102F000008600FE0DFF8E403006840084000DFF8E5
:102F1000DC130860DFF8D403006830F00400DFF849
:102F2000CC130860A068002810D000F028FA050033
:102F3000DFF8B8030068800719D400F020FA401BBE
:102F400041F289318842F3D3032078E000F017FA88
:102F50000500DFF898030068800708D500F00FFA35
:102F6000401B41F289318842F3D3032067E0A06916
:102F7000002863D0DFF85403006810F00C00082824
:102F80005AD0A069022844D10020DFF864130860F9
:102F900000F0F5F90500DFF83C030068800106D574
:102FA00000F0EDF9401B0328F5D3032047E0DFF8DC
:102FB0004403B0FA80F14FF44040B0FA80F2F020C0
:102FC000B0FA80F0E369256A2B43656A15FA01F1CE
:102FD0001943A36A5B085B1E13FA02F21143E26A0B
:102FE00012FA00F00843DFF8E81208600120DFF869
:102FF0000013086000F0C3F90500DFF8D80200688C
:1030000080011BD400F0BBF9401B0328F5D303203B
:1030100015E00020DFF8D812086000F0B0F90500D4
:10302000DFF8B0020068800108D500F0A8F9401B65
:103030000328F5D3032002E0012000E0002032BD88
:1030400070B504000D000026DFF8AC02006810F037
:103050000F00A8420BD2DFF8A0020570DFF898023B
:10306000006810F00F00A84201D00120C0E02078D5
:10307000800709D5DFF85402006830F0F000A1683D
:103080000843DFF8481208602078C00772D56068EE
:10309000012806D1DFF83C020068800315D4012026
:1030A000A6E06068022802D06068032806D1DFF835
:1030B00024020068800108D4012099E0DFF814029E
:1030C0000068800701D4012092E0DFF80002006868
:1030D0008008800061680843DFF8F011086000F0A4
:1030E0004EF90600606801280FD1DFF8E0010068A2
:1030F00010F00C0004283DD000F041F9801B41F293
:1031000089318842F1D3032072E0606802280FD130
:10311000DFF8B801006810F00C0008282AD000F091
:103120002EF9801B41F289318842F1D303205FE000
:10313000606803280FD1DFF89401006810F00C00DC
:103140000C2817D000F01BF9801B41F2893188420E
:10315000F1D303204CE0DFF87401006810F00C0F8D
:1031600008D000F00CF9801B41F289318842F2D37B
:1031700003203DE0DFF88001006810F00F00854279
:103180000BD2DFF874010570DFF86C01006810F0F5
:103190000F00A84201D001202AE02078400707D57F
:1031A0004A48006830F4E050E16808434749086045
:1031B0002078000708D54548006830F46040216950
:1031C00050EAC1004149086000F017F83F4909681A
:1031D0005FF07062B2FA82F2484B11F0F001D14018
:1031E000C95CC84046490860002000F0B0F80020E3
:1031F00070BD012043490860704700200020002175
:1032000000203248006810F00C00002804D0042888
:1032100004D0082804D034E03B4833E03B4831E098
:103220002B48006810F03F002949096849020DD574
:1032300027490968354AB2FBF0F047F6C0721140E1
:103240002C4AB2FA82F2D14048430CE02049096886
:103250002D4AB2FBF0F047F6C0721140254AB2FA8F
:1032600082F2D14048431A49096811F440314FF4C1
:103270004042B2FA82F2D140491C4900B0FBF1F061
:1032800000E0214870471E480068704780B5FFF78E
:10329000FAFF0E4909685FF46012B2FA82F21C4B21
:1032A00011F4E051D140C95CC84002BD80B5FFF7C0
:1032B000EAFF064909685FF4E022B2FA82F2144B91
:1032C00011F46041D140C95CC84002BD08380240D9
:1032D0000438024000380240800E474274380240F1
:1032E0000000474240380240007000407038024001
:1032F000600047420000FE03003C0240C84D000849
:10330000CC0000204C0047420024F40000127A0058
:103310003C4E000880B51B48006850F40070194905
:1033200008601848006850F4806016490860154825
:10333000006850F4807013490860032000F08CF896
:10334000002000F004F800F0C7F8002002BD10B51E
:1033500004000D4800684FF47A71B0FBF1F000F002
:1033600095F8002221005FF0FF3000F079F800208E
:1033700010BD06480068401C0449086070470348B7
:1033800000687047003C0240CC000020EC82002026
:1033900010F00701484800684FF6FF021040474A06
:1033A00052EA0121084344490860704742480068D6
:1033B000C0F302207047012110F01F029140404AE3
:1033C00040B2400942F82010704740B2002808D5AA
:1033D00009013C4A40B210F00F00801800F8041CAC
:1033E00003E00901384A40B28154704710B410F02C
:1033F0000700D0F10703052B01D3042301E0D0F12E
:103400000703041D072C01D2002000E0C01E012488
:1034100014FA03F35B1E19408140012313FA00F0F4
:10342000401E1040084310BC704780B5411EB1F1EA
:10343000807F01D301200EE0401E244908600F2147
:103440005FF0FF30FFF7C1FF00202149086007202F
:1034500020490860002002BD80B5FFF799FF01BD3B
:1034600070B504000D0016000020FFF79FFF32002A
:103470002900FFF7BBFF0100200040B2FFF7A5FFC6
:1034800070BD80B540B2FFF796FF01BD80B5FFF774
:10349000CCFF02BD042806D10E48006850F004009D
:1034A0000C49086005E00B48006830F00400094949
:1034B00008607047000000000CED00E00000FA0515
:1034C00000E100E018ED00E000E400E014E000E0BE
:1034D00018E000E010E000E080B50320FFF7BCFF3B
:1034E000002200217FF00B00FFF7BAFF002200212D
:1034F0007FF00A00FFF7B4FF002200217FF00900EF
:10350000FFF7AEFF002200217FF00400FFF7A8FFC5
:10351000002200217FF00300FFF7A2FF002200211C
:103520007FF00100FFF79CFF00220F215FF0FF30CA
:10353000FFF796FF002200210520FFF791FF0520ED
:10354000FFF79FFF01BD000010B50400002C01D162
:10355000012033E0A0690028FFD194F83900002849
:1035600005D1002084F83800200000F028F824203D
:1035700084F839002068C06830F400502168C860C1
:10358000200000F0C3F82068006930F49040216802
:1035900008612068406930F02A002168486120688D
:1035A000C06850F400502168C8600020E06320200B
:1035B00084F83900202084F83A00002010BD7047BC
:1035C0002DE9F04182B004000D0016001F005FF0ED
:1035D000000894F8390020285DD1002D02D0B6B241
:1035E000002E01D1012057E094F93800012801D1C3
:1035F000022051E0012084F838000020E0632120FF
:1036000084F83900FFF7BBFE8046A684E68403E019
:103610002878216848606D1CE08C002828D0E08C58
:10362000401EE084A068B0F5805F16D10097434645
:1036300000228021200000F031F8002801D0032072
:103640002AE02888C005C00D21684860206900284C
:1036500001D1AD1CE0E76D1CDEE700974346002278
:103660008021200000F01AF80028D1D0032013E0B8
:103670000097434600224021200000F00FF8002868
:1036800001D0032008E0202084F83900002084F8CD
:103690003800002000E00220BDE8F6812DE9F0416D
:1036A00004000D0016001F00DDF818802068006877
:1036B0002840A84201D1012000E0002076B2B042AB
:1036C00021D118F1010FF1D0B8F1000F04D0FFF7AC
:1036D00056FEC01B8045E9D22068C06830F4D07027
:1036E0002168C8602068406940084000216848613E
:1036F000202084F83900202084F83A00002084F843
:103700003800032000E00020BDE8F0812DE9F04101
:10371000040000202068006930F44050E16808434C
:10372000216808612068C068BB490840A168226917
:10373000114362691143E269114308432168C8607B
:103740002068406930F44070A169084321684861ED
:10375000E069B0F5004F40F0B0802068AF49884282
:1037600003D02068AE49884253D1FFF79FFD8046C1
:10377000FFF79CFD0600FFF799FD0700FFF796FD98
:103780000500FFF793FD192101FB08F16268520063
:10379000B1FBF2F16422B1FBF2F1192202FB06F255
:1037A00063685B00B2FBF3F2192303FB07F366685F
:1037B0007600B3FBF6F36426B3FBF6F3642606FB50
:1037C0001322D20032326423B2FBF3F212F0F80279
:1037D000520012EB0111192202FB05F263685B0033
:1037E000B2FBF3F21923584363685B00B0FBF3F0BC
:1037F0006423B0FBF3F0642303FB1020C0003230DD
:103800006422B0FBF2F010F00700401821688860D5
:1038100000E1FFF73BFD8046FFF738FD0600FFF7AC
:1038200035FD0700FFF732FD0500FFF72FFD1921D9
:1038300001FB08F162685200B1FBF2F16422B1FBB6
:10384000F2F1192202FB06F263685B00B2FBF3F2AD
:10385000192303FB07F366687600B3FBF6F36426CF
:10386000B3FBF6F3642606FB1322D2003232642344
:10387000B2FBF3F212F0F802520012EB011119221E
:1038800002FB05F263685B00B2FBF3F219235843B5
:1038900063685B00B0FBF3F06423B0FBF3F06423D8
:1038A00003FB1020C00032306422B0FBF2F010F0B5
:1038B0000700401821688860ACE0206857498842BA
:1038C00003D020685649884252D1FFF7EFFC80466A
:1038D000FFF7ECFC0600FFF7E9FC0700FFF7E6FC4A
:1038E0000500FFF7E3FC192101FB08F16268920073
:1038F000B1FBF2F16422B1FBF2F1192202FB06F2F4
:1039000063689B00B2FBF3F2192303FB07F36668BD
:10391000B600B3FBF6F36426B3FBF6F3642606FBAE
:103920001322120132326423B2FBF3F212F0F002DE
:1039300012EB0111192202FB05F263689B00B2FB36
:10394000F3F21923584363689B00B0FBF3F0642340
:10395000B0FBF3F0642303FB10200001323064223B
:10396000B0FBF2F010F00F0040182168886051E0C1
:10397000FFF78CFC8046FFF789FC0600FFF786FC0A
:103980000700FFF783FC0500FFF780FC192101FB0E
:1039900008F162689200B1FBF2F16422B1FBF2F12E
:1039A000192202FB06F263689B00B2FBF3F21923B3
:1039B00003FB07F36668B600B3FBF6F36426B3FBBC
:1039C000F6F3642606FB1322120132326423B2FBA3
:1039D000F3F212F0F00212EB0111192202FB05F2D0
:1039E00063689B00B2FBF3F21923584363689B00A2
:1039F000B0FBF3F06423B0FBF3F0642303FB10206F
:103A0000000132306422B0FBF2F010F00F004018D9
:103A100021688860BDE8F081F369FFFF0010014074
:103A200000140140DFF89C03DFF89C130860DFF806
:103A30009C03DFF894134860DFF89403DFF88813E1
:103A400088604FF48060DFF8801388814FF48060D5
:103A5000DFF87413C8810020DFF86C13088200209F
:103A6000DFF8641348820020DFF85C13C88200206E
:103A7000DFF8541308830020DFF84C13488300203C
:103A8000D14988820020D049C8610020CE4908620F
:103A90000020CD494862704700B587B000200090F3
:103AA000CC48006850F48010CA490860C9480068D2
:103AB00010F480100090009800200090C648006824
:103AC00050F00400C4490860C348006810F00400C6
:103AD0000090009800200090BF48006850F0080057
:103AE000BD490860BC48006810F0080000900098CC
:103AF0004FF4805001900220029001200390032097
:103B000004900820059001A9B44800F07BF9042036
:103B1000019001A9B24800F075F9B248B2490860B5
:103B20005FF4E130B04948600020AF498860002070
:103B3000AD49C8600020AC4908610C20AA49486121
:103B40000020A94988610020A749C861A648FFF75D
:103B5000FBFC002201213520FFF782FC3520FFF716
:103B600090FC01A99E4800F04DF907B000BD80B55A
:103B7000FFF792FFFFF756FF01BD40B2002801D1C9
:103B800000200AE040B2012801D1002005E040B247
:103B9000022801D18C4800E000207047012282F306
:103BA0001088428B002383F3108892B2002A01D13F
:103BB000002016E08268038B9A5C0A70012181F371
:103BC0001088018B491C0183C28989B2914201D3BB
:103BD00000210183418B491E4183002080F310881E
:103BE0000120704778B4002325E0012484F3108875
:103BF000848AADF80040002484F31088BDF80040AA
:103C00008589AC42F1D29BB25C5C4568068A7455EA
:103C1000012484F31088048A641C04828589A4B278
:103C2000AC4201D300240482848A641C8482002470
:103C300084F310885B1C9BB292B29342D5D36A483E
:103C40000068C06850F0800067490968C86071BCAE
:103C5000704770B50C00150040B2FFF78EFF0600EC
:103C6000002E0AD0F069002801D0F06980472A00B0
:103C700092B221003000FFF7B5FF70BD02B50122FE
:103C8000694640B2FFF7E5FF01BD10B50C0040B238
:103C9000FFF773FF54490968C96851F02001524A7F
:103CA0001268D160002801D1002002E02100FFF756
:103CB00075FF10BD10B504004B480068C068800651
:103CC0001FD5206840684949087048480078A168B5
:103CD000E28A5054E08A401CE082E18980B2884246
:103CE00001D30020E082608BE189884202D2608BA0
:103CF000401C6083606A002803D03C480078616AF9
:103D0000884739480068C068000629D5A08A00287D
:103D100010D135480068C06830F080003249096829
:103D2000C86031480068C06850F040002E490968FA
:103D3000C86040E04FF6FF7301226068618A09188D
:103D40002948FFF73DFC608A401C6082A18980B24F
:103D5000884201D300206082A08A401EA0822AE00F
:103D600021480068C068400625D5A08A00280DD1EA
:103D70001D480068C06830F040001B490968C860F1
:103D8000206A002817D0206A804714E04FF6FF739E
:103D900001226068618A09181348FFF711FC608AE4
:103DA000401C6082A18980B2884201D300206082D9
:103DB000A08A401EA08210BD80B50348FFF77AFF9D
:103DC00001BD00000048004028820020D07800207B
:103DD000D07C0020403802403038024000080240C9
:103DE000000C024000500040AC81002034830020D1
:103DF00010B5040020000100C9B20220FFF73EFF09
:103E0000200010BD78B4002400230024002237E0F5
:103E10000825EDB212F00306F6B2B600B5402C4309
:103E2000DFF8E051960845F82640DFF8DC412468C9
:103E30009C434D68ED0300D51C43DFF8CC512C604A
:103E4000DFF8C84124689C434D68AD0300D51C438E
:103E5000DFF8B8512C60DFF8B84124689C434D6806
:103E6000ED0200D51C43DFF8A8512C60694C246892
:103E70009C434D68AD0200D51C43664B1C60521C30
:103E8000102A80F0AA80012313FA02F40B68234061
:103E9000A342F4D14C68022C02D04C68122C15D1EC
:103EA000D40810EB8404246A0F2512F00706F6B23A
:103EB000B600B540AC430D6912F00706F6B2B60085
:103EC000B5402C43D50810EB85052C62046803250A
:103ED0001600F6B27600B540AC430D7915F0030537
:103EE0001600F6B27600B5402C4304604C68012CF5
:103EF00008D04C68022C05D04C68112C02D04C68BC
:103F0000122C17D1846803251600F6B27600B5404E
:103F1000AC43CD681600F6B27600B5402C43846001
:103F2000446801259540AC434D68C5F300159540A4
:103F30002C434460C46803251600F6B27600B540F1
:103F4000AC438D681600F6B27600B5402C43C460D1
:103F50004C68E40093D5002400942F4C246854F45A
:103F600080442D4D2C602C4C246814F48044009423
:103F7000009C244C950854F825400F2512F00306A8
:103F8000F6B2B600B540AC43244DA84201D100259D
:103F90003FE7234DA84201D101253AE7214DA84230
:103FA00001D1022535E7204DA84201D1032530E794
:103FB0001E4DA84201D104252BE71D4DA84201D179
:103FC000052526E71B4DA84201D1062521E71A4DFC
:103FD000A8427FF41DAF07251BE771BC704700693D
:103FE00089B2084201D0012000E0002040B27047B1
:103FF00052B2002A02D089B2816102E089B209047A
:104000008161704708380140003C0140043C014098
:10401000083C01400C3C0140443802400000024092
:104020000004024000080240000C02400010024060
:104030000014024000180240001C024010B50400A9
:10404000002C01D1012014E094F93900002805D199
:10405000002084F83800200000F080F9022084F865
:104060003900211D206800F0D2F8012084F83900C1
:10407000002010BD0168C96851F001010268D160DB
:104080000168096851F00101006801600020704773
:1040900010B504002068006980071AD52068C06840
:1040A000800716D57FF00200216808610120207684
:1040B0002068806910F0030F03D0200000F0A4F8FE
:1040C00005E0200000F09FF8200000F09EF800209E
:1040D00020762068006940071AD52068C06840072C
:1040E00016D57FF004002168086102202076206840
:1040F000806910F4407F03D0200000F085F805E0CF
:10410000200000F080F8200000F07FF800202076EA
:104110002068006900071AD52068C068000716D516
:104120007FF0080021680861042020762068C069BB
:1041300010F0030F03D0200000F066F805E0200027
:1041400000F061F8200000F060F800202076206880
:104150000069C0061AD52068C068C00616D57FF071
:10416000100021680861082020762068C06910F4DA
:10417000407F03D0200000F047F805E0200000F069
:1041800042F8200000F041F8002020762068006905
:10419000C0070AD52068C068C00706D57FF00100B7
:1041A00021680861200000F0F5F820680069000629
:1041B0000AD52068C068000606D57FF08000216817
:1041C0000861200000F02DF92068006940060AD53A
:1041D0002068C068400606D57FF04000216808616D
:1041E000200000F013F82068006980060AD52068D6
:1041F000C068800606D57FF0200021680861200095
:1042000000F00EF910BD70477047704770470022EC
:104210000268DFF8E030984212D0B0F1804F0FD042
:10422000DFF8D43098420BD0DFF8D030984207D076
:10423000DFF8CC30984203D0DFF8C830984201D183
:10424000012300E00023DBB2002B03D032F0700228
:104250004B681A43DFF89C3098422AD0B0F1804F67
:1042600027D0DFF89430984223D0DFF8903098427E
:104270001FD0DFF88C3098421BD0DFF8883098428E
:1042800017D0DFF88430984213D0DFF8803098429E
:104290000FD0DFF87C3098420BD0DFF878309842AE
:1042A00007D0DFF87430984203D0DFF870309842BE
:1042B00001D1012300E00023DBB2002B03D032F454
:1042C0004072CB681A4302608A68C2620A688262DE
:1042D000084A904202D00B4A904201D1012200E0EC
:1042E0000022D2B2002A01D0096901630121416193
:1042F000704700000000014000040040000800403A
:10430000000C004000040140004001400044014016
:104310000048014000180040001C00400020004000
:1043200000B583B02448254908600020234948602F
:1043300000202249886041F268002049C8601F4877
:10434000FFF77CFE012000900020019069461B4889
:1043500000F03AF81948FFF78DFE07BD80B50068F8
:104360001549884215D1002000901548006850F08A
:104370001000134908601248006810F01000009007
:104380000098002200213620FFF76AF83620FFF758
:1043900078F801BD09480068C068C00709D5094818
:1043A0000068401C074908607FF001000349096864
:1043B000086170470000000000100040EC81002000
:1043C00040380240CC82002090F93820012A01D1E7
:1043D000022024E0012280F83820022280F83920CF
:1043E0000268526832F0700203685A6002685268CC
:1043F0000B681A4303685A600268926832F08002C0
:1044000003689A6002689268496811430268916083
:10441000012180F83910002180F838100020704701
:104420007047704700B593B0002000909348006833
:1044300050F08050914908609048006810F080501A
:1044400000900098002000908D48006850F4804053
:104450008B4908608A48006810F4804000900098FA
:10446000012006905FF48030079002200C905FF4EA
:1044700080000D9008200E904FF4A8700F9002203D
:1044800010900720119006A8FEF7E6FB0F20019080
:1044900002200290002003904FF4A05004904FF4AB
:1044A00080500590052101A8FEF7CAFDFEF7A1FE88
:1044B000FEF7E9FE4FF47A71B0FBF1F0FEF7E6FF8C
:1044C0000420FEF7E7FF00220F215FF0FF30FEF728
:1044D000C7FF13B000BD80B5FEF71CFFFFF7A2FFBA
:1044E000FFF745FB00F000F900F062F9FFF718FF55
:1044F00000F097F8FDF7FDFBFEE700B5FDB0614960
:10450000614800F0EBF96149614800F0E7F9614862
:1045100000F042FA5C4800F0EBF95D4800F0E8F981
:104520000021594800F02FFA00281AD05A4800F00C
:1045300033FA5A4800F030FA6846FDF712FF694630
:10454000574800F029FA574800F026FA6846FDF768
:1045500075FF6946524800F01FFA01214A4800F0F1
:1045600012FA00214A4800F00EFA002805D000F0A7
:1045700071F80121464800F006FA1420FDF759FBB6
:10458000C8E700B591B000F065F80FE0464901A812
:10459000FEF7F4FA01A8FCF7D3FC020092B201A9DD
:1045A0000220FFF756FB1420FDF743FB694602206B
:1045B000FFF76BFB0028F6D09DF80000312806D0ED
:1045C000F1D333281FD010D33428DFD0EBE737499D
:1045D00001A8FEF7D3FA01A8FCF7B2FC020092B2E0
:1045E00001A90220FFF735FBDDE7314901A8FEF7FD
:1045F000C5FA01A8FCF7A4FC020092B201A90220AE
:10460000FFF727FBCFE72B4901A8FEF7B7FA01A870
:10461000FCF796FC020092B201A90220FFF719FBF9
:10462000C1E700B583B02448019001200090002329
:104630004FF4007221492248FDF706FA2148019003
:104640000220009000234FF400721F491F48FDF71D
:10465000FBF907BD80B51E4800F09EF91D4800F02B
:104660009BF91D4800F098F91C4800F095F91C488A
:1046700000F092F91B4800F08FF901BD403802406C
:1046800000700040A9480008BC820020BF48000814
:10469000C4820020804C0008CC4A0008004B00086F
:1046A000344E0008604B0008B44D0008784D0008F7
:1046B0008C4D0008A04D0008E0820020F84D000855
:1046C000FB440008E4820020044E000883450008F3
:1046D000304B00088C4B0008A04C0008BC4C000874
:1046E000D84C0008F44C000800B587B000200090BA
:1046F0002C48006850F080002A490860294800686A
:1047000010F080000090009800200090254800687C
:1047100050F01000234908602248006810F0100093
:1047200000900098002000901E48006850F0100093
:104730001C4908601B48006810F0100000900098A9
:1047400000224FF400711848FFF752FC002220218C
:104750001648FFF74DFC002240211448FFF748FCA3
:104760004FF400700190012002900220049001A9F2
:104770000D48FFF747FB2020019001200290022006
:10478000049001A90948FFF73DFB4020019001205A
:1047900002900220049001A90448FFF733FB07B000
:1047A00000BD000030380240001C024000100240F2
:1047B00000B587B0002000904648006850F0100017
:1047C000444908604348006810F0100000900098C9
:1047D000002000903F48006850F010003D490860FC
:1047E0003C48006810F010000090009800200090F5
:1047F0003848006850F010003649086035480068B5
:1048000010F01000009000980020009031480068DF
:1048100050F010002F4908602E48006810F010007A
:1048200000900098002000902A48006850F0100086
:10483000284908602748006810F010000090009890
:1048400001200190002002900120039001A922483C
:10485000FFF7D8FA02200190002002900120039077
:1048600001A91D48FFF7CEFA042001900020029014
:104870000120039001A91848FFF7C4FA082001900D
:10488000002002900120039001A91348FFF7BAFA13
:1048900010200190002002900120039001A90E48F1
:1048A000FFF7B0FA07B000BD80B501210A48FFF755
:1048B00096FB002801D1012000E0002002BD80B558
:1048C00002210548FFF78BFB002801D1012000E001
:1048D000002002BD3038024000100240016000217B
:1048E000017102214171022181710021C171704762
:1048F00010B5040094F90500012821D042D3032803
:1049000027D002D3042809D03CE020688047002843
:1049100003D00020E0710420607133E0E0790A30B8
:10492000E071E0790A280ADB20688047002804D07B
:104930000120A0710120607101E00220607121E07E
:1049400020688047002803D10020E07103206071B7
:1049500018E0E0790A30E071E0790A2812DB20687B
:10496000804700280CD10120A071022060712079BD
:10497000401C20712079FB2804DBFA20207101E023
:104980000120607110BD49B2C90701D50021017134
:104990000079C0B2704700000EB400B582B003A920
:1049A000009102466B460121034878440A30FBF728
:1049B000EBFB06BC5DF810FB9D030000124800688D
:1049C00050F47000104908601048006850F0010071
:1049D0000E49086000200E4908600C4800680D4927
:1049E00008400A4908600C480C49086007480068FC
:1049F00030F48020054908600020094908605FF014
:104A0000006008490860704788ED00E00038024007
:104A100008380240FFFFF6FE103000240438024040
:104A20000C38024008ED00E070471048002108E013
:104A3000C9B20A560E4B1A600E4A12685206FBD5CE
:104A4000491CC9B22A29F3D3FEE7FEE7FEE7FEE7D9
:104A5000704780B5FEF78DFC00F010F801BD70477F
:104A600080B50548FFF714FB01BD0000B84B0008F6
:104A70000410014000100140EC81002080B5FDF7DA
:104A80004EFC012801D0FEF71CF801BD19E050F8DA
:104A9000041BCB0744BFA9F101035918121F0023BF
:104AA000042A41F8043BF9D25FEA827C0B4604D524
:104AB0004FF0000CA1F800C09B1CD10744BF00219F
:104AC000197050F8042B002AE1D170473D3D3D3D5F
:104AD0003D3D3D3D3D3D3D3D3D3D3D3D3D3D3D3D06
:104AE0003D3D3D3D3D3D3D3D3D3D3D3D3D3D3D3DF6
:104AF0003D3D3D3D3D3D3D3D3D3D3D3D3D0D0A0086
:104B0000C8CECEF1C3FB202020202020C8CECEF17D
:104B1000D7B4CCAC20D3C5CFC8BCB6202020CAA304
:104B2000D3E0D5BB20C8CECEF1D0F2BAC50D0A0075
:104B30003D3D3D3D3D3D3D3D3D3D3D3D3D3D3D3DA5
:104B40003D3D3D3D3D3D3D3D3D3D3D3D3D3D3D3D95
:104B50003D3D3D3D3D3D3D3D3D3D0D0A00000000DC
:104B60000D0AC8CECEF1C3FB20202020202020D467
:104B7000CBD0D0BCC6CAFD20202020202020202061
:104B8000CAB9D3C3C2CA0D0A00000000C7EBD1A145
:104B9000D4F1B4AEBFDAB2D9D7F7C3FCC1EEA3AC3F
:104BA000B5E7C4D4BCFCC5CCB4F2D3A1CAFDD7D6FA
:104BB000BCB4BFC93A0D0A000D0A456E7465722077
:104BC000486172644661756C745F48616E646C65BF
:104BD000722C2053797374656D2048616C742E0DAE
:104BE0000A00000010B450F8041B79B10268436851
:104BF00012180830DC0744BFA9F10104E31852F889
:104C0000044B43F8044B091FF9D1ECE710BC704783
:104C100010B5074979441831064C7C44163404E039
:104C20000A68081D511888470146A142F8D110BDF5
:104C30002C0000004C0000004EF68851CEF200011E
:104C4000086840F470000860BFF34F8FBFF36F8FA8
:104C50004FF00070E1EE100A7047000031FEFFFFD8
:104C600068820000D00000200000000079FFFFFFF4
:104C7000D00000001403000000000020000000002D
:104C8000B0B4CFC24B455931A1A24B455932D6B42D
:104C9000D0D0B2BBCDACB5C4C8CECEF10A000000B6
:104CA000312E20BDD3CAD5B5BDC3FCC1EE31A3ACF6
:104CB000B4F2D3A1CFFBCFA20D0A0000322E20BD4B
:104CC000D3CAD5B5BDC3FCC1EE32A3ACB4F2D3A1F7
:104CD000CFFBCFA20D0A0000332E20BDD3CAD5B51D
:104CE000BDC3FCC1EE33A3ACB4F2D3A1CFFBCFA2C2
:104CF0000D0A0000342E20BDD3CAD5B5BDC3FCC1FA
:104D0000EE34A3ACB4F2D3A1CFFBCFA20D0A0000C6
:104D100000F00BF8002801D0FFF77AFF0020C04612
:104D2000C046FFF7D8FB00F002F80120704700F002
:104D300001B800000746384600F002F8FBE7000023
:104D400080B5C046C046024A11001820ABBEFBE742
:104D50002600020038B504460D46284600F006F845
:104D6000A84218BF0024204632BD00000149FFF7C9
:104D70003FB800BF88000020BDD3CAD5B5BDB4AED2
:104D8000BFDAC3FCC1EE310D0A000000BDD3CAD5A5
:104D9000B5BDB4AEBFDAC3FCC1EE320D0A000000EF
:104DA000BDD3CAD5B5BDB4AEBFDAC3FCC1EE330DB9
:104DB0000A000000BDD3CAD5B5BDB4AEBFDAC3FC8E
:104DC000C1EE340D0A0000000000000000000000E9
:104DD0000102030406070809092563092575092549
:104DE000750925750D0A00000148804701480047F4
:104DF000BD490008294E0008765461736B557365F0
:104E000072494600765461736B4C45443100000092
:104E10000925750909257525250D0A000925750936
:104E2000093C3125250D0A00C046C046FFF704FFA6
:104E3000FFF76EFF25730D0A000000000000000060
:104E40000102030449444C45000000000800000032
:104E5000FFF7FEBFFFF7FEBFFFF7FEBFFFF7FEBF86
:104E6000FFF7FEBFFFF7FEBFFFF7FEBFFFF7FEBF76
:104E7000FFF7FEBFFFF7FEBFFFF7FEBFFFF7FEBF66
:104E8000FFF7FEBFFFF7FEBFFFF7FEBFFFF7FEBF56
:104E9000FFF7FEBFFFF7FEBFFFF7FEBFFFF7FEBF46
:104EA000FFF7FEBFFFF7FEBFFFF7FEBFFFF7FEBF36
:104EB000FFF7FEBFFFF7FEBFFFF7FEBFFFF7FEBF26
:104EC000FFF7FEBFFFF7FEBFFFF7FEBFFFF7FEBF16
:104ED000FFF7FEBFFFF7FEBFFFF7FEBFFFF7FEBF06
:104EE000FFF7FEBFFFF7FEBFFFF7FEBFFFF7FEBFF6
:104EF000FFF7FEBFFFF7FEBFFFF7FEBFFFF7FEBFE6
:104F0000FFF7FEBFFFF7FEBFFFF7FEBFFFF7FEBFD5
:104F1000FFF7FEBFFFF7FEBFFFF7FEBFFFF7FEBFC5
:104F2000FFF7FEBFFFF7FEBFFFF7FEBFFFF7FEBFB5
:104F3000FFF7FEBFFFF7FEBFFFF7FEBFFFF7FEBFA5
:104F4000FFF7FEBFFFF7FEBFFFF7FEBFFFF7FEBF95
:104F5000FFF7FEBFFFF7FEBFFFF7FEBFFFF7FEBF85
:104F6000FFF7FEBFFFF7FEBFFFF7FEBFFFF7FEBF75
:104F7000FFF7FEBFFFF7FEBFFFF7FEBFFFF7FEBF65
:104F8000FFF7FEBFFFF7FEBF0000000000000000BB
:104F90000000000000000000000000000000000011
:104FA00000000000FFFFFFFFFFFFFFFF0000000009
:104FB00000000000000000000000000000000000F1
:104FC00000000000000000000000000000000000E1
:104FD000FFFFFFFFFFFF00000000000000000000D7
:104FE00000000000000000000000000000000000C1
:104FF00000000000000000000000000000000000B1
:1050000000000000000000000000000000000000A0
:10501000020401015C810020AC8100205C81002041
:105020005C8100205C810020C5000020AC000020D5
:105030000000000000000000000000000000000070
:105040000000000000000000000000000000000060
:08505000AAAAAAAA007A030A29
:0400000508004E2978
:00000001FF
