:020000040800F2
:10000000304500205D0200086B1900083517000814
:100010006919000861080008ED1E000800000000D2
:100020000000000000000000000000009D0100082A
:100030006308000800000000F9010008DD1A00084C
:1000400077020008770200087702000877020008AC
:10005000770200087702000877020008770200089C
:10006000770200086D080008770200087702000890
:10007000770200087702000877020008770200087C
:10008000770200087702000877020008770200086C
:10009000770200087702000877020008730800085A
:1000A000770200087702000877020008770200084C
:1000B0007702000877020008A91B000877020008F1
:1000C000770200087702000877020008770200082C
:1000D00077020008CD1E00087702000877020008AA
:1000E0006508000877020008770200087702000818
:1000F00077020008770200087702000877020008FC
:1001000077020008770200087702000877020008EB
:1001100077020008770200087702000877020008DB
:1001200077020008770200087702000877020008CB
:1001300077020008770200087702000877020008BB
:1001400077020008770200087702000877020008AB
:10015000770200087702000877020008770200089B
:10016000770200087702000877020008770200088B
:1001700077020008770200087702000800000000FC
:100180007702000877020008DFF80CD000F056FB79
:10019000004800475D280008304500202C4B1968B6
:1001A0000868B0E8F04F80F30988BFF36F8F4FF015
:1001B000000080F3118870470000000008480068C4
:1001C000006880F308884FF0000080F3148862B65E
:1001D00061B6BFF34F8FBFF36F8F00DF00BF00BF6B
:1001E00008ED00E0DFF80C00016841F470010160E7
:1001F000704700BF88ED00E0EFF30980BFF36F8F19
:10020000134B1A681EF0100F08BF20ED108A20E96A
:10021000F04F106009B44FF0500080F31188BFF325
:100220004F8FBFF36F8F03F031F94FF0000080F371
:10023000118809BC19680868B0E8F04F1EF0100F6B
:1002400008BFB0EC108A80F30988BFF36F8F704746
:10025000B8000020EFF30580704700000648804793
:1002600006480047FEE7FEE7FEE7FEE7FEE7FEE79B
:10027000FEE7FEE7FEE7FEE78D1B000889010008A8
:100280002DE9F05F0546002092469B4688460646CB
:10029000814640241BE0284641464746224600F05E
:1002A000ABF953465A46C01A914110D3114618462D
:1002B000224600F092F92D1A67EB01084F462246BC
:1002C0000120002100F089F917EB00094E41201EA2
:1002D000A4F10104DFDC484631462A464346BDE826
:1002E000F09F40EA01039B0703D009E008C9121FF1
:1002F00008C0042AFAD203E011F8013B00F8013BE0
:10030000521EF9D27047D2B201E000F8012B491E0B
:10031000FBD270470022F6E710B513460A460446A2
:100320001946FFF7F0FF204610BD2DE9FE4F80462D
:1003300081EA0300C00F0C46009021F0004123F039
:100340000045B8EB0200A94105D24046214690463F
:100350001C460B46024623F00040104347D0270DB1
:10036000C7F30A00C3F30A510290401A01904028D3
:100370006BDAC3F3130040F4801B0098924620B15F
:100380000023D2EB030A63EB0B0B01985946C0F133
:100390004002504600F021F906460D4650465946A7
:1003A000019A00F039F910EB08006141002487EA56
:1003B000115284EAE7731A4340D0009A62B3019A5B
:1003C000012A4FEA075215DC001B61EB02014FF0D6
:1003D000004202EA0752CDE90042001C41F58011BB
:1003E00032462B4600F039F903B0BDE8F08F4046A5
:1003F0002146F9E7001B61EB0201001C41F5801367
:1004000000185B412018A2F5001747EB030140EAF2
:10041000D570B6196D4111E06D084FEA360645EA10
:10042000C0754FEA0752001B61EB0201001C41F549
:10043000801149084FEA30000019514132462B46DD
:1004400003B0BDE8F04F00F0F9B800980122400079
:100450000023D0EB020263EBE073009821464FEAE1
:10046000E074B8EB000061EB0401E9E783F00043BE
:100470005BE781F0004158E72DE9F04D81EA030484
:1004800004F0004B21F0004514464FF0000A23F021
:10049000004150EA050220D054EA01021DD0C5F304
:1004A0000A570246C5F31303C1F31300C1F30A56FA
:1004B00040F4801543F48013A7EB0608101BD646C2
:1004C00008F2FD3873EB050002D308F1010801E0E2
:1004D00092185B41B8F1000F03DA00200146BDE835
:1004E000F08D00204FF48011064684460EE0171B65
:1004F00073EB050705D3121B63EB050306434CEAB8
:10050000010C49084FEA300092185B4150EA01079C
:10051000EDD152EA030012D082EA040083EA050119
:10052000084305D0101BAB4106D20122002306E090
:1005300000224FF0004302E06FF0010253101AEB6B
:1005400006004CEB085110EB0A0041EB0B01BDE833
:10055000F04D00F073B80EB540F233410291002126
:10056000CDE900110A460B4600F077F803B000BD54
:1005700070B5C1F30A5201F000450024C1F3130124
:1005800040F2FF3341F480119A4201DA002070BD3D
:1005900040F233439A42A2F2334203DC524200F06B
:1005A0002BF800E090402C43F1D0404270BD30B5B4
:1005B0000B46014600202022012409E021FA02F521
:1005C0009D4205D303FA02F5491B04FA02F52844BB
:1005D000151EA2F10102F1DC30BD202A04DB203A15
:1005E00000FA02F1002070479140C2F1200320FA86
:1005F00003F3194390407047202A04DB203A21FA84
:1006000002F00021704721FA02F3D040C2F120022B
:100610009140084319467047202A06DBCB17203A41
:1006200041FA02F043EAE07306E041FA02F3D040F7
:10063000C2F12002914008431946704710B5141EBC
:1006400073F1000408DA401C41F1000192185B418B
:100650001A4301D120F0010010BD2DE9F04D924662
:100660009B4611B1B1FA81F202E0B0FA80F2203279
:100670009046FFF7B2FF04460F4640EA0A0041EAFF
:100680000B0153465A46084313D0114653EA010062
:1006900019D0C8F140025046FFF7AEFF05460E469E
:1006A000504659464246FFF798FF084305D00120BF
:1006B00004E020463946BDE8F08D0020054346EAB7
:1006C000E0762C4337430A986305E40AA0EB080060
:1006D0000022FD0A44EA47540A3002D500200146B0
:1006E000E9E7010510196941DDE90845001969418B
:1006F000BDE8F04DA2E72DE9FE4F81EA030404F0C6
:10070000004421F0004100944FF0000B23F000431F
:1007100050EA01045ED052EA03045BD0C3F30A54EA
:10072000C1F30A552C44A4F2F3340194A0FB025403
:10073000C1F3130141F48011C3F3130343F4801395
:1007400001FB024400FB034E840A970A44EA8154E9
:1007500047EA8357A4FB076802958D0A05FB0785C6
:100760004FEA932C04FB0C542705029D4FEA0658D0
:1007700047EA1637B5EB08056EEB070C870E920EAD
:1007800047EA811742EA8312A7FB0201B6EB0B018D
:1007900064EB00042B0D43EA0C335E1844EB1C5051
:1007A000DA465146E7FB0201C5F313044FEA0B3367
:1007B00043EA14534FEA0432019C43EA0603A4F1CE
:1007C0000C040294009CCDE900B4FFF746FF03B08F
:1007D000BDE8F08F00200146F9E7C1F30A52C1F3EA
:1007E000130140F2FF3341F480119A4202DA0020F3
:1007F0000146704740F233439A42A2F2334202DC90
:100800005242FFF7F9BEFFF7E8BE000030B5041E04
:1008100071F1000404DB4FF00044404264EB01013D
:10082000141E73F1000405DB1C464FF000435242D6
:1008300063EB0403994208BF904230BD064C074D5C
:1008400006E0E06840F0010394E8070098471034A0
:10085000AC42F6D3FFF79CFC883F0008A83F000895
:10086000FEE770474FF4004000F06EB8082000F03B
:100870006BB810B5402000F067F8BDE8104080204C
:1008800000F062B890F83510022903D0802141654C
:1008900001207047052180F835100068016821F0BB
:1008A000010101600020704770B50124174D4028F8
:1008B00015D01749802816D0B0F5004F21D0082850
:1008C0001ED1C868401CC860C82819DB85F878406C
:1008D0000D2210A1BDE87040114800F00BBF2C762E
:1008E0000D2210A1F6E78868401C8860B0F5FA6F09
:1008F00006DB0D220EA10A4800F0FCFE85F8384008
:1009000070BD85F858400D220CA1E3E700000020DF
:10091000980000206B6579342069732075700A0097
:10092000180100206B6579312069732075700A0009
:100930006B6579322069732075700A006B657933B5
:100940002069732075700A00044910B50A680242D4
:1009500002D00860FFF7A8FF10BD0000143C014062
:100960002DE9F84F00224FF0010803254FF00F0E3C
:100970000B6808FA02F42340A3426ED14E68012EA0
:1009800005D0022E03D0112E01D0122E12D186686E
:100990004FEA420C05FA0CF7BE43CF6807FA0CF792
:1009A000374387604668A6430C79C4F3001494402B
:1009B00034434460C668570005FA07FC8C6826EA91
:1009C0000C06BC403443C4604C68022C01D0122C8D
:1009D00013D1D40800EB8404A346D4F82090540724
:1009E0004FEAD46A0EFA0AF629EA06090E6906FAEF
:1009F0000AF646EA0906CBF8206006680C7926EA72
:100A00000C0604F00304BC40344304604C68E4006A
:100A100065D5364C266846F480462660246822F068
:100A2000030604F480440094314C3444A446D4F8C2
:100A300008489607370F0EFA07F6B4432D4EB0421A
:100A400001D1002624E02C4EB04201D101261FE046
:100A50002A4EB04202D102261AE040E0284EB042AF
:100A600001D1032614E0274EB04201D104260FE045
:100A7000254EB04201D105260AE0244EB04201D1F4
:100A8000062605E0224EB04201D1072600E00826E6
:100A9000BE402643CCF808681E4E34684F689C431D
:100AA000FF0300D51C4334601A4C241D26684F6890
:100AB0009E43BF0300D51E432660164E0836346899
:100AC0004F689C43FF0200D51C433460114E0C3626
:100AD00034684F689C43BF0200D51C433460521CED
:100AE000102AFFF445AFBDE8F88F000044380240FB
:100AF00000300140000002400004024000080240B3
:100B0000000C024000100240001402400018024095
:100B1000001C0240003C01400AB181617047090499
:100B2000FBE700000148806870470000A800002033
:100B3000024881680278114481607047A800002053
:100B40000B4810B5016841F400710160016841F47F
:100B500080610160016841F480710160032000F050
:100B60008DF8002000F006F800F03EF8002010BDDF
:100B7000003C024010B5014688B000221E2000F063
:100B80005DF81E2000F04CF813480024016841F085
:100B900004010160006805A900F0040006906846A1
:100BA00000F018F900F036F90C494000B0FBF1F103
:100BB0000C480B4A491E026040F2E732C0E90324A8
:100BC000C0E9011400F034FB10B1012008B010BDE1
:100BD000044800F049FBF9E74038024040420F006A
:100BE00000080040000400200C4882B0016841F475
:100BF00080410160006800F4804000900748001FB9
:100C0000016841F0805101600068002200F08050CE
:100C100000900F21901E02B000F010B8443802403E
:100C2000002809DB00F01F020121914040098000EB
:100C300000F1E020C0F8001170470000F0B40E4B46
:100C40001B680C46C3F30223C3F10705042D00D92A
:100C50000425191D072901D2002300E0DB1E01260F
:100C600006FA05F1491E214099409E40761E164025
:100C70003143F0BC01F050B90CED00E0064900F042
:100C8000070208684FF6FF03184040EA0220034AB3
:100C900010430860704700000CED00E00000FA050A
:100CA0002DE9F0470E46050065D0DFF81481D8F82D
:100CB0000000F7B200F00F00B04207D288F80070D1
:100CC000D8F8000000F00F00B04254D128683D4C25
:100CD000810712D5400703D5206840F4E05020601A
:100CE0002878000703D5206840F460402060206821
:100CF000A96820F0F000084320602878C0072DD0B4
:100D0000304968680839012812D0022813D0032816
:100D100011D00968890700292DDA216821F0030123
:100D200001432160FFF7FEFE814641F2883A0EE062
:100D300009688903EFE709688901ECE7FFF7F2FE2C
:100D4000A0EB0901514502D90320BDE8F0872068D6
:100D5000696800F00C00B0EB810FEFD1D8F80010FB
:100D6000404601F00F01B14207D90770006800F05A
:100D70000F00B04201D00120E7E72878400705D5F1
:100D80002068E96820F4E0500843206028780007D4
:100D900006D52068296920F4604040EAC10020603F
:100DA00000F058F82168084AC1F30311515CC840AB
:100DB0000649086006480068FFF7DCFE0020C4E72B
:100DC000003C024008380240483F0008B4000020C0
:100DD000AC0000200F2202600C4A136803F00303EA
:100DE0004360136803F0F0038360136803F4E05377
:100DF000C36012684FF4E05303EAD2020261044870
:100E0000006800F00F0008607047000008380240DA
:100E1000003C02400448054900680968044AC1F3DF
:100E20008221515CC8407047B4000020083802405D
:100E3000583F00080448054900680968044AC1F39E
:100E40004231515CC8407047B4000020083802406D
:100E5000583F0008154810B5006810F00C021448FF
:100E600013D01449042A0FD0082A0ED10F4C241F86
:100E70002268236802F03F025B0207D52068C0F3B6
:100E80008810A0FB010106E0084610BD2168C1F3EF
:100E90008811A1FB00010023FFF7F2F92168C1F3DB
:100EA0000141491C4900B0FBF1F010BD0838024077
:100EB0000024F40040787D012DE9F84F04006ED045
:100EC0002078DFF83C93C007A9F104054AD009F166
:100ED00004000168C1F38101012908D00068C0F352
:100EE000810002280AD1D9F80000400206D52868FE
:100EF000800337D560680028E1D033E06068B0F542
:100F0000803F10D0B0F5A02F286810D020F480309A
:100F10002860286820F4802028606068A8B1FFF766
:100F200001FE06460DE0286840F48030F4E740F406
:100F300080202860F7E700BFFFF7F4FD801B6428DE
:100F400073D828688003F7D50CE0FFF7EBFD064661
:100F500005E000BFFFF7E6FD801B6428F0D8286895
:100F60008003F7D42078DFF89C8280074FF0000AD6
:100F70003ED5A348001D016811F00C0F08D0006891
:100F8000C0F3810002280BD1D9F80000400207D439
:100F90002868800716D5E068012800D112E02BE10F
:100FA000E068B8B10120C8F80000FFF7BBFD0646B5
:100FB00005E000BFFFF7B6FD801B0228C0D82868F7
:100FC0008007F7D52868216920F0F80040EAC100C1
:100FD00028600DE0C8F800A0FFF7A4FD064604E075
:100FE000FFF7A0FD801B02281FD828688007F7D4D0
:100FF0002078000722D5824E83486169703671B12E
:1010000001210160FFF78EFD074604E0FFF78AFD2E
:10101000C01B022809D830688007F7D50EE0C0F859
:1010200000A0FFF77FFD074605E082E0FFF77AFDAD
:10103000C01B02287DD830688007F7D4207840078D
:1010400068D5DFF8BCB100270BF13C0BDBF80000E2
:10105000C0000BD4DBF8001041F08051CBF8001039
:10106000DBF80000012700F080500090674E3068E8
:10107000C00510D4306840F480703060FFF752FD36
:10108000009005E0FFF74EFD0099401A022850D865
:101090003068C005F6D55A4EA0686C3601280FD0CE
:1010A0000528306810D020F001003060306820F052
:1010B00004003060A068B8B1FFF734FD00900FE085
:1010C000306840F00100F4E740F004003060F7E7DA
:1010D000FFF728FD0099411A41F28830814266D815
:1010E00030688007F4D50EE0FFF71CFD009007E0A4
:1010F000FFF718FD0099411A41F28830814256D815
:1011000030688007F4D42FB1DBF8001021F0805153
:10111000CBF80010A069C8B33949091D0968C1F3AB
:10112000810102294AD00228504607D0C8F8600041
:1011300000E03CE0FFF7F6FC04463BE04746C8F819
:101140006000FFF7EFFC064605E000BFFFF7EAFC92
:10115000801B02282BD828688001F7D4D4E9070126
:101160000843A16A2A4A490802EB0141626A41EA3E
:101170008211084394F82C1040EA0161C9F800106C
:1011800001203866FFF7CEFC044606E036E000BFDB
:10119000FFF7C8FC001B022809D828688001F7D592
:1011A0002CE000BFFFF7BEFC001B022802D9032081
:1011B000BDE8F88F28688001F4D41FE00128F7D03B
:1011C000D9F80000E26900F48001914214D1226A4A
:1011D00000F03F0191420FD147F6C071626A0140B1
:1011E000914209D1A26A00F44031914204D1E16AEE
:1011F00000F07060884201D00120D9E70020D7E7D5
:101200000438024000004742800E47420070004010
:101210000000FFFF4FF0E0210428086903D020F010
:1012200004000861704740F00400FAE77047704717
:1012300010B5040003D094F83D0010B107E0012080
:1012400010BD002084F83C00204600F00CF802207D
:1012500084F83D00211D206800F0ACFC012084F8DA
:101260003D00002010BD70470168CA6842F00102CD
:10127000CA600068816801F00701062903D001688F
:1012800041F00101016000207047704770B50446CD
:10129000006801694FF00005C943890715D4C1688A
:1012A000C943890711D4E91E016101202077206814
:1012B00080698007204602D0FFF7E7FF04E000F0D6
:1012C00098F8204600F096F8257720680169C94310
:1012D000490717D4C168C943490713D46FF0040103
:1012E0000161022020772068806910F4407F204649
:1012F00002D0FFF7CAFF04E000F07BF8204600F0C0
:1013000079F8257720680169C943090716D4C168AF
:10131000C943090712D46FF0080101610420207746
:101320002068C0698007204602D0FFF7AEFF04E0C6
:1013300000F05FF8204600F05DF82577206801692D
:10134000C943C90617D4C168C943C90613D46FF08D
:1013500010010161082020772068C06910F4407FE7
:10136000204602D0FFF791FF04E000F042F820464B
:1013700000F040F8257720680169C943C90708D102
:10138000C168C943C90704D1891E0161204600F024
:1013900033F820680169C943090609D4C168C94303
:1013A000090605D46FF0800101612046FFF73EFF7A
:1013B00020680169C943490609D4C168C94349067F
:1013C00005D46FF040010161204600F01FF820684D
:1013D0000169C94389060BD4C168C943890607D48A
:1013E0006FF0200101612046BDE87040FFF71FBF8C
:1013F00070BD70477047000000680349884201D102
:10140000FFF796BB70470000000800407047704728
:1014100070B5026804461068D168536910F00F0F68
:1014200052D003F0010501F490762E435FD0C2073D
:1014300005D0CA0503D5E26B42F00102E263420720
:1014400005D5DA0703D0E26B42F00202E2638207BD
:1014500005D5DA0703D0E26B42F00402E26302072B
:1014600007D501F020022A4303D0E26B42F00802C4
:10147000E263E26B002A33D0800604D5880602D5E9
:10148000204600F011FC20684069E16BC0F3801039
:10149000090700D428B3204600F0F8FB2068416912
:1014A00049061AD5416921F040014161606BA0B144
:1014B0001B490165606BFFF7E5F9002810D0606BF0
:1014C000016DBDE870400847830610D58B060ED528
:1014D0002046BDE8704000F0E7BB2046FFF797FFCD
:1014E00070BD2046FFF793FF0020E06370BD030648
:1014F00006D50B0604D52046BDE8704000F0B4BC0C
:101500004006F3D54806F1D5D168204621F04001C8
:10151000D160202184F8391000F00BF970BD000073
:101520007D1C000870B5040004D094F83900002533
:1015300010B106E0012070BD84F83850204600F05C
:1015400023F8242084F839002068C16821F4005170
:10155000C160204600F0F4FB2068016921F490414D
:1015600001612068416921F02A0141612068C16858
:1015700041F40051C160E563202084F8390084F80B
:101580003A00002070BD000030B587B00446142139
:101590006846FEF7BFFE274D236800212648022239
:1015A0000724AB4225D1244B14331D6845F01005A8
:1015B0001D601B6803F010030593036843F00203EA
:1015C0000360006802AB00F002000590C020CDE986
:1015D000000283E8160069461848FFF7C1F90022A7
:1015E00005212520FFF72AFB2520FFF719FB07B06F
:1015F00030BD134DAB42FAD10F4B10331D6845F48B
:1016000000351D601B6803F400330593036843F045
:10161000080303600068049400F00800059060204F
:10162000CDE900020320CDE9021069460548FFF725
:1016300097F9DCE700100140303802400004024016
:1016400000440040000C024090F83A30202B22D198
:10165000F9B1F2B190F83830012B1CD0816282854B
:10166000C2850021C163222280F83A2080F8381018
:101670000168CA6842F48072CA6001684A6942F02F
:1016800001024A610068C16841F02001C160002088
:1016900070470120704702207047000070B5104C61
:1016A0000025104965600068884217D120460E4A1F
:1016B000017840880A29115408D0401C6080BDE898
:1016C0007040012206490948FFF7BEBF0848044997
:1016D000091D006802F0CEF86580F0E770BD0000DB
:1016E0009800002000100140EC03002018010020A9
:1016F0009000002090F83930202B18D1A9B1A2B168
:1017000090F83830012B12D001628284C28400210B
:10171000C163212280F8392080F838100068C16840
:1017200041F08001C1600020704701207047022015
:1017300070477047FEE70A2001F0FAF8FBE7000067
:101740002DE9F04F87B014216846FEF7E3FD7C4891
:101750000026016841F010010160016801F01001EC
:101760000591016841F480710160016801F48071A4
:101770000591016841F020010160016801F020013C
:101780000591016841F004010160016801F0040164
:101790000591016841F001010160016801F001015A
:1017A0000591016841F002010160016801F0020148
:1017B0000591016841F080010160016801F080013C
:1017C0000591016841F0080101600068DFF874A12B
:1017D00000F008000590012260215046FFF79CF9B7
:1017E000DFF864B140F2E447012239465846FFF77A
:1017F00093F9012202215548FFF78EF900220921B1
:101800005348FFF789F9002250215248FFF784F925
:10181000002202215048FFF77FF94FF4007801229F
:1018200041464E48FFF778F940F60809012249463B
:101830004B48FFF771F9012211024548FFF76CF997
:1018400002256020012403958DE851006946504629
:10185000FFF786F800970395CDE90146694658469B
:10186000FFF77EF8CDE90054CDE9026569463748B7
:10187000FFF776F840F2091003958DE851006946AC
:101880003348FFF76DF8502003958DE85100694605
:101890003048FFF765F8CDE9004669462E480294C6
:1018A000FFF75EF8CDE90054CDE9026569462A48A4
:1018B000FFF756F8CDF800800395CDE9014669465B
:1018C0002648FFF74DF8CDF800900395CDE9014685
:1018D00069462348FFF744F8224DC020CDE90005B2
:1018E000694602941A48FFF73BF8E003CDE900058A
:1018F000694602941748FFF733F80820CDE9000540
:10190000694602941448FFF72BF8002205210920AC
:10191000FFF794F90920FFF783F90022052117202A
:10192000FFF78CF91720FFF77BF90022052128200B
:10193000FFF784F92820FFF773F907B0BDE8F08FAF
:1019400030380240001002400020024000140240E3
:10195000000802400000024000040240001C024057
:10196000000C024000002110FEE770470022264EC6
:101970004FF4806529463046FFF7CEF80022022159
:101980002248FFF7C9F84FF47A74204600F0D0FFE0
:10199000012229463046FFF7BFF8C82000F0C8FFF3
:1019A000002229463046FFF7B7F8C82000F0C0FFF4
:1019B00001F0CEFA182001F03DFA154D15492861C5
:1019C00091ED040B14A153EC102B00F091FA1422AA
:1019D00016482969FFF78EFE286901F00FFC0020E8
:1019E00028617515124E002229463046FFF794F8FB
:1019F000204600F09DFF012229463046FFF78CF873
:101A0000204600F095FFEEE700200240000402406F
:101A100084000020000000205864697374616E63C4
:101A2000653D5B25302E33665D0D0A0018010020F0
:101A3000001C02401CB51B4D1B4C4FF0FF373946B4
:101A4000E06801F065FF0D2218A11C48FFF752FE67
:101A5000182001F0EFF92061287801281AD1B5F893
:101A600003006E7843BAA9784FF47A72304601F0D9
:101A7000C7FA1348324600EB461012A190ED040B52
:101A80008DED000B206900F033FA18220B48216914
:101A9000FFF730FE206901F0B1FB0A2000F048FF9B
:101AA000CDE70000EC03002084000020526563694C
:101AB000657665204F4B210D0A00000018010020BB
:101AC000000000206D6F746F722564206469733D9F
:101AD0005B25302E33665D0D0A00000010B55020E6
:101AE00080F31188BFF34F8FBFF36F8F02F06CF854
:101AF00018B104494FF080500860002080F311882D
:101B000010BD000004ED00E030B593B03021684610
:101B1000FEF700FC14210CA8FEF7FCFB1948002579
:101B2000016841F080510160006800F08050119020
:101B30001548016841F4804101600068022400F406
:101B4000804011900120039010200490009406948E
:101B50000820CDE90750A820CDE9090404200B9006
:101B60006846FFF7A9F90CA90F2081E831004FF46E
:101B7000A0500F90E002109005210CA8FFF790F8FC
:101B800013B030BD40380240007000400548016885
:101B900041F47001016003494FF000608039086032
:101BA0007047000088ED00E00148FFF76FBB0000C0
:101BB00000040020F0B50268254C264D264E274F24
:101BC000274B4FF0804CA04209D0604507D0A84277
:101BD00005D0B04203D0B84201D0984204D122F0DF
:101BE000700E4A6842EA0E02A0421BD0604519D02E
:101BF000A84217D0B04215D0B84213D0984211D0A5
:101C0000184DA8420ED0184DA8420BD0174DA8422F
:101C100008D0174DA84205D0164DA84202D0164D47
:101C2000A84203D122F44075CA682A434D6922F0C4
:101C300080022A4302608A68C2620A688262A04205
:101C400001D0984201D10969016301214161F0BDD0
:101C5000000001400004004000080040000C00406B
:101C600000040140004001400044014000480140A0
:101C700000180040001C00400020004010B5806BA0
:101C80000021C185C184FFF7C2FB10BD0168CA688D
:101C900022F49072CA6001684A6922F001024A6126
:101CA000202180F83A10704710B590F83A10222998
:101CB00001D0022010BD8168B1F5805F11D00169AB
:101CC000002901681FD0496801F07F03816A4A1C1E
:101CD00082620B70C18D491E0904090CC18518D0A0
:101CE0002BE00269816A002A0268526805D0D2B2EC
:101CF0000A80816A491C8162ECE7C2F308020A800B
:101D0000816A891CF7E74A68816A4B1C83620A7002
:101D1000E0E70168CA6822F02002CA600168CA6868
:101D200022F48072CA6001684A6922F001024A61A5
:101D3000202180F83A10FFF7B1FC002010BD000010
:101D40002DE9F041044600680169E26821F4405140
:101D5000114301612169A068E26908436169114387
:101D600008432168CA6849F20C639A430243CA6077
:101D700020684169A26921F4407111434161E06921
:101D8000192764253226B0F5004F354A35492068B9
:101D90004FF0000806D0884201D0904236D1FFF7BC
:101DA00049F835E0884201D0904202D1FFF742F86D
:101DB00001E0FFF72FF861684A18A0FB070148EB24
:101DC0000803FEF75DFA0146B0FBF5F00201B1FB36
:101DD000F5F06FF01803584301EB800006EBC000EC
:101DE000B0FBF5F000F0F80002EB4002B1FBF5F0BB
:101DF000584301EB800006EBC000B0FBF5F000F0AB
:101E00000700216810448860BDE8F081FFF702F800
:101E100061688B0F8A00A0FB0701FEF731FA0146CB
:101E2000B0FBF5F06FF01802504301EB800006EBB9
:101E30000010B0FBF5F000F0F002B1FBF5F002EBA2
:101E40000012B1FBF5F06FF01803584301EB80006E
:101E500006EB0010B0FBF5F000F00F00D1E700003A
:101E6000001401400010014090F83910212901D0E0
:101E7000022070478168B1F5805F016A0BD04A1C6F
:101E80000262026809785160C18C491E0904090C7C
:101E9000C1840ED017E009880268C1F308015160BF
:101EA00001690029016A02D0491C0162ECE7891C22
:101EB000FBE70168CA6822F08002CA600068C16856
:101EC00041F04001C16000207047000010B5054896
:101ED000FFF79EFABDE81040012203490148FFF7D1
:101EE000B3BB00001801002098000020FEE70000AE
:101EF0000FB4084B10B504A902AA039800F0EEF83D
:101F0000044602A9002000F080FC204610BC5DF8C9
:101F100014FB00000B2800080907090E002804DB49
:101F200000F1E02080F80014704700F00F0000F18D
:101F3000E02080F8141D704702E008C8121F08C195
:101F4000002AFAD170477047002001E001C1121F3A
:101F5000002AFBD1704700002DE9FF5F82B000210D
:101F6000DDE90430020DDDF840B0034318D044F63B
:101F70001050A2F2FF3242431514119801281FD0CD
:101F8000A5EB0B00401C5FEA000A4FF000064E4F25
:101F9000DFF83891B046504615D5CAF1000413E079
:101FA000119801244AA3012801D16FEA0B0102987C
:101FB000119AC0E90031C0E9024206B0BDE8F09FC5
:101FC000CBF10000DFE704460021404A491842EB0C
:101FD0000450CDE9001012E0E00707D032463B463E
:101FE00040464946FEF787FB8046894632463B46D7
:101FF00010461946FEF77FFB06460F466410002C7C
:10200000EAD1DDE90401DDE90023BAF1000F06DAC7
:10201000FEF771FB42464B46FEF76DFB05E0FEF70F
:102020002BFA42464B46FEF727FA04460E4600229C
:10203000284BFEF7EBFB03D84FF0FF30014607E0DB
:102040000022254B20463146FEF76FF9FEF7C5FB0F
:10205000102409E0002C0ADB0A220023FEF710F905
:10206000039B30321A55641E50EA0102F2D1641CFF
:10207000039AC4F111031444119A012A03D00122D6
:1020800008430DD10AE0084304D000204FF0110BA3
:10209000119072E7A3EB0B056D1E0DE05B4504DDAF
:1020A0004FF0000205F1010504E003DA4FF00002F1
:1020B000A5F10105002AECD002981199C0E902317E
:1020C000C0E9004579E70000000014400000F03F3F
:1020D000300000000000F0430000E03F2DE9FF4F1A
:1020E00095B09B468946064600250FE2252877D104
:1020F00000242746F84A0121059400E0044316F81D
:10210000013F203B01FA03F01042F7D130782A2832
:1021100011D06FF02F033078A0F13002092A16D8C1
:10212000059A44F0020402EB820203EB42021044DF
:10213000761C0590EFE759F8042B0592002A03DA84
:10214000504244F40054059044F00204761C307868
:102150002E2816D116F8010F44F004042A280DD0B9
:102160006FF02F023078A0F13003092B09D807EB6C
:10217000870302EB4303C718761CF3E759F8047B87
:10218000761C30786C280FD006DC4C2817D06828D5
:102190000DD06A2814D104E0742810D07A280FD109
:1021A0000DE044F400140AE044F4801401E044F427
:1021B00040147278824202D104F58014761C761C99
:1021C000307866280BD013DC582877D009DC00283B
:1021D00075D04528F6D04628F4D047281AD19DE17D
:1021E00018E0632835D0642879D0652812D195E1AC
:1021F000702873D008DC6728F1D069286FD06E286A
:102200000DD06F2806D1B5E073282CD0752875D075
:10221000782874D05A46179990476D1C75E1C4F31D
:102220000250022809D003280DD0D9F80010042844
:102230000DD00D6009F1040967E1D9F80010EA1723
:10224000C1E90052F6E7D9F800100D80F2E70D70F1
:10225000F0E719F8041B8DF8001000208DF801003C
:10226000EA46012003E059F804AB4FF0FF30610764
:102270004FF0000102D40DE008F101018846B94297
:102280000FDA8045F8DB1AF808100029F4D108E0CD
:1022900008F1010188468142FADB1AF8081000298A
:1022A000F6D105985B46A0EB080721463846179AF9
:1022B00000F094FA284400EB080507E04DE029E11E
:1022C0000DE01AF8010B5A4617999047B8F101082A
:1022D000F7D25B4621463846179A13E142E00A22BC
:1022E0000092C4F302524FF0000A022A08D059F8B3
:1022F00004CB032A4FEAEC710AD00DE029E02AE072
:1023000009F1070121F00702F2E802C1914609E054
:102310000FFA8CFC4FEAEC71042A03D14FFA8CFCC3
:102320004FEAEC71002907DA0A460021DCF1000CC3
:1023300061EB02012D2202E0220504D52B228DF84B
:102340000420012203E0E20701D02022F7E79046B3
:1023500059E00A2102E010220DE010214FF0000A9E
:1023600000910BE010224FF0000A44F0040408270B
:10237000009203E008224FF0000A0092C4F30252D8
:10238000022A05D059F804CB0021032A08D009E01D
:1023900009F1070121F00702F2E802C1914605E0C8
:1023A0001FFA8CFC042A01D10CF0FF0C4FF000083E
:1023B000220728D5702806D0009B83F0100353EA2B
:1023C0000A0305D00EE040228DF80420012208E027
:1023D0005CEA010206D030228DF804208DF8050059
:1023E00002229046009B83F0080353EA0A030AD1B5
:1023F0005CEA010201D1620705D530228DF8042084
:102400004FF001087F1E582804D034A003900EA876
:1024100002900DE036A0F9E753466046009AFDF7BA
:102420002FFF84460398825C0298401E029002703F
:102430005CEA0100F0D1029806A9081A00F1200A0E
:10244000600702D524F4803400E00127574502DDFF
:10245000A7EB0A0000E0002000EB0A0100900598BD
:102460004144401A0590E00306D45B462146179A82
:10247000059800F0B3F90544002706E001A85A4684
:10248000C05D179990476D1C7F1C4745F6DBE00344
:102490000CD55B462146179A059800F09FF9054434
:1024A00004E030205A46179990476D1C0099481E49
:1024B00000900029F5DC08E0029802995A4600785D
:1024C000491C0291179990476D1CBAF10001AAF1BD
:1024D000010AF1DC65E100000928010030313233E6
:1024E0003435363738396162636465660000000050
:1024F000303132333435363738394142434445463A
:102500000000000000F058F90544761C30780028DF
:102510007FF4ECAD19B02846BDE8F08F620700D417
:10252000062709F1070222F0070CFCE80223E14626
:1025300003F000485FEA080C02D00FF2702C0DE0A7
:102540005FEA045C02D50FF2682C07E05FEAC47C06
:1025500002D00FF2602C01E0AFF2700C4FF0FF38A8
:1025600023F00043CDF850C065280CD006DC452888
:1025700009D046281DD047283DD13DE0662818D017
:1025800067287ED138E00021112F01DB112000E007
:10259000781CCDE9000106A90EA8FFF7DDFCDDE9F6
:1025A0000F010E9A03910021009207F1010A049194
:1025B0004DE04FF000400097CDE9011006A90EA8AC
:1025C000FFF7CAFCDDE90F0203920E9B119900226E
:1025D000DDF80CA00093049211B9791C00EB010AFC
:1025E000B7EB0A0004D4C0F1FF3007F1010A0490F0
:1025F000AAEB0700019044E0012F00DA0127002137
:10260000112F01DD112000E03846CDE9000106A9B7
:102610000EA8FFF7A1FCDDE90F010E9A039100213E
:1026200004910092BA4621070CD40399514500DA6F
:102630008A46BAF1010F05DD009AAAF10101515C49
:10264000302908D0B84202DA10F1040F06DA01216D
:10265000CDE9011015E0AAF10101E9E7002805DC48
:10266000049901440491AAEB000102E0411C514588
:1026700000DD8A460499401A401C01904FF000404A
:102680000290200704D40198504501DBCDF8048066
:1026900000208DF84F0002980DF14F07B0F1004F68
:1026A00025D02B200E9002984FF0020800280CDA5B
:1026B000404202902D200E9007E00A210298FDF77B
:1026C00076FF3031029007F8011DB8F10001A8F142
:1026D0000108F2DC02980028EFD1791E0E980870EC
:1026E000307800F0200040F0450007F8020D12A8F5
:1026F000C01B00F107081498007800B1012000EB1E
:102700000A01019801EBE07105984144401A401E0E
:102710000590E00306D45B462146179A059800F021
:102720005DF805441498007818B15A4617999047F7
:102730006D1CE00324D55B462146179A059800F0EE
:102740004DF805441CE00498002807DBDDE903018F
:10275000884203DD0098405C179901E0179930200A
:102760005A469047049805F10105401C04900198D1
:10277000401E019004D12E205A46179990476D1C97
:10278000BAF10001AAF1010ADDDC05E017F8010B3E
:102790005A46179990476D1CB8F10001A8F101083D
:1027A000F4DC5B462146179A0598ABE62D00000045
:1027B0002B000000200000002DE9F0410446002518
:1027C0001E461746880404D405E039462020B04749
:1027D0006D1C641EF9D52846BDE8F0812DE9F04155
:1027E000044600251E469046C80301D5302700E068
:1027F0002027880404D505E041463846B0476D1CC3
:10280000641EF9D52846BDE8F0810A68531C0B60A8
:102810001070704710B504460420FEF7FBFC014819
:10282000046010BD8000002070B54FF0E02400224D
:1028300065690949A36909684843A1699942FCD0BF
:1028400002D2A3EB010302E0A5EB010633441A44D4
:102850000B468242F1D370BD8000002098B0FEF795
:102860006FF9FFF751F9FEF76BFF294827494FF43D
:10287000E13500240160C0E901540C26C460C0E9C0
:1028800004468461C461FEF74DFE21482149403071
:102890000160C0E90154C460C0E904468461C461B8
:1028A000FEF740FEA820FFF7B5FF00224FF480613D
:1028B0001948FEF731F91594012115A8169400F076
:1028C00043F8164C1C221649E0606846FDF709FDE6
:1028D0000021684600F057F8114920601C221C3185
:1028E00007A8FDF7FEFC002107A800F04CF80C49F2
:1028F00060601C2238310EA8FDF7F3FC00210EA801
:1029000000F041F8A06000F01AF8FEE70010014066
:1029100018010020004400400020024084000020F4
:10292000F43E000801460020842900D0C81C7047EE
:1029300010B500B9012000F0CBFC002010BD10B58F
:1029400000F066FD002010BD38B543684BB1012989
:1029500009D10320002200901146012000F062FE00
:1029600038BD012901D0002038BD032200210120FB
:1029700000F034FE040004D000231A46194600F08B
:10298000C9FE204638BD7FB50D4604464169B0F901
:10299000080081B1A16971B1FFF7C4FFD4E9051244
:1029A0008DE80700D4E900102B46226901F0D3F826
:1029B000039004B070BDFFF7B5FF03A9CDE9000196
:1029C000208A2B4682B2D4E9001001F097F8012842
:1029D00001D00020EDE70398EBE700002DE9F0417E
:1029E000184C0F46054666692068001D00F082FB02
:1029F00038B9206890F82C1001208840A1698143E3
:102A0000A161681C07D137B12168BDE8F0410E48CB
:102A1000091D00F0B3BB20683544B542456021680C
:102A200005D2A068BDE8F041091D00F08FBB6068C9
:102A3000091D00F08BFB206B854200D22563BDE8A9
:102A4000F0810000B80000201C0500202DE9F041B5
:102A5000054600F09FFB2E4C2069401C2061206839
:102A60002C4F10B1E06940B32DE0256020690128AA
:102A700029D1002606EB860007EB800000F058FB0A
:102A8000761C072EF6D323488C3000F051FB2148EA
:102A9000A03000F04DFB1F48B43000F049FB1D484A
:102AA000C83000F045FB1B48DC3000F041FB194802
:102AB0008C3060601430A06005E02068E96AC06A6C
:102AC000884200D82560E06A401CE062E96A012083
:102AD000A26988401043A06101EB810007EB8000F0
:102AE000291D00F04BFB00F075FBE06900280CD0BD
:102AF0002068E96AC06A884207D207494FF08050CF
:102B00000860BFF34F8FBFF36F8FBDE8F081000007
:102B1000B80000204004002004ED00E02DE9F04161
:102B2000856B174604460026026C82B1C7B1E06887
:102B3000FDF7D7FBE168206C091AE1602268914239
:102B400002D2A168081AE060022F16D017E02068B0
:102B5000A8B9A06801F09CF806460020A0600EE02D
:102B60006068FDF7BEFB216C606808446060A16886
:102B7000884204D32068606001E005B16D1E6D1CC1
:102B8000A5633046BDE8F08110B5044690F85100C9
:102B900058B101280CD002280FD0502080F31188A2
:102BA000BFF34F8FBFF36F8FFEE7206B00F026FB64
:102BB0002046BDE8104000F021BB10BD10484FF486
:102BC0007051420706D0C01D0D4920F00700411A80
:102BD000C1F570510B4A00230144C2E900030839D2
:102BE000103A21F0070111604B600B600B1AC0E92D
:102BF000001393604FF000405360D06070470000B6
:102C00003005002004010020144E154CA6F1C80721
:102C10004FF08058DFF84C9012E000BF00F0BAFA95
:102C2000F068C568281D00F065FA2069401E206123
:102C3000E068401EE06000F0CDFA2846FFF7A4FFF0
:102C4000E0680028EAD138680128F9D9C9F800807D
:102C5000BFF34F8FBFF36F8FF2E70000080500202E
:102C6000B800002004ED00E00346009829B102609E
:102C7000C0E90F31012100F009BD0060F8E72DE93E
:102C8000F0479A46DDE9098481466FF00303206B23
:102C900003EB82021044089E20F00707780707D054
:102CA000502080F31188BFF34F8FBFF36F8FFEE783
:102CB000002561B1002023180A5C83F834200A5CE7
:102CC00012B1401C1028F6D384F8435001E084F878
:102CD0003450072E00D30626E662C4E91165201D94
:102CE00000F031FA04F1180000F02DFA2461C6F169
:102CF00007006462A061E56484F85050524649467A
:102D0000384600F00FF92060B8F1000F01D0C8F884
:102D10000040BDE8F087000030B5114900E01146E1
:102D20000A688242FBD34B685C18844203D1406836
:102D300018444860084643681C18944209D1084C5E
:102D4000103C2468A24209D052681A4442600A68C2
:102D500012680260814200D0086030BD0460F9E76B
:102D60000401002010B5044600F014FAA06B28B14D
:102D70005FF0000400F02EFA204610BD0124F9E7B0
:102D800006484168096829B14168C968C968496845
:102D9000016370474FF0FF31FAE70000B8000020F0
:102DA00008484068401C4FF0500080F3118804D060
:102DB000BFF34F8FBFF36F8FFEE7BFF34F8FBFF3AC
:102DC0006F8FFEE70C0100202DE9F041044600F072
:102DD000E1F994F9455004F1240609E0606A48B12C
:102DE000304600F0EBFF08B100F0A0FA6D1E6DB2A6
:102DF000002DF3DC4FF0FF3684F8456000F0EAF96F
:102E000000F0C8F994F9445004F1100709E0206972
:102E100048B1384600F0D2FF08B100F087FA6D1EC5
:102E20006DB2002DF3DC84F84460BDE8F04100F0A1
:102E3000D1B900002DE9F0410546002700F01EFB46
:102E4000314E306808B9FFF7B9FEF06805424BD142
:102E5000C5B3083568070ED005F00700C0F10800BB
:102E60000544680707D0502080F31188BFF34F8FC7
:102E7000BFF36F8FFEE72DB37068854234D82248C8
:102E8000103001460C6801E020460C466168A942FA
:102E900002D221680029F7D131688C4224D007681A
:102EA0002168016060680837411B10290FD960193B
:102EB000420708D0502080F31188BFF34F8FBFF333
:102EC0006F8FFEE710E041606560FFF725FF6168E6
:102ED0007068401A7060B268904200D2B060F068CA
:102EE00001430020C4E9000100F0A2FF780707D0E9
:102EF000502080F31188BFF34F8FBFF36F8FFEE731
:102F00003846BDE8F0810000F4000020044908685C
:102F100018B10868826C521C82640868704700000F
:102F2000B800002010B5031F4FF080741C601B1FF9
:102F300021F001011960191F044B0B6014390A605C
:102F4000091F6FF0020244380A6010BDA12D00086D
:102F500070B54FF47A752DED028B86B01C4C0026AF
:102F60000BE000BFCDE9046504F110000FC88DE847
:102F70000F0094E80F0000F097F8207E0028F1D0B1
:102F80000D229FED148B15A184ED048B1748FEF7DD
:102F9000B1FB01260BE00E48CDE9046530300FC8C7
:102FA0008DE80F0004F120000FC800F07DF894F8C0
:102FB00038000028EFD084ED0C8B06B00D22BDEC5C
:102FC000028B0BA1BDE870400848FEF793BB0000E0
:102FD0000000002000000000000000007374657015
:102FE000312069732075700A00000000180100206C
:102FF0007374657032206973207570090A000000CF
:103000002DE9F04F0646254887B000EB461492465E
:103010000D461846FDF79FFA8B464BEC100B9FEDC3
:10302000201B814653EC112B51EC100BFDF724FAB9
:10303000FDF79EFA804600270CE000BFCDE9045A58
:1030400004F110000FC88DE80F0094E80F0000F0A5
:103050002BF87F1C4745F1DB1EB1022E01D095B144
:1030600001E0012D0FD04BEC109B94ED041B51ECB3
:10307000100B53EC112BFDF7FCF900BFC4E9040160
:1030800007B0BDE8F08F4BEC109B94ED041B51ECA6
:10309000100B53EC112BFDF748F9EFE7000000206F
:1030A000CDCCCCCCCCCCDC3F2DE9F0410446DDE9E5
:1030B0000A070E4608B1012500E00025104699B226
:1030C0002A46FDF729FD0025B6B2204601223146E9
:1030D000FDF722FD3846FFF7A7FB204600223146C8
:1030E000FDF71AFD3846FFF79FFB6D1C052DECDB45
:1030F000BDE8F081D0E9013201699A60D0E901238D
:103100005A604A68824201D182684A6000220261A4
:103110000868401E0860086870470000034B0360A1
:1031200003F154000860802010607047980100206F
:1031300000F108014FF0FF32C0E90112C1600161E6
:1031400000210160704700210161704730B50B68B4
:103150005A1C02D000F1080202E0026904E0224693
:10316000546825689D42FAD953684B6099608A601B
:10317000516008610168491C016030BD42684A60C5
:1031800093688B6093685960916008610168491C7D
:1031900001607047502080F31188BFF34F8FBFF359
:1031A0006F8F0A494868401C486001280CD10848C4
:1031B000006810F0FF0F07D0502080F31188BFF394
:1031C0004F8FBFF36F8FFEE7704700000C010020A8
:1031D00004ED00E00849486828B1401E486001D16C
:1031E00080F311887047502080F31188BFF34F8F10
:1031F000BFF36F8FFEE700000C01002070B50028C0
:1032000027D0144DA0F108046168E868014207D195
:10321000502080F31188BFF34F8FBFF36F8FFEE70D
:1032200022683AB1502080F31188BFF34F8FBFF36B
:103230006F8FFEE78143616000F020F96068696884
:10324000084468602046FFF767FDBDE8704000F065
:10325000EFBD70BDF40000204FF0E02000210161BF
:10326000816105494FF47A720968B1FBF2F1491E98
:103270004161072101617047B400002010B5FCF7DF
:10328000E9FF114910280ED300F1E02090F8F00377
:103290000A78904207D2502080F31188BFF34F8FF5
:1032A000BFF36F8FFEE709480068896800F4E060AB
:1032B000884207D9502080F31188BFF34F8FBFF3A6
:1032C0006F8FFEE710BD00000C0100200CED00E048
:1032D00010B5020014D00F48806B38B1502080F335
:1032E0001188BFF34F8FBFF36F8FFEE700F0C6F872
:1032F00000211046FFF772FB00F09AFD002807D16D
:1033000005494FF080500860BFF34F8FBFF36F8FB8
:1033100010BD0000B800002004ED00E002498A6AF8
:103320000260496941607047B800002001490120EE
:1033300048627047B800002010B50C4650B10949EA
:1033400009681831FFF702FF2046BDE8104001214F
:10335000FFF744BB502080F31188BFF34F8FBFF3BA
:103360006F8FFEE7B800002070B504004BD0A26C50
:10337000A2B1606C884200D30146E06A884242D024
:10338000012A40D1204D2A6894420FD1502080F369
:103390001188BFF34F8FBFF36F8FFEE7502080F38C
:1033A0001188BFF34F8FBFF36F8FFEE7E162A26911
:1033B000002A02DBC1F10701A161144E00EB80007D
:1033C000616906EB800081421DD1201DFFF792FE4E
:1033D000012150B9E06A00EB800256F8222022B9A0
:1033E000AA6901FA00F08243AA61E06AAA698140F1
:1033F0001143A96100EB800006EB8000211DBDE8B0
:103400007040FFF7BBBE70BDB80000204004002034
:1034100010B586B00024039405AA04A903A8049457
:10342000FFF77CFEDDE903010094CDE901100023E4
:103430000EA11048059A00F08EFB0F490028486342
:1034400011D0502080F31188BFF34F8FBFF36F8FDF
:103450004FF0FF3008630120C8614C6106B0BDE841
:10346000104000F041B806B010BD000049444C4582
:1034700000000000092C0008B80000200248816B01
:10348000491C816370470000B80000201448816B1C
:1034900011B1012141627047002141628169B1FA95
:1034A00081F1C1F11F0101EB81020E4951F8223077
:1034B0006BB101EB820101F108034A6852684A606E
:1034C0009A4201D152684A60D16801607047502029
:1034D00080F31188BFF34F8FBFF36F8FFEE70000BB
:1034E000B8000020400400201CB537480168374A66
:1034F000914207D1502080F31188BFF34F8FBFF363
:103500006F8FFEE700683149491E884207D150207D
:1035100080F31188BFF34F8FBFF36F8FFEE72C4905
:1035200008780190FF20087008788DF800009DF859
:1035300000009DF8002000F0F000904207D05020DD
:1035400080F31188BFF34F8FBFF36F8FFEE79DF8B5
:103550000000204B00F0500018700720986005E034
:103560009DF8002052008DF80020401E9DF800209C
:103570001206F5D49860032807D0502080F31188F4
:10358000BFF34F8FBFF36F8FFEE74FF4407098602B
:10359000019808700C482030016841F47001016006
:1035A000016841F070410160FFF756FE002058604D
:1035B000FCF718FE0848016841F040410160FCF743
:1035C000FDFD00201CBD000000ED00E071C20F41B8
:1035D00000E400E00C01002034EF00E0F8B51746ED
:1035E0000E46050014D0DEB105FB06F04830FFF7AB
:1035F00021FC04000AD0002084F8460004F14802AF
:103600003B46314628460094FFF72EFB2046F8BD86
:10361000502080F31188BFF34F8FBFF36F8FFEE709
:103620000020E3E738B5049D18B153B1CAB181B1A8
:1036300020E0502080F31188BFF34F8FBFF36F8FCE
:10364000FEE7502080F31188BFF34F8FBFF36F8FD9
:10365000FEE7502080F31188BFF34F8FBFF36F8FC9
:10366000FEE739B1502080F31188BFF34F8FBFF3CD
:103670006F8FFEE748241C46012384F846302B4612
:103680000094FFF7F1FA204638BD000070B50D46F2
:10369000040025D0FFF77EFDD4E90F20216802FB4E
:1036A0000011A1600021A163216861600A46D4E98C
:1036B0000F01401E00FB0121E16021464FF0FF3069
:1036C00001F8440F487004F110008DB1FFF730FD90
:1036D00004F12400FFF72CFDFFF77CFD012070BDF5
:1036E000502080F31188BFF34F8FBFF36F8FFEE739
:1036F00021690029F0D000F061FB0028ECD00449DA
:103700004FF080500860BFF34F8FBFF36F8FE3E738
:1037100004ED00E02DE9FF4782B01D468A464FF0D8
:103720000008040003D0BAF1000F08D011E05020C7
:1037300080F31188BFF34F8FBFF36F8FFEE7206CCC
:1037400038B1502080F31188BFF34F8FBFF36F8FD4
:10375000FEE7022D0AD1E06B012807D0502080F34C
:103760001188BFF34F8FBFF36F8FFEE700F01EFA93
:103770003F4F4FF000094FF0805648B9049838B1D8
:10378000502080F31188BFF34F8FBFF36F8FFEE798
:10379000FFF700FDA06BE16B884207D3022D05D037
:1037A0000498D0B1B8F1000F1AD01EE02A46514655
:1037B0002046FFF7B3F9616A19B104F1240000F063
:1037C000FDFA20B13E60BFF34F8FBFF36F8FFFF75D
:1037D00001FD012006B0BDE8F087FFF7FBFC22E009
:1037E0006846FFF79BFD4FF00108FFF7F3FCFFF77A
:1037F00045FEFFF7CFFC94F94400401C01D184F84A
:10380000449094F94500401C01D184F84590FFF79D
:10381000E1FC04A9684600F037F930B12046FFF713
:10382000D3FA00F005FB0020D4E7FFF7B3FCA06B50
:10383000E16B884213D1FFF7CDFC04F1100004992D
:10384000FFF77AFD2046FFF7BFFA00F0F1FA0028F3
:103850009ED13E60BFF34F8FBFF36F8F98E7FFF7A6
:10386000B9FC2046FFF7B0FA00F0E2FA90E700005A
:1038700004ED00E070B50E46040009D0206C78B16C
:10388000502080F31188BFF34F8FBFF36F8FFEE797
:10389000502080F31188BFF34F8FBFF36F8FFEE787
:1038A000206848B9A06838B1502080F31188BFF370
:1038B0004F8FBFF36F8FFEE7FFF7E0FC5020EFF371
:1038C000118580F31188BFF34F8FBFF36F8FA16B0A
:1038D000E06B884218D994F94500491CA163411C4A
:1038E00004D0401C84F8450001200EE0606A0028E6
:1038F000FAD004F1240000F061FA0028F4D0002E80
:10390000F2D001203060EFE7002085F3118870BD10
:103910002DE9F343002683B00400354609D0206C1E
:1039200078B1502080F31188BFF34F8FBFF36F8FB2
:10393000FEE7502080F31188BFF34F8FBFF36F8FE6
:10394000FEE700F033F9DFF83C814FF000094FF05B
:10395000805748B9049838B1502080F31188BFF3DC
:103960004F8FBFF36F8FFEE7FFF714FCA06BC8B15A
:10397000401EA063206810B9FFF7C8FAA060206954
:1039800050B104F1100000F019FA28B1C8F8007025
:10399000BFF34F8FBFF36F8FFFF71CFC012005B003
:1039A000BDE8F083049808B166B10FE03DB1502046
:1039B00080F31188BFF34F8FBFF36F8FFEE7FFF7E0
:1039C00009FC5DE06846FFF7A9FC0126FFF702FC51
:1039D000FFF754FDFFF7DEFB94F94400401C01D1D2
:1039E00084F8449094F94500401C01D184F8459036
:1039F000FFF7F0FB04A9684600F046F800282046CF
:103A000012D0FFF7E1F900F013FA2046FFF7AAF908
:103A10000028A9D09DB3FFF7BDFB606A50B3206BAF
:103A20000068C0F1070126E0FFF79CF9E0B12068CB
:103A300038B9FFF7AFFBA06800F076F90546FFF74D
:103A4000C9FB04F124000499FFF776FC2046FFF738
:103A5000BBF900F0EDF9002886D1C8F80070BFF37B
:103A60004F8FBFF36F8F7FE72046FFF7ADF900F070
:103A7000DFF979E70021A068FFF776FC9FE7FFE711
:103A800000208CE704ED00E02DE9F0410C46050034
:103A900011D0C4B1FFF77EFB174B5A696E682068DE
:103AA000911B471C17D02F689B6A9F4219D09642E2
:103AB00017D8012410E0502080F31188BFF34F8FF6
:103AC000BFF36F8FFEE7502080F31188BFF34F8F55
:103AD000BFF36F8FFEE70024FFF77CFB2046BDE8B5
:103AE000F081884205D9401A20602846FFF716FC6D
:103AF000F1E700202060DCE7B80000202DE9FF5F3F
:103B00008346DDE90E87994616468A469000FFF700
:103B100091F905001CD05420FFF78CF9040014D053
:103B20000020256384F85100CDE90240CDE90087EB
:103B30004B46324651465846FFF7A1F82046FEF75D
:103B400085FF012004B0BDE8F09F2846FFF756FB33
:103B50004FF0FF30F6E7F0B585B0DDE90B640A9D64
:103B6000A6B1DCB1542700972663022684F8516081
:103B7000002604AFCDE90246CDE90057FFF77FF8F4
:103B80002046FEF763FF049805B0F0BD502080F397
:103B90001188BFF34F8FBFF36F8FFEE7502080F384
:103BA0001188BFF34F8FBFF36F8FFEE70548C169E0
:103BB00019B1806B18B100207047012070470220B6
:103BC00070470000B80000202DE9F0412E4C00277E
:103BD000A06B40B1206A401C2062606A00B10127DE
:103BE0003846BDE8F0816669761C666113D160686D
:103BF000006838B1502080F31188BFF34F8FBFF3B6
:103C00006F8FFEE76068A1686160A060A06A401CD9
:103C1000A062FFF7B5F8206BDFF87080864209D309
:103C20006068006880B16068C068C568686886427E
:103C30000DD220632068C06A00EB800158F8210093
:103C40000128CAD90127C8E74FF0FF30F1E7281D46
:103C5000FFF750FAA86A18B105F11800FFF74AFA01
:103C6000E86A0121A26981401143A16100EB800152
:103C700008EB8100291DFFF781FAE86A2168C96A0B
:103C80008842CDD30127CBE7B800002040040020B4
:103C900070B504004FF0000140D0214D28688442E7
:103CA00007D0502080F31188BFF34F8FBFF36F8F81
:103CB000FEE7A06C38B1401EA064636CE26A9A42D1
:103CC0002CD040B12AE0502080F31188BFF34F8FF1
:103CD000BFF36F8FFEE7201DFFF70CFA114A012199
:103CE00050B9E06A00EB800352F8233023B9AB6986
:103CF00001FA00F08343AB61606CE062C0F1070041
:103D0000A061E06AAB6981401943A96100EB8000C2
:103D100002EB8000211DFFF731FA0121084670BD3A
:103D2000B80000204004002070B504004FF00000EF
:103D300038D0204DE16A2A68D26A914233D2A06914
:103D4000002804DB2868C06AC0F10700A0611A4E91
:103D500001EB8101606906EB810188421ED1201DC3
:103D6000FFF7C8F9012150B9E06A00EB800256F86C
:103D7000222022B9AA6901FA00F08243AA612868C8
:103D8000C06AE062AA6981401143A96100EB80002A
:103D900006EB8000211DFFF7F1F902E02868C06AF8
:103DA000E062012070BD616C2A68D26A9142F8D34A
:103DB00070BD0000B8000020400400202DE9F04153
:103DC000C068C468ACB104F118000746FFF792F967
:103DD000154DA86B0126A0B139461448FFF7CEF95E
:103DE000E06A2968C96A88421CD901206E62BDE870
:103DF000F081502080F31188BFF34F8FBFF36F8F96
:103E0000FEE7201DFFF776F9E16AAA6906FA01F0DC
:103E10001043A86101EB81000449B43901EB800033
:103E2000211DDBE70020E2E7B8000020F4040020B9
:103E30002DE9F0472C4D00242746A86B38B1FFF739
:103E4000A9F9A86B401EA863A86B40B146E05020BA
:103E500080F31188BFF34F8FBFF36F8FFEE729699F
:103E6000224E0120D1B3A6F1B40980463068E8B1F2
:103E7000F068C46804F11800FFF73CF9201DFFF753
:103E800039F9E06AAA6908FA00F11143A96100EB67
:103E9000800109EB8100211DFFF770F9E06A2968B4
:103EA000C96A8842E2D3C5F82480DFE70CB1FEF787
:103EB00067FF2C6A44B14646FFF786FE00B16E628A
:103EC000641EF9D100202862686A38B108490127C8
:103ED00038070860BFF34F8FBFF36F8FFFF77AF992
:103EE0003846BDE8F0870000B8000020F404002048
:103EF00004ED00E07C3F00086D19000800000000A0
:103F00000000000080000000000000000000000031
:103F1000703F000837170008FDFF00000000000098
:103F2000800000000000000000000000603F00086A
:103F3000351A0008FDFF00000000000080000000AE
:103F40000000000000000000000000000000000071
:103F5000010203040607080900000000010203042F
:103F6000737465706D6F76655461736B000000004B
:103F70006C696D69745461736B00000064656661FF
:103F8000756C745461736B00A83F0008000000203A
:103F900018010000381F0008C04000081801002068
:103FA00018440000481F00080020024020000000C4
:103FB000000C0240080000000000000000000000AB
:103FC000000000000000000000200240400000004F
:103FD000000C02400008000000000000000000008B
:103FE00000000000000000000020024080000000EF
:103FF0000014024002000000000000000000000069
:10400000000000000000000000200240040000004A
:104010000008024000010000000000000000000055
:104020000000000000000000000000000000000090
:104030000000000000000000000000000000000080
:104040000000000000000000000000000000000070
:104050000100000010000000000000000024F40037
:104060000000000000000000000000000000000050
:104070000000000000000000000000000000000040
:104080000000000000000000000000000000000030
:104090000000000000000000000000000000000020
:1040A0000000000000000000000000000000000010
:1040B0000000000000000000AAAAAAAA0000000058
:040000050800018965
:00000001FF
