:020000040800F2
:10000000500400202D190008191800081B180008BA
:100010001D1800081F180008211800080000000023
:10002000000000000000000000000000231800088D
:1000300025180008000000002718000829180008EB
:100040005119000855190008591900085D190008D0
:1000500061190008351800086519000869190008B9
:100060006D19000871190008751900087919000840
:100070007D190008811900088519000889190008F0
:100080008D190008911900089519000899190008A0
:100090009D190008A1190008A5190008A919000850
:1000A000AD190008B1190008B5190008B919000800
:1000B000BD190008C1190008C5190008C9190008B0
:1000C000CD190008D1190008D5190008D919000860
:1000D000DD190008E1190008E5190008E919000810
:1000E000ED190008F1190008F5190008F9190008C0
:1000F000FD190008011A0008051A0008091A00086D
:100100000D1A0008111A0008151A0008191A00081B
:100110001D1A000837180008211A0008251A0008BF
:10012000291A00082D1A0008311A0008351A00088B
:10013000391A00083D1A0008411A0008451A00083B
:10014000491A00084D1A0008511A0008551A0008EB
:10015000591A00085D1A0008611A0008651A00089B
:10016000691A00086D1A0008711A0008751A00084B
:10017000791A00087D1A0008811A000800000000A2
:10018000851A0008891A000810B50400002C01D156
:10019000012033E0A0690028FFD194F8390000283D
:1001A00005D1002084F83800200000F0D1FB242085
:1001B00084F839002068C06830F400502168C860B5
:1001C000200000F039FA2068006930F4904021687E
:1001D00008612068406930F02A0021684861206881
:1001E000C06850F400502168C8600020E0632020FF
:1001F00084F83900202084F83A00002010BD2DE951
:10020000F04182B004000D0016001F005FF00008EE
:1002100094F8390020285DD1002D02D0B6B2002E0E
:1002200001D1012057E094F93800012801D10220C2
:1002300051E0012084F838000020E063212084F898
:10024000390000F038FC8046A684E68403E0287874
:10025000216848606D1CE08C002828D0E08C401E8E
:10026000E084A068B0F5805F16D100974346002275
:100270008021200000F0FCF8002801D003202AE0B3
:100280002888C005C00D216848602069002801D178
:10029000AD1CE0E76D1CDEE700974346002280219D
:1002A000200000F0E5F80028D1D0032013E00097EB
:1002B000434600224021200000F0DAF8002801D057
:1002C000032008E0202084F83900002084F838005A
:1002D000002000E00220BDE8F68190F83A30202BA3
:1002E00028D1002902D092B2002A01D1012022E0B7
:1002F00090F93830012B01D102201CE0012380F855
:10030000383081628285C2850021C163222180F854
:100310003A10002180F838100168496951F0010154
:10032000026851610168C96851F490710068C16048
:10033000002000E00220704738B504002068006803
:100340002168C968226852690023002310F00F0356
:10035000002B07D1850605D58D0603D5200000F0BA
:100360001EF982E0002B70D0D30702D411F4907FE5
:100370006BD010F00103DBB2002B05D0CB0503D509
:10038000E36B53F00103E363430708D512F0010365
:10039000DBB2002B03D0E36B53F00203E36383076C
:1003A00008D512F00103DBB2002B03D0E36B53F04E
:1003B0000403E363030708D512F00102D2B2002A56
:1003C00003D0E26B52F00802E263E26B002A3BD0FA
:1003D000800604D5880602D5200000F0E0F82068E9
:1003E0004069800910F00103E06B000701D4002B85
:1003F00025D0200000F074F82068406940061AD526
:100400002068406930F0400021684861606B002836
:100410000DD00FF2F100616B0865606B00F054FBCA
:10042000002811D0606B616B096D88470CE02000DB
:1004300000F01DF808E0200000F019F804E02000AA
:1004400000F015F80020E0630FE0020605D50A066B
:1004500003D5200000F060F807E0400605D5480607
:1004600003D5200000F08DF8FFE731BD70477047DD
:100470002DE9F04104000D0016001F00DDF8188082
:10048000206800682840A84201D1012000E0002037
:1004900076B2B04221D118F1010FF1D0B8F1000FBE
:1004A00004D000F008FBC01B8045E9D22068C0687A
:1004B00030F4D0702168C86020684069400840006E
:1004C00021684861202084F83900202084F83A000F
:1004D000002084F83800032000E00020BDE8F0810F
:1004E0000168C96831F490710268D1600168496996
:1004F0004908490002685161202180F83A1070478C
:100500000000000080B5806B0021C1850021C184FE
:10051000FFF7ADFF01BD000090F8391021292ED161
:100520008168B1F5805F10D1016A0988C905C90DDC
:10053000026851600169002903D1016A891C0162C6
:1005400009E0016A491C016205E0016A4A1C026275
:10055000097802685160C18C491EC18489B20029A2
:100560000BD10168C96831F080010268D16001686F
:10057000C96851F040010068C160002000E002201D
:10058000704780B50168C96831F040010268D160E8
:10059000202180F83910FFF769FF002002BD80B5E7
:1005A00090F83A10222945D18168B1F5805F14D1C5
:1005B000816A0269002A08D102685268D205D20D08
:1005C0000A80816A891C816219E002685268D2B28D
:1005D0000A80816A491C816211E00169002906D103
:1005E000816A4A1C8262026852680A7007E0816A66
:1005F0004A1C82620268526812F07F020A70C18D42
:10060000491EC18589B2002912D10168C96831F437
:1006100090710268D160016849694908490002681F
:100620005161202180F83A1000F0EBFA002002E03E
:10063000002000E0022002BD2DE9F041040000206E
:100640002068006930F44050E1680843216808617F
:100650002068C068BB490840A168226911436269EB
:100660001143E269114308432168C860206840696A
:1006700030F44070A169084321684861E069B0F531
:10068000004F40F0B0802068AF49884203D0206816
:10069000AE49884253D100F0F7FD804600F0F4FDEA
:1006A000060000F0F1FD070000F0EEFD050000F08F
:1006B000EBFD192101FB08F162685200B1FBF2F178
:1006C0006422B1FBF2F1192202FB06F263685B00BF
:1006D000B2FBF3F2192303FB07F366687600B3FB62
:1006E000F6F36426B3FBF6F3642606FB1322D2006E
:1006F00032326423B2FBF3F212F0F802520012EB32
:100700000111192202FB05F263685B00B2FBF3F2F0
:100710001923584363685B00B0FBF3F06423B0FB1C
:10072000F3F0642303FB1020C00032306422B0FBDE
:10073000F2F010F0070040182168886000E100F036
:1007400093FD804600F090FD060000F08DFD07004F
:1007500000F08AFD050000F087FD192101FB08F17A
:1007600062685200B1FBF2F16422B1FBF2F119228E
:1007700002FB06F263685B00B2FBF3F2192303FB92
:1007800007F366687600B3FBF6F36426B3FBF6F373
:10079000642606FB1322D20032326423B2FBF3F24A
:1007A00012F0F802520012EB0111192202FB05F2BD
:1007B00063685B00B2FBF3F21923584363685B0084
:1007C000B0FBF3F06423B0FBF3F0642303FB1020D1
:1007D000C00032306422B0FBF2F010F00700401885
:1007E00021688860ACE020685749884203D02068BF
:1007F0005649884252D100F047FD804600F044FD42
:10080000060000F041FD070000F03EFD050000F08D
:100810003BFD192101FB08F162689200B1FBF2F186
:100820006422B1FBF2F1192202FB06F263689B001D
:10083000B2FBF3F2192303FB07F36668B600B3FBC0
:10084000F6F36426B3FBF6F3642606FB13221201CB
:1008500032326423B2FBF3F212F0F00212EB011118
:10086000192202FB05F263689B00B2FBF3F2192325
:10087000584363689B00B0FBF3F06423B0FBF3F0D4
:10088000642303FB1020000132306422B0FBF2F03D
:1008900010F00F0040182168886051E000F0E4FC7F
:1008A000804600F0E1FC060000F0DEFC070000F0EE
:1008B000DBFC050000F0D8FC192101FB08F162689F
:1008C0009200B1FBF2F16422B1FBF2F1192202FBBA
:1008D00006F263689B00B2FBF3F2192303FB07F3F4
:1008E0006668B600B3FBF6F36426B3FBF6F3642642
:1008F00006FB1322120132326423B2FBF3F212F030
:10090000F00212EB0111192202FB05F263689B0051
:10091000B2FBF3F21923584363689B00B0FBF3F07A
:100920006423B0FBF3F0642303FB1020000132309A
:100930006422B0FBF2F010F00F00401821688860CC
:10094000BDE8F081F369FFFF001001400014014091
:1009500000B587B000683749884230D10020009048
:100960003548006850F00400334908603248006898
:1009700010F0040000900098002000902E480068BD
:1009800050F008002C4908602B48006810F008005F
:10099000009000984FF480500190022002900120B6
:1009A0000390032004900820059001A9234800F03B
:1009B0009FFC0420019001A9214800F099FC07B098
:1009C00000BD80B500220121352000F003FE352056
:1009D00000F011FE01BD80B50020009019480068AC
:1009E00050F48010174908601648006810F4801011
:1009F000009000980F48144908605FF4E1301249F4
:100A0000486000201049886000200F49C86000201D
:100A10000D4908610C200C49486100200A49886191
:100A200000200949C8610848FFF7AEFBFFF7C9FF7E
:100A300001BD000000500040303802400008024074
:100A4000000C0240403802400400002080B51B48E2
:100A5000006850F40070194908601848006850F4A4
:100A60008060164908601548006850F4807013498A
:100A70000860032000F0AAFD002000F004F800F058
:100A8000EAFD002002BD10B504000D4800684FF4D7
:100A90007A71B0FBF1F000F0B3FD002221005FF0AD
:100AA000FF3000F097FD002010BD06480068401C94
:100AB000044908607047034800687047003C0240E2
:100AC000000000204400002090F93510022903D0D6
:100AD00080214165012009E0052180F83510016879
:100AE000096849084900006801600020704700005B
:100AF00000B593B0002000904848006850F0805046
:100B0000464908604548006810F080500090009801
:100B1000002000904248006850F48040404908603E
:100B20003F48006810F48040009000980120069033
:100B30005FF48030079002200C905FF480000D90ED
:100B400008200E904FF4A8700F90022010900720FC
:100B5000119006A800F06EF80F200190022002907C
:100B6000002003904FF4A05004904FF48050059063
:100B7000052101A800F052FA00F029FB00F071FBFA
:100B80004FF47A71B0FBF1F000F03AFD042000F070
:100B90003BFD002200215FF0FF3000F01BFD13B091
:100BA00000BD10B58EB0FFF751FFFFF7A1FFFFF7B3
:100BB00012FF32221B496C46200000F083FD68467C
:100BC00000F0BCFD4FF47A73020092B269461648F9
:100BD000FFF715FB322215496C46200000F072FD2C
:100BE000684600F0ABFD4FF47A73020092B269469A
:100BF0000D48FFF704FB01220D490B48FFF76DFB81
:100C0000FEE780B50023012209490748FFF7F7FAFC
:100C1000012207490448FFF760FB01BD403802404C
:100C200000700040A018000804000020041900080B
:100C30004800002038B5040000252078C0076FD593
:100C4000DFF86406006810F00C0004280BD0DFF811
:100C50005806006810F00C0008280ED1DFF84C068A
:100C60000068400209D5DFF848060068800357D5C0
:100C70006068002854D10120CFE16068B0F5803F62
:100C800008D1DFF82C06006850F48030DFF8201619
:100C9000086024E06068B0F5A02F10D1DFF81006DE
:100CA000006850F48020DFF808160860DFF80006BE
:100CB000006850F48030DFF8F81508600FE0DFF8C6
:100CC000F005006830F48030DFF8E4150860DFF8E4
:100CD000E005006830F48020DFF8D4150860606813
:100CE00000280ED0FFF7E7FE0500DFF8C405006816
:100CF000800315D4FFF7DFFE401B6528F5D30320E2
:100D00008BE1FFF7D8FE0500DFF8A405006880033B
:100D100006D5FFF7D0FE401B6528F5D303207CE104
:100D2000207880072BD5DFF88005006810F00C0FC5
:100D30000BD0DFF87405006810F00C00082837D1DC
:100D4000DFF868050068400232D4DFF86405006807
:100D5000800704D5E068012801D001205DE1DFF8BB
:100D6000500500685FF0F851B1FA81F130F0F800F9
:100D7000226912FA01F10843DFF83415086020787F
:100D8000000762D5606900284CD00120DFF82415E7
:100D90000860FFF790FE0500DFF81C05006880077B
:100DA00053D4FFF788FE401B0328F5D3032034E11A
:100DB000E068002823D00120DFF800150860FFF765
:100DC0007AFE0500DFF8E8040068800706D4FFF724
:100DD00072FE401B0328F5D303201EE1DFF8D00488
:100DE00000685FF0F851B1FA81F130F0F800226943
:100DF00012FA01F10843DFF8B8140860BFE70020D9
:100E0000DFF8B8140860FFF756FE0500DFF8A0040D
:100E100000688007B3D5FFF74EFE401B0328F5D3CB
:100E20000320FAE00020DFF88C140860FFF743FE8F
:100E30000500DFF884040068800706D5FFF73BFE55
:100E4000401B0328F5D30320E7E0207840077CD53A
:100E500000200090DFF86804006850F08050DFF850
:100E600060140860DFF85804006810F080500090AB
:100E70000098DFF85004006850F48070DFF84414E4
:100E80000860FFF718FE0500DFF838040068C005A9
:100E900006D4FFF710FE401B0328F5D30320BCE067
:100EA000A068012808D1DFF82004006850F0010094
:100EB000DFF81414086023E0A068052810D1DFF8DB
:100EC0000804006850F00400DFF8FC130860DFF845
:100ED000F803006850F00100DFF8EC1308600FE041
:100EE000DFF8E403006840084000DFF8DC13086026
:100EF000DFF8D403006830F00400DFF8CC1308609A
:100F0000A068002810D0FFF7D6FD0500DFF8B80371
:100F10000068800719D4FFF7CEFD401B41F28931EC
:100F20008842F3D3032078E0FFF7C5FD0500DFF822
:100F300098030068800708D5FFF7BDFD401B41F20C
:100F400089318842F3D3032067E0A069002863D089
:100F5000DFF85403006810F00C0008285AD0A0698C
:100F6000022844D10020DFF864130860FFF7A3FDD6
:100F70000500DFF83C030068800106D5FFF79BFD04
:100F8000401B0328F5D3032047E0DFF84403B0FA01
:100F900080F14FF44040B0FA80F2F020B0FA80F0D7
:100FA000E369256A2B43656A15FA01F11943A36ABF
:100FB0005B085B1E13FA02F21143E26A12FA00F0B8
:100FC0000843DFF8E81208600120DFF8001308602A
:100FD000FFF771FD0500DFF8D802006880011BD41F
:100FE000FFF769FD401B0328F5D3032015E000201F
:100FF000DFF8D8120860FFF75EFD0500DFF8B002E9
:101000000068800108D5FFF756FD401B0328F5D383
:10101000032002E0012000E0002032BD70B5040092
:101020000D000026DFF8AC02006810F00F00A842A7
:101030000BD2DFF8A0020570DFF89802006810F00C
:101040000F00A84201D00120C0E02078800709D518
:10105000DFF85402006830F0F000A1680843DFF8C0
:10106000481208602078C00772D56068012806D150
:10107000DFF83C020068800315D40120A6E0606818
:10108000022802D06068032806D1DFF82402006835
:10109000800108D4012099E0DFF81402006880077D
:1010A00001D4012092E0DFF800020068800880008F
:1010B00061680843DFF8F0110860FFF7FCFC0600E8
:1010C000606801280FD1DFF8E001006810F00C0023
:1010D00004283DD0FFF7EFFC801B41F289318842A4
:1010E000F1D3032072E0606802280FD1DFF8B80165
:1010F000006810F00C0008282AD0FFF7DCFC801BE9
:1011000041F289318842F1D303205FE0606803280F
:101110000FD1DFF89401006810F00C000C2817D0F4
:10112000FFF7C9FC801B41F289318842F1D30320CB
:101130004CE0DFF87401006810F00C0F08D0FFF7E6
:10114000BAFC801B41F289318842F2D303203DE092
:10115000DFF88001006810F00F0085420BD2DFF845
:1011600074010570DFF86C01006810F00F00A842F0
:1011700001D001202AE02078400707D54A480068BE
:1011800030F4E050E16808434749086020780007E0
:1011900008D54548006830F46040216950EAC10034
:1011A0004149086000F017F83F4909685FF0706234
:1011B000B2FA82F2484B11F0F001D140C95CC8404C
:1011C000464908600020FFF75EFC002070BD01204A
:1011D0004349086070470020002000210020324869
:1011E000006810F00C00002804D0042804D008285F
:1011F00004D034E03B4833E03B4831E02B48006802
:1012000010F03F002949096849020DD527490968AE
:10121000354AB2FBF0F047F6C07211402C4AB2FAE0
:1012200082F2D14048430CE0204909682D4AB2FBC4
:10123000F0F047F6C0721140254AB2FA82F2D1406E
:1012400048431A49096811F440314FF44042B2FA58
:1012500082F2D140491C4900B0FBF1F000E0214886
:1012600070471E480068704780B5FFF7FAFF0E49C7
:1012700009685FF46012B2FA82F21C4B11F4E0517B
:10128000D140C95CC84002BD80B5FFF7EAFF0649FE
:1012900009685FF4E022B2FA82F2144B11F4604163
:1012A000D140C95CC84002BD083802400438024041
:1012B00000380240800E4742743802400000474226
:1012C00040380240007000407038024060004742E1
:1012D0000000FE03003C02401C1900080000002032
:1012E0004C0047420024F40000127A00481900081C
:1012F00078B4002400230024002237E00825EDB252
:1013000012F00306F6B2B600B5402C43DFF8BC512C
:10131000960845F82640DFF8B84124689C434D689C
:10132000ED0300D51C43DFF8A8512C60DFF8A44181
:1013300024689C434D68AD0300D51C43DFF89451ED
:101340002C60DFF8944124689C434D68ED0200D581
:101350001C43DFF884512C60604C24689C434D682A
:10136000AD0200D51C435D4B1C60521C102A80F05E
:10137000AA80012313FA02F40B682340A342F4D19C
:101380004C68022C02D04C68122C15D1D40810EBFA
:101390008404246A0F2512F00706F6B2B600B540A1
:1013A000AC430D6912F00706F6B2B600B5402C4307
:1013B000D50810EB85052C62046803251600F6B2EB
:1013C0007600B540AC430D7915F003051600F6B272
:1013D0007600B5402C4304604C68012C08D04C6862
:1013E000022C05D04C68112C02D04C68122C17D15D
:1013F000846803251600F6B27600B540AC43CD688C
:101400001600F6B27600B5402C438460446801258E
:101410009540AC434D68C5F3001595402C4344609E
:10142000C46803251600F6B27600B540AC438D685B
:101430001600F6B27600B5402C43C4604C68E40058
:1014400093D500240094264C246854F48044244D01
:101450002C60234C246814F480440094009C1B4CA2
:10146000950854F825400F2512F00306F6B2B60091
:10147000B540AC431B4DA84201D100253FE71A4DB2
:10148000A84201D101253AE7184DA84201D1022511
:1014900035E7174DA84201D1032530E7154DA84285
:1014A00001D104252BE7144DA84201D1052526E7DB
:1014B000124DA84201D1062521E7114DA8427FF423
:1014C0001DAF07251BE771BC7047000008380140BD
:1014D000003C0140043C0140083C01400C3C014000
:1014E000443802400000024000040240000802406C
:1014F000000C02400010024000140240001802409C
:10150000001C024010F00701484800684FF6FF0237
:101510001040474A52EA0121084344490860704795
:1015200042480068C0F302207047012110F01F02FA
:101530009140404A40B2400942F82010704740B202
:10154000002808D509013C4A40B210F00F0080186D
:1015500000F8041C03E00901384A40B28154704786
:1015600010B410F00700D0F10703052B01D30423BA
:1015700001E0D0F10703041D072C01D2002000E098
:10158000C01E012414FA03F35B1E1940814001239D
:1015900013FA00F0401E1040084310BC704780B59D
:1015A000411EB1F1807F01D301200EE0401E24498D
:1015B00008600F215FF0FF30FFF7C1FF00202149D5
:1015C0000860072020490860002002BD80B5FFF7B1
:1015D00099FF01BD70B504000D0016000020FFF753
:1015E0009FFF32002900FFF7BBFF0100200040B23F
:1015F000FFF7A5FF70BD80B540B2FFF796FF01BDB4
:1016000080B5FFF7CCFF02BD042806D10E48006864
:1016100050F004000C49086005E00B48006830F009
:101620000400094908607047000000000CED00E06C
:101630000000FA0500E100E018ED00E000E400E041
:1016400014E000E018E000E010E000E080B500F0F9
:1016500001F801BD704780B50320FFF7B7FF0022F6
:1016600000217FF00B00FFF7B5FF002200217FF083
:101670000A00FFF7AFFF002200217FF00900FFF70B
:10168000A9FF002200217FF00400FFF7A3FF002242
:1016900000217FF00300FFF79DFF002200217FF073
:1016A0000100FFF797FF002200215FF0FF30FFF7F6
:1016B00091FF002200210520FFF78CFF0520FFF796
:1016C0009AFF01BD62B38B0708D0521E11F8013B8F
:1016D00000F8013B00F024808B07F6D1830740F02F
:1016E000208000BF103A07D330B4B1E83810103A68
:1016F000A0E83810F9D230BC530724BFB1E8081075
:10170000A0E8081044BF51F8043B40F8043BD2075E
:1017100024BF31F8022B20F8022B44BF0B78037052
:101720007047083A07D3B1E80810083A40F8043B7C
:1017300040F804CBF7D25307E4E7000000F10103BF
:10174000810704D010F8011B89B18107FAD1026822
:10175000B2F10131914311F0803F04BF50F8042FE2
:10176000F6E710F8011B11B110F8011BFBE7C01AD6
:10177000704700001248006850F47000104908607B
:101780001048006850F001000E49086000200E4922
:1017900008600C4800680D4908400A4908600C4878
:1017A0000C4908600748006830F48020054908604B
:1017B0000020094908605FF0006008490860704730
:1017C00088ED00E00038024008380240FFFFF6FED6
:1017D00010300024043802400C38024008ED00E0CC
:1017E00030B5016842688468091801EB5203D207DA
:1017F00048BF4C440C30994200D130BD11F9012B47
:1018000011F8015B002A04F8015B02D5521CF9D1E2
:10181000F1E7521EF4D5EEE77047FEE7FEE7FEE77C
:10182000FEE770477047704780B5FFF73EF9FFF756
:101830000DFF01BD704780B50148FEF77DFD01BD7C
:101840000400002010B5074979441831064C7C4447
:10185000163404E00A68081D511888470146A14261
:10186000F8D110BD2C000000380000004EF6885161
:10187000CEF20001086840F470000860BFF34F8F9B
:10188000BFF36F8F4FF00070E1EE100A7047000059
:1018900051FFFFFFF80100000C00000000000020D5
:1018A000D5E2CAC7D2BBB8F6B4AEBFDAD6D0B6CF8F
:1018B000BDD3CAD5BBD8CFD4CAB5D1E90A00000080
:1018C00000F00BF8002801D0FFF7BCFF0020C04655
:1018D000C046FFF766F900F002F80120704700F0FB
:1018E00001B800000746384600F002F8FBE70000A8
:1018F00080B5C046C046024A11001820ABBEFBE7C7
:1019000026000200CAE4C8EBCAFDBEDDB2A2D2D4F2
:10191000BBD8B3B5BCFCBDE1CAF80A0000000000AA
:10192000000000000102030406070809014880477F
:1019300001480047751700083D190008C046C04619
:10194000FFF794FFFFF7BCFF000000000102030453
:10195000FFF7FEBFFFF7FEBFFFF7FEBFFFF7FEBFBB
:10196000FFF7FEBFFFF7FEBFFFF7FEBFFFF7FEBFAB
:10197000FFF7FEBFFFF7FEBFFFF7FEBFFFF7FEBF9B
:10198000FFF7FEBFFFF7FEBFFFF7FEBFFFF7FEBF8B
:10199000FFF7FEBFFFF7FEBFFFF7FEBFFFF7FEBF7B
:1019A000FFF7FEBFFFF7FEBFFFF7FEBFFFF7FEBF6B
:1019B000FFF7FEBFFFF7FEBFFFF7FEBFFFF7FEBF5B
:1019C000FFF7FEBFFFF7FEBFFFF7FEBFFFF7FEBF4B
:1019D000FFF7FEBFFFF7FEBFFFF7FEBFFFF7FEBF3B
:1019E000FFF7FEBFFFF7FEBFFFF7FEBFFFF7FEBF2B
:1019F000FFF7FEBFFFF7FEBFFFF7FEBFFFF7FEBF1B
:101A0000FFF7FEBFFFF7FEBFFFF7FEBFFFF7FEBF0A
:101A1000FFF7FEBFFFF7FEBFFFF7FEBFFFF7FEBFFA
:101A2000FFF7FEBFFFF7FEBFFFF7FEBFFFF7FEBFEA
:101A3000FFF7FEBFFFF7FEBFFFF7FEBFFFF7FEBFDA
:101A4000FFF7FEBFFFF7FEBFFFF7FEBFFFF7FEBFCA
:101A5000FFF7FEBFFFF7FEBFFFF7FEBFFFF7FEBFBA
:101A6000FFF7FEBFFFF7FEBFFFF7FEBFFFF7FEBFAA
:101A7000FFF7FEBFFFF7FEBFFFF7FEBFFFF7FEBF9A
:101A8000FFF7FEBFFFF7FEBFFFF7FEBF020024F423
:021A9000BA009A
:040000050800193D99
:00000001FF
