:020000040800F2
:10000000304700205D020008EB1900088F17000838
:10001000E9190008090800087D1F00080000000019
:100020000000000000000000000000009D0100082A
:100030000B08000800000000F9010008091B000877
:1000400077020008770200087702000877020008AC
:10005000770200087702000877020008770200089C
:1000600077020008150800087702000877020008E8
:10007000770200087702000877020008770200087C
:10008000770200087702000877020008770200086C
:100090007702000877020008770200081B080008B2
:1000A000770200087702000877020008770200084C
:1000B0007702000877020008D51B000877020008C5
:1000C000770200087702000877020008770200082C
:1000D000770200085D1F0008770200087702000819
:1000E0000D08000877020008770200087702000870
:1000F00077020008770200087702000877020008FC
:1001000077020008770200087702000877020008EB
:1001100077020008770200087702000877020008DB
:1001200077020008770200087702000877020008CB
:1001300077020008770200087702000877020008BB
:1001400077020008770200087702000877020008AB
:10015000770200087702000877020008770200089B
:10016000770200087702000877020008770200088B
:1001700077020008770200087702000800000000FC
:100180007702000877020008DFF80CD000F02AFBA5
:1001900000480047E9280008304700202C4B196828
:1001A0000868B0E8F04F80F30988BFF36F8F4FF015
:1001B000000080F3118870470000000008480068C4
:1001C000006880F308884FF0000080F3148862B65E
:1001D00061B6BFF34F8FBFF36F8F00DF00BF00BF6B
:1001E00008ED00E0DFF80C00016841F470010160E7
:1001F000704700BF88ED00E0EFF30980BFF36F8F19
:10020000134B1A681EF0100F08BF20ED108A20E96A
:10021000F04F106009B44FF0500080F31188BFF325
:100220004F8FBFF36F8F02F073FF4FF0000080F32A
:10023000118809BC19680868B0E8F04F1EF0100F6B
:1002400008BFB0EC108A80F30988BFF36F8F704746
:10025000AC000020EFF3058070470000064880479F
:1002600006480047FEE7FEE7FEE7FEE7FEE7FEE79B
:10027000FEE7FEE7FEE7FEE7B91B0008890100087C
:100280002DE9F05F0546002092469B4688460646CB
:10029000814640241BE0284641464746224600F05E
:1002A0007FF953465A46C01A914110D31146184659
:1002B000224600F066F92D1A67EB01084F462246E8
:1002C0000120002100F05DF917EB00094E41201ECE
:1002D000A4F10104DFDC484631462A464346BDE826
:1002E000F09F40EA01039B0703D009E008C9121FF1
:1002F00008C0042AFAD203E011F8013B00F8013BE0
:10030000521EF9D27047D2B201E000F8012B491E0B
:10031000FBD270470022F6E710B513460A460446A2
:100320001946FFF7F0FF204610BD2DE9FE4F80462D
:1003300081EA0300C00F0C46009021F0004123F039
:100340000045B8EB0200A94105D24046214690463F
:100350001C460B46024623F00040104347D0270DB1
:10036000C7F30A00C3F30A510290401A01904028D3
:100370006BDAC3F3130040F4801B0098924620B15F
:100380000023D2EB030A63EB0B0B01985946C0F133
:100390004002504600F0F5F806460D4650465946D4
:1003A000019A00F00DF910EB08006141002487EA82
:1003B000115284EAE7731A4340D0009A62B3019A5B
:1003C000012A4FEA075215DC001B61EB02014FF0D6
:1003D000004202EA0752CDE90042001C41F58011BB
:1003E00032462B4600F00DF903B0BDE8F08F4046D1
:1003F0002146F9E7001B61EB0201001C41F5801367
:1004000000185B412018A2F5001747EB030140EAF2
:10041000D570B6196D4111E06D084FEA360645EA10
:10042000C0754FEA0752001B61EB0201001C41F549
:10043000801149084FEA30000019514132462B46DD
:1004400003B0BDE8F04F00F0CDB8009801224000A5
:100450000023D0EB020263EBE073009821464FEAE1
:10046000E074B8EB000061EB0401E9E783F00043BE
:100470005BE781F0004158E72DE9F04D81EA030484
:1004800004F0004B21F0004514464FF0000A23F021
:10049000004150EA050220D054EA01021DD0C5F304
:1004A0000A570246C5F31303C1F31300C1F30A56FA
:1004B00040F4801543F48013A7EB0608101BD646C2
:1004C00008F2FD3873EB050002D308F1010801E0E2
:1004D00092185B41B8F1000F03DA00200146BDE835
:1004E000F08D00204FF48011064684460EE0171B65
:1004F00073EB050705D3121B63EB050306434CEAB8
:10050000010C49084FEA300092185B4150EA01079C
:10051000EDD152EA030012D082EA040083EA050119
:10052000084305D0101BAB4106D20122002306E090
:1005300000224FF0004302E06FF0010253101AEB6B
:1005400006004CEB085110EB0A0041EB0B01BDE833
:10055000F04D00F047B830B50B4601460020202290
:10056000012409E021FA02F59D4205D303FA02F5C0
:10057000491B04FA02F52844151EA2F10102F1DC20
:1005800030BD202A04DB203A00FA02F10020704737
:100590009140C2F1200320FA03F3194390407047C1
:1005A000202A04DB203A21FA02F00021704721FAC8
:1005B00002F3D040C2F1200291400843194670472F
:1005C000202A06DBCB17203A41FA02F043EAE07317
:1005D00006E041FA02F3D040C2F120029140084304
:1005E0001946704710B5141E73F1000408DA401C58
:1005F00041F1000192185B411A4301D120F0010042
:1006000010BD2DE9F04D92469B4611B1B1FA81F231
:1006100002E0B0FA80F220329046FFF7B2FF0446C3
:100620000F4640EA0A0041EA0B0153465A46084386
:1006300013D0114653EA010019D0C8F140025046C8
:10064000FFF7AEFF05460E46504659464246FFF7B5
:1006500098FF084305D0012004E020463946BDE854
:10066000F08D0020054346EAE0762C4337430A9894
:100670006305E40AA0EB08000022FD0A44EA47549F
:100680000A3002D500200146E9E701051019694149
:10069000DDE9084500196941BDE8F04DA2E72DE903
:1006A000FE4F81EA030404F0004421F0004100946D
:1006B0004FF0000B23F0004350EA01045ED052EAF1
:1006C00003045BD0C3F30A54C1F30A552C44A4F2CB
:1006D000F3340194A0FB0254C1F3130141F48011DF
:1006E000C3F3130343F4801301FB024400FB034EE6
:1006F000840A970A44EA815447EA8357A4FB0768AF
:1007000002958D0A05FB07854FEA932C04FB0C54D8
:100710002705029D4FEA065847EA1637B5EB08054C
:100720006EEB070C870E920E47EA811742EA83129E
:10073000A7FB0201B6EB0B0164EB00042B0D43EAAF
:100740000C335E1844EB1C50DA465146E7FB0201BD
:10075000C5F313044FEA0B3343EA14534FEA043250
:10076000019C43EA0603A4F10C040294009CCDE929
:1007700000B4FFF746FF03B0BDE8F08F002001464C
:10078000F9E7C1F30A52C1F3130140F2FF3341F418
:1007900080119A4202DA00200146704740F233434A
:1007A0009A42A2F2334202DC5242FFF7F9BEFFF74F
:1007B000E8BE000030B5041E71F1000404DB4FF008
:1007C0000044404264EB0101141E73F1000405DB98
:1007D0001C464FF00043524263EB0403994208BFAA
:1007E000904230BD064C074D06E0E06840F0010342
:1007F00094E8070098471034AC42F6D3FFF7C8FCE2
:100800000435000824350008FEE770474FF4004027
:1008100000F06EB8082000F06BB810B5402000F072
:1008200067F8BDE81040802000F062B890F83510FD
:10083000022903D08021416501207047052180F8FD
:1008400035100068016821F0010101600020704747
:1008500070B50124174D402815D01749802816D0AF
:10086000B0F5004F21D008281ED18868401C886050
:10087000C82819DB85F878400D2210A1BDE870402A
:10088000114800F064BF2C760D2210A1F6E74868ED
:10089000401C4860B0F5FA6F06DB0D220EA10A4835
:1008A00000F055FF85F8384070BD85F858400D229E
:1008B0000CA1E3E700000020900000206B65793474
:1008C0002069732075700A00140100206B6579316E
:1008D0002069732075700A006B6579322069732076
:1008E00075700A006B6579332069732075700A0092
:1008F000044910B50A68024202D00860FFF7A8FF59
:1009000010BD0000143C01402DE9F84F00224FF0CB
:10091000010803254FF00F0E0B6808FA02F423407C
:10092000A3426ED14E68012E05D0022E03D0112EA7
:1009300001D0122E12D186684FEA420C05FA0CF74C
:10094000BE43CF6807FA0CF7374387604668A64373
:100950000C79C4F30014944034434460C6685700D3
:1009600005FA07FC8C6826EA0C06BC403443C460D8
:100970004C68022C01D0122C13D1D40800EB840453
:10098000A346D4F8209054074FEAD46A0EFA0AF628
:1009900029EA06090E6906FA0AF646EA0906CBF8BC
:1009A000206006680C7926EA0C0604F00304BC40BB
:1009B000344304604C68E40065D5364C266846F440
:1009C00080462660246822F0030604F480440094E4
:1009D000314C3444A446D4F808489607370F0EFA31
:1009E00007F6B4432D4EB04201D1002624E02C4E30
:1009F000B04201D101261FE02A4EB04202D10226A8
:100A00001AE040E0284EB04201D1032614E0274E00
:100A1000B04201D104260FE0254EB04201D1052697
:100A20000AE0244EB04201D1062605E0224EB04233
:100A300001D1072600E00826BE402643CCF808680E
:100A40001E4E34684F689C43FF0300D51C4334603E
:100A50001A4C241D26684F689E43BF0300D51E43D1
:100A60002660164E083634684F689C43FF0200D556
:100A70001C433460114E0C3634684F689C43BF02EF
:100A800000D51C433460521C102AFFF445AFBDE86A
:100A9000F88F00004438024000300140000002405E
:100AA0000004024000080240000C02400010024016
:100AB0000014024000180240001C0240003C0140AB
:100AC0000AB1816170470904FBE7000001488068B2
:100AD000704700009C0000200248816802781144A1
:100AE000816070479C0000200B4810B5016841F4FC
:100AF00000710160016841F480610160016841F4A6
:100B000080710160032000F08DF8002000F006F8ED
:100B100000F03EF8002010BD003C024010B5014638
:100B200088B000221E2000F05DF81E2000F04CF876
:100B300013480024016841F004010160006805A920
:100B400000F004000690684600F018F900F036F94D
:100B50000C494000B0FBF1F10C480B4A491E026001
:100B600040F2E732C0E90324C0E9011400F034FB8D
:100B700010B1012008B010BD044800F049FBF9E7AE
:100B80004038024040420F0000080040FC030020B3
:100B90000C4882B0016841F480410160006800F4B3
:100BA000804000900748001F016841F080510160BB
:100BB0000068002200F0805000900F21901E02B0CB
:100BC00000F010B844380240002809DB00F01F0292
:100BD000012191404009800000F1E020C0F800119F
:100BE00070470000F0B40E4B1B680C46C3F30223A1
:100BF000C3F10705042D00D90425191D072901D2C9
:100C0000002300E0DB1E012606FA05F1491E214003
:100C100099409E40761E16403143F0BC01F0C4B9A5
:100C20000CED00E0064900F0070208684FF6FF03EC
:100C3000184040EA0220034A104308607047000051
:100C40000CED00E00000FA052DE9F0470E46050026
:100C500065D0DFF81481D8F80000F7B200F00F007B
:100C6000B04207D288F80070D8F8000000F00F00FA
:100C7000B04254D128683D4C810712D5400703D5B6
:100C8000206840F4E05020602878000703D52068F1
:100C900040F4604020602068A96820F0F00008431C
:100CA00020602878C0072DD03049686808390128AD
:100CB00012D0022813D0032811D00968890700290F
:100CC0002DDA216821F0030101432160FFF7FEFEC8
:100CD000814641F2883A0EE009688903EFE7096826
:100CE0008901ECE7FFF7F2FEA0EB0901514502D9BB
:100CF0000320BDE8F0872068696800F00C00B0EBC5
:100D0000810FEFD1D8F80010404601F00F01B14239
:100D100007D90770006800F00F00B04201D0012031
:100D2000E7E72878400705D52068E96820F4E05017
:100D3000084320602878000706D52068296920F438
:100D4000604040EAC100206000F058F82168084A7D
:100D5000C1F30311515CC8400649086006480068A9
:100D6000FFF7DCFE0020C4E7003C024008380240E8
:100D7000D4340008A8000020A00000200F22026048
:100D80000C4A136803F003034360136803F0F00395
:100D90008360136803F4E053C36012684FF4E053B8
:100DA00003EAD20202610448006800F00F00086004
:100DB0007047000008380240003C024004480549E2
:100DC00000680968044AC1F38221515CC840704739
:100DD000A800002008380240E4340008044805490F
:100DE00000680968044AC1F34231515CC840704749
:100DF000A800002008380240E4340008154810B567
:100E0000006810F00C02144813D01449042A0FD0C3
:100E1000082A0ED10F4C241F2268236802F03F02DB
:100E20005B0207D52068C0F38810A0FB010106E033
:100E3000084610BD2168C1F38811A1FB0001002301
:100E4000FFF71EFA2168C1F30141491C4900B0FBBC
:100E5000F1F010BD083802400024F40040787D0114
:100E60002DE9F84F04006ED02078DFF83C93C007DE
:100E7000A9F104054AD009F104000168C1F3810118
:100E8000012908D00068C0F3810002280AD1D9F8EE
:100E90000000400206D52868800337D56068002826
:100EA000E1D033E06068B0F5803F10D0B0F5A02FFE
:100EB000286810D020F480302860286820F4802032
:100EC00028606068A8B1FFF701FE06460DE02868BB
:100ED00040F48030F4E740F480202860F7E700BF5A
:100EE000FFF7F4FD801B642873D828688003F7D5CA
:100EF0000CE0FFF7EBFD064605E000BFFFF7E6FD5F
:100F0000801B6428F0D828688003F7D42078DFF8A5
:100F10009C8280074FF0000A3ED5A348001D01685F
:100F200011F00C0F08D00068C0F3810002280BD12B
:100F3000D9F80000400207D42868800716D5E06879
:100F4000012800D112E02BE1E068B8B10120C8F817
:100F50000000FFF7BBFD064605E000BFFFF7B6FD4A
:100F6000801B0228C0D828688007F7D52868216927
:100F700020F0F80040EAC10028600DE0C8F800A0A9
:100F8000FFF7A4FD064604E0FFF7A0FD801B022842
:100F90001FD828688007F7D42078000722D5824E12
:100FA00083486169703671B101210160FFF78EFDE0
:100FB000074604E0FFF78AFDC01B022809D8306805
:100FC0008007F7D50EE0C0F800A0FFF77FFD0746C9
:100FD00005E082E0FFF77AFDC01B02287DD830686B
:100FE0008007F7D42078400768D5DFF8BCB1002728
:100FF0000BF13C0BDBF80000C0000BD4DBF8001059
:1010000041F08051CBF80010DBF80000012700F020
:1010100080500090674E3068C00510D4306840F4AE
:1010200080703060FFF752FD009005E0FFF74EFD45
:101030000099401A022850D83068C005F6D55A4E9B
:10104000A0686C3601280FD00528306810D020F039
:1010500001003060306820F004003060A068B8B152
:10106000FFF734FD00900FE0306840F00100F4E736
:1010700040F004003060F7E7FFF728FD0099411ABF
:1010800041F28830814266D830688007F4D50EE09E
:10109000FFF71CFD009007E0FFF718FD0099411ACB
:1010A00041F28830814256D830688007F4D42FB19D
:1010B000DBF8001021F08051CBF80010A069C8B314
:1010C0003949091D0968C1F3810102294AD0022862
:1010D000504607D0C8F8600000E03CE0FFF7F6FC9F
:1010E00004463BE04746C8F86000FFF7EFFC0646C1
:1010F00005E000BFFFF7EAFC801B02282BD8286818
:101100008001F7D4D4E907010843A16A2A4A4908B3
:1011100002EB0141626A41EA8211084394F82C1003
:1011200040EA0161C9F8001001203866FFF7CEFCE3
:10113000044606E036E000BFFFF7C8FC001B0228AB
:1011400009D828688001F7D52CE000BFFFF7BEFC66
:10115000001B022802D90320BDE8F88F286880010F
:10116000F4D41FE00128F7D0D9F80000E26900F4B8
:101170008001914214D1226A00F03F0191420FD1C7
:1011800047F6C071626A0140914209D1A26A00F437
:101190004031914204D1E16A00F07060884201D090
:1011A0000120D9E70020D7E7043802400000474279
:1011B000800E4742007000400000FFFF4FF0E0212A
:1011C0000428086903D020F004000861704740F04B
:1011D0000400FAE77047704710B5040003D094F894
:1011E0003D0010B107E0012010BD002084F83C0054
:1011F000204600F00CF8022084F83D00211D2068F4
:1012000000F0EEFC012084F83D00002010BD704786
:101210000168CA6842F00102CA600068816801F092
:101220000701062903D0016841F001010160002097
:101230007047704770B50446006801694FF00005BB
:10124000C943890715D4C168C943890711D4E91E68
:10125000016101202077206880698007204602D044
:10126000FFF7E7FF04E000F098F8204600F096F85A
:10127000257720680169C943490717D4C168C94364
:10128000490713D46FF00401016102202077206820
:10129000806910F4407F204602D0FFF7CAFF04E0C7
:1012A00000F07BF8204600F079F825772068016986
:1012B000C943090716D4C168C943090712D46FF09E
:1012C00008010161042020772068C069800720465A
:1012D00002D0FFF7AEFF04E000F05FF8204600F018
:1012E0005DF8257720680169C943C90617D4C1682C
:1012F000C943C90613D46FF010010161082020779B
:101300002068C06910F4407F204602D0FFF791FFAB
:1013100004E000F042F8204600F040F8257720680D
:101320000169C943C90708D1C168C943C90704D1C4
:10133000891E0161204600F033F820680169C94325
:10134000090609D4C168C943090605D46FF08001B4
:1013500001612046FFF73EFF20680169C943490645
:1013600009D4C168C943490605D46FF04001016141
:10137000204600F01FF820680169C94389060BD494
:10138000C168C943890607D46FF020010161204676
:10139000BDE87040FFF71FBF70BD70477047000089
:1013A00000680349884201D1FFF796BB70470000EF
:1013B000000800407047704770B502680446106826
:1013C000D168536910F00F0F53D003F0010501F4F9
:1013D00090762E435FD0C20705D0CA0503D5E26BD5
:1013E00042F00102E263420705D5DA0703D0E26B5F
:1013F00042F00202E263820705D5DA0703D0E26B0E
:1014000042F00402E263020707D501F020022A43FA
:1014100003D0E26B42F00802E263E26B002A34D0B0
:10142000800604D5880602D5204600F053FC2068CB
:101430004069E16BC0F3801001F0080101432046D0
:1014400024D000F039FC2068416949061AD5416969
:1014500021F040014161606BA0B11B490165606BE7
:10146000FFF7E4F9002810D0606B016DBDE8704013
:10147000084783060FD58B060DD52046BDE8704082
:1014800000F028BC2046FFF796FF70BDFFF793FFE2
:101490000020E06370BD030606D50B0604D5204688
:1014A000BDE8704000F0F6BC4006F3D54806F1D523
:1014B000D168204621F04001D160202184F8391004
:1014C00000F064F970BD0000A91C000870B50400AC
:1014D00004D094F83900002510B106E0012070BD59
:1014E00084F83850204600F023F8242084F839008E
:1014F0002068C16821F40051C160204600F036FC2C
:101500002068016921F4904101612068416921F05E
:101510002A0141612068C16841F40051C160E5635E
:10152000202084F8390084F83A00002070BD0000C3
:1015300030B587B0044614216846FEF7EBFE274D10
:1015400023680021264802220724AB4225D1244BE0
:1015500014331D6845F010051D601B6803F010036F
:101560000593036843F002030360006802AB00F0D8
:1015700002000590C020CDE9000283E8160069460C
:101580001848FFF7C1F9002205212520FFF72AFBA3
:101590002520FFF719FB07B030BD134DAB42FAD140
:1015A0000F4B10331D6845F400351D601B6803F4B4
:1015B00000330593036843F0080303600068049454
:1015C00000F0080005906020CDE900020320CDE97D
:1015D000021069460548FFF797F9DCE70010014063
:1015E000303802400004024000440040000C024039
:1015F00090F83A30202B22D1F9B1F2B190F838307E
:10160000012B1CD081628285C2850021C163222208
:1016100080F83A2080F838100168CA6842F4807275
:10162000CA6001684A6942F001024A610068C16803
:1016300041F02001C1600020704701207047022066
:101640007047000010B500680E49884218D1012388
:101650001A460D490D4800F01DF80B480C4B014689
:10166000027848880A2A1A5408D0401C4880BDE8ED
:101670001040012204490548FFF7BABF0020F5E7F2
:1016800010BD000000100140900000201401002057
:10169000E80300202DE9F843044690F839001F467E
:1016A00016460D46202850D1B5B1AEB194F8380099
:1016B00001284AD0012084F838004FF00008C4F80F
:1016C0003C80212084F83900FFF700FAA684814687
:1016D000E68484F8388026E00120BDE8F883E08CB9
:1016E000401EE084A0684B46B0F5805F4FF00002DA
:1016F0004FF080012046009703D000F0FCFBE8B9D2
:101700000DE000F0F8FBC8B928882168C0F3080094
:101710004860206908B16D1C05E0AD1C03E021683C
:1017200015F8010B4860E08C0028D8D14B46002208
:1017300040212046009700F0DEFB08B10320CCE7F3
:10174000202084F839000020C7E70220C5E790F880
:101750003930202B18D1A9B1A2B190F83830012B23
:1017600012D001628284C2840021C163212280F8E8
:10177000392080F838100068C16841F08001C160EC
:101780000020704701207047022070477047FEE735
:101790001FB506A30FCB8DE80F000D226946074841
:1017A000FFF7D5FF0A2001F02DF9FBE748656C6CC7
:1017B0006F776F726C640D0A000000001401002046
:1017C0002DE9F04F87B014216846FEF7A3FD7C4851
:1017D0000026016841F010010160016801F010016C
:1017E0000591016841F480710160016801F4807124
:1017F0000591016841F020010160016801F02001BC
:101800000591016841F004010160016801F00401E3
:101810000591016841F001010160016801F00101D9
:101820000591016841F002010160016801F00201C7
:101830000591016841F080010160016801F08001BB
:101840000591016841F0080101600068DFF874A1AA
:1018500000F008000590012260215046FFF730F9A2
:10186000DFF864B140F2E447012239465846FFF7F9
:1018700027F9012202215548FFF722F90022092108
:101880005348FFF71DF9002250215248FFF718F97D
:10189000002202215048FFF713F94FF4007801228B
:1018A00041464E48FFF70CF940F608090122494627
:1018B0004B48FFF705F9012211024548FFF700F9EF
:1018C00002256020012403958DE8510069465046A9
:1018D000FFF71AF800970395CDE901466946584687
:1018E000FFF712F8CDE90054CDE9026569463748A3
:1018F000FFF70AF840F2091003958DE85100694698
:101900003348FFF701F8502003958DE851006946F0
:101910003048FEF7F9FFCDE9004669462E480294AB
:10192000FEF7F2FFCDE90054CDE9026569462A4889
:10193000FEF7EAFFCDF800800395CDE90146694640
:101940002648FEF7E1FFCDF800900395CDE901466A
:1019500069462348FEF7D8FF224DC020CDE9000597
:10196000694602941A48FEF7CFFFE003CDE900056F
:10197000694602941748FEF7C7FF0820CDE9000525
:10198000694602941448FEF7BFFF00220521092092
:10199000FFF728F90920FFF717F900220521172082
:1019A000FFF720F91720FFF70FF900220521282063
:1019B000FFF718F92820FFF707F907B0BDE8F08F07
:1019C0003038024000100240002002400014024063
:1019D000000802400000024000040240001C0240D7
:1019E000000C024000002110FEE770470022334E39
:1019F0004FF4806529463046FFF762F84FF47A7459
:101A0000204600F0FFFF012229463046FFF758F834
:101A1000C82000F0F7FF002229463046FFF750F8B3
:101A2000C82000F0EFFF002240212548FFF748F8CA
:101A3000142000F0B1FF234D234E24A1A86096EDA1
:101A40000C0B53EC102B00F09BFA14222548A968CC
:101A5000FFF77DFEA86800F01FFF00271420AF608D
:101A600000F09AFFA86096ED040B1FA153EC102B19
:101A700000F086FA14221B48A968FFF768FEA868E0
:101A800000F00AFFAF601E4E1E4F4FF4007500229B
:101A900029463046FFF714F8204600F0B3FF012234
:101AA00029463046FFF70CF8204600F0ABFF002235
:101AB00002213846FFF704F8E9E700000020024061
:101AC00000000240840000200000002059206469CA
:101AD0007374616E63653D5B25302E33665D090A64
:101AE0000000000014010020582064697374616EC6
:101AF00063653D5B25302E33665D090A00000000FA
:101B0000001C02400004024010B5502080F31188F0
:101B1000BFF34F8FBFF36F8F01F0FAFB18B1044989
:101B20004FF080500860002080F3118810BD000045
:101B300004ED00E030B593B030216846FEF7EAFBD3
:101B400014210CA8FEF7E6FB19480025016841F0B6
:101B500080510160006800F08050119015480168C4
:101B600041F4804101600068022400F4804011903B
:101B70000120039010200490009406940820CDE9E1
:101B80000750A820CDE9090404200B906846FFF710
:101B900067F90CA90F2081E831004FF4A0500F9095
:101BA000E002109005210CA8FFF74EF813B030BDED
:101BB00040380240007000400548016841F470015F
:101BC000016003494FF000608039086070470000F1
:101BD00088ED00E00148FFF72DBB0000FC0300206A
:101BE000F0B50268254C264D264E274F274B4FF067
:101BF000804CA04209D0604507D0A84205D0B04231
:101C000003D0B84201D0984204D122F0700E4A6845
:101C100042EA0E02A0421BD0604519D0A84217D05C
:101C2000B04215D0B84213D0984211D0184DA842F6
:101C30000ED0184DA8420BD0174DA84208D0174D12
:101C4000A84205D0164DA84202D0164DA84203D195
:101C500022F44075CA682A434D6922F080022A4363
:101C600002608A68C2620A688262A04201D0984219
:101C700001D10969016301214161F0BD000001400A
:101C80000004004000080040000C00400004014037
:101C9000004001400044014000480140001800405D
:101CA000001C00400020004010B5806B0021C18561
:101CB000C184FFF780FB10BD0168CA6822F49072EE
:101CC000CA6001684A6922F001024A61202180F855
:101CD0003A10704710B590F83A10222901D002202E
:101CE00010BD8168B1F5805F11D0016900290168DC
:101CF0001FD0496801F07F03816A4A1C82620B7021
:101D0000C18D491E0904090CC18518D02BE0026958
:101D1000816A002A0268526805D0D2B20A80816ABC
:101D2000491C8162ECE7C2F308020A80816A891CBF
:101D3000F7E74A68816A4B1C83620A70E0E7016832
:101D4000CA6822F02002CA600168CA6822F4807260
:101D5000CA6001684A6922F001024A61202180F8C4
:101D60003A10FFF76FFC002010BD00002DE9F04194
:101D7000044600680169E26821F4405111430161A1
:101D80002169A068E2690843616911430843216839
:101D9000CA6849F20C639A430243CA6020684169E9
:101DA000A26921F4407111434161E069192764255A
:101DB0003226B0F5004F354A354920684FF000080B
:101DC00006D0884201D0904236D1FFF707F835E0BF
:101DD000884201D0904202D1FFF700F801E0FEF7FF
:101DE000EDFF61684A18A0FB070148EB0803FEF706
:101DF00047FA0146B0FBF5F00201B1FBF5F06FF0D8
:101E00001803584301EB800006EBC000B0FBF5F06F
:101E100000F0F80002EB4002B1FBF5F0584301EB93
:101E2000800006EBC000B0FBF5F000F00700216871
:101E300010448860BDE8F081FEF7C0FF61688B0F39
:101E40008A00A0FB0701FEF71BFA0146B0FBF5F084
:101E50006FF01802504301EB800006EB0010B0FB5E
:101E6000F5F000F0F002B1FBF5F002EB0012B1FB6F
:101E7000F5F06FF01803584301EB800006EB0010FB
:101E8000B0FBF5F000F00F00D1E7000000140140B6
:101E90000010014090F83910212901D0022070472C
:101EA0008168B1F5805F016A0BD04A1C026202684A
:101EB00009785160C18C491E0904090CC1840ED0F7
:101EC00017E009880268C1F308015160016900291F
:101ED000016A02D0491C0162ECE7891CFBE701683A
:101EE000CA6822F08002CA600068C16841F04001FF
:101EF000C160002070472DE9F041984617460E4614
:101F00000446069D1DE0681C1BD02DB1FEF7DEFDCA
:101F1000A0EB0800A84214D92068C16821F4D07150
:101F2000C1602068416921F001014161202084F8ED
:101F3000390084F83A00002084F838000320BDE816
:101F4000F0812068006836EA000004D00020B84222
:101F5000D9D00020F3E70120F9E7000010B50548CB
:101F6000FFF72AFABDE81040012203490148FFF7B4
:101F70003FBB00001401002090000020FEE700009D
:101F80000FB4084B10B504A902AA039800F0DEF8BC
:101F9000044602A9002000F070FC204610BC5DF849
:101FA00014FB00007B2800080907090E002804DB49
:101FB00000F1E02080F80014704700F00F0000F1FD
:101FC000E02080F8141D704702E008C8121F08C105
:101FD000002AFAD170477047002001E001C1121FAA
:101FE000002AFBD1704700002DE9FF5FDDE90220E8
:101FF000010DDDF838B0024318D044F61050A1F2BC
:10200000FF3141430D140F98012820D0A5EB0B00A0
:10201000401C5FEA000A4FF00004474EDFF81C91B5
:10202000A046504616D5CAF1000728E00F980124B3
:1020300043A2012808D0002100980F9BC0E900218D
:10204000C0E90243BDE8FF9F6FEA0B01F4E7CBF163
:102050000000DEE7074612E0F80707D022463346C5
:1020600040464946FEF71BFB8046894622463346DA
:1020700010461946FEF713FB04460E467F10002F4C
:10208000EAD1DDE90201BAF1000F42464B4602DA1D
:10209000FEF705FB01E0FEF7EFF904460E460022CD
:1020A000284BFEF787FB03D84FF0FF30014607E0CF
:1020B0000022254B20463146FEF737F9FEF761FB3B
:1020C000102409E0002C0ADB0A220023FEF7D8F8CE
:1020D000019B30321A55641E50EA0102F2D1641C91
:1020E000019AC4F1110314440F9A012A03D001226A
:1020F00008430DD10AE0084304D000204FF0110B33
:102100000F9080E7A3EB0B056D1E0DE05B4504DD32
:102110004FF0000205F1010504E003DA4FF0000280
:10212000A5F10105002AECD000980F99C0E9023111
:10213000C0E9004586E70000000024400000F03FB1
:10214000300000000000F0430000E03F2DE9FF4FA9
:1021500095B09B468946064600250FE2252877D193
:1021600000242746F84A0121059400E0044316F8AC
:10217000013F203B01FA03F01042F7D130782A28C2
:1021800011D06FF02F033078A0F13002092A16D851
:10219000059A44F0020402EB820203EB420210446F
:1021A000761C0590EFE759F8042B0592002A03DA14
:1021B000504244F40054059044F00204761C3078F8
:1021C0002E2816D116F8010F44F004042A280DD049
:1021D0006FF02F023078A0F13003092B09D807EBFC
:1021E000870302EB4303C718761CF3E759F8047B17
:1021F000761C30786C280FD006DC4C2817D0682865
:102200000DD06A2814D104E0742810D07A280FD198
:102210000DE044F400140AE044F4801401E044F4B6
:1022200040147278824202D104F58014761C761C28
:10223000307866280BD013DC582877D009DC0028CA
:1022400075D04528F6D04628F4D047281AD19DE10C
:1022500018E0632835D0642879D0652812D195E13B
:10226000702873D008DC6728F1D069286FD06E28F9
:102270000DD06F2806D1B5E073282CD0752875D005
:10228000782874D05A46179990476D1C75E1C4F3AD
:102290000250022809D003280DD0D9F800100428D4
:1022A0000DD00D6009F1040967E1D9F80010EA17B3
:1022B000C1E90052F6E7D9F800100D80F2E70D7081
:1022C000F0E719F8041B8DF8001000208DF80100CC
:1022D000EA46012003E059F804AB4FF0FF306107F4
:1022E0004FF0000102D40DE008F101018846B94227
:1022F0000FDA8045F8DB1AF808100029F4D108E05D
:1023000008F1010188468142FADB1AF80810002919
:10231000F6D105985B46A0EB080721463846179A88
:1023200000F094FA284400EB080507E04DE029E1AD
:102330000DE01AF8010B5A4617999047B8F10108B9
:10234000F7D25B4621463846179A13E142E00A224B
:102350000092C4F302524FF0000A022A08D059F842
:1023600004CB032A4FEAEC710AD00DE029E02AE001
:1023700009F1070121F00702F2E802C1914609E0E4
:102380000FFA8CFC4FEAEC71042A03D14FFA8CFC53
:102390004FEAEC71002907DA0A460021DCF1000C53
:1023A00061EB02012D2202E0220504D52B228DF8DB
:1023B0000420012203E0E20701D02022F7E7904643
:1023C00059E00A2102E010220DE010214FF0000A2E
:1023D00000910BE010224FF0000A44F0040408279B
:1023E000009203E008224FF0000A0092C4F3025268
:1023F000022A05D059F804CB0021032A08D009E0AD
:1024000009F1070121F00702F2E802C1914605E057
:102410001FFA8CFC042A01D10CF0FF0C4FF00008CD
:10242000220728D5702806D0009B83F0100353EABA
:102430000A0305D00EE040228DF80420012208E0B6
:102440005CEA010206D030228DF804208DF80500E8
:1024500002229046009B83F0080353EA0A030AD144
:102460005CEA010201D1620705D530228DF8042013
:102470004FF001087F1E582804D034A003900EA806
:1024800002900DE036A0F9E753466046009AFDF74A
:10249000F7FE84460398825C0298401E0290027008
:1024A0005CEA0100F0D1029806A9081A00F1200A9E
:1024B000600702D524F4803400E00127574502DD8F
:1024C000A7EB0A0000E0002000EB0A01009005984D
:1024D0004144401A0590E00306D45B462146179A12
:1024E000059800F0B3F90544002706E001A85A4614
:1024F000C05D179990476D1C7F1C4745F6DBE003D4
:102500000CD55B462146179A059800F09FF90544C3
:1025100004E030205A46179990476D1C0099481ED8
:1025200000900029F5DC08E0029802995A460078EC
:10253000491C0291179990476D1CBAF10001AAF14C
:10254000010AF1DC65E10000092801003031323375
:1025500034353637383961626364656600000000DF
:1025600030313233343536373839414243444546C9
:102570000000000000F058F90544761C307800286F
:102580007FF4ECAD19B02846BDE8F08F620700D4A7
:10259000062709F1070222F0070CFCE80223E146B6
:1025A00003F000485FEA080C02D00FF2702C0DE037
:1025B0005FEA045C02D50FF2682C07E05FEAC47C96
:1025C00002D00FF2602C01E0AFF2700C4FF0FF3838
:1025D00023F00043CDF850C065280CD006DC452818
:1025E00009D046281DD047283DD13DE0662818D0A7
:1025F00067287ED138E00021112F01DB112000E097
:10260000781CCDE9000106A90EA8FFF7EDFCDDE975
:102610000F010E9A03910021009207F1010A049123
:102620004DE04FF000400097CDE9011006A90EA83B
:10263000FFF7DAFCDDE90F0203920E9B11990022ED
:10264000DDF80CA00093049211B9791C00EB010A8B
:10265000B7EB0A0004D4C0F1FF3007F1010A04907F
:10266000AAEB0700019044E0012F00DA01270021C6
:10267000112F01DD112000E03846CDE9000106A947
:102680000EA8FFF7B1FCDDE90F010E9A03910021BE
:1026900004910092BA4621070CD40399514500DAFF
:1026A0008A46BAF1010F05DD009AAAF10101515CD9
:1026B000302908D0B84202DA10F1040F06DA0121FD
:1026C000CDE9011015E0AAF10101E9E7002805DCD8
:1026D000049901440491AAEB000102E0411C514518
:1026E00000DD8A460499401A401C01904FF00040DA
:1026F0000290200704D40198504501DBCDF80480F6
:1027000000208DF84F0002980DF14F07B0F1004FF7
:1027100025D02B200E9002984FF0020800280CDAEA
:10272000404202902D200E9007E00A210298FDF70A
:1027300012FF3031029007F8011DB8F10001A8F135
:102740000108F2DC02980028EFD1791E0E9808707B
:10275000307800F0200040F0450007F8020D12A884
:10276000C01B00F107081498007800B1012000EBAD
:102770000A01019801EBE07105984144401A401E9E
:102780000590E00306D45B462146179A059800F0B1
:102790005DF805441498007818B15A461799904787
:1027A0006D1CE00324D55B462146179A059800F07E
:1027B0004DF805441CE00498002807DBDDE903011F
:1027C000884203DD0098405C179901E0179930209A
:1027D0005A469047049805F10105401C0490019861
:1027E000401E019004D12E205A46179990476D1C27
:1027F000BAF10001AAF1010ADDDC05E017F8010BCE
:102800005A46179990476D1CB8F10001A8F10108CC
:10281000F4DC5B462146179A0598ABE62D000000D4
:102820002B000000200000002DE9F04104460025A7
:102830001E461746880404D405E039462020B047D8
:102840006D1C641EF9D52846BDE8F0812DE9F041E4
:10285000044600251E469046C80301D5302700E0F7
:102860002027880404D505E041463846B0476D1C52
:10287000641EF9D52846BDE8F0810A68531C0B6038
:102880001070704710B504460420FEF797FC01480D
:10289000046010BD8000002010B5002821D0114B2D
:1028A0000022001F196803E0814203D80A464968E4
:1028B0000029F9D152B11368841A9C4204D10068EE
:1028C00018441060104602E0506000E0186039B112
:1028D00002680B1A934203D10B681A4402604968DC
:1028E000416010BD0C0100208EB0FEF7FDF8FFF72F
:1028F00021F9FEF765FF20481E494FF4E135002419
:102900000160C0E901540C26C460C0E9044684613A
:10291000C461FEF7DBFD1848184940300160C0E98A
:102920000154C460C0E904468461C461FEF7CEFD71
:10293000A820FFF7A7FF00224FF480611048FEF7A0
:10294000BFF81C220F496846FDF7CBFC0021684602
:1029500000F064F80C4C0B491C2220601C3107A8C5
:10296000FDF7BFFC002107A800F058F8606000F0F8
:1029700050F8FEE700100140140100200044004020
:10298000002002409C340008840000200146002002
:10299000842900D0C81C7047F0B50B30154D20F0CD
:1029A00007010024144A0FE003688B420BD38B42CB
:1029B00005D95E1A43184768C3E9006700E0436819
:1029C000136002C004E0021D10680028ECD120460C
:1029D000002802D1286808B10020F0BD064A074847
:1029E0001060074A121A22F00702C0E900240120F1
:1029F0002860D7E7100100200C010020344100209E
:102A00003043002010B500B9012000F01DFB00206C
:102A100010BD10B500F03EFB002010BD7FB50D4687
:102A200004464169B0F9080081B1A16971B1FFF7AD
:102A3000ADFFD4E905128DE80700D4E900102B465C
:102A4000226900F03AFC039004B070BDFFF79EFFCE
:102A500003A9CDE90001208A2B4682B2D4E90010F7
:102A600000F0FEFB012801D00020EDE70398EBE722
:102A70002DE9F041184C0F46054666692068001D97
:102A800000F01EFA38B9206890F82C100120884018
:102A9000A1698143A161681C07D137B12168BDE8F4
:102AA000F0410E48091D00F04FBA20683544B54288
:102AB0004560216805D2A068BDE8F041091D00F01D
:102AC0002BBA6068091D00F027FA206B854200D2FE
:102AD0002563BDE8F0810000AC000020180500204F
:102AE0002DE9F041054600F03BFA2E4C2069401CD0
:102AF000206120682C4F10B1E06940B32DE02560C3
:102B00002069012829D1002606EB860007EB80000A
:102B100000F0F4F9761C072EF6D323488C3000F031
:102B2000EDF92148A03000F0E9F91F48B43000F079
:102B3000E5F91D48C83000F0E1F91B48DC3000F031
:102B4000DDF919488C3060601430A06005E0206821
:102B5000E96AC06A884200D82560E06A401CE062E9
:102B6000E96A0120A26988401043A06101EB81005D
:102B700007EB8000291D00F0E7F900F011FAE06989
:102B800000280CD02068E96AC06A884207D2074949
:102B90004FF080500860BFF34F8FBFF36F8FBDE8D9
:102BA000F0810000AC0000203C04002004ED00E0B7
:102BB00010B5044690F8510058B101280CD00228F5
:102BC0000FD0502080F31188BFF34F8FBFF36F8F6A
:102BD000FEE7206B00F0F8F92046BDE8104000F059
:102BE000F3B910BD10484FF47051420706D0C01D14
:102BF0000D4920F00700411AC1F570510B4A00231E
:102C00000144C2E900030839103A21F007011160BC
:102C10004B600B600B1AC0E9001393604FF000404B
:102C20005360D060704700002C050020F8000020A1
:102C3000144E154CA6F1C8074FF08058DFF84C90A1
:102C400012E000BF00F08CF9F068C568281D00F0A4
:102C500037F92069401E2061E068401EE06000F006
:102C60009FF92846FFF7A4FFE0680028EAD13868FA
:102C70000128F9D9C9F80080BFF34F8FBFF36F8FD8
:102C8000F2E7000004050020AC00002004ED00E0A5
:102C90002DE9F0479A46DDE9098481466FF0030388
:102CA000206B03EB82021044089E20F00707780790
:102CB00007D0502080F31188BFF34F8FBFF36F8F81
:102CC000FEE7002561B1002023180A5C83F8342058
:102CD0000A5C12B1401C1028F6D384F8435001E07E
:102CE00084F83450072E00D30626E662C4E9116545
:102CF000201D00F00EF904F1180000F00AF924611B
:102D0000C6F107006462A061E56484F85050524641
:102D10004946384600F0BEF82060B8F1000F01D0F7
:102D2000C8F80040BDE8F08730B5114900E0114611
:102D30000A688242FBD34B685C18844203D1406826
:102D400018444860084643681C18944209D1084C4E
:102D5000103C2468A24209D052681A4442600A68B2
:102D600012680260814200D0086030BD0460F9E75B
:102D7000F800002006484168096829B14168C9681F
:102D8000C9684968016370474FF0FF31FAE70000F6
:102D9000AC00002008484068401C4FF0500080F311
:102DA000118804D0BFF34F8FBFF36F8FFEE7BFF3DF
:102DB0004F8FBFF36F8FFEE7000100202DE9F04138
:102DC0000546002700F09CF9314E306808B9FFF73E
:102DD00009FFF06805424BD1C5B3083568070ED02E
:102DE00005F00700C0F108000544680707D050202F
:102DF00080F31188BFF34F8FBFF36F8FFEE72DB3C2
:102E00007068854234D82248103001460C6801E0D1
:102E100020460C466168A94202D221680029F7D1F8
:102E200031688C4224D007682168016060680837E7
:102E3000411B10290FD96019420708D0502080F398
:102E40001188BFF34F8FBFF36F8FFEE710E0416033
:102E50006560FFF769FF61687068401A7060B2686A
:102E6000904200D2B060F06801430020C4E9000144
:102E700000F0B2FA780707D0502080F31188BFF332
:102E80004F8FBFF36F8FFEE73846BDE8F08100003B
:102E9000E800002010B5031F4FF080741C601B1F5A
:102EA00021F001011960191F044B0B6014390A60ED
:102EB000091F6FF0020244380A6010BD952D00080A
:102EC000D0E9013201699A60D0E901235A604A6869
:102ED000824201D182684A60002202610868401E75
:102EE0000860086870470000034B036003F154005A
:102EF00008608020106070479401002000F10801F4
:102F00004FF0FF32C0E90112C16001610021016090
:102F1000704700210161704730B50B685A1C02D020
:102F200000F1080202E0026904E0224654682568C4
:102F30009D42FAD953684B6099608A60516008617C
:102F40000168491C016030BD42684A6093688B602B
:102F500093685960916008610168491C016070477D
:102F6000502080F31188BFF34F8FBFF36F8F0A4952
:102F70004868401C486001280CD10848006810F0DF
:102F8000FF0F07D0502080F31188BFF34F8FBFF39E
:102F90006F8FFEE7704700000001002004ED00E0A5
:102FA0000849486828B1401E486001D180F3118863
:102FB0007047502080F31188BFF34F8FBFF36F8F9E
:102FC000FEE700000001002070B5002827D0144D56
:102FD000A0F108046168E868014207D1502080F33D
:102FE0001188BFF34F8FBFF36F8FFEE722683AB1AE
:102FF000502080F31188BFF34F8FBFF36F8FFEE730
:103000008143616000F07CF860686968084468602A
:103010002046FFF789FEBDE8704000F0DDB970BDC5
:10302000E80000204FF0E0200021016181610549A6
:103030004FF47A720968B1FBF2F1491E4161072130
:1030400001617047A800002010B5020014D00F489D
:10305000806B38B1502080F31188BFF34F8FBFF3DE
:103060006F8FFEE700F04CF800211046FFF700FDDF
:1030700000F0B2F9002807D105494FF080500860F0
:10308000BFF34F8FBFF36F8F10BD0000AC00002067
:1030900004ED00E010B586B00024039405AA04A94D
:1030A00003A80494FFF720FFDDE903010094CDE9B4
:1030B000011000230EA11048059A00F0FEF80F49F8
:1030C0000028486311D0502080F31188BFF34F8F40
:1030D000BFF36F8F4FF0FF3008630120C8614C6170
:1030E00006B0BDE8104000F041B806B010BD0000C9
:1030F00049444C4500000000312C0008AC00002081
:103100000248816B491C816370470000AC000020BD
:103110001448816B11B10121416270470021416265
:103120008169B1FA81F1C1F11F0101EB81020E4900
:1031300051F822306BB101EB820101F108034A68BA
:1031400052684A609A4201D152684A60D16801606F
:103150007047502080F31188BFF34F8FBFF36F8FFC
:10316000FEE70000AC0000203C0400201CB53748FE
:103170000168374A914207D1502080F31188BFF38C
:103180004F8FBFF36F8FFEE700683149491E8842B9
:1031900007D1502080F31188BFF34F8FBFF36F8F9B
:1031A000FEE72C4908780190FF20087008788DF818
:1031B00000009DF800009DF8002000F0F000904213
:1031C00007D0502080F31188BFF34F8FBFF36F8F6C
:1031D000FEE79DF80000204B00F05000187007201B
:1031E000986005E09DF8002052008DF80020401EF8
:1031F0009DF800201206F5D49860032807D05020CF
:1032000080F31188BFF34F8FBFF36F8FFEE74FF44A
:1032100040709860019808700C482030016841F4B3
:1032200070010160016841F070410160FFF7FAFE32
:1032300000205860FCF7D6FF0848016841F0404183
:103240000160FCF7BBFF00201CBD000000ED00E0AA
:1032500071C20F4100E400E00001002034EF00E003
:103260002DE9FF5F8346DDE90E87994616468A46BB
:103270009000FFF7A3FD05001CD05420FFF79EFD32
:10328000040014D00020256384F85100CDE90240E9
:10329000CDE900874B46324651465846FFF7F8FCC9
:1032A0002046FFF71DFC012004B0BDE8F09F284632
:1032B000FFF78AFE4FF0FF30F6E7F0B585B0DDE9A5
:1032C0000B640A9DA6B1DCB1542700972663022641
:1032D00084F85160002604AFCDE90246CDE90057DD
:1032E000FFF7D6FC2046FFF7FBFB049805B0F0BDC6
:1032F000502080F31188BFF34F8FBFF36F8FFEE72D
:10330000502080F31188BFF34F8FBFF36F8FFEE71C
:103310002DE9F0412E4C0027A06B40B1206A401CE3
:103320002062606A00B101273846BDE8F081666915
:10333000761C666113D16068006838B1502080F354
:103340001188BFF34F8FBFF36F8FFEE76068A168EE
:103350006160A060A06A401CA062FFF70BFD206BBB
:10336000DFF87080864209D36068006880B16068C9
:10337000C068C568686886420DD220632068C06A4C
:1033800000EB800158F821000128CAD90127C8E7BD
:103390004FF0FF30F1E7281DFFF792FDA86A18B142
:1033A00005F11800FFF78CFDE86A0121A269814050
:1033B0001143A16100EB800108EB8100291DFFF79B
:1033C000C3FDE86A2168C96A8842CDD30127CBE7EB
:1033D000AC0000203C0400202DE9F0472C4D0024D7
:1033E0002746A86B38B1FFF7BBFDA86B401EA8634A
:1033F000A86B40B146E0502080F31188BFF34F8F97
:10340000BFF36F8FFEE72969224E0120D1B3A6F1E9
:10341000B40980463068E8B1F068C46804F1180067
:10342000FFF74EFD201DFFF74BFDE06AAA6908FA81
:1034300000F11143A96100EB800109EB8100211D1E
:10344000FFF782FDE06A2968C96A8842E2D3C5F8BD
:103450002480DFE70CB1FFF78DFC2C6A44B14646AF
:10346000FFF756FF00B16E62641EF9D1002028629A
:10347000686A38B10849012738070860BFF34F8FE1
:10348000BFF36F8FFFF78CFD3846BDE8F087000073
:10349000AC000020F004002004ED00E0F834000847
:1034A000ED1900080000000000000000800000008E
:1034B0000000000000000000EC3400089117000834
:1034C000FDFF000000000000800000000000000080
:1034D00000000000000000000000000001020304E2
:1034E0000607080900000000010203046C696D6909
:1034F000745461736B00000064656661756C74548C
:1035000061736B00243500080000002014010000E6
:10351000C81F000838360008140100201C460000AF
:10352000D81F00080020024020000000000C0240CC
:103530000800000000000000000000000000000083
:10354000000000000020024040000000000C02408B
:103550000008000000000000000000000000000063
:103560000000000000200240800000000014024023
:103570000200000000000000000000000000000049
:10358000000000000020024004000000000802408B
:10359000000100000000000000000000000000002A
:1035A000000000000000000000000000000000001B
:1035B000000000000000000000000000000000000B
:1035C0000100000010000000000000000024F400D2
:1035D00000000000000000000000000000000000EB
:1035E00000000000000000000000000000000000DB
:1035F00000000000000000000000000000000000CB
:1036000000000000000000000000000000000000BA
:1036100000000000000000000000000000000000AA
:103620000000000000000000AAAAAAAA00000000F2
:08363000000000000000000092
:040000050800018965
:00000001FF
