:020000040800F2
:10000000284500205D020008231A0008ED170008AB
:10001000211A00085D0900083920000800000000CE
:100020000000000000000000000000009D0100082A
:100030005F09000800000000F90100081D1C00080D
:1000400077020008770200087702000877020008AC
:10005000770200087702000877020008770200089C
:100060007702000869090008770200087702000893
:10007000770200087702000877020008770200087C
:10008000770200087702000877020008770200086C
:100090007702000877020008770200086F0900085D
:1000A000770200087702000877020008770200084C
:1000B0007702000877020008E91C000877020008B0
:1000C000770200087702000877020008770200082C
:1000D000770200080D2000082D2000087702000894
:1000E000610900087702000877020008770200081B
:1000F00077020008770200087702000877020008FC
:1001000077020008770200087702000877020008EB
:1001100077020008770200087702000877020008DB
:1001200077020008770200087702000877020008CB
:1001300077020008770200087702000877020008BB
:1001400077020008770200087702000877020008AB
:10015000770200087702000877020008770200089B
:10016000770200087702000877020008770200088B
:1001700077020008770200087702000800000000FC
:100180007702000877020008DFF80CD000F0D4FBFB
:100190000048004789290008284500202C4B196891
:1001A0000868B0E8F04F80F30988BFF36F8F4FF015
:1001B000000080F3118870470000000008480068C4
:1001C000006880F308884FF0000080F3148862B65E
:1001D00061B6BFF34F8FBFF36F8F00DF00BF00BF6B
:1001E00008ED00E0DFF80C00016841F470010160E7
:1001F000704700BF88ED00E0EFF30980BFF36F8F19
:10020000134B1A681EF0100F08BF20ED108A20E96A
:10021000F04F106009B44FF0500080F31188BFF325
:100220004F8FBFF36F8F03F069FB4FF0000080F337
:10023000118809BC19680868B0E8F04F1EF0100F6B
:1002400008BFB0EC108A80F30988BFF36F8F704746
:10025000B0000020EFF3058070470000064880479B
:1002600006480047FEE7FEE7FEE7FEE7FEE7FEE79B
:10027000FEE7FEE7FEE7FEE7CD1C00088901000867
:100280002DE9F05F0546002092469B4688460646CB
:10029000814640241BE0284641464746224600F05E
:1002A0007CFA53465A46C01A914110D3114618465B
:1002B000224600F063FA2D1A67EB01084F462246EA
:1002C0000120002100F05AFA17EB00094E41201ED0
:1002D000A4F10104DFDC484631462A464346BDE826
:1002E000F09F40EA01039B0703D009E008C9121FF1
:1002F00008C0042AFAD203E011F8013B00F8013BE0
:10030000521EF9D27047D2B201E000F8012B491E0B
:10031000FBD270470022F6E710B513460A460446A2
:100320001946FFF7F0FF204610BD2DE9FE4F80462D
:1003300081EA0300C00F0C46009021F0004123F039
:100340000045B8EB0200A94105D24046214690463F
:100350001C460B46024623F00040104347D0270DB1
:10036000C7F30A00C3F30A510290401A01904028D3
:100370006BDAC3F3130040F4801B0098924620B15F
:100380000023D2EB030A63EB0B0B01985946C0F133
:100390004002504600F0F2F906460D4650465946D6
:1003A000019A00F00AFA10EB08006141002487EA84
:1003B000115284EAE7731A4340D0009A62B3019A5B
:1003C000012A4FEA075215DC001B61EB02014FF0D6
:1003D000004202EA0752CDE90042001C41F58011BB
:1003E00032462B4600F041FA03B0BDE8F08F40469C
:1003F0002146F9E7001B61EB0201001C41F5801367
:1004000000185B412018A2F5001747EB030140EAF2
:10041000D570B6196D4111E06D084FEA360645EA10
:10042000C0754FEA0752001B61EB0201001C41F549
:10043000801149084FEA30000019514132462B46DD
:1004400003B0BDE8F04F00F001BA0098012240006F
:100450000023D0EB020263EBE073009821464FEAE1
:10046000E074B8EB000061EB0401E9E783F00043BE
:100470005BE781F0004158E72DE9FE4F81EA030474
:1004800004F0004421F0004100944FF0000B23F0F1
:10049000004350EA01045ED052EA03045BD0C3F388
:1004A0000A54C1F30A552C44A4F2F3340194A0FB7E
:1004B0000254C1F3130141F48011C3F3130343F455
:1004C000801301FB024400FB034E840A970A44EAAE
:1004D000815447EA8357A4FB076802958D0A05FB00
:1004E00007854FEA932C04FB0C542705029D4FEA25
:1004F000065847EA1637B5EB08056EEB070C870E72
:10050000920E47EA811742EA8312A7FB0201B6EB7B
:100510000B0164EB00042B0D43EA0C335E1844EB33
:100520001C50DA465146E7FB0201C5F313044FEABB
:100530000B3343EA14534FEA0432019C43EA0603A7
:10054000A4F10C040294009CCDE900B400F08DF9F4
:1005500003B0BDE8F08F00200146F9E72DE9F04D2A
:1005600081EA030404F0004B21F0004514464FF0EB
:10057000000A23F0004150EA050220D054EA0102AB
:100580001DD0C5F30A570246C5F31303C1F3130088
:10059000C1F30A5640F4801543F48013A7EB060814
:1005A000101BD64608F2FD3873EB050002D308F1A4
:1005B000010801E092185B41B8F1000F03DA002056
:1005C0000146BDE8F08D00204FF4801106468446B8
:1005D0000EE0171B73EB050705D3121B63EB050336
:1005E00006434CEA010C49084FEA300092185B417F
:1005F00050EA0107EDD152EA030012D082EA04006A
:1006000083EA0501084305D0101BAB4106D2012245
:10061000002306E000224FF0004302E06FF00102E9
:1006200053101AEB06004CEB085110EB0A0041EB9B
:100630000B01BDE8F04D00F009B90EB540F23341B1
:1006400002910021CDE900110A460B4600F00DF998
:1006500003B000BD70B5C1F30A5201F0004500249B
:10066000C1F3130140F2FF3341F480119A4201DAE1
:10067000002070BD40F233439A42A2F2334203DCC1
:10068000524200F08AF800E090402C43F1D0404202
:1006900070BD00F0004230F000400AD0C10D01F5FD
:1006A0006071C0F3160042EA0151C20840071143CD
:1006B000704700200146704730B5041E71F10004F8
:1006C00004DB4FF00044404264EB0101141E73F15F
:1006D000000405DB1C464FF00043524263EB040369
:1006E0008B4208BF824230BD30B5041E71F1000458
:1006F00004DB4FF00044404264EB0101141E73F12F
:10070000000405DB1C464FF00043524263EB040338
:10071000994208BF904230BD01F0004330B421F04F
:10072000004150EA010206D00A0DA2F56072C1F341
:100730001301002A02DC30BC00207047440F44EA59
:10074000C104C100E01830BC00EBC25000F047B853
:1007500030B50B46014600202022012409E021FA91
:1007600002F59D4205D303FA02F5491B04FA02F58E
:100770002844151EA2F10102F1DC30BD202A04DB61
:10078000203A00FA02F1002070479140C2F12003A4
:1007900020FA03F3194390407047202A04DB203AE3
:1007A00021FA02F00021704721FA02F3D040C2F191
:1007B00020029140084319467047202A06DBCB17D8
:1007C000203A41FA02F043EAE07306E041FA02F30C
:1007D000D040C2F1200291400843194670470029D9
:1007E000A8BF7047401C490008BF20F001007047B7
:1007F00010B4B0FA80FC00FA0CF050EA010404BF17
:1008000010BC704749B1CCF1200421FA04F411FA6C
:100810000CF118BF012121430843A3EB0C01CB1DB0
:100820004FEA00614FEA102042BF002010BC704721
:1008300000EBC35010440029A4BF10BC7047401CFB
:10084000490008BF20F0010010BC704710B5141E0D
:1008500073F1000408DA401C41F1000192185B4179
:100860001A4301D120F0010010BD2DE9F04D924650
:100870009B4611B1B1FA81F202E0B0FA80F2203267
:100880009046FFF77BFF04460F4640EA0A0041EA24
:100890000B0153465A46084313D0114653EA010050
:1008A00019D0C8F140025046FFF777FF05460E46C3
:1008B000504659464246FFF761FF084305D00120E4
:1008C00004E020463946BDE8F08D0020054346EAA5
:1008D000E0762C4337430A986305E40AA0EB08004E
:1008E0000022FD0A44EA47540A3002D5002001469E
:1008F000E9E7010510196941DDE908450019694179
:10090000BDE8F04DA2E7C1F30A52C1F3130140F272
:10091000FF3341F480119A4202DA00200146704709
:1009200040F233439A42A2F2334202DC5242FFF7D2
:1009300034BFFFF723BF0000064C074D06E0E06818
:1009400040F0010394E8070098471034AC42F6D316
:10095000FFF71EFCF843000818440008FEE7704744
:100960004FF4004000F036B8082000F033B810B55E
:10097000402000F02FF8BDE81040802000F02AB899
:1009800090F83510022903D080214165012070477D
:10099000052180F835100068016821F0010101602F
:1009A0000020704701210A4A402809D0802809D038
:1009B000B0F5004F09D0082801D182F878107047AF
:1009C0001176704782F83810704782F858107047D7
:1009D00000000020044910B50A68024202D00860F5
:1009E000FFF7E0FF10BD0000143C01402DE9F84F77
:1009F00000224FF0010803254FF00F0E0B6808FA94
:100A000002F42340A3426ED14E68012E05D0022E7F
:100A100003D0112E01D0122E12D186684FEA420C5B
:100A200005FA0CF7BE43CF6807FA0CF73743876027
:100A30004668A6430C79C4F30014944034434460E0
:100A4000C668570005FA07FC8C6826EA0C06BC400D
:100A50003443C4604C68022C01D0122C13D1D4084A
:100A600000EB8404A346D4F8209054074FEAD46ADC
:100A70000EFA0AF629EA06090E6906FA0AF646EAA5
:100A80000906CBF8206006680C7926EA0C0604F00B
:100A90000304BC40344304604C68E40065D5364C24
:100AA000266846F480462660246822F0030604F493
:100AB00080440094314C3444A446D4F80848960746
:100AC000370F0EFA07F6B4432D4EB04201D100267F
:100AD00024E02C4EB04201D101261FE02A4EB04244
:100AE00002D102261AE040E0284EB04201D103268E
:100AF00014E0274EB04201D104260FE0254EB0424B
:100B000001D105260AE0244EB04201D1062605E0B7
:100B1000224EB04201D1072600E00826BE402643FF
:100B2000CCF808681E4E34684F689C43FF0300D51C
:100B30001C4334601A4C241D26684F689E43BF0333
:100B400000D51E432660164E083634684F689C4315
:100B5000FF0200D51C433460114E0C3634684F68D8
:100B60009C43BF0200D51C433460521C102AFFF482
:100B700045AFBDE8F88F0000443802400030014026
:100B8000000002400004024000080240000C024045
:100B9000001002400014024000180240001C0240F5
:100BA000003C01400AB1816170470904FBE7000085
:100BB0000148806870470000A0000020024881685A
:100BC0000278114481607047A00000200B4810B5E6
:100BD000016841F400710160016841F480610160C5
:100BE000016841F480710160032000F09DF800204D
:100BF00000F006F800F03EF8002010BD003C024076
:100C000010B5014688B000221E2000F06DF81E20AD
:100C100000F05DF813480024016841F00401016010
:100C2000006805A900F004000690684600F028F965
:100C300000F046F90C494000B0FBF1F10C480B4ABA
:100C4000491E026040F2E732C0E90324C0E9011402
:100C500000F044FB10B1012008B010BD044800F0C2
:100C600059FBF9E74038024040420F0000080040BD
:100C7000F80300200C4882B0016841F48041016013
:100C8000006800F4804000900748001F016841F0B0
:100C9000805101600068002200F0805000900F2118
:100CA000901E02B000F020B84438024000280DDB4E
:100CB00000F01F02012191404009800000F1E02076
:100CC000C0F88011BFF34F8FBFF36F8F70470028BC
:100CD00009DB00F01F02012191404009800000F172
:100CE000E020C0F800117047F0B40E4B1B680C46B2
:100CF000C3F30223C3F10705042D00D90425191DF0
:100D0000072901D2002300E0DB1E012606FA05F1C7
:100D1000491E214099409E40761E16403143F0BC4A
:100D200001F0A0B90CED00E0064900F007020868E8
:100D30004FF6FF03184040EA0220034A10430860C0
:100D4000704700000CED00E00000FA052DE9F047C7
:100D50000E46050065D0DFF81481D8F80000F7B220
:100D600000F00F00B04207D288F80070D8F80000F9
:100D700000F00F00B04254D128683D4C810712D5D5
:100D8000400703D5206840F4E05020602878000731
:100D900003D5206840F4604020602068A96820F0F6
:100DA000F000084320602878C0072DD030496868DB
:100DB0000839012812D0022813D0032811D009685D
:100DC000890700292DDA216821F003010143216000
:100DD000FFF7EEFE814641F2883A0EE0096889038A
:100DE000EFE709688901ECE7FFF7E2FEA0EB0901F4
:100DF000514502D90320BDE8F0872068696800F0FA
:100E00000C00B0EB810FEFD1D8F80010404601F094
:100E10000F01B14207D90770006800F00F00B0421F
:100E200001D00120E7E72878400705D52068E96868
:100E300020F4E050084320602878000706D5206899
:100E4000296920F4604040EAC100206000F058F8B1
:100E50002168084AC1F30311515CC8400649086083
:100E600006480068FFF7CCFE0020C4E7003C0240C3
:100E700008380240B8430008AC000020A40000205D
:100E80000F2202600C4A136803F0030343601368E7
:100E900003F0F0038360136803F4E053C360126847
:100EA0004FF4E05303EAD20202610448006800F004
:100EB0000F0008607047000008380240003C024004
:100EC0000448054900680968044AC1F38221515C5D
:100ED000C8407047AC00002008380240C8430008F2
:100EE0000448054900680968044AC1F34231515C6D
:100EF000C8407047AC00002008380240C8430008D2
:100F0000154810B5006810F00C02144813D01449AD
:100F1000042A0FD0082A0ED10F4C241F2268236800
:100F200002F03F025B0207D52068C0F38810A0FBE7
:100F3000010106E0084610BD2168C1F38811A1FB3C
:100F400000010023FFF79CF92168C1F30141491C0E
:100F50004900B0FBF1F010BD083802400024F40055
:100F600040787D012DE9F84F04006ED02078DFF83D
:100F70003C93C007A9F104054AD009F104000168B7
:100F8000C1F38101012908D00068C0F38100022863
:100F90000AD1D9F80000400206D52868800337D569
:100FA00060680028E1D033E06068B0F5803F10D081
:100FB000B0F5A02F286810D020F480302860286871
:100FC00020F4802028606068A8B1FFF7F1FD064694
:100FD0000DE0286840F48030F4E740F48020286079
:100FE000F7E700BFFFF7E4FD801B642873D828688B
:100FF0008003F7D50CE0FFF7DBFD064605E000BFF8
:10100000FFF7D6FD801B6428F0D828688003F7D44A
:101010002078DFF89C8280074FF0000A3ED5A34875
:10102000001D016811F00C0F08D00068C0F38100AA
:1010300002280BD1D9F80000400207D428688007A5
:1010400016D5E068012800D112E02BE1E068B8B1C4
:101050000120C8F80000FFF7ABFD064605E000BF21
:10106000FFF7A6FD801B0228C0D828688007F7D5A7
:101070002868216920F0F80040EAC10028600DE0EE
:10108000C8F800A0FFF794FD064604E0FFF790FDC6
:10109000801B02281FD828688007F7D42078000713
:1010A00022D5824E83486169703671B10121016099
:1010B000FFF77EFD074604E0FFF77AFDC01B02281C
:1010C00009D830688007F7D50EE0C0F800A0FFF718
:1010D0006FFD074605E082E0FFF76AFDC01B0228AE
:1010E0007DD830688007F7D42078400768D5DFF8CE
:1010F000BCB100270BF13C0BDBF80000C0000BD4A7
:10110000DBF8001041F08051CBF80010DBF8000054
:10111000012700F080500090674E3068C00510D461
:10112000306840F480703060FFF742FD009005E0C9
:10113000FFF73EFD0099401A022850D83068C005DC
:10114000F6D55A4EA0686C3601280FD005283068B5
:1011500010D020F001003060306820F004003060D2
:10116000A068B8B1FFF724FD00900FE0306840F0B0
:101170000100F4E740F004003060F7E7FFF718FDE6
:101180000099411A41F28830814266D83068800760
:10119000F4D50EE0FFF70CFD009007E0FFF708FD27
:1011A0000099411A41F28830814256D83068800750
:1011B000F4D42FB1DBF8001021F08051CBF80010EF
:1011C000A069C8B33949091D0968C1F38101022921
:1011D0004AD00228504607D0C8F8600000E03CE042
:1011E000FFF7E6FC04463BE04746C8F86000FFF71F
:1011F000DFFC064605E000BFFFF7DAFC801B022893
:101200002BD828688001F7D4D4E907010843A16AE4
:101210002A4A490802EB0141626A41EA8211084305
:1012200094F82C1040EA0161C9F8001001203866DA
:10123000FFF7BEFC044606E036E000BFFFF7B8FC4F
:10124000001B022809D828688001F7D52CE000BFD0
:10125000FFF7AEFC001B022802D90320BDE8F88F7F
:1012600028688001F4D41FE00128F7D0D9F80000E5
:10127000E26900F48001914214D1226A00F03F013A
:1012800091420FD147F6C071626A0140914209D183
:10129000A26A00F44031914204D1E16A00F070602A
:1012A000884201D00120D9E70020D7E70438024066
:1012B00000004742800E4742007000400000FFFFE0
:1012C0004FF0E0210428086903D020F004000861F1
:1012D000704740F00400FAE77047704710B504000B
:1012E00003D094F83D0010B107E0012010BD0020AC
:1012F00084F83C00204600F00CF8022084F83D0001
:10130000211D206800F0F6FC012084F83D0000203B
:1013100010BD70470168CA6842F00102CA600068E7
:10132000816801F00701062903D0016841F001013D
:10133000016000207047704770B50446006801697D
:101340004FF00005C943890715D4C168C94389070F
:1013500011D4E91E0161012020772068806980078F
:10136000204602D0FFF7E7FF04E000F098F820469F
:1013700000F096F8257720680169C943490717D41A
:10138000C168C943490713D46FF004010161022009
:1013900020772068806910F4407F204602D0FFF754
:1013A000CAFF04E000F07BF8204600F079F82577CA
:1013B00020680169C943090716D4C168C9430907F0
:1013C00012D46FF008010161042020772068C06901
:1013D0008007204602D0FFF7AEFF04E000F05FF880
:1013E000204600F05DF8257720680169C943C906E9
:1013F00017D4C168C943C90613D46FF01001016145
:10140000082020772068C06910F4407F204602D071
:10141000FFF791FF04E000F042F8204600F040F8AA
:10142000257720680169C943C90708D1C168C94344
:10143000C90704D1891E0161204600F033F82068F5
:101440000169C943090609D4C168C943090605D41D
:101450006FF0800101612046FFF73EFF20680169BF
:10146000C943490609D4C168C943490605D46FF088
:1014700040010161204600F01FF820680169C9435E
:1014800089060BD4C168C943890607D46FF02001CF
:1014900001612046BDE87040FFF71FBF70BD704777
:1014A0007047000000680349884201D1FFF786BBFE
:1014B00070470000000800407047704770B5026830
:1014C00004461068D168536910F00F0F53D003F031
:1014D000010501F490762E435FD0C20705D0CA05FE
:1014E00003D5E26B42F00102E263420705D5DA0759
:1014F00003D0E26B42F00202E263820705D5DA070D
:1015000003D0E26B42F00402E263020707D501F068
:1015100020022A4303D0E26B42F00802E263E26B4E
:10152000002A34D0800604D5880602D5204600F073
:101530005BFC20684069E16BC0F3801001F008019A
:101540000143204624D000F041FC2068416949064F
:101550001AD5416921F040014161606BA0B11B497E
:101560000165606BFFF70CFA002810D0606B016D0D
:10157000BDE87040084783060FD58B060DD5204681
:10158000BDE8704000F030BC2046FFF796FF70BD0C
:10159000FFF793FF0020E06370BD030606D50B063E
:1015A00004D52046BDE8704000F0FEBC4006F3D5EF
:1015B0004806F1D5D168204621F04001D1602021B4
:1015C00084F8391000F011F970BD0000BD1D00084D
:1015D00070B5040004D094F83900002510B106E07D
:1015E000012070BD84F83850204600F023F82420F4
:1015F00084F839002068C16821F40051C160204698
:1016000000F03EFC2068016921F4904101612068EE
:10161000416921F02A0141612068C16841F400510B
:10162000C160E563202084F8390084F83A00002086
:1016300070BD000030B587B0044614216846FEF73F
:1016400069FE2A4D23680022294902200724AB4263
:1016500022D1274B14331D6845F010051D601B680F
:1016600003F0100305930B6843F002030B60096855
:10167000CDE9022001F002010591C021CDE9001061
:10168000694604941B48FFF7B1F900220521252083
:10169000FFF72AFB252024E0174DAB4223D1144B42
:1016A00010331D6845F400351D601B6803F40033DA
:1016B00005930B6843F008030B600968CDE902202D
:1016C00001F0080105916021CDE9001069460494FC
:1016D0000A48FFF78BF9002205212620FFF704FBBB
:1016E0002620FFF7F4FA07B030BD000000100140DB
:1016F000303802400004024000440040000C024028
:1017000090F83A30202B22D1F9B1F2B190F838306C
:10171000012B1CD081628285C2850021C1632222F7
:1017200080F83A2080F838100168CA6842F4807264
:10173000CA6001684A6942F001024A610068C168F2
:1017400041F02001C1600020704701207047022055
:101750007047000070B5104C0025104965600068A6
:10176000884217D120460E4A017840880A29115430
:1017700008D0401C6080BDE870400122064909483D
:10178000FFF7BEBF08480449091D006802F0AAFA25
:101790006580F0E770BD0000980000200010014057
:1017A000E4030020100100209000002090F8393060
:1017B000202B18D1A9B1A2B190F83830012B12D04A
:1017C00001628284C2840021C163212280F8392011
:1017D00080F838100068C16841F08001C1600020C5
:1017E000704701207047022070477047FEE70A20CB
:1017F00001F034F9FBE700002DE9F04F87B0142128
:101800006846FEF787FD7C480026016841F010011C
:101810000160016801F010010591016841F48071D7
:101820000160016801F480710591016841F02001B7
:101830000160016801F020010591016841F0040197
:101840000160016801F004010591016841F00101A6
:101850000160016801F001010591016841F0020198
:101860000160016801F002010591016841F0800109
:101870000160016801F080010591016841F00801F3
:1018800001600068DFF874A100F0080005900122F3
:1018900060215046FFF786F9DFF864B140F2E44773
:1018A000012239465846FFF77DF9012202215548A9
:1018B000FFF778F9002209215348FFF773F9002256
:1018C00050215248FFF76EF9002202215048FFF7DD
:1018D00069F94FF40078012241464E48FFF762F95A
:1018E00040F60809012249464B48FFF75BF90122FF
:1018F00011024548FFF756F902256020012403959F
:101900008DE8510069465046FFF770F8009703953F
:10191000CDE9014669465846FFF768F8CDE900541D
:10192000CDE9026569463748FFF760F840F20910D3
:1019300003958DE8510069463348FFF757F850206A
:1019400003958DE8510069463048FFF74FF8CDE91F
:10195000004669462E480294FFF748F8CDE9005446
:10196000CDE9026569462A48FFF740F8CDF80080C6
:101970000395CDE9014669462648FFF737F8CDF8CB
:1019800000900395CDE9014669462348FFF72EF8FC
:10199000224DC020CDE90005694602941A48FFF7A0
:1019A00025F8E003CDE90005694602941748FFF7E2
:1019B0001DF80820CDE90005694602941448FFF798
:1019C00015F8002205210920FFF78EF90920FFF7FD
:1019D0007EF9002205211720FFF786F91720FFF76F
:1019E00076F9002205212820FFF77EF92820FFF74D
:1019F0006EF907B0BDE8F08F3038024000100240A9
:101A00000020024000140240000802400000024092
:101A100000040240001C0240000C024000002110A3
:101A2000FEE77047264D4FF4806400222146284689
:101A3000FFF7B8F8234E002210213046FFF7B2F826
:101A4000002202212048FFF7ADF84FF47A7001F030
:101A500005F8012221462846FFF7A4F8C82000F027
:101A6000FDFF002221462846FFF79CF8C82000F021
:101A7000F5FF01F003FB002210213046FFF792F83A
:101A80006610124C4FF47A65072211A11248FFF735
:101A90008DFE002231462046FFF784F8284600F0EC
:101AA000DDFF07220DA10C48FFF780FE0122314621
:101AB0002046FFF777F8284600F0D0FFE4E7000063
:101AC000002002400000024000040240001C0240CE
:101AD000312C302C3430000050010020312C312CBE
:101AE000343000002DED048B3B4C3C4D82B04FF068
:101AF000FF384146E86802F043F90D2238A13C481E
:101B0000FFF754FE182001F02BFA286120780128F5
:101B100004D002281ED0032851D055E0B4F80300A9
:101B2000667843BAA1784FF47A72304601F0D6FC59
:101B30003048324600EB46102FA190ED040B8DED9E
:101B4000000B286900F07AFA182229482969FFF762
:101B50002DFE39E06088A188677840BA4EBAFEF75A
:101B60006CFD9FED2B9B53EC192BFEF785FC41EC94
:101B7000180B3046FEF761FD53EC192BFEF77CFC89
:101B800077B1FEF7C9FD09EE100A51EC180BFEF70C
:101B9000C3FD00EE100AF0EE490A01F079FB13E0F4
:101BA000FEF7BAFD09EE100A51EC180BFEF7B4FD72
:101BB00000EE100AF0EE490A01F0F4FA04E062784F
:101BC00001211548FEF7EEFF286901F04FFD0A20BC
:101BD00000F044FF8DE70000E403002084000020B3
:101BE00052656369657665204F4B210D0A00000040
:101BF00010010020000000206D6F746F72256420BA
:101C00006469733D5B25302E33665D0D0A0000006C
:101C1000CDCCCCCCCCCCDC3F0008024010B5502061
:101C200080F31188BFF34F8FBFF36F8F02F004FA78
:101C300018B104494FF080500860002080F31188EB
:101C400010BD000004ED00E030B593B030216846CF
:101C5000FEF760FB14210CA8FEF75CFB1948002579
:101C6000016841F080510160006800F080501190DF
:101C70001548016841F4804101600068022400F4C5
:101C8000804011900120039010200490009406944D
:101C90000820CDE90750A820CDE9090404200B90C5
:101CA0006846FFF75FF90CA90F2081E831004FF477
:101CB000A0500F90E002109005210CA8FFF746F805
:101CC00013B030BD40380240007000400548016844
:101CD00041F47001016003494FF0006080390860F1
:101CE0007047000088ED00E00148FFF725BB0000C9
:101CF000F8030020F0B50268254C264D264E274FEC
:101D0000274B4FF0804CA04209D0604507D0A84235
:101D100005D0B04203D0B84201D0984204D122F09D
:101D2000700E4A6842EA0E02A0421BD0604519D0EC
:101D3000A84217D0B04215D0B84213D0984211D063
:101D4000184DA8420ED0184DA8420BD0174DA842EE
:101D500008D0174DA84205D0164DA84202D0164D06
:101D6000A84203D122F44075CA682A434D6922F083
:101D700080022A4302608A68C2620A688262A042C4
:101D800001D0984201D10969016301214161F0BD8F
:101D9000000001400004004000080040000C00402A
:101DA000000401400040014000440140004801405F
:101DB00000180040001C00400020004010B5806B5F
:101DC0000021C185C184FFF778FB10BD0168CA6896
:101DD00022F49072CA6001684A6922F001024A61E5
:101DE000202180F83A10704710B590F83A10222957
:101DF00001D0022010BD8168B1F5805F11D001696A
:101E0000002901681FD0496801F07F03816A4A1CDC
:101E100082620B70C18D491E0904090CC18518D05E
:101E20002BE00269816A002A0268526805D0D2B2AA
:101E30000A80816A491C8162ECE7C2F308020A80C9
:101E4000816A891CF7E74A68816A4B1C83620A70C1
:101E5000E0E70168CA6822F02002CA600168CA6827
:101E600022F48072CA6001684A6922F001024A6164
:101E7000202180F83A10FFF76DFC002010BD000013
:101E80002DE9F041044600680169E26821F44051FF
:101E9000114301612169A068E26908436169114346
:101EA00008432168CA6849F20C639A430243CA6036
:101EB00020684169A26921F4407111434161E069E0
:101EC000192764253226B0F5004F354A3549206878
:101ED0004FF0000806D0884201D0904236D1FEF77C
:101EE000FFFF35E0884201D0904202D1FEF7F8FFB3
:101EF00001E0FEF7E5FF61684A18A0FB070148EB27
:101F00000803FEF7BDF90146B0FBF5F00201B1FB95
:101F1000F5F06FF01803584301EB800006EBC000AA
:101F2000B0FBF5F000F0F80002EB4002B1FBF5F079
:101F3000584301EB800006EBC000B0FBF5F000F069
:101F40000700216810448860BDE8F081FEF7B8FF03
:101F500061688B0F8A00A0FB0701FEF791F901462B
:101F6000B0FBF5F06FF01802504301EB800006EB78
:101F70000010B0FBF5F000F0F002B1FBF5F002EB61
:101F80000012B1FBF5F06FF01803584301EB80002D
:101F900006EB0010B0FBF5F000F00F00D1E70000F9
:101FA000001401400010014090F83910212901D09F
:101FB000022070478168B1F5805F016A0BD04A1C2E
:101FC0000262026809785160C18C491E0904090C3B
:101FD000C1840ED017E009880268C1F3080151607E
:101FE00001690029016A02D0491C0162ECE7891CE1
:101FF000FBE70168CA6822F08002CA600068C16815
:1020000041F04001C16000207047000010B5054854
:10201000FFF754FABDE81040012203490148FFF7D9
:102020006FBB000010010020980000200148FFF75E
:1020300045BA000050010020FEE700000FB4084B35
:1020400010B504A902AA039800F0DEF8044602A91C
:10205000002000F070FC204610BC5DF814FB00006E
:10206000372900080907090E002804DB00F1E020E9
:1020700080F80014704700F00F0000F1E02080F8B5
:10208000141D704702E008C8121F08C1002AFAD1C7
:1020900070477047002001E001C1121F002AFBD1E8
:1020A000704700002DE9FF5FDDE90220010DDDF83A
:1020B00038B0024318D044F61050A1F2FF3141432A
:1020C0000D140F98012820D0A5EB0B00401C5FEAEF
:1020D000000A4FF00004474EDFF81C91A04650461E
:1020E00016D5CAF1000728E00F98012443A2012861
:1020F00008D0002100980F9BC0E90021C0E90243ED
:10210000BDE8FF9F6FEA0B01F4E7CBF10000DEE7CB
:10211000074612E0F80707D02246334640464946B4
:10212000FEF7AAF9804689462246334610461946EC
:10213000FEF7A2F904460E467F10002FEAD1DDE932
:102140000201BAF1000F42464B4602DAFEF794F95B
:1021500001E0FEF703FA04460E460022284BFEF784
:10216000C3FA03D84FF0FF30014607E00022254BA9
:1021700020463146FEF7D9F8FEF7C5FB102409E0EA
:10218000002C0ADB0A220023FEF77AF8019B30328A
:102190001A55641E50EA0102F2D1641C019AC4F17E
:1021A000110314440F9A012A03D0012208430DD1D0
:1021B0000AE0084304D000204FF0110B0F9080E795
:1021C000A3EB0B056D1E0DE05B4504DD4FF0000237
:1021D00005F1010504E003DA4FF00002A5F1010565
:1021E000002AECD000980F99C0E90231C0E90045FF
:1021F00086E70000000024400000F03F30000000AF
:102200000000F0430000E03F2DE9FF4F95B09B46F2
:102210008946064600250FE2252877D10024274667
:10222000F84A0121059400E0044316F8013F203BE1
:1022300001FA03F01042F7D130782A2811D06FF05C
:102240002F033078A0F13002092A16D8059A44F0FD
:10225000020402EB820203EB42021044761C05905A
:10226000EFE759F8042B0592002A03DA504244F4B0
:102270000054059044F00204761C30782E2816D1C4
:1022800016F8010F44F004042A280DD06FF02F0235
:102290003078A0F13003092B09D807EB870302EB54
:1022A0004303C718761CF3E759F8047B761C307893
:1022B0006C280FD006DC4C2817D068280DD06A286F
:1022C00014D104E0742810D07A280FD10DE044F422
:1022D00000140AE044F4801401E044F440147278DD
:1022E000824202D104F58014761C761C3078662870
:1022F0000BD013DC582877D009DC002875D045288E
:10230000F6D04628F4D047281AD19DE118E063287A
:1023100035D0642879D0652812D195E1702873D022
:1023200008DC6728F1D069286FD06E280DD06F289F
:1023300006D1B5E073282CD0752875D0782874D0D4
:102340005A46179990476D1C75E1C4F30250022854
:1023500009D003280DD0D9F8001004280DD00D6045
:1023600009F1040967E1D9F80010EA17C1E9005240
:10237000F6E7D9F800100D80F2E70D70F0E719F8D4
:10238000041B8DF8001000208DF80100EA460120A2
:1023900003E059F804AB4FF0FF3061074FF0000144
:1023A00002D40DE008F101018846B9420FDA8045F8
:1023B000F8DB1AF808100029F4D108E008F101014F
:1023C00088468142FADB1AF808100029F6D10598F0
:1023D0005B46A0EB080721463846179A00F094FAAE
:1023E000284400EB080507E04DE029E10DE01AF86C
:1023F000010B5A4617999047B8F10108F7D25B468E
:1024000021463846179A13E142E00A220092C4F3AB
:1024100002524FF0000A022A08D059F804CB032ACE
:102420004FEAEC710AD00DE029E02AE009F107013A
:1024300021F00702F2E802C1914609E00FFA8CFC94
:102440004FEAEC71042A03D14FFA8CFC4FEAEC718D
:10245000002907DA0A460021DCF1000C61EB0201D9
:102460002D2202E0220504D52B228DF80420012222
:1024700003E0E20701D02022F7E7904659E00A2165
:1024800002E010220DE010214FF0000A00910BE055
:1024900010224FF0000A44F004040827009203E0E1
:1024A00008224FF0000A0092C4F30252022A05D01B
:1024B00059F804CB0021032A08D009E009F10701EB
:1024C00021F00702F2E802C1914605E01FFA8CFCF8
:1024D000042A01D10CF0FF0C4FF00008220728D588
:1024E000702806D0009B83F0100353EA0A0305D03E
:1024F0000EE040228DF80420012208E05CEA01028F
:1025000006D030228DF804208DF805000222904676
:10251000009B83F0080353EA0A030AD15CEA010234
:1025200001D1620705D530228DF804204FF0010853
:102530007F1E582804D034A003900EA802900DE00E
:1025400036A0F9E753466046009AFDF799FE8446A7
:102550000398825C0298401E029002705CEA0100BF
:10256000F0D1029806A9081A00F1200A600702D5E6
:1025700024F4803400E00127574502DDA7EB0A0070
:1025800000E0002000EB0A01009005984144401A49
:102590000590E00306D45B462146179A059800F0A3
:1025A000B3F90544002706E001A85A46C05D179913
:1025B00090476D1C7F1C4745F6DBE0030CD55B465E
:1025C0002146179A059800F09FF9054404E0302051
:1025D0005A46179990476D1C0099481E0090002993
:1025E000F5DC08E0029802995A460078491C0291ED
:1025F000179990476D1CBAF10001AAF1010AF1DCAC
:1026000065E10000092801003031323334353637B6
:10261000383961626364656600000000303132332E
:1026200034353637383941424344454600000000CE
:1026300000F058F90544761C307800287FF4ECADA2
:1026400019B02846BDE8F08F620700D4062709F1CB
:10265000070222F0070CFCE80223E14603F00048E1
:102660005FEA080C02D00FF2702C0DE05FEA045C08
:1026700002D50FF2682C07E05FEAC47C02D00FF2AB
:10268000602C01E0AFF2700C4FF0FF3823F00043F4
:10269000CDF850C065280CD006DC452809D0462866
:1026A0001DD047283DD13DE0662818D067287ED14F
:1026B00038E00021112F01DB112000E0781CCDE96A
:1026C000000106A90EA8FFF7EDFCDDE90F010E9A47
:1026D00003910021009207F1010A04914DE04FF0AF
:1026E00000400097CDE9011006A90EA8FFF7DAFC1B
:1026F000DDE90F0203920E9B11990022DDF80CA078
:102700000093049211B9791C00EB010AB7EB0A009F
:1027100004D4C0F1FF3007F1010A0490AAEB0700CE
:10272000019044E0012F00DA01270021112F01DD83
:10273000112000E03846CDE9000106A90EA8FFF7F8
:10274000B1FCDDE90F010E9A039100210491009282
:10275000BA4621070CD40399514500DA8A46BAF1EA
:10276000010F05DD009AAAF10101515C302908D062
:10277000B84202DA10F1040F06DA0121CDE90110A6
:1027800015E0AAF10101E9E7002805DC04990144FC
:102790000491AAEB000102E0411C514500DD8A468C
:1027A0000499401A401C01904FF00040029020070D
:1027B00004D40198504501DBCDF8048000208DF849
:1027C0004F0002980DF14F07B0F1004F25D02B209C
:1027D0000E9002984FF0020800280CDA4042029056
:1027E0002D200E9007E00A210298FDF7B1FF30314D
:1027F000029007F8011DB8F10001A8F10108F2DC10
:1028000002980028EFD1791E0E980870307800F0F9
:10281000200040F0450007F8020D12A8C01B00F18F
:1028200007081498007800B1012000EB0A01019814
:1028300001EBE07105984144401A401E0590E00309
:1028400006D45B462146179A059800F05DF80544CA
:102850001498007818B15A46179990476D1CE003F8
:1028600024D55B462146179A059800F04DF805449B
:102870001CE00498002807DBDDE90301884203DD42
:102880000098405C179901E0179930205A4690470C
:10289000049805F10105401C04900198401E019028
:1028A00004D12E205A46179990476D1CBAF10001A9
:1028B000AAF1010ADDDC05E017F8010B5A46179969
:1028C00090476D1CB8F10001A8F10108F4DC5B46EB
:1028D0002146179A0598ABE62D0000002B0000005A
:1028E000200000002DE9F041044600251E46174651
:1028F000880404D405E039462020B0476D1C641ECE
:10290000F9D52846BDE8F0812DE9F04104460025BF
:102910001E469046C80301D5302700E020278804D2
:1029200004D505E041463846B0476D1C641EF9D514
:102930002846BDE8F0810A68531C0B601070704790
:1029400010B504460420FEF7BBFC0148046010BD2E
:102950008000002070B54FF0E0240022656909492D
:10296000A36909684843A1699942FCD002D2A3EB4C
:10297000010302E0A5EB010633441A440B468242F0
:10298000F1D370BD8000002098B0FEF71FF9FFF76B
:102990005BF9FEF731FF294827494FF4E135002460
:1029A0000160C0E901540C26C460C0E9044684619A
:1029B000C461FEF70DFE2148214940300160C0E9A5
:1029C0000154C460C0E904468461C461FEF700FE9E
:1029D000A820FFF7B5FF00224FF480611948FEF7E9
:1029E000E1F81594012115A8169400F043F8164C4F
:1029F0001C221649E0606846FDF773FC002168461A
:102A000000F057F8114920601C221C3107A8FDF77F
:102A100068FC002107A800F04CF80C4960601C22FB
:102A200038310EA8FDF75DFC00210EA800F041F83A
:102A3000A06000F01AF8FEE700100140100100202D
:102A4000004400400020024084000020644300084D
:102A500001460020842900D0C81C704710B500B979
:102A6000012000F06DFE002010BD10B500F008FF41
:102A7000002010BD38B543684BB1012909D10320AE
:102A8000002200901146012001F004F838BD012910
:102A900001D0002038BD03220021012000F0D6FF24
:102AA000040004D000231A46194601F06BF82046B2
:102AB00038BD7FB50D4604464169B0F9080081B1C3
:102AC000A16971B1FFF7C4FFD4E905128DE80700D1
:102AD000D4E900102B46226901F075FA039004B086
:102AE00070BDFFF7B5FF03A9CDE90001208A2B4691
:102AF00082B2D4E9001001F039FA012801D0002097
:102B0000EDE70398EBE700002DE9F041184C0F4684
:102B1000054666692068001D00F024FD38B920686C
:102B200090F82C1001208840A1698143A161681CA4
:102B300007D137B12168BDE8F0410E48091D00F00A
:102B400055BD20683544B5424560216805D2A0686E
:102B5000BDE8F041091D00F031BD6068091D00F0BD
:102B60002DFD206B854200D22563BDE8F081000079
:102B7000B0000020140500202DE9F041054600F0CA
:102B800041FD2E4C2069401C206120682C4F10B163
:102B9000E06940B32DE025602069012829D1002695
:102BA00006EB860007EB800000F0FAFC761C072E8F
:102BB000F6D323488C3000F0F3FC2148A03000F01D
:102BC000EFFC1F48B43000F0EBFC1D48C83000F0AB
:102BD000E7FC1B48DC3000F0E3FC19488C306060F7
:102BE0001430A06005E02068E96AC06A884200D815
:102BF0002560E06A401CE062E96A0120A269884021
:102C00001043A06101EB810007EB8000291D00F05B
:102C1000EDFC00F017FDE06900280CD02068E96A9F
:102C2000C06A884207D207494FF080500860BFF35E
:102C30004F8FBFF36F8FBDE8F0810000B000002020
:102C40003804002004ED00E02DE9F041856B1746C3
:102C500004460026026C82B1C7B1E068FDF741FB73
:102C6000E168206C091AE1602268914202D2A168F1
:102C7000081AE060022F16D017E02068A8B9A068F3
:102C800001F03EFA06460020A0600EE06068FDF705
:102C900028FB216C606808446060A168884204D306
:102CA0002068606001E005B16D1E6D1CA5633046B3
:102CB000BDE8F08110B5044690F8510058B10128E4
:102CC0000CD002280FD0502080F31188BFF34F8F13
:102CD000BFF36F8FFEE7206B00F0C8FC2046BDE815
:102CE000104000F0C3BC10BD10484FF470514207B3
:102CF00006D0C01D0D4920F00700411AC1F57051E2
:102D00000B4A00230144C2E900030839103A21F0BC
:102D1000070111604B600B600B1AC0E90013936050
:102D20004FF000405360D06070470000280500203D
:102D3000FC000020144E154CA6F1C8074FF0805837
:102D4000DFF84C9012E000BF00F05CFCF068C56852
:102D5000281D00F007FC2069401E2061E068401E2D
:102D6000E06000F06FFC2846FFF7A4FFE068002851
:102D7000EAD138680128F9D9C9F80080BFF34F8F2C
:102D8000BFF36F8FF2E7000000050020B0000020C5
:102D900004ED00E00346009829B10260C0E90F315C
:102DA000012100F0ABBE0060F8E72DE9F0479A463C
:102DB000DDE9098481466FF00303206B03EB820297
:102DC0001044089E20F00707780707D0502080F3B2
:102DD0001188BFF34F8FBFF36F8FFEE7002561B1FE
:102DE000002023180A5C83F834200A5C12B1401CCE
:102DF0001028F6D384F8435001E084F83450072EAD
:102E000000D30626E662C4E91165201D00F0D3FB5D
:102E100004F1180000F0CFFB2461C6F107006462E2
:102E2000A061E56484F8505052464946384600F0A7
:102E30000FF92060B8F1000F01D0C8F80040BDE8DC
:102E4000F087000030B5114900E011460A6882425F
:102E5000FBD34B685C18844203D140681844486037
:102E6000084643681C18944209D1084C103C246859
:102E7000A24209D052681A4442600A68126802608D
:102E8000814200D0086030BD0460F9E7FC000020FA
:102E900010B5044600F0B6FBA06B28B15FF000044B
:102EA00000F0D0FB204610BD0124F9E70648416838
:102EB000096829B14168C968C968496801637047F0
:102EC0004FF0FF31FAE70000B000002008484068EA
:102ED000401C4FF0500080F3118804D0BFF34F8F97
:102EE000BFF36F8FFEE7BFF34F8FBFF36F8FFEE728
:102EF000040100202DE9F041044600F083FB94F921
:102F0000455004F1240609E0606A48B1304601F0FA
:102F10008DF908B100F042FC6D1E6DB2002DF3DC9E
:102F20004FF0FF3684F8456000F08CFB00F06AFB40
:102F300094F9445004F1100709E0206948B138467B
:102F400001F074F908B100F029FC6D1E6DB2002D7E
:102F5000F3DC84F84460BDE8F04100F073BB00008E
:102F60002DE9F0410546002700F0C0FC314E3068E5
:102F700008B9FFF7B9FEF06805424BD1C5B3083573
:102F800068070ED005F00700C0F108000544680787
:102F900007D0502080F31188BFF34F8FBFF36F8F9E
:102FA000FEE72DB37068854234D8224810300146C0
:102FB0000C6801E020460C466168A94202D22168F3
:102FC0000029F7D131688C4224D00768216801605C
:102FD00060680837411B10290FD96019420708D0D3
:102FE000502080F31188BFF34F8FBFF36F8FFEE740
:102FF00010E041606560FFF725FF61687068401A66
:103000007060B268904200D2B060F0680143002066
:10301000C4E9000101F044F9780707D0502080F39B
:103020001188BFF34F8FBFF36F8FFEE73846BDE8BF
:10303000F0810000EC0000200449086818B108681D
:10304000826C521C8264086870470000B000002047
:1030500010B5031F4FF080741C601B1F21F001018D
:103060001960191F044B0B6014390A60091F6FF0B7
:10307000020244380A6010BDCD2E000870B54FF42E
:103080007A752DED028B334C04E000212A46084668
:1030900000F0D2F9207E0028F7D00D229FED2E8B74
:1030A0002FA184ED048B3248FEF780FB002684F8C4
:1030B000386001212A46084600F0BEF994F838002D
:1030C0000028F6D084ED0C8B0D222AA12848FEF7AB
:1030D0006DFB0A232A460021032000F063F90A232E
:1030E0002A460021022000F05DF93220FFF7B6FCED
:1030F00084F8586084F878602A460121022000F0A4
:103100009BF994F858000028F6D084ED148B0D221A
:103110001CA11748FEF74AFB04E0322201210320DC
:1031200000F08AF994F878000028F6D084ED1C8B22
:103130000D2218A10E48FEF739FB0920FDF7B6FD58
:103140001720FDF7B3FDBDEC028B2820BDE87040D1
:10315000FDF7ACBD000000200000000000000000F2
:1031600073746570312069732075700A0000000067
:103170001001002073746570322069732075700926
:103180000A0000007374657033206973207570093C
:103190000A0000007374657034206973207570092B
:1031A0000A00000070B54FF47A752DED068BB0EE75
:1031B000608A10EE100A9FED33ABFDF76AFA334CCC
:1031C00094ED041B53EC112BFDF750F941EC190B56
:1031D00018EE100AFDF75DFA94ED0C1B53EC112B61
:1031E000FDF744F941EC180B53EC1A2BFDF764FA88
:1031F00001D8012400E0002453EC1A2B51EC180BE9
:10320000FDF772FA05D351EC180B81F0004141EC47
:10321000180B51EC180BFDF77FFA00EE100A21464F
:103220002A46BCEEC00A012010EE103A00F0BAF8AF
:1032300053EC1A2B51EC190BFDF756FA01D201246D
:1032400000E0002453EC1A2B51EC190BFDF74CFA5B
:1032500005D351EC190B81F0004141EC190B51ECF5
:10326000190BFDF759FABDEC068B00EE100A21464A
:103270002A46BCEEC00ABDE8704010EE103A0020AD
:1032800000F090B8000000000000000000000020E6
:1032900070B54FF47A752DED068BB0EE608A10EEA6
:1032A000100A9FED39ABFDF7F4F99FED391B53EC94
:1032B000112BFDF7DEF8384C94ED141B53EC112B59
:1032C000FDF7D4F841EC190B18EE100AFDF7E1F9FF
:1032D0009FED321B53EC112BFDF7C8F894ED1C1B2E
:1032E00053EC112BFDF7C2F841EC180B53EC1A2BE1
:1032F000FDF7E2F901D8012400E0002453EC1A2B79
:1033000051EC180BFDF7F0F905D351EC180B81F0D7
:10331000004141EC180B51EC180BFDF7FDF900EEE4
:10332000100A21462A46BCEEC00A032010EE103ACD
:1033300000F038F853EC1A2B51EC190BFDF7BCF9DF
:1033400001D8012400E0002453EC1A2B51EC190B96
:10335000FDF7CAF905D351EC190B81F0004141EC9E
:10336000190B51EC190BFDF7D7F9BDEC068B00EEEC
:10337000100A21462A46BCEEC00ABDE8704010EE95
:10338000103A022000F00EB800000000000000001B
:103390003333333333D78D4000000020000000006A
:1033A00000803F402DE9F047064691460D461846FD
:1033B000FDF743F98A464AEC100B9FED1C1B804633
:1033C00053EC112B51EC100BFDF7C8F8FDF742F947
:1033D0000746002405E04A462946304600F02CF80E
:1033E000641CBC42F7DB134C26B1204600EB4614AC
:1033F00085B101E0012D0DD04AEC108B94ED041B3A
:1034000051EC100B53EC112BFDF733F8C4E9040118
:10341000BDE8F0874AEC108B94ED041B51EC100BC7
:1034200053EC112BFCF781FFF0E70000CDCCCCCCA6
:10343000CCCCDC3F0000002070B50546264816467F
:1034400000EB45140A46A389A0681946FDF7AAFBBC
:10345000012D18D0BDB1022D4FF0000528D0A18854
:1034600001222068FDF79EFB3220FFF773FAA18846
:1034700000222068FDF796FB3220FFF76BFA6D1CE7
:10348000482DECDB70BD0025A18801222068FDF7E6
:1034900089FB3046FFF75EFAA18800222068FDF71D
:1034A00081FB3046FFF756FA6D1C052DECDB70BD35
:1034B000A18801222068FDF775FB3046FFF74AFA24
:1034C000A18800222068FDF76DFB3046FFF742FA25
:1034D0006D1C062DECDB70BD000000202DE9F041D5
:1034E0001D462DED028B90460E460746002405E052
:1034F000424631463846FFF79FFF641CAC42F7D383
:10350000174C9FED158B27B1204600EB4714AEB149
:1035100001E0012E12D02846FDF78FF853EC182B4E
:10352000FCF7AAFF94ED041B53EC112BFCF7A1FF51
:10353000C4E90401BDEC028BBDE8F0812846FDF72B
:103540007CF853EC182BFCF797FF94ED041B53EC1D
:10355000112BFCF7EAFEEBE7CDCCCCCCCCCCDC3F9E
:1035600000000020D0E9013201699A60D0E901230E
:103570005A604A68824201D182684A600022026130
:103580000868401E0860086870470000034B03602D
:1035900003F1540008608020106070479001002003
:1035A00000F108014FF0FF32C0E90112C160016172
:1035B00000210160704700210161704730B50B6840
:1035C0005A1C02D000F1080202E0026904E022461F
:1035D000546825689D42FAD953684B6099608A60A7
:1035E000516008610168491C016030BD42684A6051
:1035F00093688B6093685960916008610168491C09
:1036000001607047502080F31188BFF34F8FBFF3E4
:103610006F8F0A494868401C486001280CD108484F
:10362000006810F0FF0F07D0502080F31188BFF31F
:103630004F8FBFF36F8FFEE770470000040100203B
:1036400004ED00E00849486828B1401E486001D1F7
:1036500080F311887047502080F31188BFF34F8F9B
:10366000BFF36F8FFEE700000401002070B5002853
:1036700027D0144DA0F108046168E868014207D121
:10368000502080F31188BFF34F8FBFF36F8FFEE799
:1036900022683AB1502080F31188BFF34F8FBFF3F7
:1036A0006F8FFEE78143616000F020F96068696810
:1036B000084468602046FFF7C5FBBDE8704000F095
:1036C000EFBD70BDEC0000204FF0E0200021016153
:1036D000816105494FF47A720968B1FBF2F1491E24
:1036E0004161072101617047AC00002010B5FCF773
:1036F000B1FD114910280ED300F1E02090F8F0033D
:103700000A78904207D2502080F31188BFF34F8F80
:10371000BFF36F8FFEE709480068896800F4E06036
:10372000884207D9502080F31188BFF34F8FBFF331
:103730006F8FFEE710BD0000040100200CED00E0DB
:1037400010B5020014D00F48806B38B1502080F3C0
:103750001188BFF34F8FBFF36F8FFEE700F0C6F8FD
:1037600000211046FFF7D0F900F09AFD002807D19C
:1037700005494FF080500860BFF34F8FBFF36F8F44
:1037800010BD0000B000002004ED00E002498A6A8C
:103790000260496941607047B00000200149012082
:1037A00048627047B000002010B50C4650B109497E
:1037B00009681831FFF702FF2046BDE810400121DB
:1037C000FFF7A2B9502080F31188BFF34F8FBFF3EA
:1037D0006F8FFEE7B000002070B504004BD0A26CE4
:1037E000A2B1606C884200D30146E06A884242D0B0
:1037F000012A40D1204D2A6894420FD1502080F3F5
:103800001188BFF34F8FBFF36F8FFEE7502080F317
:103810001188BFF34F8FBFF36F8FFEE7E162A2699C
:10382000002A02DBC1F10701A161144E00EB800008
:10383000616906EB800081421DD1201DFFF792FED9
:10384000012150B9E06A00EB800256F8222022B92B
:10385000AA6901FA00F08243AA61E06AAA6981407C
:103860001143A96100EB800006EB8000211DBDE83B
:103870007040FFF7BBBE70BDB000002038040020D0
:1038800010B586B00024039405AA04A903A80494E3
:10389000FFF77CFEDDE903010094CDE90110002370
:1038A0000EA11048059A00F08EFB0F4900284863CE
:1038B00011D0502080F31188BFF34F8FBFF36F8F6B
:1038C0004FF0FF3008630120C8614C6106B0BDE8CD
:1038D000104000F041B806B010BD000049444C450E
:1038E00000000000352D0008B00000200248816B68
:1038F000491C816370470000B00000201448816BB0
:1039000011B1012141627047002141628169B1FA20
:1039100081F1C1F11F0101EB81020E4951F8223002
:103920006BB101EB820101F108034A6852684A60F9
:103930009A4201D152684A60D168016070475020B4
:1039400080F31188BFF34F8FBFF36F8FFEE7000046
:10395000B0000020380400201CB537480168374A01
:10396000914207D1502080F31188BFF34F8FBFF3EE
:103970006F8FFEE700683149491E884207D1502009
:1039800080F31188BFF34F8FBFF36F8FFEE72C4991
:1039900008780190FF20087008788DF800009DF8E5
:1039A00000009DF8002000F0F000904207D0502069
:1039B00080F31188BFF34F8FBFF36F8FFEE79DF841
:1039C0000000204B00F0500018700720986005E0C0
:1039D0009DF8002052008DF80020401E9DF8002028
:1039E0001206F5D49860032807D0502080F3118880
:1039F000BFF34F8FBFF36F8FFEE74FF440709860B7
:103A0000019808700C482030016841F47001016091
:103A1000016841F070410160FFF756FE00205860D8
:103A2000FCF7E0FB0848016841F040410160FCF709
:103A3000C5FB00201CBD000000ED00E071C20F417D
:103A400000E400E00401002034EF00E0F8B5174680
:103A50000E46050014D0DEB105FB06F04830FFF736
:103A60007FFA04000AD0002084F8460004F14802DE
:103A70003B46314628460094FFF78CF92046F8BDB6
:103A8000502080F31188BFF34F8FBFF36F8FFEE795
:103A90000020E3E738B5049D18B153B1CAB181B134
:103AA00020E0502080F31188BFF34F8FBFF36F8F5A
:103AB000FEE7502080F31188BFF34F8FBFF36F8F65
:103AC000FEE7502080F31188BFF34F8FBFF36F8F55
:103AD000FEE739B1502080F31188BFF34F8FBFF359
:103AE0006F8FFEE748241C46012384F846302B469E
:103AF0000094FFF74FF9204638BD000070B50D4621
:103B0000040025D0FFF77EFDD4E90F20216802FBD9
:103B10000011A1600021A163216861600A46D4E917
:103B20000F01401E00FB0121E16021464FF0FF30F4
:103B300001F8440F487004F110008DB1FFF730FD1B
:103B400004F12400FFF72CFDFFF77CFD012070BD80
:103B5000502080F31188BFF34F8FBFF36F8FFEE7C4
:103B600021690029F0D000F061FB0028ECD0044965
:103B70004FF080500860BFF34F8FBFF36F8FE3E7C4
:103B800004ED00E02DE9FF4782B01D468A464FF064
:103B90000008040003D0BAF1000F08D011E0502053
:103BA00080F31188BFF34F8FBFF36F8FFEE7206C58
:103BB00038B1502080F31188BFF34F8FBFF36F8F60
:103BC000FEE7022D0AD1E06B012807D0502080F3D8
:103BD0001188BFF34F8FBFF36F8FFEE700F01EFA1F
:103BE0003F4F4FF000094FF0805648B9049838B164
:103BF000502080F31188BFF34F8FBFF36F8FFEE724
:103C0000FFF700FDA06BE16B884207D3022D05D0C2
:103C10000498D0B1B8F1000F1AD01EE02A465146E0
:103C20002046FFF711F8616A19B104F1240000F091
:103C3000FDFA20B13E60BFF34F8FBFF36F8FFFF7E8
:103C400001FD012006B0BDE8F087FFF7FBFC22E094
:103C50006846FFF79BFD4FF00108FFF7F3FCFFF705
:103C600045FEFFF7CFFC94F94400401C01D184F8D5
:103C7000449094F94500401C01D184F84590FFF729
:103C8000E1FC04A9684600F037F930B12046FFF79F
:103C900031F900F005FB0020D4E7FFF7B3FCA06B7F
:103CA000E16B884213D1FFF7CDFC04F110000499B9
:103CB000FFF77AFD2046FFF71DF900F0F1FA002822
:103CC0009ED13E60BFF34F8FBFF36F8F98E7FFF732
:103CD000B9FC2046FFF70EF900F0E2FA90E7000089
:103CE00004ED00E070B50E46040009D0206C78B1F8
:103CF000502080F31188BFF34F8FBFF36F8FFEE723
:103D0000502080F31188BFF34F8FBFF36F8FFEE712
:103D1000206848B9A06838B1502080F31188BFF3FB
:103D20004F8FBFF36F8FFEE7FFF7E0FC5020EFF3FC
:103D3000118580F31188BFF34F8FBFF36F8FA16B95
:103D4000E06B884218D994F94500491CA163411CD5
:103D500004D0401C84F8450001200EE0606A002871
:103D6000FAD004F1240000F061FA0028F4D0002E0B
:103D7000F2D001203060EFE7002085F3118870BD9C
:103D80002DE9F343002683B00400354609D0206CAA
:103D900078B1502080F31188BFF34F8FBFF36F8F3E
:103DA000FEE7502080F31188BFF34F8FBFF36F8F72
:103DB000FEE700F033F9DFF83C814FF000094FF0E7
:103DC000805748B9049838B1502080F31188BFF368
:103DD0004F8FBFF36F8FFEE7FFF714FCA06BC8B1E6
:103DE000401EA063206810B9FFF726F9A060206983
:103DF00050B104F1100000F019FA28B1C8F80070B1
:103E0000BFF34F8FBFF36F8FFFF71CFC012005B08E
:103E1000BDE8F083049808B166B10FE03DB15020D1
:103E200080F31188BFF34F8FBFF36F8FFEE7FFF76B
:103E300009FC5DE06846FFF7A9FC0126FFF702FCDC
:103E4000FFF754FDFFF7DEFB94F94400401C01D15D
:103E500084F8449094F94500401C01D184F84590C1
:103E6000FFF7F0FB04A9684600F046F8002820465A
:103E700012D0FFF73FF800F013FA2046FFF708F8DA
:103E80000028A9D09DB3FFF7BDFB606A50B3206B3B
:103E90000068C0F1070126E0FEF7FAFFE0B12068F4
:103EA00038B9FFF7AFFBA06800F076F90546FFF7D9
:103EB000C9FB04F124000499FFF776FC2046FFF7C4
:103EC00019F800F0EDF9002886D1C8F80070BFF3AA
:103ED0004F8FBFF36F8F7FE72046FFF70BF800F09F
:103EE000DFF979E70021A068FFF776FC9FE7FFE79D
:103EF00000208CE704ED00E02DE9F0410C460500C0
:103F000011D0C4B1FFF77EFB174B5A696E68206869
:103F1000911B471C17D02F689B6A9F4219D096426D
:103F200017D8012410E0502080F31188BFF34F8F81
:103F3000BFF36F8FFEE7502080F31188BFF34F8FE0
:103F4000BFF36F8FFEE70024FFF77CFB2046BDE840
:103F5000F081884205D9401A20602846FFF716FCF8
:103F6000F1E700202060DCE7B00000202DE9FF5FD2
:103F70008346DDE90E87994616468A469000FEF78D
:103F8000EFFF05001CD05420FEF7EAFF040014D018
:103F90000020256384F85100CDE90240CDE9008777
:103FA0004B46324651465846FEF7FFFE2046FEF786
:103FB000E3FD012004B0BDE8F09F2846FFF756FB63
:103FC0004FF0FF30F6E7F0B585B0DDE90B640A9DF0
:103FD000A6B1DCB1542700972663022684F851600D
:103FE000002604AFCDE90246CDE90057FEF7DDFE1D
:103FF0002046FEF7C1FD049805B0F0BD502080F3C7
:104000001188BFF34F8FBFF36F8FFEE7502080F30F
:104010001188BFF34F8FBFF36F8FFEE70548C1696B
:1040200019B1806B18B10020704701207047022041
:1040300070470000B00000202DE9F0412E4C002711
:10404000A06B40B1206A401C2062606A00B1012769
:104050003846BDE8F0816669761C666113D16068F8
:10406000006838B1502080F31188BFF34F8FBFF341
:104070006F8FFEE76068A1686160A060A06A401C65
:10408000A062FEF713FF206BDFF87080864209D331
:104090006068006880B16068C068C568686886420A
:1040A0000DD220632068C06A00EB800158F821001F
:1040B0000128CAD90127C8E74FF0FF30F1E7281DD2
:1040C000FFF750FAA86A18B105F11800FFF74AFA8D
:1040D000E86A0121A26981401143A16100EB8001DE
:1040E00008EB8100291DFFF781FAE86A2168C96A97
:1040F0008842CDD30127CBE7B00000203804002050
:1041000070B504004FF0000140D0214D2868844272
:1041100007D0502080F31188BFF34F8FBFF36F8F0C
:10412000FEE7A06C38B1401EA064636CE26A9A425C
:104130002CD040B12AE0502080F31188BFF34F8F7C
:10414000BFF36F8FFEE7201DFFF70CFA114A012124
:1041500050B9E06A00EB800352F8233023B9AB6911
:1041600001FA00F08343AB61606CE062C0F10700CC
:10417000A061E06AAB6981401943A96100EB80004E
:1041800002EB8000211DFFF731FA0121084670BDC6
:10419000B00000203804002070B504004FF000008B
:1041A00038D0204DE16A2A68D26A914233D2A069A0
:1041B000002804DB2868C06AC0F10700A0611A4E1D
:1041C00001EB8101606906EB810188421ED1201D4F
:1041D000FFF7C8F9012150B9E06A00EB800256F8F8
:1041E000222022B9AA6901FA00F08243AA61286854
:1041F000C06AE062AA6981401143A96100EB8000B6
:1042000006EB8000211DFFF7F1F902E02868C06A83
:10421000E062012070BD616C2A68D26A9142F8D3D5
:1042200070BD0000B0000020380400202DE9F041EE
:10423000C068C468ACB104F118000746FFF792F9F2
:10424000154DA86B0126A0B139461448FFF7CEF9E9
:10425000E06A2968C96A88421CD901206E62BDE8FB
:10426000F081502080F31188BFF34F8FBFF36F8F21
:10427000FEE7201DFFF776F9E16AAA6906FA01F068
:104280001043A86101EB81000449B43901EB8000BF
:10429000211DDBE70020E2E7B0000020EC04002055
:1042A0002DE9F0472C4D00242746A86B38B1FFF7C5
:1042B000A9F9A86B401EA863A86B40B146E0502046
:1042C00080F31188BFF34F8FBFF36F8FFEE729692B
:1042D000224E0120D1B3A6F1B40980463068E8B17E
:1042E000F068C46804F11800FFF73CF9201DFFF7DF
:1042F00039F9E06AAA6908FA00F11143A96100EBF3
:10430000800109EB8100211DFFF770F9E06A29683F
:10431000C96A8842E2D3C5F82480DFE70CB1FEF712
:10432000C5FD2C6A44B14646FFF786FE00B16E62B9
:10433000641EF9D100202862686A38B10849012753
:1043400038070860BFF34F8FBFF36F8FFFF77AF91D
:104350003846BDE8F0870000B0000020EC040020E3
:1043600004ED00E0EC430008251A000800000000FE
:1043700000000000800000000000000000000000BD
:10438000E0430008EF170008FDFF000000000000F8
:10439000800000000000000000000000D043000882
:1043A000E51A0008FDFF000000000000800000008A
:1043B00000000000000000000000000000000000FD
:1043C00001020304060708090000000001020304BB
:1043D000737465706D6F76655461736B00000000D7
:1043E0006C696D69745461736B000000646566618B
:1043F000756C745461736B00184400080000002051
:104400001001000084200008284500081001002049
:104410001844000094200008002002402000000002
:10442000000C024008000000000000000000000036
:1044300000000000000000000020024040000000DA
:10444000000C024000080000000000000000000016
:10445000000000000000000000200240800000007A
:1044600000140240020000000000000000000000F4
:1044700000000000000000000020024004000000D6
:1044800000080240000100000000000000000000E1
:10449000000000000000000000000000000000001C
:1044A000000000000000000000000000000000000C
:1044B00000000000000000000100000010000000EB
:1044C000000000000024F4000000000000000000D4
:1044D00000000000000000000000000000000000DC
:1044E00000000000000000000000000000000000CC
:1044F00000000000000000000000000000000000BC
:1045000000000000000000000000000000000000AB
:10451000000000000000000000000000000000009B
:08452000AAAAAAAA00000000EB
:040000050800018965
:00000001FF
