:020000040800F2
:10000000289200205902000803170008FD13000879
:1000100001170008A5030008A51C00080000000047
:100020000000000000000000000000009D0100082A
:10003000C104000800000000F101000807170008D3
:1000400073020008730200087302000873020008BC
:100050007302000805170008730200087302000805
:10006000730200087302000873020008730200089C
:10007000730200087302000873020008730200088C
:10008000730200087302000873020008730200087C
:10009000730200087302000873020008730200086C
:1000A000730200087302000873020008730200085C
:1000B000730200087302000873020008730200084C
:1000C000730200087302000873020008730200083C
:1000D000730200087302000873020008991C0008EC
:1000E000730200087302000873020008730200081C
:1000F000730200087302000873020008730200080C
:1001000073020008730200087302000873020008FB
:10011000730200087302000809180008730200083F
:1001200073020008730200087302000873020008DB
:1001300073020008730200087302000873020008CB
:1001400073020008730200087302000873020008BB
:1001500073020008730200087302000873020008AB
:10016000730200087302000873020008730200089B
:100170007302000873020008730200080000000008
:100180007302000873020008DFF80CD000F0AEF82C
:1001900000480047A1210008289200202B4B196835
:1001A0000868B0E8F04F80F30988BFF36F8F4FF015
:1001B000000080F3118870470000000006480068C6
:1001C000006880F3088862B661B6BFF34F8FBFF353
:1001D0006F8F00DF00BF00BF08ED00E0DFF80C000C
:1001E000016841F470010160704700BF88ED00E0D4
:1001F000EFF30980BFF36F8F144B1A681EF0100FD6
:1002000008BF20ED108A20E9F04F106008B44FF0CD
:10021000100080F31188BFF34F8FBFF36F8F02F090
:1002200075FD4FF0000080F3118808BC196808685C
:10023000B0E8F04F1EF0100F08BFB0EC108A80F34A
:100240000988BFF36F8F704700BF00BF28000020F0
:10025000EFF30580704700000648804706480047D6
:10026000FEE7FEE7FEE7FEE7FEE7FEE7FEE7FEE766
:10027000FEE7FEE7B117000889010008D2B201E0ED
:1002800000F8012B491EFBD270470022F6E710B59B
:1002900013460A4604461946FFF7F0FF204610BDF4
:1002A000421C10F8011B0029FBD1801A704703463D
:1002B00011F8012B00F8012B002AF9D118467047DC
:1002C00030B50B46014600202022012409E021FA26
:1002D00002F59D4205D303FA02F5491B04FA02F523
:1002E0002844151EA2F10102F1DC30BD064C074D79
:1002F00006E0E06840F0010394E8070098471034F6
:10030000AC42F6D3FFF744FF2C3200084C32000811
:1003100000B583B001210A484A02009101900023F0
:1003200008A10B4802F066FE02210A480A02009169
:100330000190002308A10B4802F05CFE03B000BD51
:1003400000000020765461736B5573657249460056
:10035000892D000804000020765461736B4C4544DD
:1003600031000000D92A000810B582B00C480B49B2
:10037000016000244460846041F26801C16000F0C3
:1003800084FE0120009001946946054800F04AFE71
:10039000034800F0B5FE02B010BD000000100040A0
:1003A00094000020FEE7000010B50AA001F078FDDF
:1003B00014A001F075FD1EA001F072FD23A001F054
:1003C0006FFD29A001F06CFDBDE810402DA001F0EB
:1003D00067BD00003D3D3D3D3D3D3D3D3D3D3D3D1D
:1003E0003D3D3D3D3D3D3D3D3D3D3D3D3D3D3D3D3D
:1003F0003D3D3D3D3D3D3D3D3D3D3D3D3D3D0D0A90
:1004000000000000C7EBD1A1D4F1B4AEBFDAB2D97D
:10041000D7F7C3FCC1EEA3ACB5E7C4D4BCFCC5CCD4
:10042000B4F2D3A1CAFDD7D6BCB4BFC93A0D0A00F5
:10043000312E20BDD3CAD5B5BDC3FCC1EE31A3ACAE
:10044000B4F2D3A1CFFBCFA20D0A0000322E20BD03
:10045000D3CAD5B5BDC3FCC1EE32A3ACB4F2D3A1AF
:10046000CFFBCFA20D0A0000332E20BDD3CAD5B5D5
:10047000BDC3FCC1EE33A3ACB4F2D3A1CFFBCFA27A
:100480000D0A0000342E20BDD3CAD5B5BDC3FCC1B2
:10049000EE34A3ACB4F2D3A1CFFBCFA20D0A00007F
:1004A000002805D0012805D0022805D0002070477B
:1004B000002070470020704700487047100100205E
:1004C0007047000010B50121034800F021F908B180
:1004D000002010BD012010BD0010024010B5022107
:1004E000034800F015F908B1002010BD012010BD2F
:1004F000001002402DE9F84F0022DFF80082DFF8FB
:100500000092DFF800A24FF0030E0F27012303FA39
:1005100002F50B682B40AB427DD1D1F804C0BCF191
:10052000020F02D0BCF1120F12D14FEAD20C00EB35
:100530008C0CDCF820605407E40E07FA04FB26EA72
:100540000B06D1F810B00BFA04F43443CCF8204079
:1005500006684FEA420C0EFA0CF4A64391F804B078
:100560000BF0030B0BFA0CFB4BEA060606604E6819
:10057000012E05D0022E03D0112E01D0122E11D142
:100580008668A643D1F80CB00BFA0CFB4BEA0606C2
:100590008660466826EA05050E79C6F30016964081
:1005A00035434560C56825EA04048D6805FA0CFCEE
:1005B0004CEA040CC0F80CC0D1F804C01CF0805FF9
:1005C0007DD0D8F800C04CF4804CC8F800C0D8F8F2
:1005D00000C00CF4804CCDF800C022F0030C0CF1EC
:1005E000804404F59834D4F808C895072D0F07FA0D
:1005F00005F62CEA0606A0F1804CBCF5003C64D060
:10060000A0F1804CBCF5013C62D0A0F1804CBCF55F
:10061000023C60D000E052E0A0F1804CBCF5033C0D
:100620005CD0A0F1804CBCF5043C5AD0A0F1804CC9
:10063000BCF5053C58D0A0F1804CBCF5063C56D02A
:10064000A0F1804CBCF5073C54D04FF0080C0CFADC
:1006500005FC4CEA060CC4F808C8D9F800C02CEA1E
:10066000030C4C6814F4803F01D04CEA030CC9F829
:1006700000C0254CD4F800C02CEA030C4D6815F4DA
:10068000003F01D04CEA030CC4F800C0DAF800C007
:100690002CEA030C4C6814F4801F01D04CEA030CC4
:1006A000CAF800C0194CD4F800C02CEA030C4D68FD
:1006B00015F4001F01D04CEA030CC4F800C0521C12
:1006C000102AFFF423AFBDE8F88F4FF0000CBEE70F
:1006D0004FF0010CBBE74FF0020CB8E74FF0030CF2
:1006E000B5E74FF0040CB2E74FF0050CAFE74FF061
:1006F000060CACE74FF0070CA9E7000044380240B5
:10070000003C0140083C0140043C01400C3C0140DD
:100710000069084201D00120704700207047002A7C
:1007200001D0816170470904816170470148006808
:10073000704700001800002002480168491C016051
:10074000704700001800002010B50B48016841F404
:1007500000710160016841F480610160016841F449
:1007600080710160032000F091F8002000F006F88D
:1007700000F018F8002010BD003C024010B50446FF
:1007800007484FF47A720068B0FBF2F000F034FCD6
:1007900000222146501E00F045F8002010BD000048
:1007A0001C00002010B5032000F070F80022114654
:1007B0006FF00B0000F036F8002211466FF00A00CF
:1007C00000F030F8002211466FF0090000F02AF81E
:1007D00000221146501F00F025F800221146101F7C
:1007E00000F020F800221146901E00F01BF80022B5
:1007F0000F21501E00F016F800221146052000F0CF
:1008000011F8BDE810400520AFF3008000F01F0193
:10081000012202FA01F14009800000F1E020C0F855
:100820000011704710B4184B1B68C3F30223C3F1C7
:10083000070CBCF1040F01D94FF0040C1C1D072C50
:1008400001D2002300E0DB1E012404FA0CFCACF111
:10085000010C0CEA0101994004FA03F35B1E1A40F3
:100860001143002808DA00F00F0000F1E020090130
:1008700080F8141D10BC704700F1E020090180F8D9
:10088000001410BC704700000CED00E000F0070001
:10089000064A11684FF6FF03194041EA002040F074
:1008A000FD7040F080601060704700000CED00E0CB
:1008B0002DE9F05F04460E46DFF8D091D9F800002C
:1008C000F7B200F00F00B0420AD289F80070D9F8F0
:1008D000000000F00F00B04202D00120BDE8F09F00
:1008E0002078DFF8AC8110F0020F07D0D8F80000B4
:1008F000A16820F0F0000843C8F80000207810F04C
:10090000010F51D060686349012808D002280DD03A
:1009100003280BD0096811F0020F2ED00AE00968F5
:1009200011F4003F06D10120BDE8F09F096811F0E5
:10093000007F1FD0D8F8001021F003010843C8F849
:100940000000FFF7F3FE0546606841F2883A01288F
:1009500016D0022829D003283CD0D8F8000010F087
:100960000C0F51D0FFF7E2FE401B504547D9032042
:10097000BDE8F09F0120BDE8F09F0120BDE8F09F99
:10098000D8F8000000F00C0004283DD0FFF7CEFEA0
:10099000401B504502D90320BDE8F09FD8F8000065
:1009A00000F00C000428F1D12EE0D8F8000000F08F
:1009B0000C00082828D0FFF7B9FE401B504502D98B
:1009C0000320BDE8F09FD8F8000000F00C000828D4
:1009D000F1D119E0D8F800004FF00C0B3BEA000011
:1009E00012D0FFF7A3FE401B504502D90320BDE8FB
:1009F000F09FD8F800003BEA0000F2D104E0D8F8FC
:100A0000000010F00C0FADD1D9F8000000F00F007D
:100A1000B0420AD989F80070D9F8000000F00F0040
:100A2000B04202D00120BDE8F09F207810F0040F02
:100A300007D0D8F80000E16820F4E0500843C8F877
:100A40000000207810F0080F08D0D8F800002169C5
:100A500020F4604040EAC100C8F8000000F058F8F7
:100A6000D8F80010F02292FAA2F201F0F001B2FAE6
:100A700082F2D140084A515CC84008490860002011
:100A8000FFF77CFE0020BDE8F09F0000003C024024
:100A90000838024000380240143200081C000020D0
:100AA00001490120C86470470000474201480068BE
:100AB000704700001C00002000B5FFF7F7FF074952
:100AC00009684FF4E05292FAA2F201F4E051B2FA4E
:100AD00082F2D140024A515CC84000BD0838024051
:100AE0002432000800B5FFF7E1FF074909684FF419
:100AF000604292FAA2F201F46041B2FA82F2D1406D
:100B0000024A515CC84000BD083802402432000847
:100B100010B41F48006810F00C011E481BD04FEAAB
:100B2000600C042916D0082915D11B4A116801F060
:100B30003F01136813F4800F47F6C0730DD0BCFB60
:100B4000F1F01168194093FAA3F3B3FA83F3D94093
:100B500048430CE0604610BC7047B0FBF1F01168F0
:100B6000194093FAA3F3B3FA83F3D94048431168C9
:100B70004FF4403292FAA2F201F44031B2FA82F21A
:100B8000D140491C4900B0FBF1F010BC7047000097
:100B9000083802400024F400043802402DE9F84FE0
:100BA0000446DFF81C842078A8F1040710F0010F38
:100BB000A7F1040560D0D8F8000000F00C0004286C
:100BC00009D0D8F8000000F00C0008280DD13868D2
:100BD00010F4800F09D0286810F4003F4CD06068F2
:100BE000002849D10120BDE8F88F6068B0F5803F4A
:100BF00014D0B0F5A02F16D0286820F480302860DB
:100C0000286820F480202860606810B3FFF78EFD0C
:100C10000646286810F4003F0ED02DE0286840F406
:100C200080302860F0E7286840F480202860286839
:100C300040F480302860E7E7FFF778FD801B6428E8
:100C400002D90320BDE8F88F286810F4003FF3D0E4
:100C500012E0FFF76BFD0646286810F4003F0BD04A
:100C6000FFF764FD801B642802D90320BDE8F88FDC
:100C7000286810F4003FF3D12078DFF8489310F093
:100C8000020F4FF0000663D0D8F800004FF0F80BC9
:100C900010F00C0F16D0D8F8000000F00C00082857
:100CA00003D1386810F4800F0CD0E068C8B301207D
:100CB000C9F80000FFF73AFD8246286810F0020FDD
:100CC00016D022E0286810F0020F05D0E068012855
:100CD00002D00120BDE8F88F28689BFAABF22169A9
:100CE000B2FA82F220F0F8009140084328602FE029
:100CF000FFF71CFDA0EB0A00022802D90320BDE883
:100D0000F88F286810F0020FF2D028689BFAABF237
:100D10002169B2FA82F220F0F8009140084328607D
:100D200016E0FFE7C9F80060FFF700FD824628687B
:100D300010F0020F0CD0FFF7F9FCA0EB0A0002281C
:100D400002D90320BDE8F88F286810F0020FF2D115
:100D5000207810F0080F34D09B48DFF870B261693A
:100D6000C1B101210160FFF7E1FC8246DBF8000020
:100D700010F0020F25D1FFF7D9FCA0EB0A000228E2
:100D800002D90320BDE8F88FDBF8000010F0020F55
:100D9000F1D016E00660FFF7C9FC8246DBF80000E0
:100DA00010F0020F0DD0FFF7C1FCA0EB0A000228E3
:100DB00002D90320BDE8F88FDBF8000010F0020F25
:100DC000F1D1207810F0040F43D08148016841F040
:100DD00080510160006800F080500090DFF8F4B1AD
:100DE000DBF8000040F48070CBF80000FFF79EFCB9
:100DF0008246DBF8000010F4807F0DD1FFF796FCEF
:100E0000A0EB0A00022802D90320BDE8F88FDBF826
:100E1000000010F4807FF1D0A068DFF8BCB1012899
:100E200018D005281DD0DBF8000020F00100CBF819
:100E30000000DBF8000020F00400CBF80000A06800
:100E400068B3FFF773FC8246DBF8000010F0020F76
:100E500014D03CE0DBF8000040F00100CBF80000CB
:100E6000EDE7DBF8000040F00400CBF80000DBF811
:100E7000000040F00100CBF80000E0E7FFF756FC6F
:100E8000A0EB0A0141F28830814202D90320BDE87B
:100E9000F88FDBF8000010F0020FEFD017E0FFF73B
:100EA00045FC8246DBF8000010F0020F0FD0FFF780
:100EB0003DFCA0EB0A0141F28830814202D90320B7
:100EC000BDE8F88FDBF8000010F0020FEFD1A06949
:100ED000F0B3D8F8001001F00C0108296CD00228FA
:100EE00010D0C9F86060FFF721FC0446286810F0B4
:100EF000007F5ED0FFF71AFC001B022855D90320A3
:100F0000BDE8F88FC9F86060FFF710FC0646286856
:100F100010F0007F0BD0FFF709FC801B022802D9DC
:100F20000320BDE8F88F286810F0007FF3D1216A14
:100F3000E0694FF0FF3340EA010247F6C07191FAD1
:100F4000A1F1606AB1FA81F100FA01F1A06A00E052
:100F50002FE003EB50004FF4403393FAA3F3B3FABE
:100F600083F39840084310434FF0706292FAA2F264
:100F7000E16AB2FA82F29140084338600120C9F870
:100F80006000FFF7D3FB0446286810F0007F10D103
:100F9000FFF7CCFB001B022802D90320BDE8F88F25
:100FA000286810F0007FF3D003E0286810F0007F7D
:100FB000A0D10020BDE8F88F0120BDE8F88F000027
:100FC0000838024000004742800E47427438024011
:100FD0004038024000700040703802404FF0E0217D
:100FE000042804D0086920F00400086170470869EB
:100FF00040F0040008617047401EB0F1807F01D3CB
:10100000012070474FF0E0214861044AF020107041
:1010100000208861072008610020704723ED00E070
:101020007047704710B490F83820012A2AD0012365
:1010300080F83830022280F839200268D2F804C0E3
:101040002CF0700CC2F804C00268D2F804C00C681E
:101050004CEA040CC2F804C00268D2F808C02CF0B4
:10106000800CC2F808C00268D2F808C049684CEA8F
:101070000101916080F83930002180F8381010BCEF
:101080000020704710BC0220704710B50446002CA9
:1010900003D094F8390010B107E0012010BD002002
:1010A00084F83800204600F00DF8022084F839005A
:1010B000211D206800F0AEFB012084F839000020DB
:1010C00010BD000008B50068A0F18041B1F5805165
:1010D00012D10A48016841F010010160006800F077
:1010E00010000090002211463620FFF79BFBBDE860
:1010F00008403620FFF78ABB08BD00004038024098
:101100000168CA6842F00102CA600068016841F0E3
:101110000101016000207047704770B504462068E7
:1011200001694FF0000511F0020F17D0C16811F0EE
:10113000020F13D0E91E016101202076206880692A
:1011400010F0030F03D02046FFF7E6FF05E020462E
:1011500000F09DF8204600F09BF825762068016994
:1011600011F0040F18D0C16811F0040F14D06FF003
:1011700004010161022020762068806910F4407F1C
:1011800003D02046FFF7C8FF05E0204600F07FF8B7
:10119000204600F07DF825762068016911F0080FDF
:1011A00018D0C16811F0080F14D06FF00801016168
:1011B000042020762068C06910F0030F03D0204679
:1011C000FFF7AAFF05E0204600F061F8204600F096
:1011D0005FF825762068016911F0100F18D0C168FA
:1011E00011F0100F14D06FF010010161082020766B
:1011F0002068C06910F4407F03D02046FFF78CFFC1
:1012000005E0204600F043F8204600F041F825763E
:101210002068016911F0010F09D0C16811F0010FB8
:1012200005D06FF001010161204600F033F820681D
:10123000016911F0800F09D0C16811F0800F05D04D
:101240006FF0800101612046FFF7EAFE2068016926
:1012500011F0400F09D0C16811F0400F05D06FF0B8
:1012600040010161204600F027F82068016911F073
:10127000200F0BD0C16811F0200F07D06FF02001B4
:1012800001612046BDE87040FFF7CBBE70BD7047DE
:101290007047000006480068C16811F0010F06D0D1
:1012A00004490A68521C0A606FF00101016170472D
:1012B0009400002020000020704770B50446002CE8
:1012C00004D094F83900002510B106E0012070BD6B
:1012D00084F83850204600F022F8242084F83900A1
:1012E0002068C16821F40051C160204600F0F6FA80
:1012F0002068016921F4904101612068416921F071
:101300002A0141612068C16841F40051C160E56370
:10131000202084F8390084F83A00002070BD70471E
:101320002DE9F84304460D4691461E4694F83900CF
:10133000202802D00220BDE8F8834DB3B9F1000F98
:1013400026D094F83800012825D0012084F83800F0
:101350000027E763212084F83900FFF7E7F980468A
:10136000A4F82490A4F82690E08CA0B3E08C401E52
:10137000E084A068B0F5805F10D043460022802151
:101380002046009600F04CFCF0B10320BDE8F88345
:101390000120BDE8F8830220BDE8F883434600221F
:1013A00080212046009600F03BFC10B10320BDE8F0
:1013B000F88328882168C0F308004860206908B1D4
:1013C0006D1C05E0AD1C03E0216815F8010B4860B9
:1013D000E08C0028CAD143460022402120460096D6
:1013E00000F01EFC10B10320BDE8F883202084F833
:1013F000390084F838700020BDE8F88306A3002087
:1014000010491A5C4A600A6812F0400FFBD0401C79
:10141000C0B22A28F5D3FEE70D0A456E7465722026
:10142000486172644661756C745F48616E646C6596
:10143000722C2053797374656D2048616C742E0D85
:101440000A0000000010014030B587B00024274892
:10145000016841F480110160006800F4801001907F
:101460002348016841F004010160016801F00401B2
:101470000191016841F008010160006800F0080076
:1014800001904FF4805002900220039001200490BC
:10149000032005900820069002A91648FFF72AF8B5
:1014A00004200290144D02A92846FFF723F814499E
:1014B000124808604FF4E13048608C60CC600C61E9
:1014C0000C2048618C61CC610846FFF7F6FE0022D3
:1014D00001213520FFF7A6F93520FFF797F902A97A
:1014E0002846FFF707F807B030BD0000403802403B
:1014F0003038024000080240000C0240005000401A
:10150000D000002070B586B000252A48016841F05F
:1015100010010160016801F010010091016841F0C3
:1015200010010160016801F010010091016841F0B3
:1015300010010160016801F010010091016841F0A3
:1015400010010160016801F010010091016841F093
:1015500010010160006800F0100000900124019467
:1015600002950394144E01A93046FEF7C3FF0220F2
:1015700001900295039401A93046FEF7BBFF0420B9
:1015800001900295039401A93046FEF7B3FF0820AD
:1015900001900295039401A93046FEF7ABFF10209D
:1015A00001900295039401A93046FEF7A3FF06B00F
:1015B00070BD000030380240001002400160002180
:1015C0000171022242718271C171704711F0010FE5
:1015D00001D0002101710079704770B504460025E3
:1015E000607901281DD0022811D001250226032888
:1015F0001FD004280AD1E0790A30C0B2E0710A286D
:1016000004D32068804750B1A571657170BD206812
:1016100080470028FAD0E5710420607170BD6671C2
:1016200070BD206880470028FAD1E5710320607101
:1016300070BDE0790A30C0B2E0710A28F8D32068A2
:10164000804708B1657170BDA57166712079401C35
:10165000C0B22071FA28F6D9FA20207170BD0000BE
:10166000F0B587B02348016841F08001016001684E
:1016700001F080010191016841F0100101600168F1
:1016800001F010010191016841F010010160006852
:1016900000F010000190184F00224FF400713846FE
:1016A000FFF73DF8154E002220213046FFF737F8AE
:1016B000002240213046FFF732F8701502900124D5
:1016C00003940225059502A93846FEF713FF202151
:1016D00002910394059502A93046FEF70BFF4020C6
:1016E00002900394059502A93046FEF703FF07B068
:1016F000F0BD000030380240001C024000100240E3
:10170000FEE77047704710B5FFF716F8BDE81040C8
:1017100000F057BD30B593B000252348016841F073
:1017200080510160006800F0805000901F480168FF
:1017300041F480410160006800F480400090012085
:1017400006900004079002240C9480010D9008205C
:101750000E904FF4A8700F9010940720119006A8D7
:10176000FFF71CFA0F200190029403954FF4A0504C
:101770000490E0020590052101A8FFF799F8FFF712
:101780008FF9FFF793F94FF47A71B0FBF1F0FFF79F
:1017900033FC0420FFF722FC00220F21501EFFF72C
:1017A00041F813B030BD00004038024000700040E6
:1017B0000F48016841F4700101600E48016841F072
:1017C000010101600C4A00211160026822F410221C
:1017D00022F080720260031D084A1A60026822F437
:1017E000802202600648016006495806086070477A
:1017F00088ED00E000380240083802401030002434
:101800000C38024008ED00E00148FFF786BC0000FC
:1018100094000020F0B402682B4BDFF8B0C02C4DD0
:101820002C4E2D4C98420AD0B0F1804F07D0604525
:1018300005D0A84203D0B04201D0A04203D122F08B
:1018400070024F683A43984228D0B0F1804F25D0BB
:10185000604523D0A84221D0B0421FD0A0421DD065
:10186000A0F1804CBCF5A03C18D0A0F1804CBCF598
:10187000A23C13D0A0F1804CBCF5A43C0ED0A0F14A
:10188000804CBCF5C05C09D0A0F1804CBCF5E05C9C
:1018900004D0A0F1804CBCF5005C05D122F440726C
:1018A000D1F80CC04CEA020202608A68C2620A687F
:1018B0008262984201D0A04201D1096901630121ED
:1018C0004161F0BC7047000000000140000400408E
:1018D00000080040000C0040000401402DE9F041E8
:1018E00004462068016921F44051E2681143016116
:1018F0002068C16821F4037121F414412369A268AE
:10190000D4F81CC01A43636943EA0C031A43114319
:10191000C1602068416921F44071A26911434161AD
:10192000E069BC4ABC49BD4D3226B0F5004F5ED0DF
:101930002068884202D0904240F01281FFF7D2F82E
:1019400000EBC00101EB001061688900B0FBF1F70A
:10195000FFF7C8F800EBC00101EB001061688900D7
:10196000B0FBF1F0A5FB001040096FF018014843EF
:1019700007EB800006EB0010A5FB0010400900F00B
:10198000F007FFF7AFF800EBC00101EB0010616852
:101990008900B0FBF1F0A5FB0010400907EB001730
:1019A000FFF7A0F800EBC00101EB001061688900AF
:1019B000B0FBF1F8FFF796F800EBC00101EB001067
:1019C00061688900B0FBF1F0A5FB001040096FF0E1
:1019D0001801484308EB800006EB0010A5FB00103F
:1019E0002168C0F3431038448860BDE8F081206866
:1019F000884201D0904259D1FFF774F800EBC00142
:101A000001EB001061684900B0FBF1F0A5FB00108C
:101A100040090701FFF766F800EBC00101EB001079
:101A200061684900B0FBF1F8FFF75CF800EBC0011A
:101A300001EB001061684900B0FBF1F0A5FB00105C
:101A400040096FF01801484308EB800006EBC00026
:101A5000A5FB0010400900F0F80007EB4007FFF776
:101A600041F800EBC00101EB001061684900B0FBD8
:101A7000F1F8FFF737F800EBC00101EB00106168E7
:101A80004900B0FBF1F0A5FB001040096FF0180110
:101A9000484308EB800006EBC000A5FB001021685E
:101AA000C0F3421038448860BDE8F081FFF704F8C5
:101AB00000EBC00101EB001061684900B0FBF1F0E0
:101AC000A5FB001040090701FEF7F6FF00EBC0017F
:101AD00001EB001061684900B0FBF1F8FEF7ECFF84
:101AE00000EBC00101EB001061684900B0FBF1F0B0
:101AF000A5FB001040096FF01801484308EB800077
:101B000006EBC000A5FB0010400900F0F80007EB51
:101B10004007FEF7D1FF00EBC00101EB0010616848
:101B20004900B0FBF1F8FEF7C7FF00EBC00101EB85
:101B3000001061684900B0FBF1F0A5FB00104009FE
:101B40006FF01801484308EB800006EBC000A5FBCE
:101B500000102168C0F3421038448860BDE8F0816D
:101B6000FEF7AAFF00EBC00101EB001061688900DD
:101B7000B0FBF1F7FEF7A0FF00EBC00101EB001096
:101B800061688900B0FBF1F0A5FB001040096FF01F
:101B90001801484307EB800006EB0010A5FB00107E
:101BA000400900F0F007FEF787FF00EBC00101EBF2
:101BB000001061688900B0FBF1F0A5FB001040093E
:101BC00007EB0017FEF778FF00EBC00101EB0010F8
:101BD00061688900B0FBF1F8FEF76EFF00EBC00111
:101BE00001EB001061688900B0FBF1F0A5FB00106B
:101BF00040096FF01801484308EB800006EB001025
:101C0000A5FB00102168C0F3431038448860BDE88C
:101C1000F081000000140140001001401F85EB51CD
:101C20002DE9F0410446069D884617461E46206869
:101C3000006838EA000020D00020B84227D1B5F172
:101C4000FF3F1CD025B1FEF771FD801BA84216D9BD
:101C50002068C16821F4D071C1602068416921F019
:101C600001014161202084F8390084F83A00002005
:101C700084F838000320BDE8F0810120DDE720680A
:101C8000006838EA000005D00020B842D7D0002014
:101C9000BDE8F0810120F8E7014800F027B8000016
:101CA00010010020FEE7012282F31088428B0023FE
:101CB00083F31088002A17D0038B8268D25C0A70E5
:101CC000012181F31088018B491C89B20183C289EB
:101CD000914201D300210183418B491E41830020A1
:101CE00080F31088012070470020704770B50446CB
:101CF000354E3068C0684FF0000510F0200F18D046
:101D000020684068314A1070E38AA168C854E08AAC
:101D1000401C81B2E182E089814200D3E582618B7F
:101D2000814202D2608B401C6083616A09B11078E5
:101D300088473068C16811F0800F20D0A18AA1B116
:101D4000618A60684FF6FF73014401221E48FFF765
:101D5000E7FA608A401C80B26082A189884200D381
:101D60006582A08A401EA08270BDC16821F08001FA
:101D7000C1603068C16841F04001C16070BDC16898
:101D800011F0400FFAD0A18AA1B1618A60684FF6C4
:101D9000FF73014401220C48FFF7C2FA608A401C1D
:101DA00080B26082A189884200D36582A08A401EE9
:101DB000A08270BDC16821F04001C160206A002886
:101DC000F7D0BDE870400047D0000020240000207C
:101DD00078B40023002A35D9002584894FF0010CFE
:101DE0008CF31088B0F814C0CDF800C04FF0000C90
:101DF0008CF31088BDF800C06445EFD911F803C01A
:101E0000068A446804F806C04FF0010C8CF3108871
:101E1000B0F810C00CF1010C1FFA8CFCA0F810C037
:101E20008489A44500D30582B0F814C00CF1010CDC
:101E3000A0F814C04FF0000C8CF310885B1C9BB210
:101E40009342CAD303480068C16841F08001C16071
:101E500078BC7047D00000200C480B49016000F1AD
:101E60002801416000F5856181604FF480618181C6
:101E7000C181002101824182C1820183418381822B
:101E8000C1610162416270470048004010010020BA
:101E900010B5FFF7D9FABDE81040FFF7DDBF00002D
:101EA0000FB4054B10B503A9044A029800F02CF8B2
:101EB00010BC5DF814FB0000912100089000002088
:101EC0000FB4084B10B504A902AA039800F01CF83F
:101ED000044602A9002000F0F3F8204610BC5DF88B
:101EE00014FB0000C120000802E008C8121F08C14E
:101EF000002AFAD170477047002001E001C1121F8B
:101F0000002AFBD1704700002DE9FF4F8BB09A46A5
:101F10000F460546002606E025280BD052460D99AF
:101F200090476D1C761C28780028F5D10FB03046FC
:101F3000BDE8F08F0024A0460122604900E0044380
:101F400015F8013F203B02FA03F00842F7D1287848
:101F50002E2817D115F8010F44F004042A280ED0BA
:101F60006FF02F022878A0F1300109290AD808EB78
:101F7000880102EB410100EB01086D1CF2E757F804
:101F8000048B6D1C287869283ED006DC0028CDD053
:101F900063280BD0642804D136E0732810D075284C
:101FA0004BD052460D999047761C85E017F8040BEC
:101FB0008DF8000000208DF80100E946012003E0C3
:101FC00057F8049B4FF0FF3061074FF0000401D435
:101FD0000AE0641C44450DDA8442FADB19F8041067
:101FE0000029F6D106E0641C8442FCDB19F80410D9
:101FF0000029F8D1264404E019F8010B52460D9946
:102000009047641EF8D257E001CF4FF00A0B00282A
:1020100002DA40422D2102E0210504D52B218DF862
:102020002410012103E0E10705D02021F7E70DF19D
:10203000200908910CE00021F9E701CF4FF00A0BCD
:10204000F9E75946FEF73CF901F1300209F8012D94
:102050000028F6D1ADEB090000F1200B600701D498
:102060004FF00108D84502DDA8EB0B0000E000208E
:102070008046002406E009A85246005D0D9990476D
:10208000641C761C08988442F5DB04E0302052463C
:102090000D999047761CB8F10001A8F10108F5DC14
:1020A00005E019F8010B52460D999047761CBBF1DB
:1020B0000001ABF1010BF4DC6D1C34E709280100D1
:1020C0000A68531C0B6010707047000010B5FEF7D3
:1020D000E7F9064A1268D36843F02003D36018B1C9
:1020E000BDE81040FFF7DFBD002010BDD00000208C
:1020F00070B50D461646FEF7D3F90446002C09D0FC
:10210000E36903B19847324629462046BDE870404E
:10211000FFF75EBE70BD13B5012201A9FFF7E8FF0E
:1021200002B010BD70B50546002D05D0154E3068C3
:10213000854209D1002070BD102080F31188BFF3C3
:102140004F8FBFF36F8FFEE700F084FB6C6900F0E8
:10215000A1FBF06B844202D0306C844201D102209A
:1021600070BD0948844205D1A86A08B1022070BD3B
:10217000032070BD0548844202D00CB1012070BD1F
:10218000042070BD28000020140A0020000A00204E
:1021900010B50446E1B20220FFF7BDFF204610BD96
:1021A000FEF7D2FAFFF7B6FAFFF772FEFFF758FA1A
:1021B000FFF7A8F9FEF7D8F8FEF7AAF800F062FDDD
:1021C000FEE710B500F04AFF012803D0BDE810403B
:1021D00000F0FABE10BD00002DE9F04104460F46A4
:1021E000194EF5683068001D00F092FA48B9306861
:1021F000012190F82C0001FA00F0316921EA000079
:102200003061B4F1FF3F07D137B13068BDE8F0412C
:10221000011D0E4800F011BB2C4430684460AC42F4
:1022200006D23068011D306CBDE8F04100F0EABA1A
:102230003068011DF06B00F0E5FAB06A844200D20C
:10224000B462BDE8F081000028000020140A0020DC
:1022500070B5044600F0FEFA1D4DA868401CA86049
:10226000286810B1686938B10CE02C60A8680128B2
:1022700008D100F0EDF805E02868E16AC06A8842FC
:1022800000D82C60686A401C68626064E06A0121C2
:102290002A698140114329610E4900EB800001EB5E
:1022A0008000211D00F0C9FA00F0F4FA68690028E6
:1022B0000CD02868E16AC06A884207D206494FF00C
:1022C00080500860BFF34F8FBFF36F8F70BD000069
:1022D000280000203809002004ED00E070B5134DFF
:1022E0006868002820D0124E00F008FD306820B148
:1022F000002400F029FF14B113E00124F9E700F0F5
:10230000A9FAF068C468201D00F002FAA868401E0F
:10231000A8606868401E686000F0BCFA204600F0C3
:1023200009F868680028DFD170BD0000280000208F
:10233000000A002010B50446206B00F0C1FA2046C8
:10234000BDE8104000F0BCBA4FF4F041104810F066
:10235000070F06D0C01D20F007000D49411AC1F536
:10236000F0410C4A1060002353600144083921F009
:102370000701103A11604B600B600B1A436001605B
:102380004068906050604FF00040D060704700009F
:10239000280A00207C000020074E4FF08054074D93
:1023A000FFF79CFF30680128FAD92C60BFF34F8FEC
:1023B000BFF36F8FF4E700003809002004ED00E060
:1023C0002DE9F05F82460B9F0A9D0C9C0E469046BD
:1023D0009B464FEA8801A522206BFDF74FFF206B3B
:1023E000A8F1010100EB810020F007094FF000087F
:1023F00000202218315C82F83410315C11B1401C8D
:102400001028F6D384F84380072D00D30625E56213
:10241000E564C4F85080201D00F0F1F904F11800C3
:1024200000F0EDF92461C5F10700A0616462C4F811
:102430005480C4F8588084F85C805A465146484617
:1024400000F050F92060002F00D03C60BDE8F09F04
:1024500070B500240F4D04EB840005EB800000F004
:10246000C3F9641C072CF6D30B4800F0BDF90B48E8
:1024700000F0BAF90A4800F0B7F90A4800F0B4F9D8
:10248000094800F0B1F909480349C16314310164F6
:1024900070BD000038090020C4090020D8090020C0
:1024A000EC090020000A0020140A00202800002067
:1024B00010B4144900E011460A688242FBD34B680D
:1024C00003EB010C844503D140681844486008467A
:1024D0000C68D0F804C00CEB0003A3420CD10A4BEB
:1024E0001B689A4206D05268624442600A681268C9
:1024F000026002E0036000E00260814200D00860F8
:1025000010BC70477C0000206C0000202DE9F047D3
:1025100080460C46914600252068002823D060683C
:102520004068606004F10806B04201D14168616012
:102530006068C7686068D0F804C0C4F804C0B445D7
:1025400002D1DCF8041061606068D0F80CA005EBE3
:10255000C50008EB80014B460122504600F016FAF8
:102560006D1CBA45E6D12846BDE8F0870749C86B1F
:102570000068002805D0C86BC068C06840688862E1
:1025800070474FF0FF30886270470000280000203D
:1025900000210278A52A04D1401C491C0278A52AF2
:1025A000FAD0880880B270470A484068B0F1FF3F0F
:1025B00007D0102080F31188BFF34F8FBFF36F8FC8
:1025C000FEE7102080F31188BFF34F8FBFF36F8FAA
:1025D000FEE700008400002010B504462046FDF709
:1025E00066FE2046FDF75CFE0F2804D22021215410
:1025F000401C0F28FBD300212154204410BD0000B3
:102600002DE9F0410546002600F078FB334F38688D
:1026100008B9FFF799FEF86805424ED19DB108351B
:1026200015F0070F0FD005F00700C0F108000544B2
:1026300015F0070F07D0102080F31188BFF34F8FDC
:10264000BFF36F8FFEE7002D37D07868854234D80E
:1026500023490846046801E0214604466068A84210
:1026600002D220680028F7D13868844225D0086853
:1026700000F10806206808606068411B10290FD926
:10268000601910F0070F07D0102080F31188BFF3F6
:102690004F8FBFF36F8FFEE741606560FFF708FF64
:1026A00061687868401A7860BA68904200D2B86071
:1026B000F868084360600020206000F045FD16F0D7
:1026C000070F07D0102080F31188BFF34F8FBFF39F
:1026D0006F8FFEE73046BDE8F08100006C000020FF
:1026E0007C000020001F4FF080730360001F21F06A
:1026F00001010160001F0549016014380260001FDC
:102700006FF002010160203870470000A925000821
:102710000169436882689A60836842685A604A68BF
:10272000824201D182684A60002202610868401E2C
:10273000086070472DE9F04706460B46174600240F
:10274000072500F0DBFADFF88C80D8F80800834218
:102750003AD3DFF884906D1E05EB850009EB80010C
:1027600004EBC40006EB80000122FFF7CFFE044417
:10277000002DF0D104EBC40006EB80000222D8F853
:102780003C10FFF7C3FE044404EBC40006EB8000DA
:102790000222D8F84010FFF7B9FE044404EBC4004D
:1027A00006EB800004220D49FFF7B0FE044404EB61
:1027B000C40006EB800003220949FFF7A7FE04448A
:1027C00017B108480068386000F0BEFC2046BDE83C
:1027D000F08700002800002038090020000A0020AF
:1027E000140A00202000002000F1080141604FF091
:1027F000FF328260C16001610021016070470021E9
:102800000161704710B4D1F800C0BCF1FF3F02D0A5
:1028100000F1080202E0026904E01A4653681C68ED
:102820006445FAD953684B6099608A6051600861C9
:102830000168491C016010BC704742684A60936897
:102840008B6093685960916008610168491C016060
:1028500070470000102080F31188BFF34F8FBFF343
:102860006F8F0A494868401C486001280CD108480D
:10287000006810F0FF0F07D0102080F31188BFF31D
:102880004F8FBFF36F8FFEE770470000840000207A
:1028900004ED00E009494868002806D0401E486061
:1028A000002801D180F311887047102080F311882F
:1028B000BFF34F8FBFF36F8FFEE70000840000204F
:1028C00070B5002827D0A0F10804134D6068E968AE
:1028D000084207D1102080F31188BFF34F8FBFF358
:1028E0006F8FFEE722683AB1102080F31188BFF3A2
:1028F0004F8FBFF36F8FFEE78843606000F0FEF9F3
:1029000060686968084468602046FFF7D1FDBDE84B
:10291000704000F019BC70BD6C00002006484FF4F8
:102920007A710068B0FBF1F0411E4FF0E020416188
:1029300007210161704700001C00002010B502460D
:102940000020002A12D00F48006B38B1102080F30D
:102950001188BFF34F8FBFF36F8FFEE700F0CEF902
:1029600000211046FFF738FC00F0EEFB002807D1ED
:1029700005494FF080500860BFF34F8FBFF36F8F52
:1029800010BD00002800002004ED00E02DE9F0411A
:1029900007460C4690461E46002F0ED03D46256049
:1029A00005F134006060E86A2061286BE061686CC2
:1029B000A060207B032803D00AE012480568EEE7F8
:1029C00000F09CF9A86A08B10220207300F0BCFB5B
:1029D000E86C6061686DA061052E01D0267303E08C
:1029E0003846FFF79FFB2073B8F1000F05D0286B26
:1029F000FFF7CEFD2084BDE8F08100202084BDE8F3
:102A0000F08100002800002070B584B00646002543
:102A10003570294881680391806800EBC000800010
:102A2000FFF7EEFD0446200043D001AA0399FFF70B
:102A300081FE039021490198A1FB001040090190FB
:102A4000002833D00295039800282FD90298019AC4
:102A500000EBC00004EB80008169B1FBF2F5416836
:102A60003046FFF7B9FD06465DB102982B4600EBF4
:102A7000C00004EB800012A182693046FFF720FA03
:102A800009E0029811A100EBC00004EB800082690C
:102A90003046FFF715FA3046FDF702FC064402986F
:102AA000401C0290039902988842CFD32046FFF73A
:102AB00007FF04B070BD0000280000201F85EB5107
:102AC0000925750909257525250D0A0009257509AA
:102AD000093C3125250D0A0092B0FDF765FC10A9CF
:102AE0000220FFF7F3FA00283DD09DF8400031287E
:102AF00006D0322811D033281CD0342833D126E018
:102B00001BA16846FFF7DCF96846FDF7C9FB82B2F6
:102B100069460220FFF7ECFA25E01AA16846FFF7A4
:102B2000CFF96846FDF7BCFB82B269460220FFF789
:102B3000DFFA18E018A16846FFF7C2F96846FDF70A
:102B4000AFFB82B269460220FFF7D2FA0BE017A171
:102B50006846FFF7B5F96846FDF7A2FB82B2694601
:102B60000220FFF7C5FA1420FFF7E8FEB7E70000E0
:102B7000BDD3CAD5B5BDB4AEBFDAC3FCC1EE310D0D
:102B80000A000000BDD3CAD5B5BDB4AEBFDAC3FCE0
:102B9000C1EE320D0A000000BDD3CAD5B5BDB4AE3A
:102BA000BFDAC3FCC1EE330D0A000000BDD3CAD5A5
:102BB000B5BDB4AEBFDAC3FCC1EE340D0A000000EF
:102BC00070B584B0064600243470294881680391AA
:102BD000806800EBC0008000FFF712FD054628006A
:102BE00044D000220399FFF7A5FD039002940398B7
:102BF00000282DD9029901EBC10005EB8002117B61
:102C000001292BD002292BD003292BD004292BD02A
:102C1000002430465168FFF7DFFC0646029901EBBD
:102C2000C10005EB80010A8C8868009201900B6955
:102C3000224610A13046FFF743F93046FDF730FB3E
:102C400006440298401C0290039902988842D1D30E
:102C500004B02846BDE87040FFF732BE5224D8E7E2
:102C60004224D6E75324D4E74424D2E704B070BD0D
:102C70002800002009256309257509257509257592
:102C80000D0A000010B582B01648002401902346BA
:102C9000802215A10094164800F0ACF901280AD052
:102CA000B0F1FF3F1CD1102080F31188BFF34F8F8C
:102CB000BFF36F8FFEE7102080F31188BFF34F8FB3
:102CC000BFF36F8F0B484FF0FF31816201214161EB
:102CD000C4600948046002B0BDE8104000F0FAB8D2
:102CE00002B010BD5400002049444C4500000000D3
:102CF0009923000828000020200000200248016BD2
:102D0000491C016370470000280000201B4B186B12
:102D1000002802D00120D86170470020D8611848EF
:102D2000006898635A6B904205D91968821AD1F8E5
:102D300054C062444A6558631869B0FA80F0C0F123
:102D40001F00104900EB800051F8202072B101EB08
:102D5000800041684968416000F10802914201D158
:102D6000496841604068C06818607047102080F36F
:102D70001188BFF34F8FBFF36F8FFEE7280000204D
:102D80002000002038090020FEB020492048FEF72E
:102D900015FC20492048FEF711FC20A0FFF780F821
:102DA0001B48FEF71AFC1C48FEF717FC00211848C8
:102DB000FEF70CFC00281AD020A0FFF771F82CA019
:102DC000FFF76EF801A8FFF7FBFE01A934A0FFF79B
:102DD00067F835A0FFF764F801A8FFF715FE01A911
:102DE0002FA0FFF75DF801210948FEF7EFFB002156
:102DF0000948FEF7EBFB28B1FDF7D6FA012106489A
:102E0000FEF7E4FB1420FFF799FDC9E7C5040008AD
:102E100008000020DD04000810000020B0B4CFC27C
:102E20004B455931A1A24B455932D6B4D0D0B2BB93
:102E3000CDACB5C4C8CECEF10A0000003D3D3D3D4D
:102E40003D3D3D3D3D3D3D3D3D3D3D3D3D3D3D3DB2
:102E50003D3D3D3D3D3D3D3D3D3D3D3D3D3D3D3DA2
:102E60003D3D3D3D3D3D3D3D3D3D3D3D3D0D0A0032
:102E7000C8CECEF1C3FB202020202020C8CECEF12A
:102E8000D7B4CCAC20D3C5CFC8BCB6202020CAA3B1
:102E9000D3E0D5BB20C8CECEF1D0F2BAC50D0A0022
:102EA00025730D0A000000000D0AC8CECEF1C3FB49
:102EB00020202020202020D4CBD0D0BCC6CAFD208A
:102EC0002020202020202020CAB9D3C3C2CA0D0A46
:102ED0000000000000B583B034480168344A9142D4
:102EE00007D1102080F31188BFF34F8FBFF36F8F8E
:102EF000FEE701682F48814207D1102080F3118836
:102F0000BFF34F8FBFF36F8FFEE72B490878029016
:102F1000FF200870087801909DF804009DF80420B7
:102F200000F0F000904207D0102080F31188BFF32A
:102F30004F8FBFF36F8FFEE79DF804001F4A00F02C
:102F400010001070072090609DF8040010F0800FB2
:102F50000BD09068401E90609DF8040040000190E6
:102F60009DF8040010F0800FF3D1107A000200F4F5
:102F7000E0609060029808701148016841F47001A7
:102F80000160016841F070410160FFF7C7FC00205B
:102F90005060FDF723F90B48016841F040410160A2
:102FA000FDF70CF903B0002000BD000000ED00E0CB
:102FB00071C20F4170C20F4100E400E084000020A4
:102FC00020ED00E034EF00E010B5102080F3118810
:102FD000BFF34F8FBFF36F8F00F04EF818B1044965
:102FE0004FF080500860002080F3118810BD000071
:102FF00004ED00E02DE9F04F85B081460F9F0E9E55
:103000008A4690469B464FEA8800FFF7F9FA054644
:1030100028000AD06020FFF7F3FA04460CB12563BC
:1030200004E02846FFF74CFC00E000248CB10020AF
:1030300003905B46424651460197009602944846EB
:10304000FFF7BEF92046FFF703F905B00120BDE800
:10305000F08F05B04FF0FF30BDE8F08F05484169B3
:10306000002903D0006B18B1002070470120704781
:1030700002207047280000202DE9F0470026304F3D
:10308000386B002808D0B869401CB861F86900B1F5
:1030900001263046BDE8F087F868451CFD609DB903
:1030A000F86B006838B1102080F31188BFF34F8FA0
:1030B000BFF36F8FFEE7F86B396CF9633864386AD9
:1030C000401C3862FFF752FAB86ADFF87880854210
:1030D0000FD34FF00109F86B006838B1F86BC06886
:1030E000C468606885420ED2B86202E04FF0FF30DB
:1030F000B8623868C06A00EB800058F820000128E8
:10310000C4D90126C2E7201DFFF702FBA06A18B14F
:1031100004F11800FFF7FCFAE16A3A6909FA01F0D4
:103120001043386101EB810008EB8000211DFFF79F
:1031300084FBE06A3968C96A8842CCD30126CAE7B1
:1031400028000020380900202DE9F0470024A0467F
:103150002D4D286B002807D0FFF77CFB286B401E05
:103160002863286B40B149E0102080F31188BFF339
:103170004F8FBFF36F8FFEE7A86800283ED0234F24
:103180000126386800B3A7F1B409F868C46804F1EF
:103190001800FFF7BDFA201DFFF7BAFAE06A2A69A6
:1031A00006FA00F11143296100EB800009EB800071
:1031B000211DFFF742FBE06A2968C96A884200D3F3
:1031C000EE6138680028E0D10CB1FFF7CFF9AC69A7
:1031D00044B1FFF751FF00B1EE61641E002CF8D13D
:1031E0000020A861E86948B14FF0010808494FF094
:1031F00080500860BFF34F8FBFF36F8FFFF74AFB1C
:103200004046BDE8F087000028000020EC090020BF
:1032100004ED00E0000000000000000001020304D3
:103220000607080900000000010203044C320008F0
:103230000000002094000000E81E0008E0320008B2
:103240009400002094910000F81E00080000000087
:10325000000000000000000000000000000000006E
:103260000000000000000000007A030A00000000D7
:10327000000000000000000000000000000000004E
:10328000000000000000000000000000000000003E
:10329000000000000000000000000000000000002E
:1032A000000000000000000000000000000000001E
:1032B000000000000000000000000000000000000E
:1032C00000000000000000000000000000000000FE
:1032D00000000000AAAAAAAA000000000000000046
:040000050800018965
:00000001FF
