:020000040800F2
:10000000384500205D020008AB17000845150008C0
:10001000A917000889050008331E00080000000029
:100020000000000000000000000000009D0100082A
:100030008B05000800000000F9010008991800086D
:1000400077020008770200087702000877020008AC
:10005000770200087702000877020008770200089C
:10006000770200087702000877020008770200088C
:10007000770200087702000877020008770200087C
:10008000770200087702000877020008770200086C
:10009000770200087702000877020008770200085C
:1000A000770200087702000877020008770200084C
:1000B0007702000877020008651900087702000837
:1000C000770200087702000877020008770200082C
:1000D000770200087702000877020008770200081C
:1000E000770200087702000877020008770200080C
:1000F00077020008770200087702000877020008FC
:1001000077020008770200087702000877020008EB
:1001100077020008D91B0008770200087702000860
:1001200077020008770200087702000877020008CB
:1001300077020008770200087702000877020008BB
:1001400077020008770200087702000877020008AB
:10015000770200087702000877020008770200089B
:10016000770200087702000877020008770200088B
:1001700077020008770200087702000800000000FC
:100180007702000877020008DFF80CD000F0EAF9E7
:1001900000480047751E0008384500202C4B1968A0
:1001A0000868B0E8F04F80F30988BFF36F8F4FF015
:1001B000000080F3118870470000000008480068C4
:1001C000006880F308884FF0000080F3148862B65E
:1001D00061B6BFF34F8FBFF36F8F00DF00BF00BF6B
:1001E00008ED00E0DFF80C00016841F470010160E7
:1001F000704700BF88ED00E0EFF30980BFF36F8F19
:10020000134B1A681EF0100F08BF20ED108A20E96A
:10021000F04F106009B44FF0500080F31188BFF325
:100220004F8FBFF36F8F02F031FA4FF0000080F371
:10023000118809BC19680868B0E8F04F1EF0100F6B
:1002400008BFB0EC108A80F30988BFF36F8F704746
:1002500054000020EFF305807047000006488047F7
:1002600006480047FEE7FEE7FEE7FEE7FEE7FEE79B
:10027000FEE7FEE7FEE7FEE74919000889010008EE
:100280002DE9F05F0546002092469B4688460646CB
:10029000814640241BE0284641464746224600F05E
:1002A000F4F853465A46C01A914110D311461846E5
:1002B000224600F0DBF82D1A67EB01084F46224674
:1002C0000120002100F0D2F817EB00094E41201E5A
:1002D000A4F10104DFDC484631462A464346BDE826
:1002E000F09F40EA01039B0703D009E008C9121FF1
:1002F00008C0042AFAD203E011F8013B00F8013BE0
:10030000521EF9D27047D2B201E000F8012B491E0B
:10031000FBD270470022F6E710B513460A460446A2
:100320001946FFF7F0FF204610BD2DE9F04D81EA98
:10033000030404F0004B21F0004514464FF0000A7E
:1003400023F0004150EA050220D054EA01021DD0FA
:10035000C5F30A570246C5F31303C1F31300C1F3F3
:100360000A5640F4801543F48013A7EB0608101BCF
:10037000D64608F2FD3873EB050002D308F10108F8
:1003800001E092185B41B8F1000F03DA002001464A
:10039000BDE8F08D00204FF48011064684460EE043
:1003A000171B73EB050705D3121B63EB050306430D
:1003B0004CEA010C49084FEA300092185B4150EAC0
:1003C0000107EDD152EA030012D082EA040083EA69
:1003D0000501084305D0101BAB4106D201220023C2
:1003E00006E000224FF0004302E06FF001025310DC
:1003F0001AEB06004CEB085110EB0A0041EB0B0125
:10040000BDE8F04D00F051B870B5C1F30A5201F0EB
:1004100000450024C1F3130140F2FF3341F4801181
:100420009A4201DA002070BD40F233439A42A2F2B0
:10043000334203DC524200F028F800E090402C43A5
:10044000F1D0404270BD00F0004230F000400AD0D0
:10045000C10D01F56071C0F3160042EA0151C208F6
:10046000400711437047002001467047202A04DBF3
:10047000203A00FA02F1002070479140C2F12003B7
:1004800020FA03F3194390407047202A04DB203AF6
:1004900021FA02F00021704721FA02F3D040C2F1A4
:1004A0002002914008431946704710B5141E73F19D
:1004B000000408DA401C41F1000192185B411A4324
:1004C00001D120F0010010BD2DE9F04D92469B4670
:1004D00011B1B1FA81F202E0B0FA80F22032904616
:1004E000FFF7C4FF04460F4640EA0A0041EA0B0149
:1004F00053465A46084313D0114653EA010019D017
:10050000C8F140025046FFF7C0FF05460E46504670
:1005100059464246FFF7AAFF084305D0012004E0F0
:1005200020463946BDE8F08D0020054346EAE076D6
:100530002C4337430A986305E40AA0EB0800002225
:10054000FD0A44EA47540A3002D500200146E9E793
:10055000010510196941DDE9084500196941BDE847
:10056000F04DA2E7064C074D06E0E06840F00103BD
:1005700094E8070098471034AC42F6D3FFF708FE22
:10058000582A0008782A0008FEE7704790F83510CE
:10059000022903D08021416501207047052180F8A0
:1005A00035100068016821F00101016000207047EA
:1005B0002DE9F84F00224FF0010803254FF00F0EF0
:1005C0000B6808FA02F42340A3426ED14E68012E54
:1005D00005D0022E03D0112E01D0122E12D1866822
:1005E0004FEA420C05FA0CF7BE43CF6807FA0CF746
:1005F000374387604668A6430C79C4F300149440DF
:1006000034434460C668570005FA07FC8C6826EA44
:100610000C06BC403443C4604C68022C01D0122C40
:1006200013D1D40800EB8404A346D4F820905407D7
:100630004FEAD46A0EFA0AF629EA06090E6906FAA2
:100640000AF646EA0906CBF8206006680C7926EA25
:100650000C0604F00304BC40344304604C68E4001E
:1006600065D5364C266846F480462660246822F01C
:10067000030604F480440094314C3444A446D4F876
:1006800008489607370F0EFA07F6B4432D4EB042CE
:1006900001D1002624E02C4EB04201D101261FE0FA
:1006A0002A4EB04202D102261AE040E0284EB04263
:1006B00001D1032614E0274EB04201D104260FE0F9
:1006C000254EB04201D105260AE0244EB04201D1A8
:1006D000062605E0224EB04201D1072600E008269A
:1006E000BE402643CCF808681E4E34684F689C43D1
:1006F000FF0300D51C4334601A4C241D26684F6844
:100700009E43BF0300D51E432660164E083634684C
:100710004F689C43FF0200D51C433460114E0C36D9
:1007200034684F689C43BF0200D51C433460521CA0
:10073000102AFFF445AFBDE8F88F000044380240AE
:100740000030014000000240000402400008024066
:10075000000C024000100240001402400018024049
:10076000001C0240003C01400AB18161704709044D
:10077000FBE700000148806870470000440000204B
:10078000024881680278114481607047440000206B
:100790000B4810B5016841F400710160016841F433
:1007A00080610160016841F480710160032000F004
:1007B0008DF8002000F006F800F03EF8002010BD93
:1007C000003C024010B5014688B000221E2000F017
:1007D0005DF81E2000F04CF813480024016841F039
:1007E00004010160006805A900F004000690684655
:1007F00000F018F900F036F90C494000B0FBF1F1B7
:100800000C480B4A491E026040F2E732C0E903245B
:10081000C0E9011400F070FB10B1012008B010BD58
:10082000044800F085FBF9E74038024040420F00E1
:1008300000080040080400200C4882B0016841F420
:1008400080410160006800F4804000900748001F6C
:10085000016841F0805101600068002200F0805082
:1008600000900F21901E02B000F010B844380240F2
:10087000002809DB00F01F0201219140400980009F
:1008800000F1E020C0F8001170470000F0B40E4BFA
:100890001B680C46C3F30223C3F10705042D00D9DE
:1008A0000425191D072901D2002300E0DB1E0126C3
:1008B00006FA05F1491E214099409E40761E1640D9
:1008C0003143F0BC01F0B6BA0CED00E0064900F08F
:1008D000070208684FF6FF03184040EA0220034A67
:1008E00010430860704700000CED00E00000FA05BE
:1008F0002DE9F0470E46050065D0DFF81481D8F8E1
:100900000000F7B200F00F00B04207D288F8007084
:10091000D8F8000000F00F00B04254D128683D4CD8
:10092000810712D5400703D5206840F4E0502060CD
:100930002878000703D5206840F4604020602068D4
:10094000A96820F0F000084320602878C0072DD067
:10095000304968680839012812D0022813D00328CA
:1009600011D00968890700292DDA216821F00301D7
:1009700001432160FFF7FEFE814641F2883A0EE016
:1009800009688903EFE709688901ECE7FFF7F2FEE0
:10099000A0EB0901514502D90320BDE8F08720688A
:1009A000696800F00C00B0EB810FEFD1D8F80010AF
:1009B000404601F00F01B14207D90770006800F00E
:1009C0000F00B04201D00120E7E72878400705D5A5
:1009D0002068E96820F4E050084320602878000788
:1009E00006D52068296920F4604040EAC1002060F3
:1009F00000F058F82168084AC1F30311515CC8405F
:100A00000649086006480068FFF7DCFE0020C4E7DE
:100A1000003C024008380240342A00085000002000
:100A2000480000200F2202600C4A136803F0030301
:100A30004360136803F0F0038360136803F4E0532A
:100A4000C36012684FF4E05303EAD2020261044823
:100A5000006800F00F00086070470000083802408E
:100A6000003C02400448054900680968044AC1F393
:100A70008221515CC8407047500000200838024075
:100A8000442A00080448054900680968044AC1F37B
:100A90004231515CC8407047500000200838024085
:100AA000442A0008154810B5006810F00C021448DC
:100AB00013D01449042A0FD0082A0ED10F4C241F3A
:100AC0002268236802F03F025B0207D52068C0F36A
:100AD0008810A0FB010106E0084610BD2168C1F3A3
:100AE0008811A1FB00010023FFF7CAFB2168C1F3B5
:100AF0000141491C4900B0FBF1F010BD083802402B
:100B00000024F40040787D012DE9F84F04006ED0F8
:100B10002078DFF83C93C007A9F104054AD009F119
:100B200004000168C1F38101012908D00068C0F305
:100B3000810002280AD1D9F80000400206D52868B1
:100B4000800337D560680028E1D033E06068B0F5F5
:100B5000803F10D0B0F5A02F286810D020F480304E
:100B60002860286820F4802028606068A8B1FFF71A
:100B700001FE06460DE0286840F48030F4E740F4BA
:100B800080202860F7E700BFFFF7F4FD801B642892
:100B900073D828688003F7D50CE0FFF7EBFD064615
:100BA00005E000BFFFF7E6FD801B6428F0D8286849
:100BB0008003F7D42078DFF89C8280074FF0000A8A
:100BC0003ED5A348001D016811F00C0F08D0006845
:100BD000C0F3810002280BD1D9F80000400207D4ED
:100BE0002868800716D5E068012800D112E02BE1C3
:100BF000E068B8B10120C8F80000FFF7BBFD064669
:100C000005E000BFFFF7B6FD801B0228C0D82868AA
:100C10008007F7D52868216920F0F80040EAC10074
:100C200028600DE0C8F800A0FFF7A4FD064604E028
:100C3000FFF7A0FD801B02281FD828688007F7D483
:100C40002078000722D5824E83486169703671B1E1
:100C500001210160FFF78EFD074604E0FFF78AFDE2
:100C6000C01B022809D830688007F7D50EE0C0F80D
:100C700000A0FFF77FFD074605E082E0FFF77AFD61
:100C8000C01B02287DD830688007F7D42078400741
:100C900068D5DFF8BCB100270BF13C0BDBF8000096
:100CA000C0000BD4DBF8001041F08051CBF80010ED
:100CB000DBF80000012700F080500090674E30689C
:100CC000C00510D4306840F480703060FFF752FDEA
:100CD000009005E0FFF74EFD0099401A022850D819
:100CE0003068C005F6D55A4EA0686C3601280FD082
:100CF0000528306810D020F001003060306820F006
:100D000004003060A068B8B1FFF734FD00900FE038
:100D1000306840F00100F4E740F004003060F7E78D
:100D2000FFF728FD0099411A41F28830814266D8C8
:100D300030688007F4D50EE0FFF71CFD009007E057
:100D4000FFF718FD0099411A41F28830814256D8C8
:100D500030688007F4D42FB1DBF8001021F0805107
:100D6000CBF80010A069C8B33949091D0968C1F35F
:100D7000810102294AD00228504607D0C8F86000F5
:100D800000E03CE0FFF7F6FC04463BE04746C8F8CD
:100D90006000FFF7EFFC064605E000BFFFF7EAFC46
:100DA000801B02282BD828688001F7D4D4E90701DA
:100DB0000843A16A2A4A490802EB0141626A41EAF2
:100DC0008211084394F82C1040EA0161C9F8001020
:100DD00001203866FFF7CEFC044606E036E000BF8F
:100DE000FFF7C8FC001B022809D828688001F7D546
:100DF0002CE000BFFFF7BEFC001B022802D9032035
:100E0000BDE8F88F28688001F4D41FE00128F7D0EE
:100E1000D9F80000E26900F48001914214D1226AFD
:100E200000F03F0191420FD147F6C071626A014064
:100E3000914209D1A26A00F44031914204D1E16AA1
:100E400000F07060884201D00120D9E70020D7E788
:100E50000438024000004742800E474200700040C4
:100E60000000FFFF7047704770B590F83C20012AE2
:100E700032D0012480F83C40022280F83D200368F3
:100E80005A689D6822F070060A6832435A60134B14
:100E900002689A4214D0B2F1804F11D0104B9A429E
:100EA0000ED0104B9A420BD00F4B9A4208D00F4BEA
:100EB0009A4205D00E4B9A4202D00E4B9A4204D170
:100EC000496825F080031943916080F83D40002176
:100ED00080F83C10084670BD022070BD0000014043
:100EE0000004004000080040000C004000040140E5
:100EF000004001400018004010B5040003D094F8F1
:100F00003D0010B107E0012010BD002084F83C0036
:100F1000204600F00CF8022084F83D00211D2068D6
:100F200000F026FD012084F83D00002010BD704730
:100F30000168CA6842F00102CA600068816801F075
:100F40000701062903D0016841F00101016000207A
:100F50007047704770B50446006801694FF000059E
:100F6000C943890715D4C168C943890711D4E91E4B
:100F7000016101202077206880698007204602D027
:100F8000FFF7E7FF04E000F0D9F8204600F078F919
:100F9000257720680169C943490717D4C168C94347
:100FA000490713D46FF00401016102202077206803
:100FB000806910F4407F204602D0FFF7CAFF04E0AA
:100FC00000F0BCF8204600F05BF925772068016945
:100FD000C943090716D4C168C943090712D46FF081
:100FE00008010161042020772068C069800720463D
:100FF00002D0FFF7AEFF04E000F0A0F8204600F0BA
:101000003FF9257720680169C943C90617D4C1682B
:10101000C943C90613D46FF010010161082020777D
:101020002068C06910F4407F204602D0FFF791FF8E
:1010300004E000F083F8204600F022F925772068CC
:101040000169C943C90708D1C168C943C90704D1A7
:10105000891E0161204600F037F920680169C94303
:10106000090609D4C168C943090605D46FF0800197
:1010700001612046FFF7F6FE20680169C943490671
:1010800009D4C168C943490605D46FF04001016124
:10109000204600F023F920680169C94389060BD472
:1010A000C168C943890607D46FF020010161204659
:1010B000BDE87040FFF7D7BE70BD000030B587B007
:1010C000044614216846FFF725F9246800211748D3
:1010D00002220123B4F1804F16D0154DAC4211D13C
:1010E000046844F0020404600068009300F0020009
:1010F0000590CDE90121CDE903120E48694600BFF4
:10110000FFF756FA07B030BD046844F001040460EC
:10111000006800F0010005904FF400400090CDE918
:101120000121CDE9031369460348E9E7303802405D
:10113000000400400004024000000240704770B507
:10114000044690F83C000D4601280DD0012684F895
:101150003C60022084F83D0042B1042A18D0082ADD
:101160002AD00C2A4DD139E0022070BD206800F051
:1011700071FC2068816941F0080181612068816902
:1011800021F004018161206881692A69114311E01D
:10119000206800F08FFC2068816941F40061816162
:1011A0002068816921F480618161206881692A69F0
:1011B00041EA0221816124E0206800F0B1FC20684E
:1011C000C16941F00801C1612068C16921F00401D1
:1011D000C1612068C1692A69114311E0206800F0EB
:1011E000D3FC2068C16941F40061C1612068C16914
:1011F00021F48061C1612068C1692A6941EA022144
:10120000C16184F83D60002084F83C0070BD10B5D9
:10121000040003D094F83D0010B107E0012010BD98
:10122000002084F83C00204600F00CF8022084F8EE
:101230003D00211D206800F09BFB012084F83D004B
:10124000002010BD08B501680B48B1F1804F0BD0EC
:101250000A4A914207D1016841F002010160006829
:1012600000F00200009008BD016841F0010101603A
:10127000006800F00100F5E740380240000400403B
:101280007047000010B504460068012200F0D4FB4E
:101290000B492068884202D00A49884203D1416C38
:1012A00041F4004141642068816801F0070106298A
:1012B00003D0016841F001010160002010BD000071
:1012C000000001400004014000680349884201D148
:1012D000FFF756BA7047000000080040704770479B
:1012E00070B5026804461068D168536910F00F0F9A
:1012F00053D003F0010501F490762E435FD0C2076E
:1013000005D0CA0503D5E26B42F00102E263420751
:1013100005D5DA0703D0E26B42F00202E2638207EE
:1013200005D5DA0703D0E26B42F00402E26302075C
:1013300007D501F020022A4303D0E26B42F00802F5
:10134000E263E26B002A34D0800604D5880602D519
:10135000204600F05DFC20684069E16BC0F380101E
:1013600001F008010143204624D000F043FC20682E
:10137000416949061AD5416921F040014161606B1C
:10138000A0B11B490165606BFFF700F9002810D080
:10139000606B016DBDE87040084783060FD58B0672
:1013A0000DD52046BDE8704000F032BC2046FFF766
:1013B00096FF70BDFFF793FF0020E06370BD03064A
:1013C00006D50B0604D52046BDE8704000F000BDF0
:1013D0004006F3D54806F1D5D168204621F04001FA
:1013E000D160202184F8391000F0ABF870BD000006
:1013F000E51B000870B5040004D094F839000025FE
:1014000010B106E0012070BD84F83850204600F08D
:1014100023F8242084F839002068C16821F40051A1
:10142000C160204600F040FC2068016921F4904131
:1014300001612068416921F02A0141612068C16889
:1014400041F40051C160E563202084F8390084F83C
:101450003A00002070BD00002DE9F04186B004463E
:1014600014216846FEF756FF3148304E23680022AB
:101470002F49103802240325DFF8B880B34236D153
:101480000A6842F480120A60096801F4801105912B
:10149000016841F004010160016801F00401059157
:1014A000016841F0080101600068012600F00800B1
:1014B000059098148DE851000827CDE90357694637
:1014C0001D48FFF775F804208DE85100CDE903575A
:1014D00069464046FFF76CF8002205213520FFF7EA
:1014E000D5F93520FFF7C4F906B0BDE8F081134EF9
:1014F000B342F9D10B6843F400330B60096801F47F
:1015000000310591016841F0080101600068029214
:1015100000F0080005906020CDE900040720CDE927
:10152000035069464046FFF743F8DDE700500040AE
:1015300040380240000C02400008024000440040D5
:1015400070477047FEE700002DE9F04F87B0142187
:101550006846FEF7DFFE5A480025016841F0100199
:101560000160016801F010010591016841F480718A
:101570000160016801F480710591016841F020016A
:101580000160016801F020010591016841F004014A
:101590000160016801F004010591016841F0010159
:1015A0000160016801F001010591016841F002014B
:1015B0000160016801F002010591016841F08001BC
:1015C0000160016801F080010591016841F00801A6
:1015D00001600068DFF8ECA000F00800059001222F
:1015E00060215046FFF7C0F8DFF8DCB040F2E44776
:1015F000012239465846FFF7B7F801220221334845
:10160000FFF7B2F8002209213148FFF7ADF80022B8
:1016100050213048FFF7A8F84FF4007801224146E6
:101620002D48FFF7A1F840F60809012249462B484A
:10163000FFF79AF8012211022548FFF795F860207C
:1016400001260224CDE90006CDE902546946504640
:10165000FEF7AEFFCDE90254CDE900766946584663
:10166000FEF7A6FFCDE90046CDE9025469461748CA
:10167000FEF79EFF40F20910CDE90006CDE90254C5
:1016800069461348FEF794FF5020CDE90006CDE9E6
:10169000025469460F48FEF78BFFCDE90254CDE9AD
:1016A000008669460C48FEF783FFCDE90254CDE978
:1016B000009669460948FEF77BFF07B0BDE8F08F4A
:1016C0003038024000100240002002400014024066
:1016D0000008024000000240001C0240000C0240D2
:1016E00010B58AB0002407941C2168460894FEF7C0
:1016F00011FE14484FF08041C0E900144FF47A7194
:10170000C0E90241802104618161FFF780FD0794F7
:1017100007A90C480894FFF7A7FB60200090C82099
:10172000CDE901040022694606480494FFF707FD4D
:1017300000210448FFF7A6FD0248FFF7BFFC0AB0EE
:1017400010BD0000B400002010B58AB0002407943A
:101750001C2168460894FEF7DDFD12481049C0E9D7
:1017600000144FF47A71C0E9024180210461816163
:10177000FFF74DFD079407A90A480894FFF774FB8B
:101780006020CDE9000402940822694605480494CB
:10179000FFF7D5FC0348FFF791FC0AB010BD00002D
:1017A00000040040F4000020FEE770470122354DA0
:1017B00094022DED028B82B021462846FEF7D4FF1D
:1017C000C82000F09DFB002221462846FEF7CCFFF2
:1017D000C82000F095FB4FF080484FF4FA77C8F826
:1017E00034700A240025294ECDE900549FED268A45
:1017F00096E80F00B0EE480A00F0E0FDCDE9005495
:101800001036B0EE480A96E80F00103E00F0D6FD04
:10181000CDE900542036B0EE480A96E80F00203E8D
:1018200000F0CCFDCDE900543036B0EE480A96E821
:101830000F0000F0C3FDB9464446154E154F4FF456
:1018400000754FF47A78002229463046FEF78CFF67
:10185000002240213846FEF787FF404600F050FB4B
:1018600000206063012229463046FEF77DFF0122F9
:1018700040213846FEF778FF404600F041FBC4F8AF
:101880003490E0E7002002400000B4420000002055
:10189000001C02400000024010B5502080F3118867
:1018A000BFF34F8FBFF36F8F00F0F0FF18B1044903
:1018B0004FF080500860002080F3118810BD0000B8
:1018C00004ED00E030B593B030216846FEF722FD0C
:1018D00014210CA8FEF71EFD19480025016841F0EF
:1018E00080510160006800F0805011901548016837
:1018F00041F4804101600068022400F480401190AE
:101900000120039010200490009406940820CDE953
:101910000750A820CDE9090404200B906846FFF782
:10192000F3F80CA90F2081E831004FF4A0500F907C
:10193000E002109005210CA8FEF7DAFF13B030BDCD
:1019400040380240007000400548016841F47001D1
:10195000016003494FF00060803908607047000063
:1019600088ED00E00148FFF7F5BA00000804002008
:10197000F0B50268254C264D264E274F274B4FF0D9
:10198000804CA04209D0604507D0A84205D0B042A3
:1019900003D0B84201D0984204D122F0700E4A68B8
:1019A00042EA0E02A0421BD0604519D0A84217D0CF
:1019B000B04215D0B84213D0984211D0184DA84269
:1019C0000ED0184DA8420BD0174DA84208D0174D85
:1019D000A84205D0164DA84202D0164DA84203D108
:1019E00022F44075CA682A434D6922F080022A43D6
:1019F00002608A68C2620A688262A04201D098428C
:101A000001D10969016301214161F0BD000001407C
:101A10000004004000080040000C004000040140A9
:101A200000400140004401400048014000180040CF
:101A3000001C00400020004010B501F01F030121F0
:101A4000046A99408C430462016A9A40114301621E
:101A500010BD0000F0B5026A22F001020262036AC2
:101A600042688469124E24F073050C682C4323F0FD
:101A700002058B682B430D4DA84201D0B04205D121
:101A800023F00807CB683B4323F00403A84201D0AE
:101A9000B04205D14D6922F4407215438A692A4348
:101AA00042608461496841630362F0BD0000014007
:101AB00000040140F0B5026A22F010020262026ADC
:101AC000436884690D6824F4E64444EA05248D687B
:101AD00022F0200242EA05120F4D104EA84201D01A
:101AE000B04206D1CF6822F0800242EA071222F00B
:101AF0004002A84201D0B04207D14D6923F44063AF
:101B000043EA85038D6943EA85034360846149683C
:101B100081630262F0BD000000000140000401404A
:101B2000F0B5026A22F480720262026A4368C469F4
:101B300022F4007224F073050C68124E2C438D6859
:101B400042EA05220E4DA84201D0B04206D1CF682C
:101B500022F4006242EA072222F48062A84201D005
:101B6000B04207D14D6923F4405343EA05138D6910
:101B700043EA05134360C4614968C1630262F0BD72
:101B8000000001400004014030B5026A22F4805296
:101B90000262046A4268C3690D6823F4E64343EABB
:101BA00005238D6824F4005444EA0534084DA84206
:101BB00002D0084DA84204D14D6922F4804242EA85
:101BC00085124260C36149680164046230BD00004F
:101BD00000000140000401400148FFF781BB000004
:101BE0003401002010B5806B0021C185C184FFF74E
:101BF00076FB10BD0168CA6822F49072CA60016861
:101C00004A6922F001024A61202180F83A107047A7
:101C100010B590F83A10222901D0022010BD816839
:101C2000B1F5805F11D00169002901681FD04968B2
:101C300001F07F03816A4A1C82620B70C18D491ECC
:101C40000904090CC18518D02BE00269816A002AB9
:101C50000268526805D0D2B20A80816A491C81624A
:101C6000ECE7C2F308020A80816A891CF7E74A6838
:101C7000816A4B1C83620A70E0E70168CA6822F03F
:101C80002002CA600168CA6822F48072CA600168D2
:101C90004A6922F001024A61202180F83A10FFF7D8
:101CA0004FFC002010BD00002DE9F0410446006803
:101CB0000169E26821F44051114301612169A06882
:101CC000E26908436169114308432168CA6849F21F
:101CD0000C639A430243CA6020684169A26921F4F7
:101CE000407111434161E069192764253226B0F53E
:101CF000004F354A354920684FF0000806D0884229
:101D000001D0904236D1FEF7BDFE35E0884201D0C9
:101D1000904202D1FEF7B6FE01E0FEF7A3FE616835
:101D20004A18A0FB070148EB0803FEF7A9FA014691
:101D3000B0FBF5F00201B1FBF5F06FF0180358436A
:101D400001EB800006EBC000B0FBF5F000F0F800FE
:101D500002EB4002B1FBF5F0584301EB800006EBCB
:101D6000C000B0FBF5F000F0070021681044886067
:101D7000BDE8F081FEF776FE61688B0F8A00A0FB5C
:101D80000701FEF77DFA0146B0FBF5F06FF018028F
:101D9000504301EB800006EB0010B0FBF5F000F0C3
:101DA000F002B1FBF5F002EB0012B1FBF5F06FF0C1
:101DB0001803584301EB800006EB0010B0FBF5F070
:101DC00000F00F00D1E700000014014000100140B6
:101DD00090F83910212901D0022070478168B1F5AF
:101DE000805F016A0BD04A1C026202680978516068
:101DF000C18C491E0904090CC1840ED017E0098862
:101E00000268C1F30801516001690029016A02D02A
:101E1000491C0162ECE7891CFBE70168CA6822F0F3
:101E20008002CA600068C16841F04001C1600020C2
:101E30007047FEE70907090E002804DB00F1E020E7
:101E400080F80014704700F00F0000F1E02080F8E7
:101E5000141D704702E008C8121F08C1002AFAD1F9
:101E600070477047002001E001C1121F002AFBD11A
:101E70007047000088B0FEF78BFCFFF723FDFFF7EB
:101E800063FB184816494FF4E13500240160C0E9AE
:101E900001540C26C460C0E904468461C461FFF7A4
:101EA000A9FAFFF71DFCFFF74FFC0E480E4940381A
:101EB0000160C0E90154C460C0E904468461C461A2
:101EC000FFF798FA1C2209496846FEF70AFA002132
:101ED000684600F021F80649086000F018F8FEE7AF
:101EE000004400407401002000500040182A0008FF
:101EF0004000002001460020842900D0C81C704703
:101F000010B500B9012000F05DFB002010BD10B538
:101F100000F07EFB002010BD7FB50D4604464169F0
:101F2000B0F9080081B1A16971B1FFF7E3FFD4E90D
:101F300005128DE80700D4E900102B46226900F055
:101F40007AFC039004B070BDFFF7D4FF03A9CDE97C
:101F50000001208A2B4682B2D4E9001000F03EFC3A
:101F6000012801D00020EDE70398EBE72DE9F041CF
:101F7000184C0F46054666692068001D00F05EFAA1
:101F800038B9206890F82C1001208840A16981435D
:101F9000A161681C07D137B12168BDE8F0410E4846
:101FA000091D00F08FBA20683544B54245602168AC
:101FB00005D2A068BDE8F041091D00F06BBA606869
:101FC000091D00F067FA206B854200D22563BDE849
:101FD000F081000054000020240500202DE9F0418C
:101FE000054600F07BFA2E4C2069401C20612068D9
:101FF0002C4F10B1E06940B32DE025602069012825
:1020000029D1002606EB860007EB800000F034FAA9
:10201000761C072EF6D323488C3000F02DFA214889
:10202000A03000F029FA1F48B43000F025FA1D480E
:10203000C83000F021FA1B48DC3000F01DFA1948C6
:102040008C3060601430A06005E02068E96AC06AE6
:10205000884200D82560E06A401CE062E96A0120FD
:10206000A26988401043A06101EB810007EB80006A
:10207000291D00F027FA00F051FAE06900280CD081
:102080002068E96AC06A884207D207494FF0805049
:102090000860BFF34F8FBFF36F8FBDE8F081000082
:1020A000540000204804002004ED00E010B5044670
:1020B00090F8510058B101280CD002280FD05020C0
:1020C00080F31188BFF34F8FBFF36F8FFEE7206B54
:1020D00000F038FA2046BDE8104000F033BA10BDD9
:1020E00010484FF47051420706D0C01D0D4920F032
:1020F0000700411AC1F570510B4A00230144C2E99F
:1021000000030839103A21F0070111604B600B60A1
:102110000B1AC0E9001393604FF000405360D06089
:102120007047000038050020A0000020144E154C18
:10213000A6F1C8074FF08058DFF84C9012E000BFBE
:1021400000F0CCF9F068C568281D00F077F9206927
:10215000401E2061E068401EE06000F0DFF9284684
:10216000FFF7A4FFE0680028EAD138680128F9D910
:10217000C9F80080BFF34F8FBFF36F8FF2E7000005
:10218000100500205400002004ED00E02DE9F04788
:102190009A46DDE9098481466FF00303206B03EB67
:1021A00082021044089E20F00707780707D05020CD
:1021B00080F31188BFF34F8FBFF36F8FFEE70025C9
:1021C00061B1002023180A5C83F834200A5C12B144
:1021D000401C1028F6D384F8435001E084F83450B2
:1021E000072E00D30626E662C4E91165201D00F023
:1021F0004EF904F1180000F04AF92461C6F1070015
:102200006462A061E56484F85050524649463846FD
:1022100000F0BEF82060B8F1000F01D0C8F800400F
:10222000BDE8F08730B5114900E011460A688242E6
:10223000FBD34B685C18844203D140681844486063
:10224000084643681C18944209D1084C103C246885
:10225000A24209D052681A4442600A6812680260B9
:10226000814200D0086030BD0460F9E7A000002082
:1022700006484168096829B14168C968C968496860
:10228000016370474FF0FF31FAE70000540000206F
:1022900008484068401C4FF0500080F3118804D07B
:1022A000BFF34F8FBFF36F8FFEE7BFF34F8FBFF3C7
:1022B0006F8FFEE7A80000202DE9F04105460027BA
:1022C00000F0DCF9314E306808B9FFF709FFF0681B
:1022D00005424BD1C5B3083568070ED005F007009D
:1022E000C0F108000544680707D0502080F311882A
:1022F000BFF34F8FBFF36F8FFEE72DB3706885423A
:1023000034D82248103001460C6801E020460C46C3
:102310006168A94202D221680029F7D131688C4254
:1023200024D007682168016060680837411B1029C4
:102330000FD96019420708D0502080F31188BFF3ED
:102340004F8FBFF36F8FFEE710E041606560FFF7CE
:1023500069FF61687068401A7060B268904200D28C
:10236000B060F06801430020C4E9000100F0F2FA17
:10237000780707D0502080F31188BFF34F8FBFF349
:102380006F8FFEE73846BDE8F08100009000002026
:1023900010B5031F4FF080741C601B1F21F001015A
:1023A0001960191F044B0B6014390A60091F6FF084
:1023B000020244380A6010BD912200082DE9F0475E
:1023C00004460F461546984610EE100ADDF8209098
:1023D000FEF739F89FED171B53EC112BFDF7A5FF06
:1023E000FEF712F80646B9F1000F01D0012200E015
:1023F00000221FFA88F12846FEF7B6F90120FFF700
:102400007FFD0025BFB210E0204601223946FEF7CD
:10241000ABF90120FFF774FD204600223946FEF794
:10242000A3F90120FFF76CFD6D1CB542ECDBBDE8A4
:10243000F0870000CDCCCCCCCCCCDC3FD0E9013255
:1024400001699A60D0E901235A604A68824201D149
:1024500082684A60002202610868401E08600868BD
:1024600070470000034B036003F1540008608020B4
:1024700010607047B401002000F108014FF0FF32F6
:10248000C0E90112C16001610021016070470021B3
:102490000161704730B50B685A1C02D000F1080288
:1024A00002E0026904E02246546825689D42FAD998
:1024B00053684B6099608A60516008610168491CEB
:1024C000016030BD42684A6093688B6093685960D0
:1024D000916008610168491C01607047502080F3D9
:1024E0001188BFF34F8FBFF36F8F0A494868401CB4
:1024F000486001280CD10848006810F0FF0F07D091
:10250000502080F31188BFF34F8FBFF36F8FFEE72A
:1025100070470000A800002004ED00E0084948686A
:1025200028B1401E486001D180F3118870475020C7
:1025300080F31188BFF34F8FBFF36F8FFEE700006A
:10254000A800002070B5002827D0144DA0F1080481
:102550006168E868014207D1502080F31188BFF319
:102560004F8FBFF36F8FFEE722683AB1502080F3A0
:102570001188BFF34F8FBFF36F8FFEE78143616018
:1025800000F07CF860686968084468602046FFF7DE
:1025900049FEBDE8704000F0DDB970BD900000203C
:1025A0004FF0E02000210161816105494FF47A720A
:1025B0000968B1FBF2F1491E4161072101617047D1
:1025C0005000002010B5020014D00F48806B38B1C5
:1025D000502080F31188BFF34F8FBFF36F8FFEE75A
:1025E00000F04CF800211046FFF7C0FC00F0B2F9F3
:1025F000002807D105494FF080500860BFF34F8F86
:10260000BFF36F8F10BD00005400002004ED00E008
:1026100010B586B00024039405AA04A903A8049465
:10262000FFF720FFDDE903010094CDE9011000234D
:102630000EA11048059A00F0FEF80F4900284863E3
:1026400011D0502080F31188BFF34F8FBFF36F8FED
:102650004FF0FF3008630120C8614C6106B0BDE84F
:10266000104000F041B806B010BD000049444C4590
:10267000000000002D210008540000200248816B5A
:10268000491C816370470000540000201448816B8E
:1026900011B1012141627047002141628169B1FAA3
:1026A00081F1C1F11F0101EB81020E4951F8223085
:1026B0006BB101EB820101F108034A6852684A607C
:1026C0009A4201D152684A60D16801607047502037
:1026D00080F31188BFF34F8FBFF36F8FFEE70000C9
:1026E00054000020480400201CB537480168374AD0
:1026F000914207D1502080F31188BFF34F8FBFF371
:102700006F8FFEE700683149491E884207D150208B
:1027100080F31188BFF34F8FBFF36F8FFEE72C4913
:1027200008780190FF20087008788DF800009DF867
:1027300000009DF8002000F0F000904207D05020EB
:1027400080F31188BFF34F8FBFF36F8FFEE79DF8C3
:102750000000204B00F0500018700720986005E042
:102760009DF8002052008DF80020401E9DF80020AA
:102770001206F5D49860032807D0502080F3118802
:10278000BFF34F8FBFF36F8FFEE74FF44070986039
:10279000019808700C482030016841F47001016014
:1027A000016841F070410160FFF7FAFE00205860B7
:1027B000FDF718FD0848016841F040410160FDF750
:1027C000FDFC00201CBD000000ED00E071C20F41C7
:1027D00000E400E0A800002034EF00E02DE9FF5FF6
:1027E0008346DDE90E87994616468A469000FFF734
:1027F00063FD05001CD05420FFF75EFD040014D0DB
:102800000020256384F85100CDE90240CDE900871E
:102810004B46324651465846FFF7B8FC2046FFF774
:10282000DDFB012004B0BDE8F09F2846FFF78AFEDB
:102830004FF0FF30F6E7F0B585B0DDE90B640A9D97
:10284000A6B1DCB1542700972663022684F85160B4
:10285000002604AFCDE90246CDE90057FFF796FC0C
:102860002046FFF7BBFB049805B0F0BD502080F375
:102870001188BFF34F8FBFF36F8FFEE7502080F3B7
:102880001188BFF34F8FBFF36F8FFEE72DE9F04143
:102890002E4C0027A06B40B1206A401C2062606A69
:1028A00000B101273846BDE8F0816669761C666193
:1028B00013D16068006838B1502080F31188BFF3ED
:1028C0004F8FBFF36F8FFEE76068A1686160A06003
:1028D000A06A401CA062FFF7CBFC206BDFF8708081
:1028E000864209D36068006880B16068C068C568C6
:1028F000686886420DD220632068C06A00EB8001C0
:1029000058F821000128CAD90127C8E74FF0FF3045
:10291000F1E7281DFFF792FDA86A18B105F118002C
:10292000FFF78CFDE86A0121A26981401143A16192
:1029300000EB800108EB8100291DFFF7C3FDE86A69
:102940002168C96A8842CDD30127CBE75400002013
:10295000480400202DE9F0472C4D00242746A86BA1
:1029600038B1FFF7BBFDA86B401EA863A86B40B150
:1029700046E0502080F31188BFF34F8FBFF36F8F75
:10298000FEE72969224E0120D1B3A6F1B4098046A1
:102990003068E8B1F068C46804F11800FFF74EFD34
:1029A000201DFFF74BFDE06AAA6908FA00F1114308
:1029B000A96100EB800109EB8100211DFFF782FD79
:1029C000E06A2968C96A8842E2D3C5F82480DFE753
:1029D0000CB1FFF74DFC2C6A44B14646FFF756FF99
:1029E00000B16E62641EF9D100202862686A38B1B5
:1029F0000849012738070860BFF34F8FBFF36F8F77
:102A0000FFF78CFD3846BDE8F08700005400002039
:102A1000FC04002004ED00E04C2A0008AD1700087B
:102A20000000000000000000800000000000000026
:102A3000000000000000000000000000010203048C
:102A400006070809000000000102030464656661CE
:102A5000756C745461736B00782A000800000020C4
:102A6000B4000000541E00082C2B0008B400002005
:102A700084440000641E0008002002402000000082
:102A8000000C02400800000000200240400000004E
:102A9000000C0240000800000020024080000000FE
:102AA0000014024002000000002002400400000068
:102AB00000080240000100000000000001000000CA
:102AC00010000000000000000024F40000000000DE
:102AD00000000000000000000000000000000000F6
:102AE00000000000000000000000000000000000E6
:102AF00000000000000000000000000000000000D6
:102B000000000000000000000000000000000000C5
:102B100000000000000000000000000000000000B5
:0C2B200000000000AAAAAAAA0000000001
:040000050800018965
:00000001FF
