:020000040800F2
:10000000384400205D02000853100008F10E00087B
:10001000511000088D030008711300080000000053
:100020000000000000000000000000009D0100082A
:100030008F03000800000000F9010008A910000863
:1000400077020008770200087702000877020008AC
:10005000770200087702000877020008770200089C
:10006000770200087702000877020008770200088C
:10007000770200087702000877020008770200087C
:10008000770200087702000877020008770200086C
:10009000770200087702000877020008770200085C
:1000A000770200087702000877020008770200084C
:1000B000770200087702000875110008770200082F
:1000C000770200087702000877020008770200082C
:1000D000770200087702000877020008770200081C
:1000E000770200087702000877020008770200080C
:1000F00077020008770200087702000877020008FC
:1001000077020008770200087702000877020008EB
:1001100077020008770200087702000877020008DB
:1001200077020008770200087702000877020008CB
:1001300077020008770200087702000877020008BB
:1001400077020008770200087702000877020008AB
:10015000770200087702000877020008770200089B
:10016000770200087702000877020008770200088B
:1001700077020008770200087702000800000000FC
:100180007702000877020008DFF80CD000F0ECF8E6
:1001900000480047B1130008384400202C4B196870
:1001A0000868B0E8F04F80F30988BFF36F8F4FF015
:1001B000000080F3118870470000000008480068C4
:1001C000006880F308884FF0000080F3148862B65E
:1001D00061B6BFF34F8FBFF36F8F00DF00BF00BF6B
:1001E00008ED00E0DFF80C00016841F470010160E7
:1001F000704700BF88ED00E0EFF30980BFF36F8F19
:10020000134B1A681EF0100F08BF20ED108A20E96A
:10021000F04F106009B44FF0500080F31188BFF325
:100220004F8FBFF36F8F01F07DFC4FF0000080F324
:10023000118809BC19680868B0E8F04F1EF0100F6B
:1002400008BFB0EC108A80F30988BFF36F8F704746
:1002500014000020EFF30580704700000648804737
:1002600006480047FEE7FEE7FEE7FEE7FEE7FEE79B
:10027000FEE7FEE7FEE7FEE75911000889010008E6
:100280002DE9F05F0546002092469B4688460646CB
:10029000814640241BE0284641464746224600F05E
:1002A00053F853465A46C01A914110D31146184686
:1002B000224600F03AF82D1A67EB01084F46224615
:1002C0000120002100F031F817EB00094E41201EFB
:1002D000A4F10104DFDC484631462A464346BDE826
:1002E000F09F40EA01039B0703D009E008C9121FF1
:1002F00008C0042AFAD203E011F8013B00F8013BE0
:10030000521EF9D27047D2B201E000F8012B491E0B
:10031000FBD270470022F6E710B513460A460446A2
:100320001946FFF7F0FF204610BD202A04DB203AD3
:1003300000FA02F1002070479140C2F1200320FA38
:1003400003F3194390407047202A04DB203A21FA36
:1003500002F00021704721FA02F3D040C2F12002DE
:100360009140084319467047064C074D06E0E06887
:1003700040F0010394E8070098471034AC42F6D3EC
:10038000FFF706FFF01E0008101F0008FEE7704789
:100390002DE9F84F00224FF0010803254FF00F0E12
:1003A0000B6808FA02F42340A3426ED14E68012E76
:1003B00005D0022E03D0112E01D0122E12D1866844
:1003C0004FEA420C05FA0CF7BE43CF6807FA0CF768
:1003D000374387604668A6430C79C4F30014944001
:1003E00034434460C668570005FA07FC8C6826EA67
:1003F0000C06BC403443C4604C68022C01D0122C63
:1004000013D1D40800EB8404A346D4F820905407F9
:100410004FEAD46A0EFA0AF629EA06090E6906FAC4
:100420000AF646EA0906CBF8206006680C7926EA47
:100430000C0604F00304BC40344304604C68E40040
:1004400065D5364C266846F480462660246822F03E
:10045000030604F480440094314C3444A446D4F898
:1004600008489607370F0EFA07F6B4432D4EB042F0
:1004700001D1002624E02C4EB04201D101261FE01C
:100480002A4EB04202D102261AE040E0284EB04285
:1004900001D1032614E0274EB04201D104260FE01B
:1004A000254EB04201D105260AE0244EB04201D1CA
:1004B000062605E0224EB04201D1072600E00826BC
:1004C000BE402643CCF808681E4E34684F689C43F3
:1004D000FF0300D51C4334601A4C241D26684F6866
:1004E0009E43BF0300D51E432660164E083634686F
:1004F0004F689C43FF0200D51C433460114E0C36FC
:1005000034684F689C43BF0200D51C433460521CC2
:10051000102AFFF445AFBDE8F88F000044380240D0
:100520000030014000000240000402400008024088
:10053000000C02400010024000140240001802406B
:10054000001C0240003C01400AB18161704709046F
:10055000FBE70000014880687047000004000020AD
:1005600002488168027811448160704704000020CD
:100570000B4810B5016841F400710160016841F455
:1005800080610160016841F480710160032000F026
:100590008DF8002000F006F800F03EF8002010BDB5
:1005A000003C024010B5014688B000221E2000F039
:1005B0005DF81E2000F04CF813480024016841F05B
:1005C00004010160006805A900F004000690684677
:1005D00000F018F900F036F90C494000B0FBF1F1D9
:1005E0000C480B4A491E026040F2E732C0E903247E
:1005F000C0E9011400F028FB10B1012008B010BDC3
:10060000044800F03DFBF9E74038024040420F004B
:1006100000080040080300200C4882B0016841F443
:1006200080410160006800F4804000900748001F8E
:10063000016841F0805101600068002200F08050A4
:1006400000900F21901E02B000F010B84438024014
:10065000002809DB00F01F020121914040098000C1
:1006600000F1E020C0F8001170470000F0B40E4B1C
:100670001B680C46C3F30223C3F10705042D00D900
:100680000425191D072901D2002300E0DB1E0126E5
:1006900006FA05F1491E214099409E40761E1640FB
:1006A0003143F0BC00F065BE0CED00E0064900F0FF
:1006B000070208684FF6FF03184040EA0220034A89
:1006C00010430860704700000CED00E00000FA05E0
:1006D0002DE9F0470E46050065D0DFF81481D8F803
:1006E0000000F7B200F00F00B04207D288F80070A7
:1006F000D8F8000000F00F00B04254D128683D4CFB
:10070000810712D5400703D5206840F4E0502060EF
:100710002878000703D5206840F4604020602068F6
:10072000A96820F0F000084320602878C0072DD089
:10073000304968680839012812D0022813D00328EC
:1007400011D00968890700292DDA216821F00301F9
:1007500001432160FFF7FEFE814641F2883A0EE038
:1007600009688903EFE709688901ECE7FFF7F2FE02
:10077000A0EB0901514502D90320BDE8F0872068AC
:10078000696800F00C00B0EB810FEFD1D8F80010D1
:10079000404601F00F01B14207D90770006800F030
:1007A0000F00B04201D00120E7E72878400705D5C7
:1007B0002068E96820F4E0500843206028780007AA
:1007C00006D52068296920F4604040EAC100206015
:1007D00000F058F82168084AC1F30311515CC84081
:1007E0000649086006480068FFF7DCFE0020C4E701
:1007F000003C024008380240CC1E000810000020D7
:10080000080000200F2202600C4A136803F0030363
:100810004360136803F0F0038360136803F4E0534C
:10082000C36012684FF4E05303EAD2020261044845
:10083000006800F00F0008607047000008380240B0
:10084000003C02400448054900680968044AC1F3B5
:100850008221515CC84070471000002008380240D7
:10086000DC1E00080448054900680968044AC1F311
:100870004231515CC84070471000002008380240E7
:10088000DC1E0008154810B5006810F00C02144872
:1008900013D01449042A0FD0082A0ED10F4C241F5C
:1008A0002268236802F03F025B0207D52068C0F38C
:1008B0008810A0FB010106E0084610BD2168C1F3C5
:1008C0008811A1FB00010023FFF7DAFC2168C1F3C6
:1008D0000141491C4900B0FBF1F010BD083802404D
:1008E0000024F40040787D012DE9F84F04006ED01B
:1008F0002078DFF83C93C007A9F104054AD009F13C
:1009000004000168C1F38101012908D00068C0F327
:10091000810002280AD1D9F80000400206D52868D3
:10092000800337D560680028E1D033E06068B0F517
:10093000803F10D0B0F5A02F286810D020F4803070
:100940002860286820F4802028606068A8B1FFF73C
:1009500001FE06460DE0286840F48030F4E740F4DC
:1009600080202860F7E700BFFFF7F4FD801B6428B4
:1009700073D828688003F7D50CE0FFF7EBFD064637
:1009800005E000BFFFF7E6FD801B6428F0D828686B
:100990008003F7D42078DFF89C8280074FF0000AAC
:1009A0003ED5A348001D016811F00C0F08D0006867
:1009B000C0F3810002280BD1D9F80000400207D40F
:1009C0002868800716D5E068012800D112E02BE1E5
:1009D000E068B8B10120C8F80000FFF7BBFD06468B
:1009E00005E000BFFFF7B6FD801B0228C0D82868CD
:1009F0008007F7D52868216920F0F80040EAC10097
:100A000028600DE0C8F800A0FFF7A4FD064604E04A
:100A1000FFF7A0FD801B02281FD828688007F7D4A5
:100A20002078000722D5824E83486169703671B103
:100A300001210160FFF78EFD074604E0FFF78AFD04
:100A4000C01B022809D830688007F7D50EE0C0F82F
:100A500000A0FFF77FFD074605E082E0FFF77AFD83
:100A6000C01B02287DD830688007F7D42078400763
:100A700068D5DFF8BCB100270BF13C0BDBF80000B8
:100A8000C0000BD4DBF8001041F08051CBF800100F
:100A9000DBF80000012700F080500090674E3068BE
:100AA000C00510D4306840F480703060FFF752FD0C
:100AB000009005E0FFF74EFD0099401A022850D83B
:100AC0003068C005F6D55A4EA0686C3601280FD0A4
:100AD0000528306810D020F001003060306820F028
:100AE00004003060A068B8B1FFF734FD00900FE05B
:100AF000306840F00100F4E740F004003060F7E7B0
:100B0000FFF728FD0099411A41F28830814266D8EA
:100B100030688007F4D50EE0FFF71CFD009007E079
:100B2000FFF718FD0099411A41F28830814256D8EA
:100B300030688007F4D42FB1DBF8001021F0805129
:100B4000CBF80010A069C8B33949091D0968C1F381
:100B5000810102294AD00228504607D0C8F8600017
:100B600000E03CE0FFF7F6FC04463BE04746C8F8EF
:100B70006000FFF7EFFC064605E000BFFFF7EAFC68
:100B8000801B02282BD828688001F7D4D4E90701FC
:100B90000843A16A2A4A490802EB0141626A41EA14
:100BA0008211084394F82C1040EA0161C9F8001042
:100BB00001203866FFF7CEFC044606E036E000BFB1
:100BC000FFF7C8FC001B022809D828688001F7D568
:100BD0002CE000BFFFF7BEFC001B022802D9032057
:100BE000BDE8F88F28688001F4D41FE00128F7D011
:100BF000D9F80000E26900F48001914214D1226A20
:100C000000F03F0191420FD147F6C071626A014086
:100C1000914209D1A26A00F44031914204D1E16AC3
:100C200000F07060884201D00120D9E70020D7E7AA
:100C30000438024000004742800E474200700040E6
:100C40000000FFFF7047704710B5040003D094F810
:100C50003D0010B107E0012010BD002084F83C00E9
:100C6000204600F00CF8022084F83D00211D206889
:100C700000F086FA012084F83D00002010BD704786
:100C80000168CA6842F00102CA600068816801F028
:100C90000701062903D0016841F00101016000202D
:100CA0007047704770B50446006801694FF0000551
:100CB000C943890715D4C168C943890711D4E91EFE
:100CC000016101202077206880698007204602D0DA
:100CD000FFF7E7FF04E000F098F8204600F096F8F0
:100CE000257720680169C943490717D4C168C943FA
:100CF000490713D46FF004010161022020772068B6
:100D0000806910F4407F204602D0FFF7CAFF04E05C
:100D100000F07BF8204600F079F82577206801691B
:100D2000C943090716D4C168C943090712D46FF033
:100D300008010161042020772068C06980072046EF
:100D400002D0FFF7AEFF04E000F05FF8204600F0AD
:100D50005DF8257720680169C943C90617D4C168C1
:100D6000C943C90613D46FF0100101610820207730
:100D70002068C06910F4407F204602D0FFF791FF41
:100D800004E000F042F8204600F040F825772068A3
:100D90000169C943C90708D1C168C943C90704D15A
:100DA000891E0161204600F033F820680169C943BB
:100DB000090609D4C168C943090605D46FF080014A
:100DC00001612046FFF73EFF20680169C9434906DB
:100DD00009D4C168C943490605D46FF040010161D7
:100DE000204600F01FF820680169C94389060BD42A
:100DF000C168C943890607D46FF02001016120460C
:100E0000BDE87040FFF71FBF70BD7047704700001E
:100E100000680349884201D1FFF7A2BB7047000078
:100E200000080040704770B5040004D094F8390001
:100E3000002510B106E0012070BD84F8385020462E
:100E400000F022F8242084F839002068C16821F4D9
:100E50000051C160204600F0F7F92068016921F4D3
:100E6000904101612068416921F02A0141612068B7
:100E7000C16841F40051C160E563202084F8390065
:100E800084F83A00002070BD10B586B004461421E5
:100E90006846FFF73FFA13492068884220D112487C
:100EA0000021026842F400320260006800F4003061
:100EB00005900D481038026842F008020260006890
:100EC00000F008000590602000900220CDE90101AB
:100ED000032003900720049069460448FFF758FA5E
:100EE00006B010BD0044004040380240000C0240F3
:100EF000FEE700002DE9F04F87B014216846FFF7A8
:100F000009FA4C480025016841F0100101600168B0
:100F100001F010010591016841F4807101600168E0
:100F200001F480710591016841F0200101600168C0
:100F300001F020010591016841F080010160016824
:100F400001F080010591016841F00801016001682C
:100F500001F008010591016841F004010160016898
:100F600001F004010591016841F001010160006890
:100F7000DFF8C4B000F0010005900122602158465E
:100F8000FFF7E2FA40F2E447012239462B48FFF727
:100F9000DBFA012202212A48FFF7D6FA4FF4007843
:100FA000012241462748FFF7CFFA40F608090122FF
:100FB00049462548FFF7C8FA4FF4807A0122514686
:100FC0002248FFF7C1FA602001260224CDE900067D
:100FD000CDE9025469465846FFF7DAF9CDE90254E3
:100FE000CDE9007669461548FFF7D2F9CDE900460C
:100FF000CDE9025469461248FFF7CAF9CDE9025417
:10100000CDE9008669460F48FFF7C2F9CDE90254E1
:10101000CDE9009669460C48FFF7BAF9CDE90254CC
:10102000CDE900A669460948FFF7B2F907B0BDE867
:10103000F08F0000303802400010024000200240D3
:1010400000140240001C0240000C02400008024054
:10105000FEE770470122124D940221462846FFF711
:1010600073FAC82000F0D8F9002221462846FFF77D
:101070006BFAC82000F0D0F965100A4C002229460E
:101080002046FFF761FAC82000F0C6F90122294680
:101090002046FFF759FAC82000F0BEF9EEE700003D
:1010A00000200240001C024010B5502080F311883F
:1010B000BFF34F8FBFF36F8F00F034FE18B10449B8
:1010C0004FF080500860002080F3118810BD0000B0
:1010D00004ED00E030B593B030216846FFF71AF90F
:1010E00014210CA8FFF716F919480025016841F0F2
:1010F00080510160006800F080501190154801682F
:1011000041F4804101600068022400F480401190A5
:101110000120039010200490009406940820CDE94B
:101120000750A820CDE9090404200B906846FFF77A
:10113000DBFB0CA90F2081E831004FF4A0500F9089
:10114000E002109005210CA8FFF7C2FA13B030BDE1
:1011500040380240007000400548016841F47001C9
:10116000016003494FF0006080390860704700005B
:1011700088ED00E00148FFF795BD0000080300205E
:10118000F0B50268254C264D264E274F274B4FF0D1
:10119000804CA04209D0604507D0A84205D0B0429B
:1011A00003D0B84201D0984204D122F0700E4A68B0
:1011B00042EA0E02A0421BD0604519D0A84217D0C7
:1011C000B04215D0B84213D0984211D0184DA84261
:1011D0000ED0184DA8420BD0174DA84208D0174D7D
:1011E000A84205D0164DA84202D0164DA84203D100
:1011F00022F44075CA682A434D6922F080022A43CE
:1012000002608A68C2620A688262A04201D0984283
:1012100001D10969016301214161F0BD0000014074
:101220000004004000080040000C004000040140A1
:1012300000400140004401400048014000180040C7
:10124000001C0040002000402DE9F04104460068E9
:101250000169E26821F44051114301612169A068EC
:10126000E26908436169114308432168CA6849F289
:101270000C639A430243CA6020684169A26921F461
:10128000407111434161E069192764253226B0F5A8
:10129000004F354A354920684FF0000806D0884293
:1012A00001D0904236D1FFF7DDFA35E0884201D017
:1012B000904202D1FFF7D6FA01E0FFF7C3FA616866
:1012C0004A18A0FB070148EB0803FEF7D9FF0146C7
:1012D000B0FBF5F00201B1FBF5F06FF018035843D5
:1012E00001EB800006EBC000B0FBF5F000F0F80069
:1012F00002EB4002B1FBF5F0584301EB800006EB36
:10130000C000B0FBF5F000F00700216810448860D1
:10131000BDE8F081FFF796FA61688B0F8A00A0FBA9
:101320000701FEF7ADFF0146B0FBF5F06FF01802C4
:10133000504301EB800006EB0010B0FBF5F000F02D
:10134000F002B1FBF5F002EB0012B1FBF5F06FF02B
:101350001803584301EB800006EB0010B0FBF5F0DA
:1013600000F00F00D1E70000001401400010014020
:10137000FEE70907090E002804DB00F1E02080F8F1
:101380000014704700F00F0000F1E02080F8141DF9
:10139000704702E008C8121F08C1002AFAD170473E
:1013A0007047002001E001C1121F002AFBD17047E5
:1013B00088B0FFF7DDF8FFF78DFEFFF79BFD1048C3
:1013C0000E490C2201604FF4E1314160002181603F
:1013D000C160C0E904128161C161FFF724FD1C22D4
:1013E00008496846FEF77DFF0021684600F020F8B6
:1013F0000549086000F017F8FEE7000000440040CF
:1014000074000020B01E00080000002001460020EB
:10141000842900D0C81C704710B500B9012000F025
:101420001DFB002010BD10B500F03EFB002010BDDC
:101430007FB50D4604464169B0F9080081B1A16944
:1014400071B1FFF7E3FFD4E905128DE80700D4E995
:1014500000102B46226900F03AFC039004B070BDE6
:10146000FFF7D4FF03A9CDE90001208A2B4682B201
:10147000D4E9001000F0FEFB012801D00020EDE7C8
:101480000398EBE72DE9F041184C0F4605466669D5
:101490002068001D00F01EFA38B9206890F82C1062
:1014A00001208840A1698143A161681C07D137B13F
:1014B0002168BDE8F0410E48091D00F04FBA2068D0
:1014C0003544B5424560216805D2A068BDE8F041C9
:1014D000091D00F02BBA6068091D00F027FA206B87
:1014E000854200D22563BDE8F08100001400002091
:1014F000240400202DE9F041054600F03BFA2E4C73
:101500002069401C206120682C4F10B1E06940B375
:101510002DE025602069012829D1002606EB8600F0
:1015200007EB800000F0F4F9761C072EF6D3234871
:101530008C3000F0EDF92148A03000F0E9F91F48A7
:10154000B43000F0E5F91D48C83000F0E1F91B485F
:10155000DC3000F0DDF919488C3060601430A06098
:1015600005E02068E96AC06A884200D82560E06A20
:10157000401CE062E96A0120A26988401043A06132
:1015800001EB810007EB8000291D00F0E7F900F076
:1015900011FAE06900280CD02068E96AC06A884224
:1015A00007D207494FF080500860BFF34F8FBFF359
:1015B0006F8FBDE8F0810000140000204803002078
:1015C00004ED00E010B5044690F8510058B1012830
:1015D0000CD002280FD0502080F31188BFF34F8F1A
:1015E000BFF36F8FFEE7206B00F0F8F92046BDE8EF
:1015F000104000F0F3B910BD10484FF4705142078D
:1016000006D0C01D0D4920F00700411AC1F57051E8
:101610000B4A00230144C2E900030839103A21F0C3
:10162000070111604B600B600B1AC0E90013936057
:101630004FF000405360D060704700003804002035
:1016400060000020144E154CA6F1C8074FF08058DA
:10165000DFF84C9012E000BF00F08CF9F068C5682C
:10166000281D00F037F92069401E2061E068401E07
:10167000E06000F09FF92846FFF7A4FFE06800282B
:10168000EAD138680128F9D9C9F80080BFF34F8F33
:10169000BFF36F8FF2E70000100400201400002059
:1016A00004ED00E02DE9F0479A46DDE90984814622
:1016B0006FF00303206B03EB82021044089E20F0BE
:1016C0000707780707D0502080F31188BFF34F8FAA
:1016D000BFF36F8FFEE7002561B1002023180A5C7D
:1016E00083F834200A5C12B1401C1028F6D384F829
:1016F000435001E084F83450072E00D30626E662FA
:10170000C4E91165201D00F00EF904F1180000F085
:101710000AF92461C6F107006462A061E56484F8F7
:10172000505052464946384600F0BEF82060B8F1A5
:10173000000F01D0C8F80040BDE8F08730B511496E
:1017400000E011460A688242FBD34B685C18844271
:1017500003D1406818444860084643681C18944206
:1017600009D1084C103C2468A24209D052681A449E
:1017700042600A6812680260814200D0086030BD91
:101780000460F9E76000002006484168096829B153
:101790004168C968C9684968016370474FF0FF3103
:1017A000FAE700001400002008484068401C4FF091
:1017B000500080F3118804D0BFF34F8FBFF36F8FB9
:1017C000FEE7BFF34F8FBFF36F8FFEE76800002087
:1017D0002DE9F0410546002700F09CF9314E3068B4
:1017E00008B9FFF709FFF06805424BD1C5B30835CA
:1017F00068070ED005F00700C0F10800054468072F
:1018000007D0502080F31188BFF34F8FBFF36F8F45
:10181000FEE72DB37068854234D822481030014667
:101820000C6801E020460C466168A94202D221689A
:101830000029F7D131688C4224D007682168016003
:1018400060680837411B10290FD96019420708D07A
:10185000502080F31188BFF34F8FBFF36F8FFEE7E7
:1018600010E041606560FFF769FF61687068401AC9
:101870007060B268904200D2B060F068014300200E
:10188000C4E9000100F0B2FA780707D0502080F3D5
:101890001188BFF34F8FBFF36F8FFEE73846BDE867
:1018A000F08100005000002010B5031F4FF080743D
:1018B0001C601B1F21F001011960191F044B0B60F4
:1018C00014390A60091F6FF0020244380A6010BD23
:1018D000A9170008D0E9013201699A60D0E9012313
:1018E0005A604A68824201D182684A6000220261DD
:1018F0000868401E0860086870470000034B0360DA
:1019000003F154000860802010607047B40000208C
:1019100000F108014FF0FF32C0E90112C16001611E
:1019200000210160704700210161704730B50B68EC
:101930005A1C02D000F1080202E0026904E02246CB
:10194000546825689D42FAD953684B6099608A6053
:10195000516008610168491C016030BD42684A60FD
:1019600093688B6093685960916008610168491CB5
:1019700001607047502080F31188BFF34F8FBFF391
:101980006F8F0A494868401C486001280CD10848FC
:10199000006810F0FF0F07D0502080F31188BFF3CC
:1019A0004F8FBFF36F8FFEE7704700006800002085
:1019B00004ED00E00849486828B1401E486001D1A4
:1019C00080F311887047502080F31188BFF34F8F48
:1019D000BFF36F8FFEE700006800002070B500289D
:1019E00027D0144DA0F108046168E868014207D1CE
:1019F000502080F31188BFF34F8FBFF36F8FFEE746
:101A000022683AB1502080F31188BFF34F8FBFF3A3
:101A10006F8FFEE78143616000F07CF86068696861
:101A2000084468602046FFF789FEBDE8704000F07A
:101A3000DDB970BD500000204FF0E02000210161B1
:101A4000816105494FF47A720968B1FBF2F1491ED0
:101A500041610721016170471000002010B50200AC
:101A600014D00F48806B38B1502080F31188BFF339
:101A70004F8FBFF36F8FFEE700F04CF80021104648
:101A8000FFF700FD00F0B2F9002807D105494FF03B
:101A900080500860BFF34F8FBFF36F8F10BD000001
:101AA0001400002004ED00E010B586B0002403947B
:101AB00005AA04A903A80494FFF720FFDDE90301A8
:101AC0000094CDE9011000230EA11048059A00F002
:101AD000FEF80F490028486311D0502080F3118888
:101AE000BFF34F8FBFF36F8F4FF0FF3008630120BC
:101AF000C8614C6106B0BDE8104000F041B806B0C6
:101B000010BD000049444C45000000004516000887
:101B1000140000200248816B491C8163704700005B
:101B2000140000201448816B11B1012141627047FB
:101B3000002141628169B1FA81F1C1F11F0101EB1C
:101B400081020E4951F822306BB101EB820101F1A3
:101B500008034A6852684A609A4201D152684A6052
:101B6000D16801607047502080F31188BFF34F8F18
:101B7000BFF36F8FFEE70000140000204803002031
:101B80001CB537480168374A914207D1502080F38D
:101B90001188BFF34F8FBFF36F8FFEE700683149A5
:101BA000491E884207D1502080F31188BFF34F8F20
:101BB000BFF36F8FFEE72C4908780190FF20087073
:101BC00008788DF800009DF800009DF8002000F0D6
:101BD000F000904207D0502080F31188BFF34F8F60
:101BE000BFF36F8FFEE79DF80000204B00F0500020
:101BF00018700720986005E09DF8002052008DF8CD
:101C00000020401E9DF800201206F5D4986003289D
:101C100007D0502080F31188BFF34F8FBFF36F8F31
:101C2000FEE74FF440709860019808700C4820302F
:101C3000016841F470010160016841F07041016088
:101C4000FFF7FAFE00205860FEF7CCFA084801685A
:101C500041F040410160FEF7B1FA00201CBD0000D8
:101C600000ED00E071C20F4100E400E068000020D8
:101C700034EF00E02DE9FF5F8346DDE90E879946EA
:101C800016468A469000FFF7A3FD05001CD054209D
:101C9000FFF79EFD040014D00020256384F8510056
:101CA000CDE90240CDE900874B46324651465846C1
:101CB000FFF7F8FC2046FFF71DFC012004B0BDE84B
:101CC000F09F2846FFF78AFE4FF0FF30F6E7F0B5A9
:101CD00085B0DDE90B640A9DA6B1DCB154270097FD
:101CE0002663022684F85160002604AFCDE902463F
:101CF000CDE90057FFF7D6FC2046FFF7FBFB049821
:101D000005B0F0BD502080F31188BFF34F8FBFF3B3
:101D10006F8FFEE7502080F31188BFF34F8FBFF322
:101D20006F8FFEE72DE9F0412E4C0027A06B40B1EC
:101D3000206A401C2062606A00B101273846BDE875
:101D4000F0816669761C666113D16068006838B1FD
:101D5000502080F31188BFF34F8FBFF36F8FFEE7E2
:101D60006068A1686160A060A06A401CA062FFF783
:101D70000BFD206BDFF87080864209D36068006835
:101D800080B16068C068C568686886420DD220630B
:101D90002068C06A00EB800158F821000128CAD9E8
:101DA0000127C8E74FF0FF30F1E7281DFFF792FD4C
:101DB000A86A18B105F11800FFF78CFDE86A012147
:101DC000A26981401143A16100EB800108EB810011
:101DD000291DFFF7C3FDE86A2168C96A8842CDD38F
:101DE0000127CBE714000020480300202DE9F0472D
:101DF0002C4D00242746A86B38B1FFF7BBFDA86B1C
:101E0000401EA863A86B40B146E0502080F31188C3
:101E1000BFF34F8FBFF36F8FFEE72969224E01207A
:101E2000D1B3A6F1B40980463068E8B1F068C4685F
:101E300004F11800FFF74EFD201DFFF74BFDE06A8F
:101E4000AA6908FA00F11143A96100EB800109EBCE
:101E50008100211DFFF782FDE06A2968C96A884276
:101E6000E2D3C5F82480DFE70CB1FFF78DFC2C6AC4
:101E700044B14646FFF756FF00B16E62641EF9D1C9
:101E800000202862686A38B10849012738070860CD
:101E9000BFF34F8FBFF36F8FFFF78CFD3846BDE860
:101EA000F087000014000020FC03002004ED00E097
:101EB000E41E0008551000080000000000000000AB
:101EC0008000000000000000000000000000000092
:101ED00000000000010203040607080900000000DA
:101EE0000102030464656661756C745461736B0070
:101EF000101F00080000002074000000921300086A
:101F0000841F000874000020C4430000A2130008CE
:101F100000000000010000001000000000000000B0
:101F20000024F40000000000000000000000000099
:101F300000000000000000000000000000000000A1
:101F40000000000000000000000000000000000091
:101F50000000000000000000000000000000000081
:101F60000000000000000000000000000000000071
:101F7000000000000000000000000000AAAAAAAAB9
:041F8000000000005D
:040000050800018965
:00000001FF
