:020000040800F2
:10000000501000209D010008DB1000087710000848
:10001000D9100008F5010008EB16000800000000E8
:10002000000000000000000000000000E1100008D7
:10003000F701000800000000DD100008E3100008D0
:10004000B7010008B7010008B7010008B7010008B0
:10005000B7010008DF100008B7010008B701000869
:10006000B7010008B7010008B7010008B701000890
:10007000B7010008B7010008B7010008B701000880
:10008000B7010008B7010008B7010008B701000870
:10009000B7010008B7010008B7010008B701000860
:1000A000B7010008B7010008B7010008B701000850
:1000B000B7010008B7010008B7010008B701000840
:1000C000B7010008B7010008B7010008B701000830
:1000D000B7010008B7010008B7010008B701000820
:1000E000B7010008B7010008B7010008B701000810
:1000F000B7010008B7010008B7010008B701000800
:10010000B7010008B7010008B7010008B7010008EF
:10011000B7010008E5110008B7010008B7010008A1
:10012000B7010008B7010008B7010008B7010008CF
:10013000B7010008B7010008B7010008B7010008BF
:10014000B7010008B7010008B7010008B7010008AF
:10015000B7010008B7010008B7010008B70100089F
:10016000B7010008B7010008B7010008B70100088F
:10017000B7010008B7010008B7010008000000003F
:10018000B7010008B7010008DFF80CD000F020F834
:10019000004800470D17000850100020064880470F
:1001A00006480047FEE7FEE7FEE7FEE7FEE7FEE75C
:1001B000FEE7FEE7FEE7FEE78D1100088901000873
:1001C000421C10F8011B0029FBD1801A7047000067
:1001D000064C074D06E0E06840F0010394E8070094
:1001E00098471034AC42F6D3FFF7D2FF0818000846
:1001F00028180008FEE7704790F83510022903D050
:100200008021416501207047052180F83510006884
:10021000016821F001010160002070472DE9F84FCD
:100220000022DFF8E481DFF8E491DFF8E4A14FF089
:10023000030E0F27012303FA02F50B682B40AB4294
:100240007ED1D1F804C0BCF1020F02D0BCF1120F74
:1002500012D14FEAD20C00EB8C0CDCF82060540772
:10026000E40E07FA04FB26EA0B06D1F810B00BFAED
:1002700004F43443CCF8204006684FEA420C0EFAEE
:100280000CF4A64391F804B00BF0030B0BFA0CFB33
:100290004BEA060606604E68012E05D0022E03D0FA
:1002A000112E01D0122E11D18668A643D1F80CB0C0
:1002B0000BFA0CFB4BEA06068660466826EA050543
:1002C0000E79C6F30016964035434560C56825EAA9
:1002D00004048D6805FA0CFC4CEA040CC0F80CC050
:1002E000D1F804C01CF0805F6FD0D8F800C04CF487
:1002F000804CC8F800C0D8F800C00CF4804CCDF891
:1003000000C022F0030C0CF1804404F59834D4F8BA
:1003100008C895072D0F07FA05F62CEA0606A0F186
:10032000804CBCF5003C56D0BCF5806C56D0BCF57A
:10033000806C56D0BCF5806C56D0BCF5806C00E06B
:1003400043E054D0BCF5806C54D0BCF5806C54D0E4
:10035000BCF5806C54D04FF0080C0CFA05FC4CEA4C
:10036000060CC4F808C8D9F800C02CEA030C4C6885
:1003700014F4803F01D04CEA030CC9F800C0254CAE
:10038000D4F800C02CEA030C4D6815F4003F01D0EE
:100390004CEA030CC4F800C0DAF800C02CEA030CE5
:1003A0004C6814F4801F01D04CEA030CCAF800C05A
:1003B000194CD4F800C02CEA030C4D6815F4001F4A
:1003C00001D04CEA030CC4F800C0521C102AFFF400
:1003D00031AFBDE8F88F4FF0000CBEE74FF0010CD5
:1003E000BBE74FF0020CB8E74FF0030CB5E74FF056
:1003F000040CB2E74FF0050CAFE74FF0060CACE78A
:100400004FF0070CA9E7000044380240003C0140CF
:10041000083C0140043C01400C3C0140014800689C
:10042000704700000400002002480168491C016078
:10043000704700000400002010B50B48016841F42B
:1004400000710160016841F480610160016841F45C
:1004500080710160032000F091F8002000F006F8A0
:1004600000F018F8002010BD003C024010B5044612
:1004700007484FF47A720068B0FBF2F000F036FCE7
:1004800000222146501E00F045F8002010BD00005B
:100490000800002010B5032000F070F8002211467B
:1004A0006FF00B0000F036F8002211466FF00A00E2
:1004B00000F030F8002211466FF0090000F02AF831
:1004C00000221146501F00F025F800221146101F8F
:1004D00000F020F800221146901E00F01BF80022C8
:1004E0001146501E00F016F800221146052000F0BB
:1004F00011F8BDE810400520AFF3008000F01F01A7
:10050000012202FA01F14009800000F1E020C0F868
:100510000011704710B4184B1B68C3F30223C3F1DA
:10052000070CBCF1040F01D94FF0040C1C1D072C63
:1005300001D2002300E0DB1E012404FA0CFCACF124
:10054000010C0CEA0101994004FA03F35B1E1A4006
:100550001143002808DA00F00F0000F1E020090143
:1005600080F8141D10BC704700F1E020090180F8EC
:10057000001410BC704700000CED00E000F0070014
:10058000064A11684FF6FF03194041EA002040F087
:10059000FD7040F080601060704700000CED00E0DE
:1005A0002DE9F05F04460E46DFF8D091D9F800003F
:1005B000F7B200F00F00B0420AD289F80070D9F803
:1005C000000000F00F00B04202D00120BDE8F09F13
:1005D0002078DFF8AC8110F0020F07D0D8F80000C7
:1005E000A16820F0F0000843C8F80000207810F05F
:1005F000010F51D060686349012808D002280DD04E
:1006000003280BD0096811F0020F2ED00AE0096808
:1006100011F4003F06D10120BDE8F09F096811F0F8
:10062000007F1FD0D8F8001021F003010843C8F85C
:100630000000FFF7F3FE0546606841F2883A0128A2
:1006400016D0022829D003283CD0D8F8000010F09A
:100650000C0F51D0FFF7E2FE401B504547D9032055
:10066000BDE8F09F0120BDE8F09F0120BDE8F09FAC
:10067000D8F8000000F00C0004283DD0FFF7CEFEB3
:10068000401B504502D90320BDE8F09FD8F8000078
:1006900000F00C000428F1D12EE0D8F8000000F0A2
:1006A0000C00082828D0FFF7B9FE401B504502D99E
:1006B0000320BDE8F09FD8F8000000F00C000828E7
:1006C000F1D119E0D8F800004FF00C0B3BEA000024
:1006D00012D0FFF7A3FE401B504502D90320BDE80E
:1006E000F09FD8F800003BEA0000F2D104E0D8F80F
:1006F000000010F00C0FADD1D9F8000000F00F0091
:10070000B0420AD989F80070D9F8000000F00F0053
:10071000B04202D00120BDE8F09F207810F0040F15
:1007200007D0D8F80000E16820F4E0500843C8F88A
:100730000000207810F0080F08D0D8F800002169D8
:1007400020F4604040EAC100C8F8000000F058F80A
:10075000D8F80010F02292FAA2F201F0F001B2FAF9
:1007600082F2D140084A515CC84008490860002024
:10077000FFF77CFE0020BDE8F09F0000003C024037
:100780000838024000380240F01700080800002036
:1007900001490120C86470470000474201480068D1
:1007A000704700000800002000B5FFF7F7FF074979
:1007B00009684FF4E05292FAA2F201F4E051B2FA61
:1007C00082F2D140024A515CC84000BD0838024064
:1007D0000018000800B5FFF7E1FF074909684FF46A
:1007E000604292FAA2F201F46041B2FA82F2D14080
:1007F000024A515CC84000BD083802400018000899
:1008000010B41F48006810F00C011E481BD04FEABE
:10081000600C042916D0082915D11B4A116801F073
:100820003F01136813F4800F47F6C0730DD0BCFB73
:10083000F1F01168194093FAA3F3B3FA83F3D940A6
:1008400048430CE0604610BC7047B0FBF1F0116803
:10085000194093FAA3F3B3FA83F3D94048431168DC
:100860004FF4403292FAA2F201F44031B2FA82F22D
:10087000D140491C4900B0FBF1F010BC70470000AA
:10088000083802400024F400043802402DE9F84FF3
:100890000446DFF81C842078A8F1040710F0010F4B
:1008A000A7F1040560D0D8F8000000F00C0004287F
:1008B00009D0D8F8000000F00C0008280DD13868E5
:1008C00010F4800F09D0286810F4003F4CD0606805
:1008D000002849D10120BDE8F88F6068B0F5803F5D
:1008E00014D0B0F5A02F16D0286820F480302860EE
:1008F000286820F480202860606810B3FFF78EFD20
:100900000646286810F4003F0ED02DE0286840F419
:1009100080302860F0E7286840F48020286028684C
:1009200040F480302860E7E7FFF778FD801B6428FB
:1009300002D90320BDE8F88F286810F4003FF3D0F7
:1009400012E0FFF76BFD0646286810F4003F0BD05D
:10095000FFF764FD801B642802D90320BDE8F88FEF
:10096000286810F4003FF3D12078DFF8489310F0A6
:10097000020F4FF0000663D0D8F800004FF0F80BDC
:1009800010F00C0F16D0D8F8000000F00C0008286A
:1009900003D1386810F4800F0CD0E068C8B3012090
:1009A000C9F80000FFF73AFD8246286810F0020FF0
:1009B00016D022E0286810F0020F05D0E068012868
:1009C00002D00120BDE8F88F28689BFAABF22169BC
:1009D000B2FA82F220F0F8009140084328602FE03C
:1009E000FFF71CFDA0EB0A00022802D90320BDE896
:1009F000F88F286810F0020FF2D028689BFAABF24B
:100A00002169B2FA82F220F0F80091400843286090
:100A100016E0FFE7C9F80060FFF700FD824628688E
:100A200010F0020F0CD0FFF7F9FCA0EB0A0002282F
:100A300002D90320BDE8F88F286810F0020FF2D128
:100A4000207810F0080F34D09B48DFF870B261694D
:100A5000C1B101210160FFF7E1FC8246DBF8000033
:100A600010F0020F25D1FFF7D9FCA0EB0A000228F5
:100A700002D90320BDE8F88FDBF8000010F0020F68
:100A8000F1D016E00660FFF7C9FC8246DBF80000F3
:100A900010F0020F0DD0FFF7C1FCA0EB0A000228F6
:100AA00002D90320BDE8F88FDBF8000010F0020F38
:100AB000F1D1207810F0040F43D08148016841F053
:100AC00080510160006800F080500090DFF8F4B1C0
:100AD000DBF8000040F48070CBF80000FFF79EFCCC
:100AE0008246DBF8000010F4807F0DD1FFF796FC02
:100AF000A0EB0A00022802D90320BDE8F88FDBF83A
:100B0000000010F4807FF1D0A068DFF8BCB10128AC
:100B100018D005281DD0DBF8000020F00100CBF82C
:100B20000000DBF8000020F00400CBF80000A06813
:100B300068B3FFF773FC8246DBF8000010F0020F89
:100B400014D03CE0DBF8000040F00100CBF80000DE
:100B5000EDE7DBF8000040F00400CBF80000DBF824
:100B6000000040F00100CBF80000E0E7FFF756FC82
:100B7000A0EB0A0141F28830814202D90320BDE88E
:100B8000F88FDBF8000010F0020FEFD017E0FFF74E
:100B900045FC8246DBF8000010F0020F0FD0FFF793
:100BA0003DFCA0EB0A0141F28830814202D90320CA
:100BB000BDE8F88FDBF8000010F0020FEFD1A0695C
:100BC000F0B3D8F8001001F00C0108296CD002280D
:100BD00010D0C9F86060FFF721FC0446286810F0C7
:100BE000007F5ED0FFF71AFC001B022855D90320B6
:100BF000BDE8F88FC9F86060FFF710FC064628686A
:100C000010F0007F0BD0FFF709FC801B022802D9EF
:100C10000320BDE8F88F286810F0007FF3D1216A27
:100C2000E0694FF0FF3340EA010247F6C07191FAE4
:100C3000A1F1606AB1FA81F100FA01F1A06A00E065
:100C40002FE003EB50004FF4403393FAA3F3B3FAD1
:100C500083F39840084310434FF0706292FAA2F277
:100C6000E16AB2FA82F29140084338600120C9F883
:100C70006000FFF7D3FB0446286810F0007F10D116
:100C8000FFF7CCFB001B022802D90320BDE8F88F38
:100C9000286810F0007FF3D003E0286810F0007F90
:100CA000A0D10020BDE8F88F0120BDE8F88F00003A
:100CB0000838024000004742800E47427438024024
:100CC0004038024000700040703802404FF0E02190
:100CD000042804D0086920F00400086170470869FE
:100CE00040F004000861704770470000401EB0F1FA
:100CF000807F01D3012070474FF0E0214861044A12
:100D0000F0201070002088610720086100207047E3
:100D100023ED00E010B5FFF7E7FF10BD70470000BE
:100D200010B5044622681068D168526900F00F03BC
:100D3000002B0AD110F0200F07D011F0200F04D0A3
:100D40002046BDE8104000F076BA002B6BD002F0D0
:100D5000010301F4907C53EA0C0364D010F0010FFE
:100D600006D011F4807F03D0E36B43F00103E3630B
:100D700010F0040F06D012F0010F03D0E36B43F024
:100D80000203E36310F0020F06D012F0010F03D04C
:100D9000E36B43F00403E36310F0080F06D012F096
:100DA000010F03D0E26B42F00802E263E26B002A1B
:100DB0002ED010F0200F05D011F0200F02D02046C9
:100DC00000F039FA20684069C0F38010E16B01F04F
:100DD0000801084321D0204600F012FA206841693A
:100DE00011F0400F15D0416921F040014161606B65
:100DF00058B118490165606BFFF7FEF9002807D06C
:100E0000606B016DBDE8104008472046FFF786FF84
:100E100010BD2046FFF782FF10BD2046FFF77EFF82
:100E20000020E06310BD10F0800F07D011F0800F9C
:100E300004D02046BDE8104000F0E8BB10F0400FA1
:100E4000F0D011F0400FEDD02046BDE8104000F08A
:100E5000E5B90000F111000870B50446002C04D07B
:100E600094F83900002510B106E0012070BD84F827
:100E70003850204600F022F8242084F839002068F9
:100E8000C16821F40051C160204600F01DFA2068BD
:100E9000016921F4904101612068416921F02A0132
:100EA00041612068C16841F40051C160E5632020C0
:100EB00084F8390084F83A00002070BD00B587B08E
:100EC0000068A0F18041B1F5A04125D11348016827
:100ED00041F004010160016801F004010191016821
:100EE00041F008010160006800F0080001904FF433
:100EF000805002900220039001200490032005906E
:100F00000820069002A90648FFF788F904200290FD
:100F100002A90448FFF782F907B000BD303802404B
:100F200000080240000C024090F83A30202B01D01B
:100F300002207047D1B1CAB190F83830012B17D0D8
:100F400081628285C2850021C163222280F83A2015
:100F500080F8381001684A6942F001024A6100686D
:100F6000C16841F49071C160002070470120704752
:100F70000220704710B5002301220549054800F002
:100F80000BF8BDE81040012201490248FFF7CCBF31
:100F9000000000200C0000202DE9F84304460D4617
:100FA00091461E4694F83900202802D00220BDE860
:100FB000F8834DB3B9F1000F26D094F8380001281A
:100FC00025D0012084F838000027E763212084F829
:100FD0003900FFF723FA8046A4F82490A4F826905D
:100FE000E08CA0B3E08C401EE084A068B0F5805F88
:100FF00010D04346002280212046009600F039FBA5
:10100000F0B10320BDE8F8830120BDE8F883022099
:10101000BDE8F8834346002280212046009600F078
:1010200028FB10B10320BDE8F88328882168C0F3AD
:1010300008004860206908B16D1C05E0AD1C03E0A4
:10104000216815F8010B4860E08C0028CAD143469E
:10105000002240212046009600F00BFB10B1032037
:10106000BDE8F883202084F8390084F83870002027
:10107000BDE8F8837047FEE710B500220121352056
:10108000FFF748FABDE810403520FFF737BA0000F7
:1010900008B500210D48026842F480120260006821
:1010A00000F4801000900B48094A02604FF4E132CE
:1010B00042608160C16001610C2242618161C16155
:1010C000FFF7CAFEBDE80840FFF7D6BF4038024030
:1010D000005000400C000020FEE77047704770474A
:1010E000704710B5FFF7A0F9BDE81040FFF712BE3A
:1010F00030B593B000252348016841F0805101606C
:10110000006800F0805000901F48016841F4804161
:101110000160006800F48040009001200690000407
:10112000079002240C9480010D9008200E904FF43B
:10113000A8700F9010940720119006A8FFF7A6FB47
:101140000F200190029403954FF4A0500490E00208
:101150000590052101A8FFF723FAFFF719FBFFF718
:101160001DFB4FF47A71B0FBF1F0FFF7BFFD0420D7
:10117000FFF7ACFD00221146501EFFF7CBF913B06C
:1011800030BD000040380240007000400F48016848
:1011900041F4700101600E48016841F001010160F5
:1011A0000C4A00211160026822F4102222F08072A1
:1011B0000260031D084A1A60026822F4802202605D
:1011C00006480160064958060860704788ED00E04F
:1011D0000038024008380240103000240C38024029
:1011E00008ED00E00148FFF79BBD00000C00002067
:1011F00010B5806B0021C185C184FFF78FFD10BD44
:101200000168CA6822F49072CA6001684A6922F0D3
:1012100001024A61202180F83A10704710B5016838
:10122000CA6822F04002CA60202180F83910FFF716
:1012300021FF002010BD10B590F83A10222901D0EE
:10124000022010BD8168B1F5805F11D0016919B32A
:101250000168496801F07F02816A4B1C83620A7051
:10126000C18D491E0904090CC1851CD0002010BD88
:10127000816A02693AB102685268D2B20A80816A10
:10128000491C8162ECE702685268C2F308020A80D6
:10129000816A891C8162E3E701684A68816A4B1CA4
:1012A00083620A70DCE70168CA6822F49072CA603F
:1012B00001684A6922F001024A61202180F83A104F
:1012C000FFF758FE002010BD2DE9F04104462068CC
:1012D000016921F44051E268114301612068C1684D
:1012E00021F4037121F414412369A268D4F81CC0CD
:1012F0001A43636943EA0C031A431143C16020682F
:10130000416921F44071A26911434161E069BC4A1D
:10131000BC49BD4D3226B0F5004F5ED020688842F2
:1013200002D0904240F01281FFF754FA00EBC00166
:1013300001EB001061688900B0FBF1F7FFF74AFA92
:1013400000EBC00101EB001061688900B0FBF1F017
:10135000A5FB001040096FF01801484307EB80001F
:1013600006EB0010A5FB0010400900F0F007FFF7A6
:1013700031FA00EBC00101EB001061688900B0FB9D
:10138000F1F0A5FB0010400907EB0017FFF722FA68
:1013900000EBC00101EB001061688900B0FBF1F8BF
:1013A000FFF718FA00EBC00101EB0010616889003B
:1013B000B0FBF1F0A5FB001040096FF018014843A5
:1013C00008EB800006EB0010A5FB00102168C0F3BD
:1013D000431038448860BDE8F0812068884201D01D
:1013E000904259D1FFF7F6F900EBC00101EB001074
:1013F00061684900B0FBF1F0A5FB0010400907014E
:10140000FFF7E8F900EBC00101EB0010616849004B
:10141000B0FBF1F8FFF7DEF900EBC00101EB0010C3
:1014200061684900B0FBF1F0A5FB001040096FF0C6
:101430001801484308EB800006EBC000A5FB001034
:10144000400900F0F80007EB4007FFF7C3F900EB95
:10145000C00101EB001061684900B0FBF1F8FFF733
:10146000B9F900EBC00101EB001061684900B0FB65
:10147000F1F0A5FB001040096FF01801484308EB9C
:10148000800006EBC000A5FB00102168C0F34210ED
:1014900038448860BDE8F081FFF786F900EBC001B1
:1014A00001EB001061684900B0FBF1F0A5FB0010F2
:1014B00040090701FFF778F900EBC00101EB0010CC
:1014C00061684900B0FBF1F8FFF76EF900EBC0016D
:1014D00001EB001061684900B0FBF1F0A5FB0010C2
:1014E00040096FF01801484308EB800006EBC0008C
:1014F000A5FB0010400900F0F80007EB4007FFF7DC
:1015000053F900EBC00101EB001061684900B0FB2A
:10151000F1F8FFF749F900EBC00101EB0010616839
:101520004900B0FBF1F0A5FB001040096FF0180175
:10153000484308EB800006EBC000A5FB00102168C3
:10154000C0F3421038448860BDE8F081FFF72CF901
:1015500000EBC00101EB001061688900B0FBF1F7FE
:10156000FFF722F900EBC00101EB00106168890070
:10157000B0FBF1F0A5FB001040096FF018014843E3
:1015800007EB800006EB0010A5FB0010400900F0FF
:10159000F007FFF709F900EBC00101EB00106168EB
:1015A0008900B0FBF1F0A5FB0010400907EB001724
:1015B000FFF7FAF800EBC00101EB00106168890049
:1015C000B0FBF1F8FFF7F0F800EBC00101EB001001
:1015D00061688900B0FBF1F0A5FB001040096FF0D5
:1015E0001801484308EB800006EB0010A5FB001033
:1015F0002168C0F3431038448860BDE8F0810000E2
:1016000000140140001001401F85EB5190F8391083
:10161000212901D0022070478168B1F5805F0CD08C
:10162000016A4A1C0262026809785160C18C491E35
:101630000904090CC18410D019E0016A0268098804
:10164000C1F308015160016919B1016A491C0162C5
:10165000ECE7016A891C0162E8E70168CA6822F0C8
:101660008002CA600068C16841F04001C16000208A
:1016700070472DE9F0410446069D884617461E46F0
:101680002068006838EA000020D00020B84227D146
:10169000B5F1FF3F1CD025B1FEF7C0FE801BA8426C
:1016A00016D92068C16821F4D071C16020684169F1
:1016B00021F001014161202084F8390084F83A00CA
:1016C000002084F838000320BDE8F0810120DDE728
:1016D0002068006838EA000005D00020B842D7D062
:1016E0000020BDE8F0810120F8E7FEE702E008C82D
:1016F000121F08C1002AFAD170477047002001E08C
:1017000001C1121F002AFBD1704700008EB0FEF706
:1017100093FEFFF7EDFCFFF7BBFC25A000F11004E2
:1017200090E80E10F0CCCDE904C408970796069512
:10173000039302920191D0E90A3C426A016A006B6C
:10174000CDE90B3C0A9209910D9001A8FEF738FDF6
:1017500082B24FF47A7301A91D48FFF71DFC1DA04A
:1017600000F1100490E80E10F0CCCDE904C4089705
:1017700007960695039302920191D0E90A3C426ACA
:10178000016A006BCDE90B3C0A9209910D9001A80A
:10179000FEF716FD82B24FF47A7301A90C48FFF7E9
:1017A000FBFB012211490A48FFF7BEFBFEE70000E0
:1017B000D5E2CAC7D2BBB8F6B4AEBFDAD6D0B6CF80
:1017C000BDD3CAD5BBD8CFD4CAB5D1E90A00000071
:1017D0000C000020CAE4C8EBCAFDBEDDB2A2D2D420
:1017E000BBD8B3B5BCFCBDE1CAF80A0000000020BC
:1017F00000000000000000000102030406070809C1
:101800000000000001020304281800080000002066
:101810000C000000EC160008341800080C00002032
:1018200044100000FC16000800000000000000004A
:041830000024F4009C
:040000050800018965
:00000001FF
