:020000040800F2
:1000000088190020DD01000863200008BD1E0008DB
:1000100061200008E90B0008B92500080000000075
:100020000000000000000000000000004501000882
:10003000EB0B00080000000089010008B120000857
:10004000F7010008F7010008F7010008F7010008B0
:10005000F7010008F7010008F7010008F7010008A0
:10006000F7010008F7010008F7010008F701000890
:10007000F7010008F7010008F7010008F701000880
:10008000F7010008F7010008F7010008F701000870
:10009000F7010008F7010008F7010008F701000860
:1000A000F7010008F7010008F7010008F701000850
:1000B000F7010008F70100083D210008F7010008DA
:1000C000F7010008F7010008F7010008F701000830
:1000D000F701000899250008F7010008F70100085A
:1000E000F7010008F7010008F7010008F701000810
:1000F000F7010008F7010008F7010008F701000800
:10010000F7010008F7010008F7010008F7010008EF
:10011000F7010008F7010008F7010008F7010008DF
:10012000F7010008F7010008F7010008F7010008CF
:10013000DFF80CD000F042FB0048004731270008F0
:1001400088190020224B19680868B0E8F00F80F386
:100150000988BFF36F8F4FF0000080F311884EF0D5
:100160000D0E70470000000006480068006880F32C
:10017000088862B661B6BFF34F8FBFF36F8F00DFA1
:1001800000BF00BF08ED00E0EFF30980BFF36F8F01
:100190000F4B1A6820E9F00F106008B54FF05000BF
:1001A00080F31188BFF34F8FBFF36F8F02F070FFA2
:1001B0004FF0000080F31188BDE808401968086816
:1001C000B0E8F00F80F30988BFF36F8F704700BF6E
:1001D00024000020EFF305807047000006488047A8
:1001E00006480047FEE7FEE7FEE7FEE7FEE7FEE71C
:1001F000FEE7FEE7FEE7FEE73B21000831010008CD
:10020000202A04DB203A21FA02F00021704721FA6B
:1002100002F3D040C2F120029140084319467047D2
:1002200010B5431A934209D28318881803E010F8D6
:10023000011D03F8011D521EF9D210BD40EA010351
:100240009B0703D009E008C9121F08C0042AFAD28C
:1002500003E011F8013B00F8013B521EF9D210BD3A
:10026000D2B201E000F8012B491EFBD270470022F8
:10027000F6E710B513460A4604461946FFF7F0FFA5
:10028000204610BDF0B480EA0102D40F4200B2EB68
:10029000410F02D20246084611464A0042D0C30D21
:1002A000DDB2C1F3C752AD1A202D35DAC1F3160104
:1002B00041F4000204B15242C5F1200602FA06F1EF
:1002C0002A411044B3EBD05F23D0C4B1012DA0EB81
:1002D000C35009DCF0BC4FF0004202EAC352DBB26B
:1002E00000F5000000F06DB9400000F1807000EBF7
:1002F000C350A0F1807040EAD170490009E049087C
:1003000041EAC071A0EBC35000F50000400800EBCB
:10031000C350F0BC00F04CB96142012202EB410134
:10032000001BF6E7F0BC704781F00041AAE780F0BF
:100330000040A7E780EA010210B502F00043400048
:1003400022D04A001FD0010E01EB1261C0F356000B
:10035000C2F3560240F4000042F40002A0FB022067
:1003600000047F39140400D0401C50EA124001D42C
:100370004000491EC2B20C0604EBD010401C4008DD
:10038000802A02D003E0002010BD20F001000029E7
:1003900000DA0020184310BD2DE9F04D81EA030476
:1003A00004F0004B21F0004514464FF0000A23F002
:1003B000004150EA050220D054EA01021DD0C5F3E5
:1003C0000A570246C5F31303C1F31300C1F30A56DB
:1003D00040F4801543F48013A7EB0608101BD646A3
:1003E00008F2FD3873EB050002D308F1010801E0C3
:1003F00092185B41B8F1000F03DA00200146BDE816
:10040000F08D00204FF48011064684460EE0171B45
:1004100073EB050705D3121B63EB050306434CEA98
:10042000010C49084FEA300092185B4150EA01077D
:10043000EDD152EA030012D082EA040083EA0501FA
:10044000084305D0101BAB4106D20122002306E071
:1004500000224FF0004302E06FF0010253101AEB4C
:1004600006004CEB085110EB0A0041EB0B01BDE814
:10047000F04D00F0D4B870B5C1F30A5201F0004558
:100480000024C1F3130140F2FF3341F480119A427A
:1004900001DA002070BD40F233439A42A2F23342A7
:1004A00003DC5242FFF7ACFE00E090402C43F1D059
:1004B000404270BD00F0004230F000400AD0C10D53
:1004C00001F56071C0F3160042EA0151C20840070D
:1004D0001143704700200146704701F0004330B4DB
:1004E00021F0004150EA010206D00A0DA2F5607227
:1004F000C1F31301002A02DC30BC00207047440F16
:1005000044EAC104C100E01830BC00EBC25000F066
:100510004FB800000FB4002300B589B00CA90091BA
:100520000B996FF00042CB601E4B06931E4B079356
:100530000423CDE901321D4A089202466B46002091
:1005400000F0F6F909B05DF814FB70B586B0064608
:100550004FF0FF300091CDE90101002015460C4617
:1005600004903246694604A8FFF7D4FF0246049877
:10057000211825B108B1084600E0204628600498FB
:1005800000280DD0002A02DD0098884208D0081B00
:100590000094CDE901043246694604A8FFF7BAFF8A
:1005A00006B070BD690B0008870B0008FF07000844
:1005B0000029A8BF7047401C490008BF20F0010077
:1005C000704710B4B0FA80FC00FA0CF050EA010455
:1005D00004BF10BC704749B1CCF1200421FA04F4E7
:1005E00011FA0CF118BF012121430843A3EB0C01C0
:1005F000CB1D4FEA00614FEA102042BF002010BC23
:10060000704700EBC35010440029A4BF10BC7047D2
:10061000401C490008BF20F0010010BC704710B515
:10062000141E73F1000408DA401C41F10001921815
:100630005B411A4301D120F0010010BD2DE9F04DBE
:1006400092469B4611B1B1FA81F202E0B0FA80F213
:100650002032904600F0C4F804460F4640EA0A00F3
:1006600041EA0B0153465A46084313D0114653EA58
:10067000010019D0C8F140025046FFF7C1FD054600
:100680000E4650465946424600F0AAF8084305D0A7
:10069000012004E020463946BDE8F08D00200543E6
:1006A00046EAE0762C4337430A986305E40AA0EB58
:1006B00008000022FD0A44EA47540A3002D500200F
:1006C0000146E9E7010510196941DDE9084500190E
:1006D0006941BDE8F04DA2E72DE9FE4F81EA030430
:1006E00004F0004421F0004100944FF0000B23F08F
:1006F000004350EA01045ED052EA03045BD0C3F326
:100700000A54C1F30A552C44A4F2F3340194A0FB1B
:100710000254C1F3130141F48011C3F3130343F4F2
:10072000801301FB024400FB034E840A970A44EA4B
:10073000815447EA8357A4FB076802958D0A05FB9D
:1007400007854FEA932C04FB0C542705029D4FEAC2
:10075000065847EA1637B5EB08056EEB070C870E0F
:10076000920E47EA811742EA8312A7FB0201B6EB19
:100770000B0164EB00042B0D43EA0C335E1844EBD1
:100780001C50DA465146E7FB0201C5F313044FEA59
:100790000B3343EA14534FEA0432019C43EA060345
:1007A000A4F10C040294009CCDE900B4FFF746FFCD
:1007B00003B0BDE8F08F00200146F9E7064C074D75
:1007C00006E0E06840F0010394E807009847103421
:1007D000AC42F6D3FFF7B0FC783400089834000838
:1007E000202A04DB203A00FA02F1002070479140F1
:1007F000C2F1200320FA03F3194390407047C0B2BE
:100800004FF4F05100F0D0B92DE9FF4F087883B0D4
:100810009946FF2805D0491C2D2804D0002400202B
:1008200008E000200BE00124F9E700EB800003EB77
:100830004000491C0B78FF2BF7D104B14042002344
:100840000293147819461D462D2C01D02B2C04D16F
:10085000521C2D2C13D000240294AA461478FF2C8D
:100860000FD00A25A3FB057801FB05814FF0000C92
:1008700003FB0C11521CE3194AEB0101EEE70124C2
:10088000EAE7814453EA010002D019F5C87F06DA8D
:1008900003980021C0E9001107B0BDE8F08F0025E2
:1008A000AE4E2F46DFF8B882184600F091F9CDE938
:1008B0000001B9F1000002DAC9F1000400E00446C9
:1008C0000023A74A1AEB030B42EB045A12E0E0079D
:1008D00007D02A46334638464146FFF7FDFE074615
:1008E00088462A46334610461946FFF7F5FE054668
:1008F0000E466410002CEAD1DDE90001B9F1000FC9
:100900005A46534606DAFFF747FD3A464346FFF795
:1009100043FD05E0FFF7E0FE3A464346FFF7DCFE05
:10092000029A0AB181F00041039AC2E90001B3E7DB
:100930002DE9FF4F1F468DB0D7E901464FF0FF3834
:100940002E2045464FF000090B90B9696D1C0E989A
:100950008847396A824688470028F6D1BAF1FF3FB6
:100960000AD024F4D064002E11DDBAF12B0F08D088
:10097000BAF12D0F0BD102E0404611B08DE744F4DF
:100980008064B9696D1C0E9888478246761E694658
:10099000600501D52D2000E02B208DF8000001F12D
:1009A000010B0DF1200809E0B9696D1C0E9888470C
:1009B00082460F9844F40074761E0560002E02DD16
:1009C000BAF1300FF0D00B998A453ED144F0800443
:1009D00006E00F99681CA9F1010944F4007408604D
:1009E000B9696D1C761E0E98884782463028F0D073
:1009F0002BE00B998A4505D1200603D444F08004EE
:100A0000761E18E0504601F000FE08B30DF1130108
:100A1000761E44F400748B4508D2AAF130000BF81E
:100A2000010B200607D5A9F1010003E0200602D43E
:100A300009F101008146A00502D50F99681C0860E4
:100A4000B9696D1C0E9888478246002ED1DC53E0B0
:100A5000002E51DDBAF1650F02D0BAF1450F4BD12E
:100A6000A00549D5B9696D1C24F44074761E0E9812
:100A700088478246002E0CDD2B2804D0BAF12D0FBA
:100A800007D144F48074B9696D1C0E98884782467A
:100A9000761EE00501D52D2100E02B2108F8011B71
:100AA000CDF82C8021E00DF12901761E44F400746C
:100AB00088450CD2AAF1300010F0FF0088F8000041
:100AC00002D10B99884509D908F1010806E0E00533
:100AD00001D5244801E042F20F708146B9696D1CCE
:100AE0000E98884782460F980560002E04DD504618
:100AF00001F08BFD0028D6D1F9690E988847FF20B8
:100B00008BF8000088F800000020069007904B4604
:100B10006A4608A906A8FFF777FEA00502D46FF081
:100B200001002AE714F0240F0AD0E00714D1DDE910
:100B300006123868031D3B600068C0E900120BE034
:100B4000DDE90601FFF7C9FC0146E00704D138687A
:100B5000021D3A600068016028460EE7000014405C
:100B60000000F03FF1D8FFFF426842B1016811F880
:100B7000013B23B1521EC0E9001218467047012103
:100B8000C160881E704742685AB1C368016843B9A2
:100B900083688B4205D0491E521CC0E90012002018
:100BA00070474FF0FF3070477F2801D9002208E0DE
:100BB000064A02EB5002C007127800D1120902F077
:100BC0000F020120904008407047000020340008C8
:100BD0000EB540F2334202920022CDE900221346C4
:100BE000FFF72CFD03B000BDFEE770472DE9F05F75
:100BF00090F821100024022903D0042181630124EC
:100C000085E001680A6822F00E020A6001680A683D
:100C100022F001020A603F4E3E4FB215DFF8F4C0E9
:100C2000DFF8F090DFF8ECA0DFF8E8B0DFF8E4E000
:100C30000168783F13011502ACF1640CA9F1500969
:100C4000AAF13C0AABF1280BAEF1140E4FF4801858
:100C5000B14227D9B9420ED0614512D049451DD0C5
:100C6000514518D0594518D0714501D1424615E07B
:100C7000294EB14201D1012210E0274E1436B14273
:100C800001D110220AE0244E2836B14206D0224A71
:100C90003C32914201D11A4600E02A461E49091F02
:100CA0000A602BE0B94213D0614517D0494522D0E4
:100CB00051451DD059451DD0714501D142461AE01C
:100CC000B14202D14FF0807215E0134EB14201D112
:100CD000012210E0104E1436B14201D110220AE078
:100CE0000D4E2836B14206D00B4A3C32914201D11A
:100CF0001A4600E02A46074980394A60012180F8F7
:100D00002110002180F82010416B01B18847204656
:100D1000BDE8F09F80000240080402402DE9F84F32
:100D2000DFF8C891002409F1040A0AF1040B2346F4
:100D30000F270BF1040ED1E00125A54006EA0502BC
:100D4000AA4276D1DFF8A8C14E68A6EB0C0866452A
:100D50002BD00DDC032E34D005DC36B3012E19D098
:100D6000022E2FD11BE0112E16D0122E2AD119E0FF
:100D7000B8F5881F19D006DCB8F5803F15D0B8F556
:100D8000801F1FD111E0B8F5001F0ED0B8F5041F69
:100D900018D10AE0CB6815E0CB681B1D12E0CB68C8
:100DA00008330FE0CB680C330CE08B682BB1012BC0
:100DB0004FF0080303D0456104E0042302E005611D
:100DC00000E00023FF2A01D8064601E000F10406F6
:100DD0004FEA840501D9A5F12005D6F8008007FA6D
:100DE00005FC28EA0C0803FA05F548EA0508C6F8E8
:100DF00000804D68ED0070D53E4DAE6946F00106AD
:100E0000AE61AD6924F0030605F0010500953A4D89
:100E100006EB050CDCF80850A607360F07FA06F8B3
:100E200025EA0805DFF8D480404503D14FF00008DB
:100E300025E052E0DFF8C880404502D14FF00108BC
:100E40001DE0DFF8C080404502D14FF0020816E0F7
:100E5000DFF8B480404502D14FF003080FE0DFF81F
:100E6000AC80404502D14FF0040808E0DFF8A080D4
:100E7000404502D14FF0050801E04FF0060808FA9E
:100E800006F848EA0508CCF808804D68D9F80060F3
:100E9000ED034D4601D5164300E096432E604D68A4
:100EA000DAF80060AD03554601D5164300E09643DD
:100EB0002E604D68DBF80060ED025D4601D51643FB
:100EC00000E096432E604D68DEF80060AD02754686
:100ED00001D5164300E096432E60641C0A6816464E
:100EE000E2407FF429AFBDE8F88F00000004014024
:100EF00000001110001002400000014000080140F5
:100F0000000C014000100140001401400018014095
:100F1000001C01400AB1016170470904FBE70000B1
:100F20000148806870470000140000200248816872
:100F3000027811448160704714000020074810B502
:100F4000016841F010010160032000F095F80020D5
:100F500000F006F800F03EF8002010BD002002402E
:100F600000B5014687B000221E2000F065F81E2063
:100F700000F054F81348C16941F00401C161C0692F
:100F800005A900F004000690684600F01DF900F085
:100F90003BF90D494000B0FBF1F10D480B4A491EE9
:100FA0000260416040F2E7320021C0E90321816024
:100FB00000F05CFB10B1012007B000BD044800F058
:100FC00097FBF9E70010024040420F000008004084
:100FD0004C0800200F4808B5816941F0010181618A
:100FE000816901F001010091C16941F08051C16145
:100FF000C069002200F0805000900F21901E00F088
:101000001BF80548416821F0E06141F00071416042
:1010100008BD00000010024000000140002809DB6C
:1010200000F01F02012191404009800000F1E02002
:10103000C0F8001170470000F0B40E4B1B680C465E
:10104000C3F30223C3F10705042D00D90425191D9C
:10105000072901D2002300E0DB1E012606FA05F174
:10106000491E214099409E40761E16403143F0BCF7
:1010700001F0ACBA0CED00E0064900F00702086888
:101080004FF6FF03184040EA0220034A104308606D
:10109000704700000CED00E00000FA052DE9F04774
:1010A0000F46050061D0434E306800F00700B8429B
:1010B00009D2306820F0070038433060306800F013
:1010C0000700B84251D128683B4C810712D5400730
:1010D00003D5606840F4E06060602878000703D5BD
:1010E000606840F4605060606068A96820F0F000BB
:1010F000084360602878C00728D06868012810D0AD
:101100002168022810D0890700292EDA616821F0B1
:10111000030101436160FFF703FF804641F2883914
:101120000DE021688903EFE78901EDE7FFF7F8FE9D
:10113000A0EB0801494502D90320BDE8F0876068AB
:10114000696800F00C00B0EB810FEFD1306800F05F
:101150000700B8420BD9306820F0070038433060F0
:10116000306800F00700B84201D00120E5E7287898
:10117000400705D56068E96820F4E06008436060D6
:101180002878000706D56068296920F4605040EA95
:10119000C100606000F058F86168084AC1F30311AB
:1011A000515CC8400649086006480068FFF7D8FE51
:1011B0000020C2E70020024000100240083400086E
:1011C00020000020180000200F2202600C4A536803
:1011D00003F003034360536803F0F0038360536834
:1011E00003F4E063C36052684FF4E06303EAD202A1
:1011F00002610448006800F00700086070470000C2
:101200000010024000200240044805490068496877
:10121000044AC1F30221515CC840704720000020FD
:101220000010024018340008044805490068496865
:10123000044AC1F3C221515CC8407047200000201D
:10124000001002401834000812A185B00FC98DE8C3
:101250000F0014A0144A006804905168134801F06C
:101260000C03042B10D0082B0ED1C1F38343C90308
:101270001DF803000AD5516804AAC1F34041515C2E
:101280000A4A5043B0FBF1F005B0704708494843A3
:10129000FAE7000002030405060708090A0B0C0D13
:1012A0000E0F1010010200000010024000127A0020
:1012B00000093D002DE9F84F040070D02078C04DA2
:1012C000C00749D06868C0F38100012807D068686A
:1012D000C0F38100022809D16868C00306D52868D8
:1012E000800339D560680028E7D035E06068B0F544
:1012F000803F0BD010B1B0F5A02F11D0286820F49A
:1013000080302860286820F4802002E0286840F4BB
:1013100080302860606890B1FFF702FE06460AE060
:10132000286840F480202860F0E700BFFFF7F8FD50
:10133000801B642873D828688003F7D50CE0FFF77A
:10134000EFFD064605E000BFFFF7EAFD801B6428BD
:10135000F0D828688003F7D420789A4E80074FF0A1
:1013600001094FF0000839D5686810F00C0F07D05C
:101370006868C0F38100022809D16868C00306D4F8
:101380002868800714D52069012808D110E0206959
:10139000B0B1C6F80090FFF7C3FD074605E00AE1CB
:1013A000FFF7BEFDC01B0228C4D828688007F7D508
:1013B0002868616920F0F80040EAC10028600DE06B
:1013C000C6F80080FFF7ACFD074604E0FFF7A8FD74
:1013D000C01B022823D828688007F7D4207800078C
:1013E0002CD57948A169D9B1C0F80090FFF798FDD4
:1013F000074604E0FFF794FDC01B02280FD8686A77
:101400008007F7D571484FF4FA510068B0FBF1F04E
:10141000009000BF0098411E0091FAD20EE080E0DB
:10142000C0F80080FFF77CFD074604E0FFF778FD79
:10143000C01B022875D8686A8007F7D42078400757
:1014400060D5E8690027C00008D4E86940F0805002
:10145000E861E869012700F0805000905C4801686D
:10146000C90513D40168834641F480710160FFF718
:1014700057FD824606E000BFFFF752FDA0EB0A00D1
:1014800064284ED8DBF80000C005F5D5E0680128D7
:101490000AD008B1052813D0286A20F0010028627C
:1014A000286A20F0040002E0286A40F00100286267
:1014B000E06841F2883B98B1FFF732FD82460BE0CD
:1014C000286A40F004002862EEE700BFFFF728FD1D
:1014D000A0EB0A0159455AD8286A8007F6D50CE0D6
:1014E000FFF71EFD824605E0FFF71AFDA0EB0A019B
:1014F00059454CD8286A8007F6D41FB1E86920F016
:101500008050E861E06988B36968C1F3810102290C
:1015100044D00228C6F8608004D0FFF701FD0446DD
:1015200038E034E0FFF7FCFC074604E0FFF7F8FC86
:10153000C01B02282BD828688001F7D4206AB0F598
:10154000803F05D16868A16820F4003008436860D6
:10155000D4E908010843696821F4741108436860FC
:10156000C6F86090FFF7DCFC044606E025E000BF0B
:10157000FFF7D6FC001B022809D828688001F7D5A0
:101580001BE000BFFFF7CCFC001B022802D90320A0
:10159000BDE8F88F28688001F4D40EE00128F7D068
:1015A0006868226A00F48031914204D1616A00F4D3
:1015B0007010884201D00120EAE70020E8E700002F
:1015C00000100240000042428004424220000020FD
:1015D000007000404FF0E0210428086903D020F09B
:1015E00004000861704740F00400FAE77047704754
:1015F00070B590F83C20012A2CD0012480F83C40A2
:10160000022280F83D2003685A689D6822F0700627
:101610000A6832435A60104B02689A420ED00F4B50
:101620009A420BD0B2F1804F08D00D4B9A4205D0B0
:101630000C4B9A4202D00C4B9A4204D1496825F0D7
:1016400080031943916080F83D40002180F83C10F0
:10165000084670BD022070BD002C014000340140DE
:101660000004004000080040000C004010B50400D9
:1016700003D094F83D0010B107E0012010BD002018
:1016800084F83C00204600F01FF8022084F83D005A
:10169000211D206800F058FD012084F8460084F8E0
:1016A0003E0084F83F0084F8400084F8410084F84C
:1016B000420084F8430084F8440084F8450084F82C
:1016C0003D00002010BD000008B5006806498842B2
:1016D00008D10648C16941F00801C161C06900F044
:1016E0000800009008BD0000000C004000100240FF
:1016F00090F83D10012901D001207047022180F8A7
:101700003D100168CA6842F00102CA6000680E49D3
:1017100088420ED00D4988420BD0B0F1804F08D0DE
:101720000B49884205D00B49884202D00A498842B9
:1017300004D1816801F00701062903D0016841F056
:101740000101016000207047002C0140003401407D
:101750000004004000080040000C004070B5044642
:1017600090F83C00012817D0012584F83C50022055
:1017700084F83D002068826822F0770222F47F42DC
:1017800082600868502830D00DDC20284DD005DC60
:1017900098B310283BD148E0022070BD302844D0D7
:1017A000402834D139E0602828D0702806D0B0F520
:1017B000805F2CD0B0F5005F29D10AE0CB68D1E979
:1017C0000121206800F006FD2068816841F0770162
:1017D00009E0CB68D1E90121206800F0FBFC20681A
:1017E000816841F48041816011E0CA6849682068DD
:1017F00000F0C4FD5021206807E016E0CA6849687F
:10180000206800F0CCFD6021206800F0EDFC84F839
:101810003D50002084F83C0070BDCA6849682068CB
:1018200000F0ACFD40212068EFE722680146104639
:10183000EBE7704770B50446006801694FF000059A
:10184000C943890715D4C168C943890711D4E91E62
:10185000016101202077206880698007204602D03E
:10186000FFF7E7FF04E000F0BFF8204600F04EF974
:10187000257720680169C943490717D4C168C9435E
:10188000490713D46FF0040101610220207720681A
:10189000806910F4407F204602D0FFF7CAFF04E0C1
:1018A00000F0A2F8204600F031F9257720680169A0
:1018B000C943090716D4C168C943090712D46FF098
:1018C00008010161042020772068C0698007204654
:1018D00002D0FFF7AEFF04E000F086F8204600F0EB
:1018E00015F9257720680169C943C90617D4C1686D
:1018F000C943C90613D46FF0100101610820207795
:101900002068C06910F4407F204602D0FFF791FFA5
:1019100004E000F069F8204600F0F8F82577206828
:101920000169C943C90708D1C168C943C90704D1BE
:10193000891E0161204600F0EBF820680169C94367
:10194000090609D4C168C943090605D46FF08001AE
:1019500001612046FFF74AFE20680169C943490634
:1019600009D4C168C943490605D46FF0400101613B
:10197000204600F0D7F820680169C94389060BD4D6
:10198000C168C943890607D46FF020010161204670
:10199000BDE87040FFF72BBE70BD000000B585B0FC
:1019A0000021009101910291039100680B49884246
:1019B00011D10B48816941F0040181618069694658
:1019C00000F0040004900120009002200190039098
:1019D0000448FFF7A3F905B000BD0000000C00406B
:1019E0000010024000080140704770B5044690F8AE
:1019F0003C000D4601280AD0012084F83C0042B189
:101A0000042A18D0082A2AD00C2A4DD139E0022005
:101A100070BD206800F0F0FB2068816941F008018A
:101A200081612068816921F00401816120688169F8
:101A30002A69114311E0206800F00EFC20688169DA
:101A400041F4006181612068816921F480618161D4
:101A5000206881692A6941EA0221816124E02068C5
:101A600000F030FC2068C16941F00801C1612068C4
:101A7000C16921F00401C1612068C1692A6911436B
:101A800011E0206800F052FC2068C16941F4006157
:101A9000C1612068C16921F48061C1612068C169A8
:101AA0002A6941EA0221C161002084F83C0070BD2E
:101AB00010B5040003D094F83D0010B107E00120F8
:101AC00010BD002084F83C00204600F01EF80220E3
:101AD00084F83D00211D206800F036FB012084F8C9
:101AE000460084F83E0084F83F0084F8400084F803
:101AF000410084F8420084F8430084F8440084F8EC
:101B0000450084F83D00002010BD7047704700007C
:101B100000680349884201D1FFF708BA7047000006
:101B2000000800407047704770B5026804461068AE
:101B3000D168536910F00F0F52D003F0010501F482
:101B400090762E435FD0C20705D0CA0503D5E26B5D
:101B500042F00102E263420705D5DA0703D0E26BE7
:101B600042F00202E263820705D5DA0703D0E26B96
:101B700042F00402E263020707D501F020022A4383
:101B800003D0E26B42F00802E263E26B002A33D03A
:101B9000800604D5880602D5204600F028FC20687F
:101BA0004069E16BC0F38010090700D428B32046D8
:101BB00000F00FFC2068416949061AD5416921F0FF
:101BC00040014161606BA0B12D494163606BFFF73B
:101BD0000DF8002810D0606B416BBDE870400847DD
:101BE000830610D58B060ED52046BDE8704000F068
:101BF000FEBB2046FFF797FF70BD2046FFF793FF1F
:101C00000020E06370BD03062BD50B0629D594F8A0
:101C100039002128F6D1A068B0F5805F01D1206994
:101C2000B0B1206A411C2162216800784860E08CD4
:101C3000401E0004000CE084E4D12068C16821F05B
:101C40008001C1602068C16841F04001C16070BD81
:101C5000206A0088C0F308005060206A801C20625F
:101C6000E5E74006F3D54806F1D5D168204621F0D6
:101C70004001D160202184F8391000F01EF970BDB8
:101C8000C323000870B5040004D094F8390000257F
:101C900010B106E0012070BD84F83850204600F0F5
:101CA00023F8242084F839002068C16821F4005109
:101CB000C160204600F0E2FB2068016921F49041F8
:101CC00001612068416921F02A0141612068C168F1
:101CD00041F40051C160E563202084F8390084F8A4
:101CE0003A00002070BD000030B585B0002400949B
:101CF0000194029403940068184988422CD1184832
:101D0000816941F480418161816901F480410491DC
:101D1000816941F0040181618069124D00F0040085
:101D200004904FF400700090022001900320039073
:101D300069462846FEF7F2FF2815CDE900046946FA
:101D400028460294FEF7EAFF002205212520FFF72E
:101D500073F92520FFF762F905B030BD0038014066
:101D6000001002400008014090F83A30202B22D1A8
:101D7000F9B1F2B190F83830012B1CD08162828524
:101D8000C2850021C163222280F83A2080F83810F1
:101D90000168CA6842F48072CA6001684A6942F008
:101DA00001024A610068C16841F02001C160002061
:101DB00070470120704702207047000010B500688E
:101DC0000C49884214D10C480D4C0C4A01782088EB
:101DD0000A29115408D0401C2080BDE8104001227F
:101DE00005490848FFF7C0BF00F044FF0020F3E7B3
:101DF00010BD00000038014002000020E405002072
:101E00000C000020F40000202DE9F843044690F86F
:101E100039001F4616460D4620284CD1C5B1BEB12B
:101E200094F83800012846D0012084F838004FF09B
:101E30000008C4F83C80212084F83900FFF770F8CE
:101E4000A6848146E684A068B0F5805F03D004E0F4
:101E50000120BDE8F883206928B12E465FF0000517
:101E600084F838800EE00026FAE78021204600F052
:101E700061FBA0B9AEB116F8010B21684860E08C97
:101E8000401EE084E08C4B464FF000020097002893
:101E9000EBD14FF04001204600F04CFB30B1032065
:101EA000D7E735F8020BC0F30800E6E7202084F8F6
:101EB00039000020CDE70220CBE77047FEE70000A5
:101EC0002DE9F04F85B00024384800940194029425
:101ED0000394816941F010018161816901F0100171
:101EE0000491816941F004018161816901F004017B
:101EF0000491816941F008018161816901F0080163
:101F00000491816941F040018161816901F04001E2
:101F10000491816941F0200181618069DFF890902E
:101F200000F020000490012230214846FEF7F2FF25
:101F3000DFF880A0012202215046FEF7EBFF0122CC
:101F4000DFF874B0170239465846FEF7E3FF4FF446
:101F50007068012241461948FEF7DCFF3020012558
:101F60000326CDE90005CDE9024669464846FEF75D
:101F7000D5FE0220CDE90005CDE90246694650466E
:101F8000FEF7CCFE00970396CDE90154694658460A
:101F9000FEF7C4FECDF800800396CDE901546946F2
:101FA0000648FEF7BBFE05B0BDE8F08F001002400A
:101FB00000100140000C01400018014000140140D5
:101FC00010B58EB000240794089409940A940B94D9
:101FD0001C2168460C94FEF74AF920481E4901600E
:101FE0004821C0E9011442F21071C0E903148021B4
:101FF0008161FFF73BFB08B172B6FEE74FF48050FA
:10200000079007A91548FFF7A9FB08B172B6FEE7CC
:102010001248FFF74DFD08B172B6FEE70B940BA90D
:102020000E480C94FFF7E4FA08B172B6FEE76020A0
:10203000009041F28830CDE901040022694607484A
:102040000494FFF7D2FC08B172B6FEE70348FFF72D
:10205000A5FC0EB010BD0000000C0040AC0000203C
:10206000FEE7FEE70122114DD40221462846FEF785
:1020700051FFC82000F026FB002221462846FEF72B
:1020800049FFC82000F01EFBA4100022214628466C
:10209000FEF740FF642000F097FB0122214628460E
:1020A000FEF738FF642000F08FFBEEE700140140DC
:1020B00010B5502080F31188BFF34F8FBFF36F8F9F
:1020C00001F0C0F818B104494FF0805008600020BA
:1020D00080F3118810BD000004ED00E030B58FB032
:1020E00028216846FEF7C3F814210AA8FEF7BFF8B6
:1020F00001210804CDE90010002402940225049176
:10210000CDE907504FF4E01009906846FFF7D2F888
:1021100008B172B6FEE70F20CDE90A054FF48060E2
:10212000CDE90C4002210AA80E94FEF7B7FF002863
:1021300001D072B6FEE70FB030BD70470148FFF71F
:1021400079BB00004C080020F0B502681C4B1D4D07
:102150001D4E1E4F1E4C4FF0804C984209D0A0429D
:1021600007D0604505D0A84203D0B04201D0B842A4
:1021700004D122F0700E4A6842EA0E02984209D059
:10218000A04207D0604505D0A84203D0B04201D09C
:10219000B84203D122F44075CA682A434D6922F03F
:1021A00080022A4302608A68C2620A688262984298
:1021B00001D0A04201D10969016301214161F0BD53
:1021C000002C01400004004000080040000C0040CA
:1021D0000034014010B5846842EA032224F47F44AD
:1021E0000A432243826010BD826822F070020A43D3
:1021F00042F0070181607047F0B5026A22F00102E7
:102200000262036A42688469124E24F073050C6806
:102210002C4323F002058B682B430D4DA84201D0BF
:10222000B04205D123F00807CB683B4323F00403F9
:10223000A84201D0B04205D14D6922F44072154345
:102240008A692A4342608461496841630362F0BD40
:10225000002C014000340140F0B5026A22F0100267
:102260000262026A436884690D6824F4E64444EA21
:1022700005248D6822F0200242EA05120F4D104E0F
:10228000A84201D0B04206D1CF6822F0800242EAD3
:10229000071222F04002A84201D0B04207D14D6996
:1022A00023F4406343EA85038D6943EA8503436071
:1022B0008461496881630262F0BD0000002C014026
:1022C00000340140F0B5026A22F480720262026AB0
:1022D0004368C46922F4007224F073050C68124E3E
:1022E0002C438D6842EA05220E4DA84201D0B0422F
:1022F00006D1CF6822F4006242EA072222F480620B
:10230000A84201D0B04207D14D6923F4405343EABB
:1023100005138D6943EA05134360C4614968C163CD
:102320000262F0BD002C01400034014030B5026A69
:1023300022F480520262046A4268C3690D6823F481
:10234000E64343EA05238D6824F4005444EA053447
:10235000084DA84202D0084DA84204D14D6922F48C
:10236000804242EA85124260C361496801640462A6
:1023700030BD0000002C01400034014010B5036A5C
:10238000046A24F001040462846924F0F00444EA3D
:10239000021423F00A020A438461026210BD10B5E0
:1023A000036A23F0100303628369046A23F4704311
:1023B00043EA023224F0A00343EA01118261016280
:1023C00010BD10B5406A0021C185C184FFF7ABFB89
:1023D00010BD0168CA6822F49072CA6001684A6937
:1023E00022F001024A61202180F83A10704710B5AE
:1023F00090F83A10222901D0022010BD82684FF4D3
:1024000080539A4201D1016921B1816A9A421BD05D
:102410004AB10AE00268816A5268C2F308020A807F
:10242000816A891C08E0026972B10268526802F090
:102430007F020A70816A491C8162C18D491E0904AC
:10244000090CC18503D016E002685268F1E7016803
:10245000CA6822F02002CA600168CA6822F4807249
:10246000CA6001684A6922F001024A61202180F8AD
:102470003A10FFF7A3FC002010BD000070B5044621
:1024800000680169E26821F440511143016121694A
:10249000A0680843616908432168CA6841F20C6377
:1024A0009A430243CA6020684169A26921F44071DD
:1024B000114341611E492068884202D1FEF7B4FEF3
:1024C00001E0FEF7A1FE00EBC00101EB0012606825
:1024D00064218000B2FBF0F3B3FBF1F36FF0180658
:1024E0007343B2FBF0F5B2FBF0F605EB8305322344
:1024F00003EB0515B5FBF1F5B6FBF1F605F0F005BC
:1025000005EB0615B2FBF0F6B2FBF0F0B0FBF1F014
:102510006FF01802504306EB800003EB0010B0FB95
:10252000F1F0216800F00F002844886070BD0000C1
:10253000003801402DE9F041984617460E46044602
:10254000069D1DE0681C1BD02DB1FEF7E9FCA0EB39
:102550000800A84214D92068C16821F4D071C16074
:102560002068416921F001014161202084F839008F
:1025700084F83A00002084F838000320BDE8F08198
:102580002068006836EA000004D00020B842D9D0A4
:102590000020F3E70120F9E710B50548FFF7C4FA7A
:1025A000BDE81040012203490148FFF7DDBB0000F0
:1025B000F400002002000020FEE70000014A02496A
:1025C00000F02AB815270008A80000200907090E06
:1025D000002804DB00F1E02080F80014704700F0D0
:1025E0000F0000F1E02080F8141D704702E008C8D9
:1025F000121F08C1002AFAD170477047002001E07D
:1026000001C1121F002AFBD1704730380A2801D2BD
:1026100001207047002070472DE9F04116460F4613
:102620000446002503E03946B047641C6D1C207841
:102630000028F8D12846BDE8F0810000194D28781F
:1026400001281AD1012412E0174F07EBC40656F8EF
:10265000041C7068083EFDF767FE804657F834009A
:102660003168FDF761FE414600F062FB641C68784A
:10267000401E8442E8DB002028700C4E4FF480643A
:10268000002221463046FEF745FC642000F09CF80D
:10269000012221463046FEF73DFC642000F094F80C
:1026A000CDE70000000000203401002000140140AC
:1026B00010B504460420FEF78DFF0148046010BDEC
:1026C000A400002070B5054600244FF47A7603E09C
:1026D000304600F005F8641CAC42F9D370BD000030
:1026E00070B54FF0E024002265690949A3690968C3
:1026F0004843A1699942FCD002D2A3EB010302E056
:10270000A5EB010633441A440B468242F1D370BD57
:10271000A400002008B502238DF8000001226946BC
:102720000248FFF771FB012008BD0000F400002003
:102730008EB0FEF703FCFFF7D1FCFFF7C1FB1C488E
:102740001A490C2201604FF4E1314160002181609F
:10275000C160C0E904128161C161FFF793FA08B159
:1027600072B6FEE7FFF72CFC4820FFF7A1FF01221D
:1027700010490F48FFF7F8FA1C220F496846FDF789
:102780004FFD0021684600F02BF80A4C0A49A41EB0
:102790001C2260601C3107A8FDF742FD002107A83C
:1027A00000F01EF8A06000F016F8FEE700380140C7
:1027B000F400002002000020D03300080146002071
:1027C000842900D0C81C704710B500B9012000F062
:1027D000FBFB002010BD10B500F01CFC002010BD5C
:1027E0007FB50D4604464169B0F9080081B1A16981
:1027F00071B1FFF7E3FFD4E905128DE80700D4E9D2
:1028000000102B46226900F0F2FC039004B070BD6A
:10281000FFF7D4FF03A9CDE90001208A2B4682B23D
:10282000D4E9001000F0B6FC012801D00020EDE74B
:102830000398EBE72DE9F041184C0F460546666911
:102840002068001D00F0FCFA38B9206890F82C10C0
:1028500001208840A1698143A161681C07D137B17B
:102860002168BDE8F0410E48091D00F02DBB20682D
:102870003544B5424560216805D2A068BDE8F04105
:10288000091D00F009BB6068091D00F005FB206B05
:10289000854200D22563BDE8F081000024000020BD
:1028A000700900202DE9F041054600F019FB2E4C7F
:1028B0002069401C206120682C4F10B1E06940B3B2
:1028C0002DE025602069012829D1002606EB86002D
:1028D00007EB800000F0D2FA761C072EF6D32348CF
:1028E0008C3000F0CBFA2148A03000F0C7FA1F4826
:1028F000B43000F0C3FA1D48C83000F0BFFA1B48DE
:10290000DC3000F0BBFA19488C3060601430A060F5
:1029100005E02068E96AC06A884200D82560E06A5C
:10292000401CE062E96A0120A26988401043A0616E
:1029300001EB810007EB8000291D00F0C5FA00F0D3
:10294000EFFAE06900280CD02068E96AC06A884282
:1029500007D207494FF080500860BFF34F8FBFF395
:102960006F8FBDE8F0810000240000209408002053
:1029700004ED00E010B5044690F8510058B101286C
:102980000CD002280FD0502080F31188BFF34F8F56
:10299000BFF36F8FFEE7206B00F0D6FA2046BDE84C
:1029A000104000F0D1BA10BD10484FF4406142070A
:1029B00006D0C01D0D4920F00700411AC1F5406145
:1029C0000B4A00230144C2E900030839103A21F000
:1029D000070111604B600B600B1AC0E90013936094
:1029E0004FF000405360D060704700008409002021
:1029F00070000020144E154CA6F1C8074FF0805807
:102A0000DFF84C9012E000BF00F06AFAF068C56889
:102A1000281D00F015FA2069401E2061E068401E64
:102A2000E06000F07DFA2846FFF7A4FFE068002888
:102A3000EAD138680128F9D9C9F80080BFF34F8F6F
:102A4000BFF36F8FF2E700005C0900202400002034
:102A500004ED00E02DE9F0479A46DDE9098481465E
:102A60006FF00303206B03EB82021044089D20F0FB
:102A70000706700707D0502080F31188BFF34F8FEF
:102A8000BFF36F8FFEE723180A5C83F834200A5CDB
:102A900012B1401C1028F6D3002784F84370072D8C
:102AA00000D30625E562C4E91157201D00F0F1F9B5
:102AB00004F1180000F0EDF92461C5F1070064622B
:102AC000A061E76484F8507052464946304600F0F1
:102AD000BFF82060B8F1000F01D0C8F80040BDE891
:102AE000F087000030B5114900E011460A688242C3
:102AF000FBD34B685C18844203D14068184448609B
:102B0000084643681C18944209D1084C103C2468BC
:102B1000A24209D052681A4442600A6812680260F0
:102B2000814200D0086030BD0460F9E770000020E9
:102B300006484168096829B14168C968C968496897
:102B4000016370474FF0FF31FAE7000024000020D6
:102B500008484068401C4FF0500080F3118804D0B2
:102B6000BFF34F8FBFF36F8FFEE7BFF34F8FBFF3FE
:102B70006F8FFEE7780000202DE9F0410546002721
:102B800000F07EFA314E306808B9FFF70DFFF068AB
:102B900005424BD1C5B3083568070ED005F00700D4
:102BA000C0F108000544680707D0502080F3118861
:102BB000BFF34F8FBFF36F8FFEE72DB37068854271
:102BC00034D82248103001460C6801E020460C46FB
:102BD0006168A94202D221680029F7D131688C428C
:102BE00024D007682168016060680837411B1029FC
:102BF0000FD96019420708D0502080F31188BFF325
:102C00004F8FBFF36F8FFEE710E041606560FFF705
:102C100069FF61687068401A7060B268904200D2C3
:102C2000B060F06801430020C4E9000100F06EFBD1
:102C3000780707D0502080F31188BFF34F8FBFF380
:102C40006F8FFEE73846BDE8F0810000600000208D
:102C500010B5031F4FF080741C601B1F21F0010191
:102C60001960191F024B0B60143940380A6010BDFF
:102C7000512B00082DE9F8432248DFF88C900146DB
:102C800002784978642A16D0652A12D16E2910D1AB
:102C90001EA0FFF793FC234A99F80410012011703D
:102CA0000021C9F804102049087014211548FDF7C7
:102CB000DEFABDE8F8836129FBD16946401D00F0CA
:102CC000B1F804460F466946009800F0ABF8054697
:102CD0000E4614210B48FDF7CAFA20463946FDF787
:102CE000FCFBDFF84880D9F804404F46314648F8ED
:102CF00034002846FDF7F1FB08EBC401641C486072
:102D00007C60D6E7E40500200C000020646174615B
:102D1000207265636965766520656E642121210DE9
:102D20000A00000001000020000000203401002003
:102D30002DE9FE4F4FF400080D46404501DB01240C
:102D400000E00024DFF85490DFF854A0404501DB98
:102D5000494600E05146FDF7EDFA64260094114F14
:102D6000CDE9016097E80F0000F01EF8454501DB52
:102D7000012400E00024454501DB494600E05146BE
:102D80002846FDF7D7FA0094CDE90160103797E89F
:102D90000F0000F009F8BDE8FE8F00000000B4430A
:102DA0000000B4C3840000202DE9F0470446DDE9AB
:102DB00009A00F4615469846DDF82090FDF77AFBEE
:102DC000164A174BFDF7E8FAFDF755FB0646B9F131
:102DD000000F01D0012200E000221FFA88F12846EE
:102DE000FEF798F80120FFF7EFFC0025BFB210E0D6
:102DF000204601223946FEF78DF85046FFF770FC59
:102E0000204600223946FEF785F85046FFF768FC59
:102E10006D1CB542ECDBBDE8F0870000CDCCCCCC1E
:102E2000CCCCBC3F00B583B00A460021CDE90011EF
:102E300001466846FDF789FBDDE9000103B000BDEE
:102E4000D0E9013201699A60D0E901235A604A68E9
:102E5000824201D182684A60002202610868401EF5
:102E60000860086870470000034B036003F15400DA
:102E70000860802010607047F805002000F108010C
:102E80004FF0FF32C0E90112C16001610021016011
:102E9000704700210161704730B50B685A1C02D0A1
:102EA00000F1080202E0026904E022465468256845
:102EB0009D42FAD953684B6099608A6051600861FD
:102EC0000168491C016030BD42684A6093688B60AC
:102ED00093685960916008610168491C01607047FE
:102EE000502080F31188BFF34F8FBFF36F8F0A49D3
:102EF0004868401C486001280CD10848006810F060
:102F0000FF0F07D0502080F31188BFF34F8FBFF31E
:102F10006F8FFEE7704700007800002004ED00E0AE
:102F20000849486828B1401E486001D180F31188E3
:102F30007047502080F31188BFF34F8FBFF36F8F1E
:102F4000FEE700007800002070B5002827D0144D5F
:102F5000A0F108046168E868014207D1502080F3BD
:102F60001188BFF34F8FBFF36F8FFEE722683AB12E
:102F7000502080F31188BFF34F8FBFF36F8FFEE7B0
:102F80008143616000F07CF86068696808446860AB
:102F90002046FFF7A7FDBDE8704000F0B7B970BD4F
:102FA000600000204FF0E0200021016181610549AF
:102FB0004FF47A720968B1FBF2F1491E41610721B1
:102FC000016170472000002010B5020014D00F48A6
:102FD000806B38B1502080F31188BFF34F8FBFF35F
:102FE0006F8FFEE700F04CF800211046FFF722FC3F
:102FF00000F08CF9002807D105494FF08050086097
:10300000BFF34F8FBFF36F8F10BD0000240000206F
:1030100004ED00E010B586B00024039405AA04A9CD
:1030200003A80494FFF720FFDDE903010094CDE934
:10303000011000230EA11048059A00F0D8F80F499E
:103040000028486311D0502080F31188BFF34F8FC0
:10305000BFF36F8F4FF0FF3008630120C8614C61F0
:1030600006B0BDE8104000F041B806B010BD000049
:1030700049444C4500000000F529000824000020C8
:103080000248816B491C81637047000024000020C6
:103090001448816B11B101214162704700214162E6
:1030A0008169B1FA81F1C1F11F0101EB81020E4981
:1030B00051F822306BB101EB820101F108034A683B
:1030C00052684A609A4201D152684A60D1680160F0
:1030D0007047502080F31188BFF34F8FBFF36F8F7D
:1030E000FEE7000024000020940800201CB52649BB
:1030F00008780190FF20087008788DF800009DF88E
:1031000000009DF8002000F0F000904207D0502011
:1031100080F31188BFF34F8FBFF36F8FFEE79DF8E9
:1031200000001A4B00F0500018700720986005E06E
:103130009DF8002052008DF80020401E9DF80020D0
:103140001206F5D49860032807D0502080F3118828
:10315000BFF34F8FBFF36F8FFEE74FF4407098605F
:10316000019808700A48016841F470010160016823
:1031700041F070410160FFF715FF00205860FCF737
:10318000F3FF00201CBD000000E400E078000020F8
:1031900020ED00E02DE9FF5F8346DDE90E879946CB
:1031A00016468A469000FFF7E7FC05001CD0542025
:1031B000FFF7E2FC040014D00020256384F85100DE
:1031C000CDE90240CDE900874B463246514658468C
:1031D000FFF740FC2046FFF765FB012004B0BDE887
:1031E000F09F2846FFF7B0FE4FF0FF30F6E7F0B54E
:1031F00085B0DDE90B640A9DA6B1DCB154270097C8
:103200002663022684F85160002604AFCDE9024609
:10321000CDE90057FFF71EFC2046FFF743FB04985B
:1032200005B0F0BD502080F31188BFF34F8FBFF37E
:103230006F8FFEE7502080F31188BFF34F8FBFF3ED
:103240006F8FFEE72DE9F0412E4C0027A06B40B1B7
:10325000206A401C2062606A00B101273846BDE840
:10326000F0816669761C666113D16068006838B1C8
:10327000502080F31188BFF34F8FBFF36F8FFEE7AD
:103280006068A1686160A060A06A401CA062FFF74E
:103290004FFC206BDFF87080864209D360680068BD
:1032A00080B16068C068C568686886420DD22063D6
:1032B0002068C06A00EB800158F821000128CAD9B3
:1032C0000127C8E74FF0FF30F1E7281DFFF7B8FDF1
:1032D000A86A18B105F11800FFF7B2FDE86A0121EC
:1032E000A26981401143A16100EB800108EB8100DC
:1032F000291DFFF7E9FDE86A2168C96A8842CDD334
:103300000127CBE724000020940800202DE9F04796
:103310002C4D00242746A86B38B1FFF7E1FDA86BC0
:10332000401EA863A86B40B146E0502080F311888E
:10333000BFF34F8FBFF36F8FFEE72969224E012045
:10334000D1B3A6F1B40980463068E8B1F068C4682A
:1033500004F11800FFF774FD201DFFF771FDE06A0E
:10336000AA6908FA00F11143A96100EB800109EB99
:103370008100211DFFF7A8FDE06A2968C96A88421B
:10338000E2D3C5F82480DFE70CB1FFF7D1FB2C6A4C
:1033900044B14646FFF756FF00B16E62641EF9D194
:1033A00000202862686A38B1084901273807086098
:1033B000BFF34F8FBFF36F8FFFF7B2FD3846BDE805
:1033C000F0870000240000204809002004ED00E000
:1033D0006C340008652000080000000000000000B8
:1033E00080000000000000000000000060340008C1
:1033F0003D260008000000000000000080000000E2
:1034000000000000000000000000000000000000BC
:10341000010203040607080900000000010203047A
:10342000DDDDDDDDDCBBBBDDDDDDDDDDDDDDDDDD11
:103430009888888888888888777777777788888851
:1034400085555556666666666666666666688888E9
:103450008333333222222222222222222228888DE2
:10346000626565705461736B000000007374617273
:10347000745461736B000000983400080000002051
:10348000AC000000EC25000844350008AC0000202A
:10349000DC180000FC25000800000000000000000F
:1034A000000000000000000000000000010000001B
:1034B00010000000000000000024F40000000000E4
:1034C00000000000000000000000000000000000FC
:1034D00000000000000000000000000000000000EC
:1034E00000000000000000000000000000000000DC
:1034F00000000000000000000000000000000000CC
:1035000000000000000000000000000000000000BB
:1035100000000000AAAAAAAA00000000000C0140B6
:1035200002000000001801400001000000100140EE
:10353000100000000010014020000000000000000A
:043540000000000087
:0400000508000131BD
:00000001FF
