:020000040800F2
:1000000068140020DD0100084B14000841130008AB
:1000100049140008A7040008651700080000000044
:100020000000000000000000000000004501000882
:10003000A90400080000000089010008C514000898
:10004000F7010008F7010008F7010008F7010008B0
:10005000F7010008F7010008F7010008F7010008A0
:10006000F7010008F7010008F7010008F701000890
:10007000F7010008F7010008F7010008F701000880
:10008000F7010008F7010008F7010008F701000870
:10009000F7010008F7010008F7010008F701000860
:1000A000F7010008F7010008F7010008F701000850
:1000B000F7010008F701000851150008F7010008D2
:1000C000F7010008F7010008F7010008F701000830
:1000D000F701000859170008F7010008F7010008A8
:1000E000F7010008F7010008F7010008F701000810
:1000F000F7010008F7010008F7010008F701000800
:10010000F7010008F7010008F7010008F7010008EF
:10011000F7010008F7010008F7010008F7010008DF
:10012000F7010008F7010008F7010008F7010008CF
:10013000DFF80CD000F096F90048004729180008B5
:1001400068140020224B19680868B0E8F00F80F3AB
:100150000988BFF36F8F4FF0000080F311884EF0D5
:100160000D0E70470000000006480068006880F32C
:10017000088862B661B6BFF34F8FBFF36F8F00DFA1
:1001800000BF00BF08ED00E0EFF30980BFF36F8F01
:100190000F4B1A6820E9F00F106008B54FF05000BF
:1001A00080F31188BFF34F8FBFF36F8F01F052FFC1
:1001B0004FF0000080F31188BDE808401968086816
:1001C000B0E8F00F80F30988BFF36F8F704700BF6E
:1001D00018000020EFF305807047000006488047B4
:1001E00006480047FEE7FEE7FEE7FEE7FEE7FEE71C
:1001F000FEE7FEE7FEE7FEE74F15000831010008C5
:10020000202A04DB203A21FA02F00021704721FA6B
:1002100002F3D040C2F120029140084319467047D2
:1002200040EA01039B0703D009E008C9121F08C078
:10023000042AFAD203E011F8013B00F8013B521EF8
:10024000F9D27047D2B201E000F8012B491EFBD26F
:1002500070470022F6E710B513460A4604461946D1
:10026000FFF7F0FF204610BD2DE9F04D81EA0304B1
:1002700004F0004B21F0004514464FF0000A23F033
:10028000004150EA050220D054EA01021DD0C5F316
:100290000A570246C5F31303C1F31300C1F30A560C
:1002A00040F4801543F48013A7EB0608101BD646D4
:1002B00008F2FD3873EB050002D308F1010801E0F4
:1002C00092185B41B8F1000F03DA00200146BDE847
:1002D000F08D00204FF48011064684460EE0171B77
:1002E00073EB050705D3121B63EB050306434CEACA
:1002F000010C49084FEA300092185B4150EA0107AF
:10030000EDD152EA030012D082EA040083EA05012B
:10031000084305D0101BAB4106D20122002306E0A2
:1003200000224FF0004302E06FF0010253101AEB7D
:1003300006004CEB085110EB0A0041EB0B01BDE845
:10034000F04D00F032B870B5C1F30A5201F000452B
:100350000024C1F3130140F2FF3341F480119A42AB
:1003600001DA002070BD40F233439A42A2F23342D8
:1003700003DC5242FFF744FF00E090402C43F1D0F1
:10038000404270BD00F0004230F000400AD0C10D84
:1003900001F56071C0F3160042EA0151C20840073E
:1003A0001143704700200146704710B5141E73F1C9
:1003B000000408DA401C41F1000192185B411A4325
:1003C00001D120F0010010BD2DE9F04D92469B4671
:1003D00011B1B1FA81F202E0B0FA80F22032904617
:1003E00000F052F804460F4640EA0A0041EA0B01C9
:1003F00053465A46084313D0114653EA010019D018
:10040000C8F140025046FFF7FBFE05460E46504637
:100410005946424600F038F8084305D0012004E070
:1004200020463946BDE8F08D0020054346EAE076D7
:100430002C4337430A986305E40AA0EB0800002226
:10044000FD0A44EA47540A3002D500200146E9E794
:10045000010510196941DDE9084500196941BDE848
:10046000F04DA2E7064C074D06E0E06840F00103BE
:1004700094E8070098471034AC42F6D3FFF75CFECF
:10048000FC2300081C240008202A04DB203A00FA80
:1004900002F1002070479140C2F1200320FA03F3DB
:1004A000194390407047FEE7704700002DE9F05F68
:1004B00090F821100024022903D004218163012433
:1004C00085E001680A6822F00E020A6001680A6885
:1004D00022F001020A603F4E3E4FB215DFF8F4C031
:1004E000DFF8F090DFF8ECA0DFF8E8B0DFF8E4E048
:1004F0000168783F13011502ACF1640CA9F15009B1
:10050000AAF13C0AABF1280BAEF1140E4FF480189F
:10051000B14227D9B9420ED0614512D049451DD00C
:10052000514518D0594518D0714501D1424615E0C2
:10053000294EB14201D1012210E0274E1436B142BA
:1005400001D110220AE0244E2836B14206D0224AB8
:100550003C32914201D11A4600E02A461E49091F49
:100560000A602BE0B94213D0614517D0494522D02B
:1005700051451DD059451DD0714501D142461AE063
:10058000B14202D14FF0807215E0134EB14201D159
:10059000012210E0104E1436B14201D110220AE0BF
:1005A0000D4E2836B14206D00B4A3C32914201D161
:1005B0001A4600E02A46074980394A60012180F83E
:1005C0002110002180F82010416B01B1884720469E
:1005D000BDE8F09F80000240080402402DE9F84F7A
:1005E000DFF8C891002409F1040A0AF1040B23463C
:1005F0000F270BF1040ED1E00125A54006EA050204
:10060000AA4276D1DFF8A8C14E68A6EB0C08664571
:100610002BD00DDC032E34D005DC36B3012E19D0DF
:10062000022E2FD11BE0112E16D0122E2AD119E046
:10063000B8F5881F19D006DCB8F5803F15D0B8F59D
:10064000801F1FD111E0B8F5001F0ED0B8F5041FB0
:1006500018D10AE0CB6815E0CB681B1D12E0CB680F
:1006600008330FE0CB680C330CE08B682BB1012B07
:100670004FF0080303D0456104E0042302E0056164
:1006800000E00023FF2A01D8064601E000F104063D
:100690004FEA840501D9A5F12005D6F8008007FAB4
:1006A00005FC28EA0C0803FA05F548EA0508C6F82F
:1006B00000804D68ED0070D53E4DAE6946F00106F4
:1006C000AE61AD6924F0030605F0010500953A4DD1
:1006D00006EB050CDCF80850A607360F07FA06F8FB
:1006E00025EA0805DFF8D480404503D14FF0000823
:1006F00025E052E0DFF8C880404502D14FF0010804
:100700001DE0DFF8C080404502D14FF0020816E03E
:10071000DFF8B480404502D14FF003080FE0DFF866
:10072000AC80404502D14FF0040808E0DFF8A0801B
:10073000404502D14FF0050801E04FF0060808FAE5
:1007400006F848EA0508CCF808804D68D9F800603A
:10075000ED034D4601D5164300E096432E604D68EB
:10076000DAF80060AD03554601D5164300E0964324
:100770002E604D68DBF80060ED025D4601D5164342
:1007800000E096432E604D68DEF80060AD027546CD
:1007900001D5164300E096432E60641C0A68164695
:1007A000E2407FF429AFBDE8F88F0000000401406B
:1007B000000011100010024000000140000801403C
:1007C000000C0140001001400014014000180140DD
:1007D000001C01400AB1016170470904FBE70000F9
:1007E00001488068704700000800002002488168C6
:1007F000027811448160704708000020074810B556
:10080000016841F010010160032000F095F800201C
:1008100000F006F800F03EF8002010BD0020024075
:1008200000B5014687B000221E2000F065F81E20AA
:1008300000F054F81348C16941F00401C161C06976
:1008400005A900F004000690684600F01DF900F0CC
:100850003BF90D494000B0FBF1F10D480B4A491E30
:100860000260416040F2E7320021C0E9032181606B
:1008700000F01EFB10B1012007B000BD044800F0DD
:1008800045FBF9E70010024040420F00000800401D
:10089000300300200F4808B5816941F001018161F2
:1008A000816901F001010091C16941F08051C1618C
:1008B000C069002200F0805000900F21901E00F0CF
:1008C0001BF80548416821F0E06141F0007141608A
:1008D00008BD00000010024000000140002809DBB4
:1008E00000F01F02012191404009800000F1E0204A
:1008F000C0F8001170470000F0B40E4B1B680C46A6
:10090000C3F30223C3F10705042D00D90425191DE3
:10091000072901D2002300E0DB1E012606FA05F1BB
:10092000491E214099409E40761E16403143F0BC3E
:1009300000F019BF0CED00E0064900F0070208685E
:100940004FF6FF03184040EA0220034A10430860B4
:10095000704700000CED00E00000FA052DE9F047BB
:100960000F46050061D0434E306800F00700B842E2
:1009700009D2306820F0070038433060306800F05A
:100980000700B84251D128683B4C810712D5400777
:1009900003D5606840F4E06060602878000703D504
:1009A000606840F4605060606068A96820F0F00002
:1009B000084360602878C00728D06868012810D0F4
:1009C0002168022810D0890700292EDA616821F0F9
:1009D000030101436160FFF703FF804641F288395C
:1009E0000DE021688903EFE78901EDE7FFF7F8FEE5
:1009F000A0EB0801494502D90320BDE8F0876068F3
:100A0000696800F00C00B0EB810FEFD1306800F0A6
:100A10000700B8420BD9306820F007003843306037
:100A2000306800F00700B84201D00120E5E72878DF
:100A3000400705D56068E96820F4E060084360601D
:100A40002878000706D56068296920F4605040EADC
:100A5000C100606000F058F86168084AC1F30311F2
:100A6000515CC8400649086006480068FFF7D8FE98
:100A70000020C2E70020024000100240CC23000802
:100A8000140000200C0000200F2202600C4A536862
:100A900003F003034360536803F0F003836053687B
:100AA00003F4E063C36052684FF4E06303EAD202E8
:100AB00002610448006800F0070008607047000009
:100AC00000100240002002400448054900684968BF
:100AD000044AC1F30221515CC84070471400002051
:100AE00000100240DC2300080448054900684968FA
:100AF000044AC1F3C221515CC84070471400002071
:100B000000100240DC23000812A185B00FC98DE857
:100B10000F0014A0144A006804905168134801F0B3
:100B20000C03042B10D0082B0ED1C1F38343C9034F
:100B30001DF803000AD5516804AAC1F34041515C75
:100B40000A4A5043B0FBF1F005B0704708494843EA
:100B5000FAE7000002030405060708090A0B0C0D5A
:100B60000E0F1010010200000010024000127A0067
:100B700000093D002DE9F84F040070D02078C04DE9
:100B8000C00749D06868C0F38100012807D06868B1
:100B9000C0F38100022809D16868C00306D528681F
:100BA000800339D560680028E7D035E06068B0F58B
:100BB000803F0BD010B1B0F5A02F11D0286820F4E1
:100BC00080302860286820F4802002E0286840F403
:100BD00080302860606890B1FFF702FE06460AE0A8
:100BE000286840F480202860F0E700BFFFF7F8FD98
:100BF000801B642873D828688003F7D50CE0FFF7C2
:100C0000EFFD064605E000BFFFF7EAFD801B642804
:100C1000F0D828688003F7D420789A4E80074FF0E8
:100C200001094FF0000839D5686810F00C0F07D0A3
:100C30006868C0F38100022809D16868C00306D43F
:100C40002868800714D52069012808D110E02069A0
:100C5000B0B1C6F80090FFF7C3FD074605E00AE112
:100C6000FFF7BEFDC01B0228C4D828688007F7D54F
:100C70002868616920F0F80040EAC10028600DE0B2
:100C8000C6F80080FFF7ACFD074604E0FFF7A8FDBB
:100C9000C01B022823D828688007F7D420780007D3
:100CA0002CD57948A169D9B1C0F80090FFF798FD1B
:100CB000074604E0FFF794FDC01B02280FD8686ABE
:100CC0008007F7D571484FF4FA510068B0FBF1F096
:100CD000009000BF0098411E0091FAD20EE080E023
:100CE000C0F80080FFF77CFD074604E0FFF778FDC1
:100CF000C01B022875D8686A8007F7D4207840079F
:100D000060D5E8690027C00008D4E86940F0805049
:100D1000E861E869012700F0805000905C480168B4
:100D2000C90513D40168834641F480710160FFF75F
:100D300057FD824606E000BFFFF752FDA0EB0A0018
:100D400064284ED8DBF80000C005F5D5E06801281E
:100D50000AD008B1052813D0286A20F001002862C3
:100D6000286A20F0040002E0286A40F001002862AE
:100D7000E06841F2883B98B1FFF732FD82460BE014
:100D8000286A40F004002862EEE700BFFFF728FD64
:100D9000A0EB0A0159455AD8286A8007F6D50CE01D
:100DA000FFF71EFD824605E0FFF71AFDA0EB0A01E2
:100DB00059454CD8286A8007F6D41FB1E86920F05D
:100DC0008050E861E06988B36968C1F38101022954
:100DD00044D00228C6F8608004D0FFF701FD044625
:100DE00038E034E0FFF7FCFC074604E0FFF7F8FCCE
:100DF000C01B02282BD828688001F7D4206AB0F5E0
:100E0000803F05D16868A16820F40030084368601D
:100E1000D4E908010843696821F474110843686043
:100E2000C6F86090FFF7DCFC044606E025E000BF52
:100E3000FFF7D6FC001B022809D828688001F7D5E7
:100E40001BE000BFFFF7CCFC001B022802D90320E7
:100E5000BDE8F88F28688001F4D40EE00128F7D0AF
:100E60006868226A00F48031914204D1616A00F41A
:100E70007010884201D00120EAE70020E8E7000076
:100E80000010024000004242800442421400002050
:100E9000007000404FF0E0210428086903D020F0E2
:100EA00004000861704740F00400FAE7704770479B
:100EB00010B5040003D094F83D0010B107E0012004
:100EC00010BD002084F83C00204600F01EF80220EF
:100ED00084F83D00211D206800F040FB012084F8CB
:100EE000460084F83E0084F83F0084F8400084F80F
:100EF000410084F8420084F8430084F8440084F8F8
:100F0000450084F83D00002010BD704790F83D106A
:100F1000012901D001207047022180F83D100168AD
:100F2000CA6842F00102CA6000680E4988420ED0C9
:100F30000D4988420BD0B0F1804F08D00B49884250
:100F400005D00B49884202D00A49884204D1816801
:100F500001F00701062903D0016841F00101016099
:100F600000207047002C0140003401400004004084
:100F700000080040000C0040704770B5044600684F
:100F800001694FF00005C943890715D4C168C943F9
:100F9000890711D4E91E016101202077206880694A
:100FA0008007204602D0FFF7E7FF04E000F098F842
:100FB000204600F096F8257720680169C943490763
:100FC00017D4C168C943490713D46FF00401016104
:100FD000022020772068806910F4407F204602D0EC
:100FE000FFF7CAFF04E000F07BF8204600F079F834
:100FF000257720680169C943090716D4C168C94328
:10100000090712D46FF008010161042020772068DD
:10101000C0698007204602D0FFF7AEFF04E000F071
:101020005FF8204600F05DF8257720680169C94324
:10103000C90617D4C168C943C90613D46FF010019B
:101040000161082020772068C06910F4407F2046A5
:1010500002D0FFF791FF04E000F042F8204600F0D4
:1010600040F8257720680169C943C90708D1C168DC
:10107000C943C90704D1891E0161204600F032F836
:1010800020680169C943090609D4C168C943090632
:1010900005D46FF0800101612046FFF707FF20684B
:1010A0000169C943490609D4C168C943490605D441
:1010B0006FF040010161204600F01EF820680169D0
:1010C000C94389060BD4C168C943890607D46FF0A8
:1010D000200101612046BDE87040FFF7E8BE70BD09
:1010E0007047704700680349884201D1FFF77EBB13
:1010F00070470000000800407047704770B50268F4
:1011000004461068D168536910F00F0F52D003F0F5
:10111000010501F490762E435FD0C20705D0CA05C1
:1011200003D5E26B42F00102E263420705D5DA071C
:1011300003D0E26B42F00202E263820705D5DA07D0
:1011400003D0E26B42F00402E263020707D501F02C
:1011500020022A4303D0E26B42F00802E263E26B12
:10116000002A33D0800604D5880602D5204600F038
:1011700051FA20684069E16BC0F38010090700D480
:1011800028B3204600F038FA2068416949061AD58C
:10119000416921F040014161606BA0B12D4941637B
:1011A000606BFFF783F9002810D0606B416BBDE8DE
:1011B00070400847830610D58B060ED52046BDE843
:1011C000704000F027BA2046FFF797FF70BD204619
:1011D000FFF793FF0020E06370BD03062BD50B06DD
:1011E00029D594F839002128F6D1A068B0F5805FA0
:1011F00001D12069B0B1206A411C216221680078C8
:101200004860E08C401E0004000CE084E4D12068BB
:10121000C16821F08001C1602068C16841F04001CF
:10122000C16070BD206A0088C0F308005060206A69
:10123000801C2062E5E74006F3D54806F1D5D16869
:10124000204621F04001D160202184F8391000F0BF
:1012500076F870BDE915000870B5040004D094F864
:101260003900002510B106E0012070BD84F8385027
:10127000204600F023F8242084F839002068C16853
:1012800021F40051C160204600F00AFA206801698B
:1012900021F4904101612068416921F02A014161F6
:1012A0002068C16841F40051C160E563202084F8E2
:1012B000390084F83A00002070BD000030B585B0D8
:1012C0000024009401940294039400681849884211
:1012D0002CD11848816941F480418161816901F410
:1012E00080410491816941F0040181618069124D5E
:1012F00000F0040004904FF4007000900220019070
:101300000320039069462846FFF768F92815CDE9C0
:101310000004694628460294FFF760F9002205217F
:101320002520FFF7E9FA2520FFF7D8FA05B030BDF0
:10133000003801400010024000080140704770472B
:10134000FEE700002DE9F04F85B0002439480094F5
:10135000019402940394816941F0100181618169D3
:1013600001F010010491816941F0080181618169F6
:1013700001F008010491816941F0400181618169B6
:1013800001F040010491816941F02001816181698E
:1013900001F020010491816941F0040181618069BB
:1013A000DFF8948000F004000490012230214046D0
:1013B000FFF710FADFF88490012202214846FFF778
:1013C00009FA0122DFF878A0170239465046FFF7E4
:1013D00001FADFF870B001224FF4E0615846FFF7E0
:1013E000F9F9302001250326CDE90005CDE90246B3
:1013F00069464046FFF7F2F80220CDE90005CDE945
:10140000024669464846FFF7E9F800970396CDE99A
:10141000015469465046FFF7E1F84FF47060CDE99A
:101420000005CDE9024669465846FFF7D7F805B0F2
:10143000BDE8F08F0010024000100140000C014098
:101440000018014000140140FEE7FEE70EB51A4CFB
:101450001A4EDFF86C804FF0000A4FF416754FF00B
:10146000010B4FF400774FF47A7900BFCDF800B04C
:10147000CDE90154103696E80F00103E00F086FCCE
:10148000002239464046FFF7A5F9484600F028FA01
:10149000CDF800A0CDE90154103696E80F00103EBB
:1014A00000F074FC012239464046FFF793F94846A4
:1014B00000F016FADAE700000000B44378000020DC
:1014C0000014014010B5502080F31188BFF34F8FF6
:1014D000BFF36F8F00F098FE18B104494FF08050B1
:1014E0000860002080F3118810BD000004ED00E0CA
:1014F00030B58FB028216846FEF7ABFE14210AA84C
:10150000FEF7A7FE01210804CDE900100024029493
:1015100002250491CDE907504FF4E0100990684688
:10152000FFF728FB08B172B6FEE70F20CDE90A05E8
:101530004FF48060CDE90C4002210AA80E94FFF719
:101540000DFA002801D072B6FEE70FB030BD70472B
:101550000148FFF712BD000030030020F0B502681B
:101560001C4B1D4D1D4E1E4F1E4C4FF0804C984283
:1015700009D0A04207D0604505D0A84203D0B042B0
:1015800001D0B84204D122F0700E4A6842EA0E023D
:10159000984209D0A04207D0604505D0A84203D0A8
:1015A000B04201D0B84203D122F44075CA682A4340
:1015B0004D6922F080022A4302608A68C2620A688A
:1015C0008262984201D0A04201D1096901630121E0
:1015D0004161F0BD002C01400004004000080040C3
:1015E000000C00400034014010B5406A0021C18564
:1015F000C184FFF782FD10BD0168CA6822F49072B1
:10160000CA6001684A6922F001024A61202180F81B
:101610003A10704710B590F83A10222901D00220F4
:1016200010BD82684FF480539A4201D1016921B103
:10163000816A9A421BD04AB10AE00268816A526804
:10164000C2F308020A80816A891C08E0026972B14B
:101650000268526802F07F020A70816A491C816246
:10166000C18D491E0904090CC18503D016E002682A
:101670005268F1E70168CA6822F02002CA60016876
:10168000CA6822F48072CA6001684A6922F00102C5
:101690004A61202180F83A10FFF750FE002010BD6B
:1016A00070B5044600680169E26821F440511143B5
:1016B00001612169A0680843616908432168CA681B
:1016C00041F20C639A430243CA6020684169A269EF
:1016D00021F44071114341611E492068884202D1C2
:1016E000FFF702FA01E0FFF7EFF900EBC00101EBB1
:1016F0000012606864218000B2FBF0F3B3FBF1F3E9
:101700006FF018067343B2FBF0F5B2FBF0F605EB91
:101710008305322303EB0515B5FBF1F5B6FBF1F6B6
:1017200005F0F00505EB0615B2FBF0F6B2FBF0F0A4
:10173000B0FBF1F06FF01802504306EB800003EBB2
:101740000010B0FBF1F0216800F00F002844886021
:1017500070BD0000003801400148FFF7CFBC000019
:101760009C000020FEE70907090E002804DB00F1B9
:10177000E02080F80014704700F00F0000F1E02036
:1017800080F8141D704702E008C8121F08C1002A23
:10179000FAD170477047002001E001C1121F002AF2
:1017A000FBD170470EB5184C184EDFF864804FF02F
:1017B000000A4FF416754FF0010B4FF480674FF499
:1017C0007A7900BFCDF800B0CDE9015496E80F005A
:1017D00000F0DCFA002239464046FEF7FBFF48469F
:1017E00000F07EF8CDF800A0CDE9015496E80F0096
:1017F00000F0CCFA012239464046FEF7EBFF48469E
:1018000000F06EF8DEE700000000B443780000202E
:101810000014014010B504460420FFF73BFB0148CB
:10182000046010BD980000208EB0FEF7E7FFFFF7C0
:101830005FFEFFF787FD234821490C2201604FF42A
:10184000E131416000218160C160C0E90412816121
:10185000C161FFF701FD08B172B6FEE74820FFF74E
:10186000D9FF1C2218496846FEF7DAFC00216846B9
:1018700000F042F8154C14491C2220601C3107A8C6
:10188000FEF7CEFC002107A800F036F8606000F0FB
:101890002EF80F4D4FF40064002221462846FEF733
:1018A00099FF4FF4FA76304600F01AF801222146EB
:1018B0002846FEF78FFF304600F012F8FEE70000E2
:1018C000003801409C000020942300080000002004
:1018D0000014014001460020842900D0C81C704734
:1018E00010B500B9012000F051FB002010BD10B56B
:1018F00000F072FB002010BD7FB50D460446416923
:10190000B0F9080081B1A16971B1FFF7E3FFD4E933
:1019100005128DE80700D4E900102B46226900F07B
:1019200048FC039004B070BDFFF7D4FF03A9CDE9D4
:101930000001208A2B4682B2D4E9001000F00CFC92
:10194000012801D00020EDE70398EBE72DE9F041F5
:10195000184C0F46054666692068001D00F052FAD3
:1019600038B9206890F82C1001208840A169814383
:10197000A161681C07D137B12168BDE8F0410E486C
:10198000091D00F083BA20683544B54245602168DE
:1019900005D2A068BDE8F041091D00F05FBA60689B
:1019A000091D00F05BFA206B854200D22563BDE87B
:1019B000F081000018000020540400202DE9F041BF
:1019C000054600F06FFA2E4C2069401C206120680B
:1019D0002C4F10B1E06940B32DE02560206901284B
:1019E00029D1002606EB860007EB800000F028FADC
:1019F000761C072EF6D323488C3000F021FA2148BC
:101A0000A03000F01DFA1F48B43000F019FA1D484C
:101A1000C83000F015FA1B48DC3000F011FA194804
:101A20008C3060601430A06005E02068E96AC06A0C
:101A3000884200D82560E06A401CE062E96A012023
:101A4000A26988401043A06101EB810007EB800090
:101A5000291D00F01BFA00F045FAE06900280CD0BF
:101A60002068E96AC06A884207D207494FF080506F
:101A70000860BFF34F8FBFF36F8FBDE8F0810000A8
:101A8000180000207803002004ED00E010B50446A3
:101A900090F8510058B101280CD002280FD05020E6
:101AA00080F31188BFF34F8FBFF36F8FFEE7206B7A
:101AB00000F02CFA2046BDE8104000F027BA10BD17
:101AC00010484FF44061420706D0C01D0D4920F078
:101AD0000700411AC1F540610B4A00230144C2E9E5
:101AE00000030839103A21F0070111604B600B60C8
:101AF0000B1AC0E9001393604FF000405360D060B0
:101B0000704700006804002064000020144E154C4B
:101B1000A6F1C8074FF08058DFF84C9012E000BFE4
:101B200000F0C0F9F068C568281D00F06BF9206965
:101B3000401E2061E068401EE06000F0D3F92846B6
:101B4000FFF7A4FFE0680028EAD138680128F9D936
:101B5000C9F80080BFF34F8FBFF36F8FF2E700002B
:101B6000400400201800002004ED00E02DE9F047BB
:101B70009A46DDE9098481466FF00303206B03EB8D
:101B800082021044089D20F00706700707D05020FD
:101B900080F31188BFF34F8FBFF36F8FFEE72318D9
:101BA0000A5C83F834200A5C12B1401C1028F6D37A
:101BB000002784F84370072D00D30625E562C4E9A9
:101BC0001157201D00F047F904F1180000F043F907
:101BD0002461C5F107006462A061E76484F8507075
:101BE00052464946304600F0BFF82060B8F1000F79
:101BF00001D0C8F80040BDE8F087000030B51149B9
:101C000000E011460A688242FBD34B685C188442AC
:101C100003D1406818444860084643681C18944241
:101C200009D1084C103C2468A24209D052681A44D9
:101C300042600A6812680260814200D0086030BDCC
:101C40000460F9E76400002006484168096829B18A
:101C50004168C968C9684968016370474FF0FF313E
:101C6000FAE700001800002008484068401C4FF0C8
:101C7000500080F3118804D0BFF34F8FBFF36F8FF4
:101C8000FEE7BFF34F8FBFF36F8FFEE76C000020BE
:101C90002DE9F0410546002700F0D4F9314E3068B7
:101CA00008B9FFF70DFFF06805424BD1C5B3083501
:101CB00068070ED005F00700C0F10800054468076A
:101CC00007D0502080F31188BFF34F8FBFF36F8F81
:101CD000FEE72DB37068854234D8224810300146A3
:101CE0000C6801E020460C466168A94202D22168D6
:101CF0000029F7D131688C4224D00768216801603F
:101D000060680837411B10290FD96019420708D0B5
:101D1000502080F31188BFF34F8FBFF36F8FFEE722
:101D200010E041606560FFF769FF61687068401A04
:101D30007060B268904200D2B060F0680143002049
:101D4000C4E9000100F0C4FA780707D0502080F3FE
:101D50001188BFF34F8FBFF36F8FFEE73846BDE8A2
:101D6000F08100005400002010B5031F4FF0807474
:101D70001C601B1F21F001011960191F024B0B6031
:101D8000143940380A6010BD691C00082DE9F0477D
:101D900004460F4615469846DDF820900A98FEF74F
:101DA000F1FA164A164BFEF75FFAFEF7CCFA064632
:101DB000B9F1000F01D0012200E000221FFA88F1E2
:101DC0002846FEF707FD0A20FFF78AFD0025BFB26F
:101DD00010E0204601223946FEF7FCFC0120FFF707
:101DE0007FFD204600223946FEF7F4FC0120FFF774
:101DF00077FD6D1CB542ECDBBDE8F087CDCCCCCCDB
:101E0000CCCCEC3FD0E9013201699A60D0E90123E2
:101E10005A604A68824201D182684A6000220261A7
:101E20000868401E0860086870470000034B0360A4
:101E300003F154000860802010607047DC0000202F
:101E400000F108014FF0FF32C0E90112C1600161E9
:101E500000210160704700210161704730B50B68B7
:101E60005A1C02D000F1080202E0026904E0224696
:101E7000546825689D42FAD953684B6099608A601E
:101E8000516008610168491C016030BD42684A60C8
:101E900093688B6093685960916008610168491C80
:101EA00001607047502080F31188BFF34F8FBFF35C
:101EB0006F8F0A494868401C486001280CD10848C7
:101EC000006810F0FF0F07D0502080F31188BFF397
:101ED0004F8FBFF36F8FFEE7704700006C0000204C
:101EE00004ED00E00849486828B1401E486001D16F
:101EF00080F311887047502080F31188BFF34F8F13
:101F0000BFF36F8FFEE700006C00002070B5002863
:101F100027D0144DA0F108046168E868014207D198
:101F2000502080F31188BFF34F8FBFF36F8FFEE710
:101F300022683AB1502080F31188BFF34F8FBFF36E
:101F40006F8FFEE78143616000F07CF8606869682C
:101F5000084468602046FFF751FEBDE8704000F07D
:101F6000B7B970BD540000204FF0E020002101619E
:101F7000816105494FF47A720968B1FBF2F1491E9B
:101F800041610721016170471400002010B5020073
:101F900014D00F48806B38B1502080F31188BFF304
:101FA0004F8FBFF36F8FFEE700F04CF80021104613
:101FB000FFF7CCFC00F08CF9002807D105494FF061
:101FC00080500860BFF34F8FBFF36F8F10BD0000CC
:101FD0001800002004ED00E010B586B00024039442
:101FE00005AA04A903A80494FFF720FFDDE9030173
:101FF0000094CDE9011000230EA11048059A00F0CD
:10200000D8F80F490028486311D0502080F3118878
:10201000BFF34F8FBFF36F8F4FF0FF300863012086
:10202000C8614C6106B0BDE8104000F041B806B090
:1020300010BD000049444C45000000000D1B000885
:10204000180000200248816B491C81637047000022
:10205000180000201448816B11B1012141627047C2
:10206000002141628169B1FA81F1C1F11F0101EBE7
:1020700081020E4951F822306BB101EB820101F16E
:1020800008034A6852684A609A4201D152684A601D
:10209000D16801607047502080F31188BFF34F8FE3
:1020A000BFF36F8FFEE700001800002078030020C8
:1020B0001CB5264908780190FF20087008788DF833
:1020C00000009DF800009DF8002000F0F000904214
:1020D00007D0502080F31188BFF34F8FBFF36F8F6D
:1020E000FEE79DF800001A4B00F050001870072022
:1020F000986005E09DF8002052008DF80020401EF9
:102100009DF800201206F5D49860032807D05020CF
:1021100080F31188BFF34F8FBFF36F8FFEE74FF44B
:1021200040709860019808700A48016841F4700195
:102130000160016841F070410160FFF715FF002068
:102140005860FEF711F800201CBD000000E400E01C
:102150006C00002020ED00E02DE9FF5F8346DDE903
:102160000E87994616468A469000FFF791FD0500B6
:102170001CD05420FFF78CFD040014D000202563F0
:1021800084F85100CDE90240CDE900874B46324644
:1021900051465846FFF7EAFC2046FFF70FFC0120A6
:1021A00004B0BDE8F09F2846FFF7B0FE4FF0FF30C7
:1021B000F6E7F0B585B0DDE90B640A9DA6B1DCB1A8
:1021C000542700972663022684F85160002604AF46
:1021D000CDE90246CDE90057FFF7C8FC2046FFF7DE
:1021E000EDFB049805B0F0BD502080F31188BFF3DB
:1021F0004F8FBFF36F8FFEE7502080F31188BFF33E
:102200004F8FBFF36F8FFEE72DE9F0412E4C002773
:10221000A06B40B1206A401C2062606A00B10127B7
:102220003846BDE8F0816669761C666113D1606846
:10223000006838B1502080F31188BFF34F8FBFF38F
:102240006F8FFEE76068A1686160A060A06A401CB3
:10225000A062FFF7F9FC206BDFF87080864209D39B
:102260006068006880B16068C068C5686868864258
:102270000DD220632068C06A00EB800158F821006D
:102280000128CAD90127C8E74FF0FF30F1E7281D20
:10229000FFF7B8FDA86A18B105F11800FFF7B2FD05
:1022A000E86A0121A26981401143A16100EB80012C
:1022B00008EB8100291DFFF7E9FDE86A2168C96A7A
:1022C0008842CDD30127CBE71800002078030020F7
:1022D0002DE9F0472C4D00242746A86B38B1FFF7B5
:1022E000E1FDA86B401EA863A86B40B146E05020FA
:1022F00080F31188BFF34F8FBFF36F8FFEE729691B
:10230000224E0120D1B3A6F1B40980463068E8B16D
:10231000F068C46804F11800FFF774FD201DFFF792
:1023200071FDE06AAA6908FA00F11143A96100EBA6
:10233000800109EB8100211DFFF7A8FDE06A2968F3
:10234000C96A8842E2D3C5F82480DFE70CB1FFF701
:102350007BFC2C6A44B14646FFF756FF00B16E6223
:10236000641EF9D100202862686A38B10849012743
:1023700038070860BFF34F8FBFF36F8FFFF7B2FDD1
:102380003846BDE8F0870000180000202C0400202B
:1023900004ED00E0F02300084D14000800000000E8
:1023A00000000000800000000000000000000000AD
:1023B000E4230008A5170008FDFF0000000000004E
:1023C000800000000000000000000000000000008D
:1023D00000000000010203040607080900000000D5
:1023E00001020304626565705461736B00000000B4
:1023F00073746172745461736B0000001C240008D4
:10240000000000209C00000086170008B824000887
:102410009C000020CC13000096170008000000006C
:10242000000000000100000010000000000000009B
:102430000024F40000000000000000000000000084
:10244000000000000000000000000000000000008C
:10245000000000000000000000000000000000007C
:10246000000000000000000000000000000000006C
:10247000000000000000000000000000000000005C
:10248000000000000000000000000000AAAAAAAAA4
:1024900000000000000C0140020000000018014094
:1024A0000001000000100140100000000010014079
:0824B000200000000000000004
:0400000508000131BD
:00000001FF
