:020000040800F2
:1000000020150020DD010008D31800082F17000874
:10001000D11800080B050008191E00080000000098
:100020000000000000000000000000004501000882
:100030000D0500080000000089010008751900087E
:10004000F7010008F7010008F7010008F7010008B0
:10005000F7010008F7010008F7010008F7010008A0
:10006000F7010008F7010008F7010008F701000890
:10007000F7010008F7010008F7010008F701000880
:10008000F7010008F7010008F7010008F701000870
:10009000F7010008F7010008F7010008F701000860
:1000A000F7010008F7010008F7010008F701000850
:1000B000F7010008F7010008011A0008F70100081D
:1000C000F7010008F7010008F7010008F701000830
:1000D000F7010008F91D0008F7010008F701000802
:1000E000F7010008F7010008F7010008F701000810
:1000F000F7010008F7010008F7010008F701000800
:10010000F7010008F7010008F7010008F7010008EF
:10011000F7010008F7010008F7010008F7010008DF
:10012000F7010008F7010008F7010008F7010008CF
:10013000DFF80CD000F0C8F900480047E91E0008BD
:1001400020150020224B19680868B0E8F00F80F3F2
:100150000988BFF36F8F4FF0000080F311884EF0D5
:100160000D0E70470000000006480068006880F32C
:10017000088862B661B6BFF34F8FBFF36F8F00DFA1
:1001800000BF00BF08ED00E0EFF30980BFF36F8F01
:100190000F4B1A6820E9F00F106008B54FF05000BF
:1001A00080F31188BFF34F8FBFF36F8F02F0DEFA39
:1001B0004FF0000080F31188BDE808401968086816
:1001C000B0E8F00F80F30988BFF36F8F704700BF6E
:1001D00024000020EFF305807047000006488047A8
:1001E00006480047FEE7FEE7FEE7FEE7FEE7FEE71C
:1001F000FEE7FEE7FEE7FEE7FF1900083101000811
:10020000202A04DB203A21FA02F00021704721FA6B
:1002100002F3D040C2F120029140084319467047D2
:1002200040EA01039B0703D009E008C9121F08C078
:10023000042AFAD203E011F8013B00F8013B521EF8
:10024000F9D27047D2B201E000F8012B491EFBD26F
:1002500070470022F6E710B513460A4604461946D1
:10026000FFF7F0FF204610BD80EA010210B502F052
:100270000043400022D04A001FD0010E01EB126162
:10028000C0F35600C2F3560240F4000042F40002EC
:10029000A0FB022000047F39140400D0401C50EA67
:1002A000124001D44000491EC2B20C0604EBD0102B
:1002B000401C4008802A02D003E0002010BD20F03E
:1002C0000100002900DA0020184310BD2DE9F04D8F
:1002D00081EA030404F0004B21F0004514464FF07E
:1002E000000A23F0004150EA050220D054EA01023E
:1002F0001DD0C5F30A570246C5F31303C1F313001B
:10030000C1F30A5640F4801543F48013A7EB0608A6
:10031000101BD64608F2FD3873EB050002D308F136
:10032000010801E092185B41B8F1000F03DA0020E8
:100330000146BDE8F08D00204FF48011064684464A
:100340000EE0171B73EB050705D3121B63EB0503C8
:1003500006434CEA010C49084FEA300092185B4111
:1003600050EA0107EDD152EA030012D082EA0400FC
:1003700083EA0501084305D0101BAB4106D20122D8
:10038000002306E000224FF0004302E06FF001027C
:1003900053101AEB06004CEB085110EB0A0041EB2E
:1003A0000B01BDE8F04D00F032B870B5C1F30A5250
:1003B00001F000450024C1F3130140F2FF3341F482
:1003C00080119A4201DA002070BD40F233439A4214
:1003D000A2F2334203DC5242FFF712FF00E09040EA
:1003E0002C43F1D0404270BD00F0004230F000409C
:1003F0000AD0C10D01F56071C0F3160042EA015147
:10040000C20840071143704700200146704710B5ED
:10041000141E73F1000408DA401C41F10001921827
:100420005B411A4301D120F0010010BD2DE9F04DD0
:1004300092469B4611B1B1FA81F202E0B0FA80F225
:100440002032904600F052F804460F4640EA0A0077
:1004500041EA0B0153465A46084313D0114653EA6A
:10046000010019D0C8F140025046FFF7C9FE054609
:100470000E4650465946424600F038F8084305D02B
:10048000012004E020463946BDE8F08D00200543F8
:1004900046EAE0762C4337430A986305E40AA0EB6A
:1004A00008000022FD0A44EA47540A3002D5002021
:1004B0000146E9E7010510196941DDE90845001920
:1004C0006941BDE8F04DA2E7064C074D06E0E06843
:1004D00040F0010394E8070098471034AC42F6D38B
:1004E000FFF72AFE142B0008342B0008202A04DB17
:1004F000203A00FA02F1002070479140C2F1200337
:1005000020FA03F3194390407047FEE7704700005C
:100510002DE9F05F90F821100024022903D0042176
:100520008163012485E001680A6822F00E020A60F6
:1005300001680A6822F001020A603F4E3E4FB21580
:10054000DFF8F4C0DFF8F090DFF8ECA0DFF8E8B0F7
:10055000DFF8E4E00168783F13011502ACF1640CA8
:10056000A9F15009AAF13C0AABF1280BAEF1140E27
:100570004FF48018B14227D9B9420ED0614512D04C
:1005800049451DD0514518D0594518D0714501D164
:10059000424615E0294EB14201D1012210E0274E1A
:1005A0001436B14201D110220AE0244E2836B1425D
:1005B00006D0224A3C32914201D11A4600E02A4636
:1005C0001E49091F0A602BE0B94213D0614517D0BC
:1005D000494522D051451DD059451DD0714501D105
:1005E00042461AE0B14202D14FF0807215E0134E3C
:1005F000B14201D1012210E0104E1436B14201D1B6
:1006000010220AE00D4E2836B14206D00B4A3C3289
:10061000914201D11A4600E02A46074980394A60D2
:10062000012180F82110002180F82010416B01B1D8
:1006300088472046BDE8F09F800002400804024041
:100640002DE9F84FDFF8C891002409F1040A0AF1F6
:10065000040B23460F270BF1040ED1E00125A54022
:1006600006EA0502AA4276D1DFF8A8C14E68A6EBD9
:100670000C0866452BD00DDC032E34D005DC36B3D8
:10068000012E19D0022E2FD11BE0112E16D0122EC2
:100690002AD119E0B8F5881F19D006DCB8F5803FDB
:1006A00015D0B8F5801F1FD111E0B8F5001F0ED08E
:1006B000B8F5041F18D10AE0CB6815E0CB681B1D04
:1006C00012E0CB6808330FE0CB680C330CE08B688A
:1006D0002BB1012B4FF0080303D0456104E0042344
:1006E00002E0056100E00023FF2A01D8064601E090
:1006F00000F104064FEA840501D9A5F12005D6F8DA
:10070000008007FA05FC28EA0C0803FA05F548EA18
:100710000508C6F800804D68ED0070D53E4DAE6905
:1007200046F00106AE61AD6924F0030605F001054F
:1007300000953A4D06EB050CDCF80850A607360F7D
:1007400007FA06F825EA0805DFF8D480404503D10A
:100750004FF0000825E052E0DFF8C880404502D1A4
:100760004FF001081DE0DFF8C080404502D14FF096
:10077000020816E0DFF8B480404502D14FF00308CC
:100780000FE0DFF8AC80404502D14FF0040808E0EC
:10079000DFF8A080404502D14FF0050801E04FF09E
:1007A000060808FA06F848EA0508CCF808804D68FB
:1007B000D9F80060ED034D4601D5164300E096439D
:1007C0002E604D68DAF80060AD03554601D516433A
:1007D00000E096432E604D68DBF80060ED025D4658
:1007E00001D5164300E096432E604D68DEF80060A8
:1007F000AD02754601D5164300E096432E60641C99
:100800000A681646E2407FF429AFBDE8F88F000081
:1008100000040140000011100010024000000140DF
:1008200000080140000C014000100140001401408C
:1008300000180140001C01400AB101617047090421
:10084000FBE70000014880687047000014000020AA
:1008500002488168027811448160704714000020CA
:10086000074810B5016841F010010160032000F055
:1008700095F8002000F006F800F03EF8002010BDCA
:100880000020024000B5014687B000221E2000F083
:1008900065F81E2000F054F81348C16941F00401C6
:1008A000C161C06905A900F004000690684600F027
:1008B0001DF900F03BF90D494000B0FBF1F10D4886
:1008C0000B4A491E0260416040F2E7320021C0E954
:1008D0000321816000F05CFB10B1012007B000BD76
:1008E000044800F097FBF9E70010024040420F0077
:1008F00000080040E80300200F4808B5816941F076
:1009000001018161816901F001010091C16941F03A
:100910008051C161C069002200F0805000900F2119
:10092000901E00F01BF80548416821F0E06141F09D
:100930000071416008BD000000100240000001404D
:10094000002809DB00F01F020121914040098000CE
:1009500000F1E020C0F8001170470000F0B40E4B29
:100960001B680C46C3F30223C3F10705042D00D90D
:100970000425191D072901D2002300E0DB1E0126F2
:1009800006FA05F1491E214099409E40761E164008
:100990003143F0BC01F041BA0CED00E0064900F033
:1009A000070208684FF6FF03184040EA0220034A96
:1009B00010430860704700000CED00E00000FA05ED
:1009C0002DE9F0470F46050061D0434E306800F036
:1009D0000700B84209D2306820F007003843306081
:1009E000306800F00700B84251D128683B4C8107BD
:1009F00012D5400703D5606840F4E0606060287855
:100A0000000703D5606840F4605060606068A968C2
:100A100020F0F000084360602878C00728D068689C
:100A2000012810D02168022810D0890700292EDA69
:100A3000616821F0030101436160FFF703FF804615
:100A400041F288390DE021688903EFE78901EDE77C
:100A5000FFF7F8FEA0EB0801494502D90320BDE8E5
:100A6000F0876068696800F00C00B0EB810FEFD18F
:100A7000306800F00700B8420BD9306820F007005A
:100A800038433060306800F00700B84201D00120E0
:100A9000E5E72878400705D56068E96820F4E0605C
:100AA000084360602878000706D56068296920F44B
:100AB000605040EAC100606000F058F86168084A80
:100AC000C1F30311515CC84006490860064800683C
:100AD000FFF7D8FE0020C2E70020024000100240CD
:100AE000E42A000820000020180000200F220260E5
:100AF0000C4A536803F003034360536803F0F003A8
:100B00008360536803F4E063C36052684FF4E063AA
:100B100003EAD20202610448006800F0070008609E
:100B200070470000001002400020024004480549C0
:100B300000684968044AC1F30221515CC84070470B
:100B40002000002000100240F42A00080448054953
:100B500000684968044AC1F3C221515CC84070472B
:100B60002000002000100240F42A000812A185B0E5
:100B70000FC98DE80F0014A0144A00680490516852
:100B8000134801F00C03042B10D0082B0ED1C1F335
:100B90008343C9031DF803000AD5516804AAC1F3B1
:100BA0004041515C0A4A5043B0FBF1F005B0704738
:100BB00008494843FAE7000002030405060708094C
:100BC0000A0B0C0D0E0F1010010200000010024065
:100BD00000127A0000093D002DE9F84F040070D0A2
:100BE0002078C04DC00749D06868C0F38100012853
:100BF00007D06868C0F38100022809D16868C00383
:100C000006D52868800339D560680028E7D035E02C
:100C10006068B0F5803F0BD010B1B0F5A02F11D0B7
:100C2000286820F480302860286820F4802002E0C2
:100C3000286840F480302860606890B1FFF702FEB9
:100C400006460AE0286840F480202860F0E700BFEC
:100C5000FFF7F8FD801B642873D828688003F7D558
:100C60000CE0FFF7EFFD064605E000BFFFF7EAFDE9
:100C7000801B6428F0D828688003F7D420789A4E27
:100C800080074FF001094FF0000839D5686810F06F
:100C90000C0F07D06868C0F38100022809D168688A
:100CA000C00306D42868800714D52069012808D11C
:100CB00010E02069B0B1C6F80090FFF7C3FD074609
:100CC00005E00AE1FFF7BEFDC01B0228C4D8286872
:100CD0008007F7D52868616920F0F80040EAC10074
:100CE00028600DE0C6F80080FFF7ACFD074604E081
:100CF000FFF7A8FDC01B022823D828688007F7D477
:100D0000207800072CD57948A169D9B1C0F80090A6
:100D1000FFF798FD074604E0FFF794FDC01B02288B
:100D20000FD8686A8007F7D571484FF4FA51006808
:100D3000B0FBF1F0009000BF0098411E0091FAD284
:100D40000EE080E0C0F80080FFF77CFD074604E07D
:100D5000FFF778FDC01B022875D8686A8007F7D4B2
:100D60002078400760D5E8690027C00008D4E8690A
:100D700040F08050E861E869012700F08050009061
:100D80005C480168C90513D40168834641F4807149
:100D90000160FFF757FD824606E000BFFFF752FDF6
:100DA000A0EB0A0064284ED8DBF80000C005F5D59A
:100DB000E06801280AD008B1052813D0286A20F07D
:100DC00001002862286A20F0040002E0286A40F04E
:100DD00001002862E06841F2883B98B1FFF732FDDC
:100DE00082460BE0286A40F004002862EEE700BF6C
:100DF000FFF728FDA0EB0A0159455AD8286A800759
:100E0000F6D50CE0FFF71EFD824605E0FFF71AFD60
:100E1000A0EB0A0159454CD8286A8007F6D41FB1C7
:100E2000E86920F08050E861E06988B36968C1F33F
:100E30008101022944D00228C6F8608004D0FFF75F
:100E400001FD044638E034E0FFF7FCFC074604E00F
:100E5000FFF7F8FCC01B02282BD828688001F7D4C4
:100E6000206AB0F5803F05D16868A16820F40030A1
:100E700008436860D4E908010843696821F47411E3
:100E800008436860C6F86090FFF7DCFC044606E0A3
:100E900025E000BFFFF7D6FC001B022809D8286810
:100EA0008001F7D51BE000BFFFF7CCFC001B022838
:100EB00002D90320BDE8F88F28688001F4D40EE041
:100EC0000128F7D06868226A00F48031914204D189
:100ED000616A00F47010884201D00120EAE7002026
:100EE000E8E7000000100240000042428004424255
:100EF00020000020007000404FF0E0210428086925
:100F000003D020F004000861704740F00400FAE7C5
:100F10007047704770B590F83C20012A2CD001240E
:100F200080F83C40022280F83D2003685A689D68A2
:100F300022F070060A6832435A60104B02689A42E7
:100F40000ED00F4B9A420BD0B2F1804F08D00D4B10
:100F50009A4205D00C4B9A4202D00C4B9A4204D1D3
:100F6000496825F080031943916080F83D400021D5
:100F700080F83C10084670BD022070BD002C014076
:100F8000003401400004004000080040000C004014
:100F900010B5040003D094F83D0010B107E0012023
:100FA00010BD002084F83C00204600F01FF802200D
:100FB00084F83D00211D206800F028FD012084F800
:100FC000460084F83E0084F83F0084F8400084F82E
:100FD000410084F8420084F8430084F8440084F817
:100FE000450084F83D00002010BD000008B50068F1
:100FF0000649884208D10648C16941F00801C1612B
:10100000C06900F00800009008BD0000000C00401E
:101010000010024090F83D10012901D001207047D6
:10102000022180F83D100168CA6842F00102CA60DE
:1010300000680E4988420ED00D4988420BD0B0F1AD
:10104000804F08D00B49884205D00B49884202D016
:101050000A49884204D1816801F00701062903D0BA
:10106000016841F00101016000207047002C01403F
:10107000003401400004004000080040000C004023
:1010800070B5044690F83C00012817D0012584F87B
:101090003C50022084F83D002068826822F07702EC
:1010A00022F47F4282600868502830D00DDC20286E
:1010B0004DD005DC98B310283BD148E0022070BD2C
:1010C000302844D0402834D139E0602828D0702816
:1010D00006D0B0F5805F2CD0B0F5005F29D10AE0D2
:1010E000CB68D1E90121206800F0D6FC2068816836
:1010F00041F0770109E0CB68D1E90121206800F0D7
:10110000CBFC2068816841F48041816011E0CA68AD
:101110004968206800F094FD5021206807E016E03F
:10112000CA684968206800F09CFD6021206800F0D2
:10113000BDFC84F83D50002084F83C0070BDCA68B6
:101140004968206800F07CFD40212068EFE72268B4
:1011500001461046EBE7704770B504460068016928
:101160004FF00005C943890715D4C168C9438907F1
:1011700011D4E91E01610120207720688069800771
:10118000204602D0FFF7E7FF04E000F0BFF820465A
:1011900000F04EF9257720680169C943490717D443
:1011A000C168C943490713D46FF0040101610220EB
:1011B00020772068806910F4407F204602D0FFF736
:1011C000CAFF04E000F0A2F8204600F031F92577CC
:1011D00020680169C943090716D4C168C9430907D2
:1011E00012D46FF008010161042020772068C069E3
:1011F0008007204602D0FFF7AEFF04E000F086F83B
:10120000204600F015F9257720680169C943C90611
:1012100017D4C168C943C90613D46FF01001016126
:10122000082020772068C06910F4407F204602D053
:10123000FFF791FF04E000F069F8204600F0F8F8AD
:10124000257720680169C943C90708D1C168C94326
:10125000C90704D1891E0161204600F0EBF820681F
:101260000169C943090609D4C168C943090605D4FF
:101270006FF0800101612046FFF74AFE2068016996
:10128000C943490609D4C168C943490605D46FF06A
:1012900040010161204600F0D7F820680169C94388
:1012A00089060BD4C168C943890607D46FF02001B1
:1012B00001612046BDE87040FFF72BBE70BD000005
:1012C00000B585B000210091019102910391006861
:1012D0000B49884211D10B48816941F004018161B9
:1012E0008069694600F0040004900120009002200B
:1012F000019003900448FFF7A3F905B000BD00007A
:10130000000C00400010024000080140704770B51A
:10131000044690F83C000D4601280AD0012084F8CC
:101320003C0042B1042A18D0082A2AD00C2A4DD1F8
:1013300039E0022070BD206800F0C0FB20688169A0
:1013400041F0080181612068816921F00401816117
:10135000206881692A69114311E0206800F0DEFBF2
:101360002068816941F4006181612068816921F40C
:1013700080618161206881692A6941EA0221816175
:1013800024E0206800F000FC2068C16941F00801F9
:10139000C1612068C16921F00401C1612068C1698F
:1013A0002A69114311E0206800F022FC2068C1691D
:1013B00041F40061C1612068C16921F48061C161AB
:1013C0002068C1692A6941EA0221C161002084F8CC
:1013D0003C0070BD10B5040003D094F83D0010B17E
:1013E00007E0012010BD002084F83C00204600F0FA
:1013F0001EF8022084F83D00211D206800F006FB45
:10140000012084F8460084F83E0084F83F0084F808
:10141000400084F8410084F8420084F8430084F8D6
:10142000440084F8450084F83D00002010BD70475A
:101430007047000000680349884201D1FFF708BAED
:1014400070470000000800407047704770B50268A0
:1014500004461068D168536910F00F0F52D003F0A2
:10146000010501F490762E435FD0C20705D0CA056E
:1014700003D5E26B42F00102E263420705D5DA07C9
:1014800003D0E26B42F00202E263820705D5DA077D
:1014900003D0E26B42F00402E263020707D501F0D9
:1014A00020022A4303D0E26B42F00802E263E26BBF
:1014B000002A33D0800604D5880602D5204600F0E5
:1014C000F8FB20684069E16BC0F38010090700D485
:1014D00028B3204600F0DFFB2068416949061AD591
:1014E000416921F040014161606BA0B12D49416328
:1014F000606BFFF70DF8002810D0606B416BBDE802
:1015000070400847830610D58B060ED52046BDE8EF
:10151000704000F0CEBB2046FFF797FF70BD20461D
:10152000FFF793FF0020E06370BD03062BD50B0689
:1015300029D594F839002128F6D1A068B0F5805F4C
:1015400001D12069B0B1206A411C21622168007874
:101550004860E08C401E0004000CE084E4D1206868
:10156000C16821F08001C1602068C16841F040017C
:10157000C16070BD206A0088C0F308005060206A16
:10158000801C2062E5E74006F3D54806F1D5D16816
:10159000204621F04001D160202184F8391000F06C
:1015A000C5F870BD871C000870B5040004D094F81D
:1015B0003900002510B106E0012070BD84F83850D4
:1015C000204600F023F8242084F839002068C16800
:1015D00021F40051C160204600F0B2FB206801698F
:1015E00021F4904101612068416921F02A014161A3
:1015F0002068C16841F40051C160E563202084F88F
:10160000390084F83A00002070BD000030B585B084
:1016100000240094019402940394006818498842BD
:101620002CD11848816941F480418161816901F4BC
:1016300080410491816941F0040181618069124D0A
:1016400000F0040004904FF400700090022001901C
:101650000320039069462846FEF7F2FF2815CDE9DE
:101660000004694628460294FEF7EAFF002205219D
:101670002520FFF773F92520FFF762F905B030BD8B
:1016800000380140001002400008014090F83A3054
:10169000202B22D1F9B1F2B190F83830012B1CD0B7
:1016A00081628285C2850021C163222280F83A20AE
:1016B00080F838100168CA6842F48072CA60016814
:1016C0004A6942F001024A610068C16841F02001A4
:1016D000C160002070470120704702207047000061
:1016E00000680C49884214D10B480D490B4B027815
:1016F00008880A2A1A5406D0401C0880012206498C
:101700000848FFF7C3BF0020088007490120087080
:10171000F4E7704700380140040000203001002049
:1017200010000020F0000020000000207047FEE7BD
:101730002DE9F04F85B000243848009401940294BC
:101740000394816941F010018161816901F0100108
:101750000491816941F004018161816901F0040112
:101760000491816941F008018161816901F00801FA
:101770000491816941F040018161816901F040017A
:101780000491816941F0200181618069DFF89090C6
:1017900000F020000490012230214846FFF74CF869
:1017A000DFF880A0012202215046FFF745F8012210
:1017B000DFF874B0170239465846FFF73DF84FF48A
:1017C0007068012241461948FFF736F8302001259C
:1017D0000326CDE90005CDE9024669464846FEF7F5
:1017E0002FFF0220CDE90005CDE9024669465046AB
:1017F000FEF726FF00970396CDE901546946584647
:10180000FEF71EFFCDF800800396CDE9015469462E
:101810000648FEF715FF05B0BDE8F08F0010024046
:1018200000100140000C014000180140001401406C
:1018300010B58EB000240794089409940A940B9470
:101840001C2168460C94FEF704FD20481E490160E7
:101850004821C0E9011442F21071C0E9031480214B
:101860008161FFF795FB08B172B6FEE74FF4805037
:10187000079007A91548FFF703FC08B172B6FEE709
:101880001248FFF7A7FD08B172B6FEE70B940BA94B
:101890000E480C94FFF73EFB08B172B6FEE76020DD
:1018A000009041F28830CDE90104002269460748E2
:1018B0000494FFF72CFD08B172B6FEE70348FFF76A
:1018C000FFFC0EB010BD0000000C0040A80000207E
:1018D000FEE7FEE70122214CD50229462046FEF70D
:1018E000ABFFC82000F0D8FA002229462046FEF7B8
:1018F000A3FFC82000F0D0FADFF86490194EDFF89B
:1019000068A0DFF8688067154FF03F4B00223D4626
:1019100039462046FEF790FF642000F031FB01229B
:1019200029462046FEF788FF642000F029FB49463F
:10193000304600F07BFD5146584600F077FD4546A5
:1019400041464FF07C5000F071FD0949304600F0EF
:101950006DFD0021284600F069FDD7E70014014025
:101960009A99993ECDCC4CBECDCCCCBECDCCCC3E04
:101970009A9999BE10B5502080F31188BFF34F8F0C
:10198000BFF36F8F00F0CCFF18B104494FF08050C7
:101990000860002080F3118810BD000004ED00E015
:1019A00030B58FB028216846FEF753FC14210AA8F1
:1019B000FEF74FFC01210804CDE900100024029439
:1019C00002250491CDE907504FF4E01009906846D4
:1019D000FFF702F908B172B6FEE70F20CDE90A055C
:1019E0004FF48060CDE90C4002210AA80E94FEF766
:1019F000E7FF002801D072B6FEE70FB030BD704798
:101A00000148FFF7A9BB0000E8030020F0B5026819
:101A10001C4B1D4D1D4E1E4F1E4C4FF0804C9842CE
:101A200009D0A04207D0604505D0A84203D0B042FB
:101A300001D0B84204D122F0700E4A6842EA0E0288
:101A4000984209D0A04207D0604505D0A84203D0F3
:101A5000B04201D0B84203D122F44075CA682A438B
:101A60004D6922F080022A4302608A68C2620A68D5
:101A70008262984201D0A04201D10969016301212B
:101A80004161F0BD002C014000040040000800400E
:101A9000000C00400034014010B5846842EA032283
:101AA00024F47F440A432243826010BD826822F0FE
:101AB00070020A4342F0070181607047F0B5026A84
:101AC00022F001020262036A42688469124E24F025
:101AD00073050C682C4323F002058B682B430D4DD6
:101AE000A84201D0B04205D123F00807CB683B43A0
:101AF00023F00403A84201D0B04205D14D6922F47D
:101B0000407215438A692A4342608461496841638F
:101B10000362F0BD002C014000340140F0B5026AC0
:101B200022F010020262026A436884690D6824F49C
:101B3000E64444EA05248D6822F0200242EA0512B8
:101B40000F4D104EA84201D0B04206D1CF6822F00E
:101B5000800242EA071222F04002A84201D0B042BD
:101B600007D14D6923F4406343EA85038D6943EA55
:101B7000850343608461496881630262F0BD0000AF
:101B8000002C014000340140F0B5026A22F480725A
:101B90000262026A4368C46922F4007224F0730589
:101BA0000C68124E2C438D6842EA05220E4DA84265
:101BB00001D0B04206D1CF6822F4006242EA072287
:101BC00022F48062A84201D0B04207D14D6923F4CB
:101BD000405343EA05138D6943EA05134360C4612A
:101BE0004968C1630262F0BD002C0140003401402D
:101BF00030B5026A22F480520262046A4268C36904
:101C00000D6823F4E64343EA05238D6824F4005469
:101C100044EA0534084DA84202D0084DA84204D138
:101C20004D6922F4804242EA85124260C3614968EC
:101C30000164046230BD0000002C0140003401400A
:101C400010B5036A046A24F001040462846924F074
:101C5000F00444EA021423F00A020A438461026297
:101C600010BD10B5036A23F0100303628369046A90
:101C700023F4704343EA023224F0A00343EA011143
:101C80008261016210BD10B5406A0021C185C18426
:101C9000FFF7DBFB10BD0168CA6822F49072CA60CE
:101CA00001684A6922F001024A61202180F83A1055
:101CB000704710B590F83A10222901D0022010BDCB
:101CC00082684FF480539A4201D1016921B1816A3F
:101CD0009A421BD04AB10AE00268816A5268C2F394
:101CE00008020A80816A891C08E0026972B10268F0
:101CF000526802F07F020A70816A491C8162C18DBC
:101D0000491E0904090CC18503D016E00268526817
:101D1000F1E70168CA6822F02002CA600168CA6857
:101D200022F48072CA6001684A6922F001024A61A5
:101D3000202180F83A10FFF7D3FC002010BD0000EE
:101D400070B5044600680169E26821F4405111430E
:101D500001612169A0680843616908432168CA6874
:101D600041F20C639A430243CA6020684169A26948
:101D700021F44071114341611E492068884202D11B
:101D8000FEF7E4FE01E0FEF7D1FE00EBC00101EB3F
:101D90000012606864218000B2FBF0F3B3FBF1F342
:101DA0006FF018067343B2FBF0F5B2FBF0F605EBEB
:101DB0008305322303EB0515B5FBF1F5B6FBF1F610
:101DC00005F0F00505EB0615B2FBF0F6B2FBF0F0FE
:101DD000B0FBF1F06FF01802504306EB800003EB0C
:101DE0000010B0FBF1F0216800F00F00284488607B
:101DF00070BD00000038014010B50548FFF726FB14
:101E0000BDE81040012203490148FFF73FBC000034
:101E1000F000002004000020FEE70907090E00285A
:101E200004DB00F1E02080F80014704700F00F00A0
:101E300000F1E02080F8141D704702E008C8121F6E
:101E400008C1002AFAD170477047002001E001C1A3
:101E5000121F002AFBD17047094C4FF48065002205
:101E600029462046FEF7E8FC642000F089F80122AC
:101E700029462046FEF7E0FC642000F081F8EEE7FA
:101E80000014014010B504460420FFF735F801485E
:101E9000046010BDA400002070B5054600244FF476
:101EA0007A7603E0304600F005F8641CAC42F9D3C2
:101EB00070BD000070B54FF0E0240022656909494B
:101EC000A36909684843A1699942FCD002D2A3EBF7
:101ED000010302E0A5EB010633441A440B4682429B
:101EE000F1D370BDA40000208EB0FEF7B9FCFFF75F
:101EF00057FDFFF71DFC1C481A490C2201604FF4E6
:101F0000E131416000218160C160C0E9041281615A
:101F1000C161FFF749FB08B172B6FEE7FFF788FC25
:101F20004820FFF7AFFF012210490F48FFF7AEFB33
:101F30001C220F496846FEF773F90021684600F03D
:101F40002BF80A4C0A491C2260601C3107A8FEF7D6
:101F500067F9002107A800F01FF8A06000F017F84B
:101F6000FEE7000000380140F000002004000020DF
:101F7000AC2A000801460020842900D0C81C704704
:101F800010B500B9012000F08DFB002010BD10B588
:101F900000F0AEFB002010BD7FB50D460446416940
:101FA000B0F9080081B1A16971B1FFF7E3FFD4E98D
:101FB00005128DE80700D4E900102B46226900F0D5
:101FC00084FC039004B070BDFFF7D4FF03A9CDE9F2
:101FD0000001208A2B4682B2D4E9001000F048FCB0
:101FE000012801D00020EDE70398EBE72DE9F0414F
:101FF000184C0F46054666692068001D00F08EFAF1
:1020000038B9206890F82C1001208840A1698143DC
:10201000A161681C07D137B12168BDE8F0410E48C5
:10202000091D00F0BFBA20683544B54245602168FB
:1020300005D2A068BDE8F041091D00F09BBA6068B8
:10204000091D00F097FA206B854200D22563BDE898
:10205000F0810000240000200C0500202DE9F04153
:10206000054600F0ABFA2E4C2069401C2061206828
:102070002C4F10B1E06940B32DE0256020690128A4
:1020800029D1002606EB860007EB800000F064FAF9
:10209000761C072EF6D323488C3000F05DFA2148D9
:1020A000A03000F059FA1F48B43000F055FA1D482E
:1020B000C83000F051FA1B48DC3000F04DFA1948E6
:1020C0008C3060601430A06005E02068E96AC06A66
:1020D000884200D82560E06A401CE062E96A01207D
:1020E000A26988401043A06101EB810007EB8000EA
:1020F000291D00F057FA00F081FAE06900280CD0A1
:102100002068E96AC06A884207D207494FF08050C8
:102110000860BFF34F8FBFF36F8FBDE8F081000001
:10212000240000203004002004ED00E010B5044637
:1021300090F8510058B101280CD002280FD050203F
:1021400080F31188BFF34F8FBFF36F8FFEE7206BD3
:1021500000F068FA2046BDE8104000F063BA10BDF8
:1021600010484FF44061420706D0C01D0D4920F0D1
:102170000700411AC1F540610B4A00230144C2E93E
:1021800000030839103A21F0070111604B600B6021
:102190000B1AC0E9001393604FF000405360D06009
:1021A000704700002005002070000020144E154CE0
:1021B000A6F1C8074FF08058DFF84C9012E000BF3E
:1021C00000F0FCF9F068C568281D00F0A7F9206947
:1021D000401E2061E068401EE06000F00FFA2846D3
:1021E000FFF7A4FFE0680028EAD138680128F9D990
:1021F000C9F80080BFF34F8FBFF36F8FF2E7000085
:10220000F80400202400002004ED00E02DE9F04750
:102210009A46DDE9098481466FF00303206B03EBE6
:1022200082021044089D20F00706700707D0502056
:1022300080F31188BFF34F8FBFF36F8FFEE7231832
:102240000A5C83F834200A5C12B1401C1028F6D3D3
:10225000002784F84370072D00D30625E562C4E902
:102260001157201D00F083F904F1180000F07FF9E8
:102270002461C5F107006462A061E76484F85070CE
:1022800052464946304600F0BFF82060B8F1000FD2
:1022900001D0C8F80040BDE8F087000030B5114912
:1022A00000E011460A688242FBD34B685C18844206
:1022B00003D1406818444860084643681C1894429B
:1022C00009D1084C103C2468A24209D052681A4433
:1022D00042600A6812680260814200D0086030BD26
:1022E0000460F9E77000002006484168096829B1D8
:1022F0004168C968C9684968016370474FF0FF3198
:10230000FAE700002400002008484068401C4FF015
:10231000500080F3118804D0BFF34F8FBFF36F8F4D
:10232000FEE7BFF34F8FBFF36F8FFEE7780000200B
:102330002DE9F0410546002700F010FA314E3068D3
:1023400008B9FFF70DFFF06805424BD1C5B308355A
:1023500068070ED005F00700C0F1080005446807C3
:1023600007D0502080F31188BFF34F8FBFF36F8FDA
:10237000FEE72DB37068854234D8224810300146FC
:102380000C6801E020460C466168A94202D221682F
:102390000029F7D131688C4224D007682168016098
:1023A00060680837411B10290FD96019420708D00F
:1023B000502080F31188BFF34F8FBFF36F8FFEE77C
:1023C00010E041606560FFF769FF61687068401A5E
:1023D0007060B268904200D2B060F06801430020A3
:1023E000C4E9000100F000FB780707D0502080F31B
:1023F0001188BFF34F8FBFF36F8FFEE73846BDE8FC
:10240000F08100006000002010B5031F4FF08074C1
:102410001C601B1F21F001011960191F024B0B608A
:10242000143940380A6010BD092300082DE9FE4F19
:102430004FF400080D46404501DB012400E0002474
:10244000DFF85490DFF854A0404501DB494600E036
:102450005146FDF709FF4FF4FA760094104FCDE98D
:10246000016097E80F0000F01DF8454501DB0124ED
:1024700000E00024454501DB494600E0514628467E
:10248000FDF7F2FE0094CDE90160103797E80F00E8
:1024900000F008F8BDE8FE8F0000B4430000B4C3AC
:1024A000840000202DE9F04704460F461546984663
:1024B000DDF820900A98FDF797FF164A164BFDF7B6
:1024C00005FFFDF772FF0646B9F1000F01D00122AA
:1024D00000E000221FFA88F12846FEF7ADF901203E
:1024E000FFF74EFD0025BFB210E02046012239461D
:1024F000FEF7A2F90120FFF743FD204600223946EE
:10250000FEF79AF90120FFF73BFD6D1CB542ECDBAD
:10251000BDE8F087CDCCCCCCCCCCEC3FD0E90132BF
:1025200001699A60D0E901235A604A68824201D168
:1025300082684A60002202610868401E08600868DC
:1025400070470000034B036003F1540008608020D3
:10255000106070479401002000F108014FF0FF3235
:10256000C0E90112C16001610021016070470021D2
:102570000161704730B50B685A1C02D000F10802A7
:1025800002E0026904E02246546825689D42FAD9B7
:1025900053684B6099608A60516008610168491C0A
:1025A000016030BD42684A6093688B6093685960EF
:1025B000916008610168491C01607047502080F3F8
:1025C0001188BFF34F8FBFF36F8F0A494868401CD3
:1025D000486001280CD10848006810F0FF0F07D0B0
:1025E000502080F31188BFF34F8FBFF36F8FFEE74A
:1025F000704700007800002004ED00E008494868BA
:1026000028B1401E486001D180F3118870475020E6
:1026100080F31188BFF34F8FBFF36F8FFEE7000089
:102620007800002070B5002827D0144DA0F10804D0
:102630006168E868014207D1502080F31188BFF338
:102640004F8FBFF36F8FFEE722683AB1502080F3BF
:102650001188BFF34F8FBFF36F8FFEE78143616037
:1026600000F07CF860686968084468602046FFF7FD
:1026700015FEBDE8704000F0B7B970BD60000020E5
:102680004FF0E02000210161816105494FF47A7229
:102690000968B1FBF2F1491E4161072101617047F0
:1026A0002000002010B5020014D00F48806B38B114
:1026B000502080F31188BFF34F8FBFF36F8FFEE779
:1026C00000F04CF800211046FFF790FC00F08CF968
:1026D000002807D105494FF080500860BFF34F8FA5
:1026E000BFF36F8F10BD00002400002004ED00E058
:1026F00010B586B00024039405AA04A903A8049485
:10270000FFF720FFDDE903010094CDE9011000236C
:102710000EA11048059A00F0D8F80F490028486328
:1027200011D0502080F31188BFF34F8FBFF36F8F0C
:102730004FF0FF3008630120C8614C6106B0BDE86E
:10274000104000F041B806B010BD000049444C45AF
:1027500000000000AD210008240000200248816B29
:10276000491C816370470000240000201448816BDD
:1027700011B1012141627047002141628169B1FAC2
:1027800081F1C1F11F0101EB81020E4951F82230A4
:102790006BB101EB820101F108034A6852684A609B
:1027A0009A4201D152684A60D16801607047502056
:1027B00080F31188BFF34F8FBFF36F8FFEE70000E8
:1027C00024000020300400201CB526490878019020
:1027D000FF20087008788DF800009DF800009DF833
:1027E000002000F0F000904207D0502080F31188C4
:1027F000BFF34F8FBFF36F8FFEE79DF800001A4BBA
:1028000000F0500018700720986005E09DF8002047
:1028100052008DF80020401E9DF800201206F5D4CD
:102820009860032807D0502080F31188BFF34F8FA2
:10283000BFF36F8FFEE74FF4407098600198087007
:102840000A48016841F470010160016841F070417B
:102850000160FFF715FF00205860FDF785FC0020A0
:102860001CBD000000E400E07800002020ED00E046
:102870002DE9FF5F8346DDE90E87994616468A46B5
:102880009000FFF755FD05001CD05420FFF750FDC8
:10289000040014D00020256384F85100CDE90240E3
:1028A000CDE900874B46324651465846FFF7AEFC0D
:1028B0002046FFF7D3FB012004B0BDE8F09F284677
:1028C000FFF7B0FE4FF0FF30F6E7F0B585B0DDE979
:1028D0000B640A9DA6B1DCB154270097266302263B
:1028E00084F85160002604AFCDE90246CDE90057D7
:1028F000FFF78CFC2046FFF7B1FB049805B0F0BD54
:10290000502080F31188BFF34F8FBFF36F8FFEE726
:10291000502080F31188BFF34F8FBFF36F8FFEE716
:102920002DE9F0412E4C0027A06B40B1206A401CDD
:102930002062606A00B101273846BDE8F08166690F
:10294000761C666113D16068006838B1502080F34E
:102950001188BFF34F8FBFF36F8FFEE76068A168E8
:102960006160A060A06A401CA062FFF7BDFC206B04
:10297000DFF87080864209D36068006880B16068C3
:10298000C068C568686886420DD220632068C06A46
:1029900000EB800158F821000128CAD90127C8E7B7
:1029A0004FF0FF30F1E7281DFFF7B8FDA86A18B116
:1029B00005F11800FFF7B2FDE86A0121A269814024
:1029C0001143A16100EB800108EB8100291DFFF795
:1029D000E9FDE86A2168C96A8842CDD30127CBE7BF
:1029E00024000020300400202DE9F0472C4D002465
:1029F0002746A86B38B1FFF7E1FDA86B401EA8631E
:102A0000A86B40B146E0502080F31188BFF34F8F90
:102A1000BFF36F8FFEE72969224E0120D1B3A6F1E3
:102A2000B40980463068E8B1F068C46804F1180061
:102A3000FFF774FD201DFFF771FDE06AAA6908FA2F
:102A400000F11143A96100EB800109EB8100211D18
:102A5000FFF7A8FDE06A2968C96A8842E2D3C5F891
:102A60002480DFE70CB1FFF73FFC2C6A44B14646F7
:102A7000FFF756FF00B16E62641EF9D10020286294
:102A8000686A38B10849012738070860BFF34F8FDB
:102A9000BFF36F8FFFF7B2FD3846BDE8F087000047
:102AA00024000020E404002004ED00E0082B0008CE
:102AB000D5180008000000000000000080000000A1
:102AC0000000000000000000FC2A0008591E000859
:102AD000FDFF00000000000080000000000000007A
:102AE00000000000000000000000000001020304DC
:102AF0000607080900000000010203046265657012
:102B00005461736B000000007374617274546173DC
:102B10006B000000342B000800000020A80000001B
:102B20003A1E0008DC2B0008A800002078140000E2
:102B30004A1E000800000000000000000000000025
:102B40000000000000000000010000001000000074
:102B5000000000000024F40000000000000000005D
:102B60000000000000000000000000000000000065
:102B70000000000000000000000000000000000055
:102B80000000000000000000000000000000000045
:102B90000000000000000000000000000000000035
:102BA0000000000000000000000000000000000025
:102BB000AAAAAAAA00000000000C0140020000001E
:102BC000001801400001000000100140100000004A
:0C2BD00000100140200000000000000088
:0400000508000131BD
:00000001FF
